S01800006275696C642F6D6963617A2F6D61696E2E73726563E5
S11300000C945B000C94532E0C945D2E0C94672E70
S11300100C94712E0C947B2E0C94852E0C948F2EA4
S11300200C94BF2E0C9478000C9478000C94502DF2
S11300300C94952C0C943A2D0C94322E0C94402C48
S11300400C94842C0C94C92E0C9478000C94780095
S11300500C9478000C9478000C9478000C9478003C
S11300600C94452D0C9478000C9478000C94780032
S11300700C9478000C9478000C9478000C9478001C
S11300800C9478000C9478000C94780079237B24E9
S113009037256B25C3252E2634268E26AA26B1267F
S11300A0EA26AD27D427E92790289328D729052ABB
S11300B000081C18141011241FBECFEFD0E1DEBFBE
S11300C0CDBF11E0A0E0B1E0E4EFF2E600E00BBF49
S11300D002C007900D92AA33B107D9F716E0AAE33C
S11300E0B1E001C01D92A63CB107E1F70C944F2A80
S11300F00C9400008FB7F894992708958FBF089542
S1130100982F8FB7F894282FE92FFF27E257F94F3C
S113011080818F3FB1F48091A206891791F080917C
S11301208A068F3F19F490938A0607C08091A2062D
S1130130E82FFF27E257F94F90839093A20680E0BF
S113014001C085E02FBF992708952F923F924F92C7
S11301505F926F927F928F929F92AF92BF92CF9253
S1130160DF92EF92FF920F931F93CF93DF93CDB75C
S1130170DEB72A970FB6F894DEBF0FBECDBF8FB798
S1130180F894282F332729873A872090D903309071
S1130190DA034090DB035090DC0366242EE4A22EA5
S11301A093E8B92EC62CD62CE62CF62C062D162D4B
S11301B0222D332D442D552D662D762D862D962DED
S11301C00E94332F29833A834B835C836D837E8320
S11301D08F839887822E932EA42EB52EC62ED72ECB
S11301E0E82EF92E240135017694679457944794A8
S11301F000E2282D392D4A2D5B2D6C2D7D2D8E2D61
S11302009F2D0E943D30A22EB32EC42ED52EC601A2
S1130210B501640D751D861D971D97FF05C09F7759
S11302206F5F7F4F8F4F9F4F6093D9037093DA03B3
S11302308093DB039093DC0339853FBF2A960FB686
S1130240F894DEBF0FBECDBFDF91CF911F910F9108
S1130250FF90EF90DF90CF90BF90AF909F908F90E2
S11302607F906F905F904F903F902F900895EF9202
S11302700F931F93AE2D99E0899FF0011124E45B45
S1130280FE4F4083518362837383048315832683E3
S11302903783A17080858E7F8A2B8260808783E07C
S11302A00E9480001F910F91EF9008958FB7F894EA
S11302B0992720910401309105018FBFC901089548
S11302C0982F8FB7F894482F552730E0E92FFF2750
S11302D0EC5DFB4F8081861709F431E04FBF832F1B
S11302E099270895282F91E08FB7F894382F662323
S11302F039F0E22FFF27EC5DFB4F8081882331F436
S1130300E22FFF27EC5DFB4F608390E03FBF892F16
S1130310992708958FB7F8949927109227048FBFCF
S1130320089590910601981719F481E090E00895DA
S113033080E090E0089580913F01882319F480E0E3
S113034090E0089581E090E008951092160499E0F9
S1130350EAE2F4E088E09193815087FFFCCF0895AE
S1130360382F86EB93E0FC01E30FF11D2081DC01C3
S1130370A60FB11D8C9180832C938081EAE2F4E076
S1130380DF01A80FB11D3C93E20FF11D60830895B6
S1130390CF93DF93382F05C06C2F832F0E94B001B9
S11303A03C2F332319F1832F9927FC01EA54FC4F86
S11303B02081BC016150704077FDBC01EB01D595F3
S11303C0C795EC2FFF27EA54FC4F8081E82FFF27C5
S11303D0E45CFB4F80819927E22FFF27E45CFB4F0D
S11303E02081821B910918161906B4F2DF91CF916E
S11303F00895282F893018F082E090E008959091B4
S11304001604993019F481E090E00895A82FBB27D1
S1130410A65DBB4F8C91893019F089E090E0089576
S1130420E92FFF27EA54FC4F20839C939F5F90930E
S113043016049150892F0E94C80180E090E008952D
S1130440FC0153E0F695E7955A95E1F7E857F94F23
S1130450208133278770907041E050E0BA0102C0D8
S1130460660F771F8A95E2F7262337232115310576
S113047009F09A01C9010895CF93DF93282F809141
S1130480D6052817E0F481508093D6052817B8F4D0
S1130490382F822F9927880F991FDC01AB53BC4F4B
S11304A0FC01E85BFB4F8281938181939193ED0181
S11304B08A819B818D939D932F5F2317A0F3DF91F6
S11304C0CF910895CF93DF93EC01A0E0B091730135
S11304D0AB1718F580914006482F5527CA0157FDE0
S11304E00796887FFA01E81BF90BEE0FFF1FEE0F4A
S11304F0FF1FEE5BF94F60E070E02081318188815D
S113050099812817390711F461E070E0672B29F409
S1130510AF5F4F5F5F4FAB1708F38A2F9927DF91C7
S1130520CF9108950E946202982F809173019817C9
S113053019F480E090E0089580914006890F912D90
S1130540911D9C01887F9370281B390BC901880F6A
S1130550991F880F991F8E5B994F0895282F893012
S113056038F4E82FFF27EC58FE4F8081893019F4C6
S113057080E090E0089580E008C08F5F293018F093
S1130580E9E0F0E001C0FF272E2FE22FFF27EC580F
S1130590FE4FE081E93011F0E21779F799270895C9
S11305A0DC01862F2C9130E06EE0482F5527822FF6
S11305B08F5F0E940431292F892F9927FC01EE0FA8
S11305C0FF1FE80FF91FE85AFB4F808199278F71AD
S11305D0907084239523892B11F02C9308953F5F09
S11305E03E3028F38EE08C9308959C01FC01A3E037
S11305F0F695E795AA95E1F7E75BFE4F2770307013
S113060081E090E002C0880F991F2A95E2F7982FA5
S1130610909580818923808308959091C4038917DC
S113062018F4282F225F01C0282F691718F4962F79
S1130630925F01C0962F8E3019F4862F9927089562
S11306406E3011F499270895291708F4682F862F1E
S113065099270895CF93DF93FC01DC011196ED01F6
S113066089819927982F882721813327822B932BDF
S11306708F7D8183892F9927898380E090E0DF91A2
S1130680CF910895FC016683872F99278783089566
S1130690FC0180818C50992708950F931F93CF9369
S11306A0DF938C01EB01672B19F00E9448038883C8
S11306B0C8010B96DF91CF911F910F910895FC0112
S11306C0828599270895FC01862F845F808308958D
S11306D0FC0187819927382F222786819927822B2D
S11306E0932B08958F929F92AF92BF92CF92DF92F5
S11306F0EF92FF920F931F93CF93DF93C82E7B014A
S11307004A01D22EFB018081482F5527CA01820F4E
S1130710911D0396202F33272817390718F482E0F8
S113072090E026C0DD2011F15B01A40EB51EE501A9
S113073021961D2D1E5F8C2F861B081B011B802FED
S11307409927AC01BE01CE01810F911D0E94EB30AF
S11307508114910421F0F7018081F4018083F70171
S11307608081810F8083F501C182D98280E090E08D
S1130770DF91CF911F910F91FF90EF90DF90CF9079
S1130780BF90AF909F908F900895CF93DF93FC011B
S1130790DC011196ED0189819927982F8827218101
S11307A03327822B932B80628183892F9927898316
S11307B080E090E0DF91CF910895FC016287089575
S11307C0EF92FF920F931F937C018B010E944803C9
S11307D0F80190819F5F891B682FC7010E94630302
S11307E01F910F91FF90EF900895EF92FF920F9356
S11307F01F937C018B010E944803F80190819F5F45
S1130800980F692FC7010E9463031F910F91FF90F6
S1130810EF900895CF93DF93EB010E944D03FC0109
S1130820209729F090819F5F8881891B888380812C
S11308308F5FE80FF11DCF01DF91CF910895FC0187
S113084073E0F695E7957A95E1F7E955FC4F208139
S113085033278770907041E050E0BA0102C0660F00
S1130860771F8A95E2F7262337232115310509F0EE
S11308709A01C90108951F93CF93DF93182F8034F1
S113088018F082E090E030C0C82FDD27CE010E942E
S11308901F04882319F489E090E026C0FE01A3E038
S11308A0F695E795AA95E1F7E955FC4FC770D07026
S11308B081E090E002C0880F991FCA95E2F7982F53
S11308C090958081892380838091790699270E945D
S11308D01F04882311F01093790680913A01815006
S11308E080933A0180E090E0DF91CF911F910895C9
S11308F0CF93DF93893010F4693018F082E090E0F0
S113090048C0C82FDD27C658D94F9881903411F1BB
S1130910E92FFF27EE0FFF1FE25EFA4F8081861753
S1130920C9F481818883892F0E943B0488818034A3
S113093059F48091370481508093370405C0FD0138
S11309402183892F0E943B0481E080931D0580E070
S113095090E01FC0E92FFF27EE0FFF1FE25EFA4F62
S113096081818034A1F0A92FBB27AA0FBB1FA25EEF
S1130970BA4FFD019181E92FFF27EE0FFF1FE25EC1
S1130980FA4F808121818617D1F2203461F786E005
S113099090E0DF91CF910895CF92DF92FF920F9371
S11309A01F93CF93F62E893008F053C098E0961722
S11309B008F44FC0C82EDD24F601E658F94F8081B3
S11309C0803479F0282F3327F901E20FF31FE25E18
S11309D0FA4F80818F1511F08181F2CF20343105D7
S11309E0C1F540913A01403419F420E430E02DC0BF
S11309F080917906082F1127F801B3E0F695E79561
S1130A00BA95E1F7E955FC4F98012770307081E001
S1130A1090E002C0880F991F2A95E2F72081282BC5
S1130A202083842F8F5F80933A01803469F004C05F
S1130A30CF5FCF73C0937906C09179068C2F992725
S1130A400E941F048823A1F798013327922F203492
S1130A5019F480E490E018C0D601A658B94F4C911F
S1130A60403429F4809137048F5F80933704892FB1
S1130A709927FC01E80FF91FE25EFA4F4183F082E7
S1130A802C9321E020931D05CF911F910F91FF908E
S1130A90DF90CF900895CF93DF93582FEB014F3F12
S1130AA011F440E006C0FB01E40FF11D8281480F00
S1130AB04E5F8881682F77270CC0FE01E20FF31F79
S1130AC0DF0111968181851771F0FD018181480F45
S1130AD04E5F80E090E0461710F081E090E0242F14
S1130AE03327882351F3C901DF91CF910895FF92F1
S1130AF00F931F93CF93DF93182FEB01F42E022F44
S1130B004FEF0E944B059881891718F489E090E013
S1130B1008C02F2D40E050E0BE01812F0E947203D7
S1130B209927DF91CF911F910F91FF900895282F5E
S1130B30FB01DB01A40FB11D8081481720F4FD01E6
S1130B408181821719F080E090E00895CD01039629
S1130B5008951F93CF93DF93182FEB014FEF0E945B
S1130B604B05482F8881481718F080E090E004C0B6
S1130B70BE01812F0E949705DF91CF911F910895A7
S1130B80CF92DF92FF920F931F93CF93DF93382F6F
S1130B90DB01F22EFB01E40FF11DEF0121968C9194
S1130BA0682F7727461718F48181831719F086E098
S1130BB090E030C0332789819927281B390BFE0127
S1130BC0E80FF91F329611278E2F8A1BA801481BA4
S1130BD05109FF2011F4225030401216130614F468
S1130BE0421B530B6901C60ED11CC601019608179E
S1130BF0190718F482E090E00DC0862F820F8C93C1
S1130C00BF01CF01820F931F0E94EB30F110F982D4
S1130C1080E090E0DF91CF911F910F91FF90DF90E2
S1130C20CF900895CF93DF93282FFB01DB01A40F0E
S1130C30B11DED0121968081481720F4FD018181C9
S1130C40821719F080E090E002C089819927DF9132
S1130C50CF9108951F93CF93DF93182FEB014FEF9C
S1130C600E944B05482F8881481718F080E090E0D7
S1130C7005C0BE01812F0E9412069927DF91CF91F2
S1130C801F910895CF92DF92EF92FF920F931F93DB
S1130C90CF93DF93EC01CC24DD2486E0E82EF12C05
S1130CA0EC0EFD1EF70181819927182F00278E81F4
S1130CB09927082B192B0E9456010817190761F070
S1130CC0F70181819927982F88272E813327822B3A
S1130CD0932B8F5F9F4F19F4C1E0CC2ED12CC6010A
S1130CE0DF91CF911F910F91FF90EF90DF90CF9004
S1130CF00895882311F06E9A08956E9808950F93BD
S1130D001F93CF93DF93C0914001CC2359F41091EA
S1130D1009011F3F39F401E06C2F802F0E9460010C
S1130D20882319F481E090E050C000936901809118
S1130D304501882311F0C0936901809169018823DA
S1130D4009F441C080913F01823071F59091060110
S1130D50992351F520E030E0809108018F3F11F490
S1130D6021E030E0232BE1F48F3F79F0282F332763
S1130D70F901EB54F94F8081809308018F3F11F4FE
S1130D80109307011083C90102C08FEF90E0809394
S1130D901C0581E080933F018CE00E94800004C028
S1130DA01093060190933F010E949B01C82FDD27F9
S1130DB0CC2331F48C2F0E947906C093A406C09AE8
S1130DC080E090E002C085E090E0DF91CF911F9138
S1130DD00F9108951F93182F81E090E090933E01A6
S1130DE080933D01109245010E947F0610934401B7
S1130DF086E00E9480001F9108958FB7F894682FB1
S1130E0077278091A4039091A5032CB53DB506B630
S1130E1002FE03C001962CB53DB5AA27BB27442783
S1130E205527DC0199278827822B932BA42BB52BDC
S1130E306FBFBC01CD01089580E8809372011092C8
S1130E40AF031092820410921B051092A506089518
S1130E508FB7F8949927109224048FBF08950E94A5
S1130E605F03992708951F93CF93DF93182F6E3054
S1130E70B0F4862F9927FC01EE0FFF1FE80FF91F2E
S1130E80E85AFB4F808199278F719070019739F050
S1130E90C181D281CE010E945F03811719F080E0E5
S1130EA090E001C0CE01DF91CF911F910895FF9290
S1130EB00F931F93CF93DF93F82E6E3040F5862F58
S1130EC08F5F6EE00E940431192F0091C403101744
S1130ED0F1F0C12FDD27FE01EE0FFF1FEC0FFD1F08
S1130EE0E85AFB4F808199278F719070049741F4E1
S1130EF0818192810E945F038F1511F4CE0109C094
S1130F00812F8F5F6EE00E940431192FE0CF8EE0B5
S1130F1090E0DF91CF911F910F91FF9008951F935F
S1130F20CF93182FC091C403CE30A0F48C2F9927EF
S1130F30FC01EE0FFF1FE80FF91FE85AFB4F8181F8
S1130F4092810E945F03811729F06C2F812F0E94E8
S1130F505707C82F8C2F9927CF911F9108950F936E
S1130F601F93CF93DF938C01EB010E945F039927BA
S1130F708430910519F0C09731F00BC0BE01C8014F
S1130F800E944D0304C0BE01C8010E940A049C01D2
S1130F9006C0209711F08FEF888320E030E020977F
S1130FA019F0888181508883C9010196DF91CF911E
S1130FB01F910F910895EF92FF920F931F93CF9378
S1130FC0DF937C01C0E0D0E0BE010E94AF07FC01CA
S1130FD082819927182F002783819927082B192BA1
S1130FE00E9456010817190781F0BE01C7010E942B
S1130FF0AF07FC0182819927982F88272381332703
S1131000822B932B8F5F9F4F11F4C1E0D0E0CE0170
S1131010DF91CF911F910F91FF90EF900895CF939F
S1131020DF93EB010E94AF079C01209719F08881A0
S113103084508883C9010496DF91CF9108951F934A
S1131040CF93DF93EC01162F0E945F031F5F992754
S11310508430910519F0C09719F00FC0612F0AC0B0
S113106060E070E0CE010E944D03FC0180818F5F3F
S1131070810F682FCE010E946303DF91CF911F91EE
S113108008950F931F93CF93DF93CDB7DEB72197C6
S11310900FB6F894DEBF0FBECDBF8C010E945F0374
S11310A099278430910519F0C09731F011C0C80117
S11310B00E944803982F0DC0BE016F5F7F4FC80187
S11310C00E944D03FC0180818F5F9981981B01C0B0
S11310D09FEF9150892F992721960FB6F894DEBF80
S11310E00FBECDBFDF91CF911F910F910895CF9384
S11310F0DF93EC010E945F0399278430910519F076
S1131100C09739F00DC060E070E0CE010E944D033D
S113111005C060E070E0CE010E940A04FC0102C038
S1131120E0E0F0E080819927DF91CF910895FF926C
S11311300F931F93CF93DF93F82E162F6E30B0F4D6
S1131140862F9927EC01CC0FDD1FC80FD91FC85A71
S1131150DB4F0881802F99278F719070049731F4A9
S113116089819A810E945F038F1519F086E090E0CF
S113117018C0802F807E88608883809113058E300C
S113118011F4109313058091C403811729F464E0CA
S113119084EC93E00E94D00281E00E94800080E011
S11311A090E0DF91CF911F910F91FF9008951F93CD
S11311B0CF93DF93EC01162F0E945F0399278430AD
S11311C0910519F0C09739F00DC060E070E0CE01D0
S11311D00E944D0305C060E070E0CE010E940A0445
S11311E0FC0102C0E0E0F0E01083DF91CF911F9199
S11311F008950F931F93CF93DF938C01C62FDD27A0
S1131200C130D10569F0C230D1051CF4209751F0EA
S11312100BC0C230D10531F0C330D10519F004C080
S113122080E303C084E001C08FEF9927682FC801D1
S11312300E94DD03C130D10561F0C230D1051CF438
S1131240CD2B49F00AC0C230D10529F0239719F0FB
S113125004C080E003C087E101C08FEF9927682FA5
S1131260C8010E94D708DF91CF911F910F91089573
S11312700F931F93CF938C0184E00E948F0718C0B3
S11312806C2F84E00E94330760E070E00E94AF0797
S1131290FC0182819927982F882723813327822B69
S11312A0932B8017910769F06C2F84E00E945707F5
S11312B0C82F80E090E0CE3011F481E090E0892BDB
S11312C0F9F28C2F9927CF911F910F91089599E0EE
S11312D0A9E1B4E0E4E7F1E088E091939D938150C3
S11312E087FFFBCF0E94A50181E08093230408952A
S11312F00F931F93CF93C82F893010F46A3018F0DE
S113130082E090E030C080914106882319F085E0A6
S113131090E029C080918706C81741F48091BF03EB
S1131320681721F480911D058823C1F081E0809322
S11313304106C09387066093BF0310921D050E9467
S113134067090C2F1127F801E45CFB4F10828C2FE6
S11313500E94F901075E1B4FF801C0838FE00E94D1
S1131360800080E090E0CF911F910F9108950F933A
S11313701F93CF93C82F062F142F0E947804112394
S113138021F06C2F802F0E9478040E94560169E09E
S11313900E947809CF911F910F9108958FB7F89407
S11313A0982F82B720919E0530919F054091A0050A
S11313B05091A10506B601FE0FC081B7280F311D5B
S11313C0411D511D82B7280F311D411D511D2F5F35
S11313D03F4F4F4F5F4F04C0280F311D411D511D1A
S11313E09FBFCA01B90108950F931F93CF93DF9351
S11313F010E08FB7F894282F3327022F91B782B7C4
S113140046B7981711F041FF02C02FBF6AC0809100
S1131410D7058823B1F10E94CE09DC01CB01C0912C
S11314201605D0911705E0911805F09119058C1B4C
S11314309D0BAE0BBF0B20910A0630910B06409119
S11314400C0650910D0682179307A407B50720F0E8
S11314501093D70511E015C02C0F3D1F4E1F5F1FC1
S113146080919E0590919F05A091A005B091A10542
S1131470281B390B4A0B5B0B273E310541055105EF
S113148010F086EE05C0223010F482E001C0822FF5
S1131490682F615000B601FCFDCF82B7861709F4AE
S11314A06F5F20919E0530919F054091A00550915A
S11314B0A105DA01C901860F911DA11DB11D019677
S11314C0A11DB11D82179307A407B50718F46091F5
S11314D09E05609561BF0FBF112319F082E00E9441
S11314E08000DF91CF911F910F910895EF92FF92A9
S11314F00F931F937B018C018FB7F894682F772784
S113150081E08093D705E0921605F09217050093C9
S113151018051093190520930A0630930B0640937F
S11315200C0650930D066FBF0E94F4091F910F9192
S1131530FF90EF9008950F931F93CF93DF930E9432
S1131540CE09AB01BC018091D5039091D603A09143
S1131550D703B091D8038A019B01081B190B2A0BEE
S11315603B0BE901D80180915D018D7F80935D0182
S11315708091D605882359F0282FE5ECF3E080818B
S113158091818A1B9B0B819391932150C1F74093C6
S1131590D5035093D6036093D7037093D803DF9198
S11315A0CF911F910F910895AF92BF92CF92DF9286
S11315B0EF92FF920F931F935B016C0171E0F72E82
S11315C00E94CE09DC01CB01EF2C96018501AC0110
S11315D0BD018F2D0E9437011F910F91FF90EF9055
S11315E0DF90CF90BF90AF900895AF92BF92CF920B
S11315F0DF92EF920F931F935B016C010E94CE095F
S1131600DC01CB01E1E0EE2E96018501AC01BD01C8
S113161082E00E9437011F910F91EF90DF90CF90ED
S1131620BF90AF900895AF92BF92CF92DF92EF92A6
S1131630FF920F931F93CF93DF930E94FD06FC014B
S1131640EB018091100490911104A0911204B091C7
S11316501304A0907506B0907606C0907706D090DB
S113166078069C01AD012A0D3B1D4C1D5D1D7901C1
S11316708A01EC1AFD0A0E0B1F0BC817D907EA07DB
S1131680FB0730F0281739074A075B0770F005C0DD
S1131690281739074A075B0728F4C217D307E4075A
S11316A0F50718F0EE24FF24870121E0E21620E874
S11316B0F20620E0020720E0120730F1C050D048C3
S11316C0EF4FFF4FC0931004D0931104E093120422
S11316D0F0931304C050D048E040F04080E090E81C
S11316E0AFEFBFEFE80EF91E0A1F1B1FE09275064D
S11316F0F09276060093770610937806E12CF0E8D2
S1131700FF2E012D112D14C08A0D9B1DAC1DBD1D76
S11317108093100490931104A0931204B0931304C3
S1131720109275061092760610927706109278063B
S1131730B7012CB53DB5C9018C1B9D0B03968E15C5
S11317409F0520F0B9016D5F7F4F02C06C0F7D1FB4
S11317506115710511F461E070E0615070407BBD6A
S11317606ABD80E186BF87B7806187BFDF91CF9173
S11317701F910F91FF90EF90DF90CF90BF90AF90AB
S113178008950F931F93DC01CB016FB7F894062FD4
S113179011278093100490931104A0931204B09322
S11317A0130420937506309376064093770650937E
S11317B078060E94130B0FBF1F910F910895CF92CB
S11317C0DF92EF92FF920F931F938FB7F894C82E76
S11317D0DD240E94A500DC01CB0166E470E00E94D8
S11317E010310B9690933904809338047C010027C0
S11317F011270E94FD06DC01CB01A8019701BC0161
S1131800CD010E94C10BCFBE1F910F91FF90EF90AD
S1131810DF90CF90089597B79F7D97BF90E296BFD2
S1131820882319F08EB5806402C08EB58F7B8EBD7F
S113183087B7806287BF80E090E008951F93182FD8
S113184081E00E9479061FB9779BFECF8FB199275B
S11318501F9108950E941E0C992708951F93CF93FA
S1131860DF93182F8FB7F894C82FDD2760E081E04D
S11318700E946001882321F0CFBF80E090E005C082
S1131880CFBF812F0E941E0C9927DF91CF911F910A
S11318900895FF920F931F93CF93DF93F82E8B013C
S11318A08FB7F894C82FDD2760E081E00E946001C3
S11318B0882321F0CFBF80E090E00CC0CFBF8F2DF4
S11318C00E941E0C812F99270E941E0C802F0E94BB
S11318D01E0C9927DF91CF911F910F91FF900895CE
S11318E08FB7F8949927209174068FBF85E0289FBD
S11318F0C0011124825D9E4F9064BC0188E10E9466
S1131900490C0895CF938FB7F894C82F8091C103E1
S1131910682F7727762F6627770F770F770F20E0CA
S113192030E080910F04882331F0809122048823D1
S113193011F021E030E0B4E0220F331FBA95E1F753
S1131940622B732B626E726281E10E94490CCFBFDD
S1131950CF910895CF92DF92FF920F931F93CF936D
S1131960DF93CDB7DEB724970FB6F894DEBF0FBE72
S1131970CDBF8FB7F894282F3327FE01319680917D
S11319804604909147048983892F99278183809104
S11319908B0690918C068B83892F99278C832FBF7C
S11319A06F0124E0F22E8FB7F894082F112760E01E
S11319B081E00E9460019927882311F00FBF16C0AF
S11319C00FBF082F112708591E4F802F80680E94CF
S11319D01E0C16950795802F807C0E941E0CF60124
S11319E081916F010E941E0CFA94C9F724960FB6D8
S11319F0F894DEBF0FBECDBFDF91CF911F910F9141
S1131A00FF90DF90CF900895882311F06F9A089586
S1131A106F9808951F9310E0812F0E947906BA9A57
S1131A20BB98B99AB89A6C9AC098812F0E94040DF9
S1131A30709A6B986A98689881E00E9479061F9161
S1131A4008950F931F93CF93DF93C82F8FB7F89404
S1131A50082F11E0612F812F0E947201992788239A
S1131A6091F5C09309010E949101C82FDD27CC2371
S1131A7011F08AE00FC00E949B01882311F40E9498
S1131A800A0D80913F01882341F410933F01809314
S1131A901C058CE00E94800022C08091B5068F3F17
S1131AA0F1F4E0910701EE23D1F0809108018F3F1A
S1131AB019F41092080104C0FF27EB54F94FC083B6
S1131AC0109207010CC081E090E002C0880F991FBA
S1131AD0CA95E2F720914001282B209340010FBFC3
S1131AE080E090E0DF91CF911F910F9108958F9244
S1131AF09F92AF92BF92CF92DF92EF92FF920F9399
S1131B001F93CF93DF938FB7F894C0903504D09090
S1131B1036048090700190907101C091B403D0910B
S1131B20B503AE01465F5F4F2091D4053091D505D2
S1131B302417350708F09A018FBF59010894A108AA
S1131B40B108CA15DB05E8F47E01E80CF91C8E0126
S1131B500C0D1D1DC114D10419F0F801808101C0C0
S1131B6080E00E941E0C8114910411F0F70180831F
S1131B7021960F5F1F4F0894E11CF11CCA15DB0569
S1131B8048F381E00E94040D8FB7F894982FC11494
S1131B90D10431F0CC0EDD1EF60180818FB901C075
S1131BA01FB8D093B503C093B4039FBF80E090E007
S1131BB0DF91CF911F910F91FF90EF90DF90CF9025
S1131BC0BF90AF909F908F900895CF93DF939C0127
S1131BD0EA018FB7F894992730933604209335049B
S1131BE070937101609370015093D5054093D405AF
S1131BF01092B5031092B4038FBF452B31F08FB10F
S1131C000E94770D482F552704C08BE00E94800066
S1131C10AE01CA01DF91CF910895DF92EF92FF9256
S1131C200F931F93CF93DF93182F7B01D42E00E0E3
S1131C308FB7F894C82FDD27602F81E00E946001E0
S1131C40882321F0CFBF80E090E017C0CFBF10649D
S1131C50812F99279093FD048093FC048091FC04C8
S1131C600E941E0C082F8D2D9927AC01B70180E02E
S1131C7090E00E94E50D802F9927DF91CF911F916D
S1131C800F91FF90EF90DF900895C09880914701E5
S1131C909091480141E0BC018FE30E940D0E08952C
S1131CA0FF920F931F93CF93DF930091170410912A
S1131CB01804F80181A59927C82F882309F4CFE1D6
S1131CC0C098809185068C1741F08C2F9927806EDF
S1131CD09068BC0185E10E94490CC0938506F80117
S1131CE0F080FA948FB7F894C82FDD2760E081E084
S1131CF00E946001882311F0CFBF13C0CFBF8EE3D1
S1131D0090E09093FD048093FC048091FC040E9475
S1131D101E0C8F2D9927AC0160E070E0C8010E9471
S1131D20E50DDF91CF911F910F91FF900895AF9230
S1131D30BF92CF92DF92EF92FF920F931F938C0189
S1131D407B010E94A500DC01CB01802391238E0D31
S1131D509F1D5C01CC24DD240E94CE09DC01CB0153
S1131D6051E0E52E96018501AC01BD0180E00E94A1
S1131D7037018FB7F894282F332782E08093240407
S1131D802FBF1F910F91FF90EF90DF90CF90BF90E6
S1131D90AF900895282F90E0E0EBF3E08191821753
S1131DA019F09F5F9430D0F3892F99270895CF932A
S1131DB0DF93982FC82FDD27FE01EE0FFF1FEC0FD6
S1131DC0FD1FE85AFB4F808182958695877080FFBE
S1131DD017C021813281909112059A30E0F4E0918C
S1131DE0A603E90FEA3008F0EA50FF27EE0FFF1FC1
S1131DF0E250FB4F208331839F5F909312050BC009
S1131E00892F0E94CA0E843031F0E82FFF27E05555
S1131E10FC4F8EE08083FE01EE0FFF1FEC0FFD1FD1
S1131E20E85AFB4F8081807E81608083DF91CF916F
S1131E3008951F93CF93182FC62F6E30A8F4862FC2
S1131E409927FC01EE0FFF1FE80FF91FE85AFB4F1B
S1131E50808199278F719070049731F481819281E8
S1131E600E945F03811719F086E090E00EC08C2F6A
S1131E700E94D70E8091C4038C1729F464E084EC8B
S1131E8093E00E94D00280E090E0CF911F910895EA
S1131E901F93CF93182F682F84E00E94190FC82F27
S1131EA0612F80E30E94190FC81719F48C2F99270A
S1131EB002C081E090E09927CF911F910895FF928D
S1131EC00F931F93CF93DF93F82E8B01EA01CB017D
S1131ED00E945F039927803331F46F2D0E94190FFC
S1131EE081E090E012C04DE150E0BE01CE010196C8
S1131EF00E94EB301882BE01C8010E94F50360E322
S1131F00C8010E94DD0380E090E0DF91CF911F9132
S1131F100F91FF900895CF92DF92EF92FF920F936B
S1131F201F93CF93DF93CDB7DEB722970FB6F89404
S1131F30DEBF0FBECDBFE82EF62E862F9927FC01FB
S1131F40EE0FFF1FE80FF91FE85AFB4F6F010894CB
S1131F50C11CD11C018112818DE0861758F080814B
S1131F6099278F719070049729F4C8010E945F0328
S1131F708E1519F086E090E03FC0C8010E947708F2
S1131F80882361F1BE016F5F7F4FC8010E94AF07D4
S1131F90C8010E94770899818731E9F49A83C801BE
S1131FA00E94DB07882389F0BE016E5F7F4FC80162
S1131FB00E940F080E945601892B69F460E074E0C6
S1131FC080E090E00E94F50A06C0BE016E5F7F4F7C
S1131FD0C8010E940F08F601008311838F2D0E940F
S1131FE0D70E8091C4038F1529F464E084EC93E048
S1131FF00E94D00280E090E022960FB6F894DEBFF3
S11320000FBECDBFDF91CF911F910F91FF90EF9045
S1132010DF90CF900895813049F48FB7F8949927D1
S1132020109229048FBF8EE00E9480000895FF92D1
S11320300F931F93CF93DF93182FF62E042F862F21
S11320409927EC01CC0FDD1FC80FD91FC85ADB4FED
S113205089819A810E945F03811731F48881829576
S11320608695877080FF03C086E090E028C08F2D9E
S11320700E94CA0E843009F169817A81282F33279E
S11320802130310581F0223031051CF4232B41F03D
S113209014C02230310551F02330310551F00DC008
S11320A0402F80E008C0402F81E005C0402F82E02F
S11320B002C0402F83E00E940B1080E090E0DF918B
S11320C0CF911F910F91FF9008950F931F93CF937A
S11320D0082F162F462F682F84E00E941710C82F50
S11320E0412F602F80E30E941710C81719F48C2F1A
S11320F0992702C081E090E09927CF911F910F9119
S11321000895DF92EF92FF920F931F93CF93DF9383
S1132110D82E8B01413009F45BC0442309F058C028
S113212066E0E62EF12CE00EF11EF701818199277D
S1132130982F8827F80126813327822B932B8F5FD2
S11321409F4F09F445C0F80185A5882309F040C0D4
S1132150CD2DDD27FE01EA55F94F8081882341F01A
S113216081508083C8010E94C50381E090E036C09D
S11321700E945601F7019181292F3327722F662778
S1132180F8019681292F3327622B732B41E00E949B
S1132190B709C8010E945F038033D1F4FE0133E024
S11321A0F695E7953A95E1F7E75BFE4FC770D07077
S11321B081E090E002C0880F991FCA95E2F7208160
S11321C0282B20838EE00E94800082E090E006C0ED
S11321D060E08D2D0E94651080E090E0DF91CF914A
S11321E01F910F91FF90EF90DF9008951F93CF936D
S11321F0DF932091130599278430910511F0C0973E
S113220081F4822F0E948110182F23E030E01217EE
S113221011F0133011F4C90102C0812F9927182F2E
S113222001C010E0C12FDD270E942807C13039F416
S113223068E070E087E090E00E94970E2EC0CC2307
S113224029F4809113050E94D70E15C0209113051F
S1132250822F9927FC01EE0FFF1FE80FF91FE85AA0
S1132260FB4F8081807E846080838091C4038E30A4
S113227011F42093C40360E170E08FE090E00E94C9
S1132280970E68E183E195E00E94D00280911305E6
S11322908E3018F481E00E948000DF91CF911F916D
S11322A008958FB7F8949927109225048FBF089545
S11322B0EF92FF920F931F93CF93DF93F82E8FB774
S11322C0F894082F1127E02E61E0862F0E947201F6
S11322D0C82FDD27CC2321F00FBF85E090E026C076
S11322E08C2F0E9491018823C9F490913F01992376
S11322F041F482E080933F019093060180E090E0F6
S113230002C081E090E09927C82F882311F40E942D
S11323100A0D8C2F9927C82F882319F4F0920901EC
S113232002C00E945111EFBE8C2F9927DF91CF91EB
S11323301F910F91FF90EF90089582E090E09093A9
S1132340C3038093C20321E02093AF0390E0809104
S11323500901843009F4922F992329F484E00E941E
S11323605811882319F40E94450E089584E00E94B0
S1132370210D0895CF9383E00E9458119927C82F07
S1132380882319F083E00E94210D8C2F9927CF9187
S11323900895CF92DF92EF92FF920F931F93CF9302
S11323A0DF93EA01D22E8A876E83872F99278F8342
S11323B08FB7F894282F33278091460490914704CF
S11323C02FBF8C83892F99272496898324978CE0A7
S11323D0D80E01E0C02E6C2D83E00E947201082FFC
S11323E01127002309F084C080914B01982F8C0D94
S11323F080934B019B838FB7F894E82EFF2462E00F
S1132400862F0E946001882321F4EFBE81E090E0D2
S113241066C08FB7F894282F332784E0809326046E
S11324202FBFD093A106C093A006EFBEFE01D192A8
S113243089819927807290708983892F9927818354
S11324409927982F882729813327822B932B8164FE
S113245098688983892F992781830E9456018887E8
S1132460892F99272896898328970DA70AA70BA750
S11324701FA60EA7C09284064091A0065091A10603
S11324808FB7F894282F3327622F80913D019091C4
S11324903E018830910531F08A30910519F0893078
S11324A0910511F46FBF19C0019711F02FBF15C02A
S11324B082E090E090933E0180933D01C09233040A
S11324C050931804409317040093FB042FBF0E94F9
S11324D0BA11882311F40E94500E80E090E09927ED
S11324E0C82F882311F00E948A018C2F992702C0DB
S11324F085E090E09927DF91CF911F910F91FF9094
S1132500EF90DF90CF900895AF92BF92CF92DF9279
S1132510EF92FF920F931F93CF93DF93B82E7B011B
S1132520A42E81E08B1518F481E090E035C0CB2D0A
S1132530DD27CC0FDD1FC559DE4FC880D980C114FB
S1132540D10419F085E090E027C068837983642F73
S1132550C7010E946303809100018230E0F0C7014B
S11325600E945F03082F1127C7010E946803B092DD
S113257000012A2DA701BC01802F0E94C9119927AF
S1132580282F882329F082E080930001C882D98211
S1132590822F992701C0C601DF91CF911F910F911E
S11325A0FF90EF90DF90CF90BF90AF9008959F92EF
S11325B0AF92BF92CF92DF92EF92FF920F931F934D
S11325C0CF93DF935B01942EC82FDD27FE01EC0F20
S11325D0FD1FE559FE4F1082118280910001992759
S11325E001969C018E7F9370281B390B2093000168
S11325F060E0322F432F5527FA01E40FF51FE55908
S1132600FE4F80819181892B99F0832F8695869541
S11326108695E82FFF27EA57F94F80819927232FC2
S1132620277002C0959587952A95E2F780FF0AC026
S11326304F5F5F4FCA018E7F9370342F381B6F5FDB
S11326406230C0F230930001623018F082E080936F
S11326500001E0910001E230F8F4FF27EE0FFF1FC4
S1132660E559FE4F00811181C8010E945F03C82E05
S1132670DD24C8010E9468037C01C8010E9448034C
S11326809927282FA801B7018C2D0E94C9118823EE
S113269019F081E10E948000209719F0219729F018
S11326A009C0492DB50180E303C0492DB50184E07B
S11326B00E94F610DF91CF911F910F91FF90EF9040
S11326C0DF90CF90BF90AF909F900895CF93982FB5
S11326D08FB7F894282F3327C22F809109018917C7
S11326E0A9F02FBF81E090E034C04093090181E05C
S11326F090E002C0880F991F2A95E2F7809558232D
S1132700509340018AE00E94800020C08FEF8093A4
S11327100901509140015523A9F040E065E0E52FFF
S1132720FF27842F0E940431492F292F3327CF01FB
S1132730022E02C0959587950A94E2F780FDD5CFC5
S11327404F5FEFCF0E9451110E947F06CFBF80E000
S113275090E0CF9108951F93CF93DF938FB7F894B0
S1132760C82FDD271C2F8091C2039091C303892BAE
S113277029F484E00E946613CFBF2BC01092AF03EC
S11327802091A506222341F080E090E0B79B02C08F
S113279081E090E0892B49F481B1992746E0969530
S11327A087954A95E1F780FD08C0222319F021504E
S11327B02093A5060E949D110BC081E090E09093A8
S11327C0C3038093C2031092A50684E00E9466139B
S11327D01FBFDF91CF911F9108950E941C07C09ADB
S11327E0C09888E00E942E0C88E00E942E0CC09AAB
S11327F084E00E9466130E94AB1308950F931F9305
S1132800CF93DF9301E08FB7F894C82FDD271C2FF7
S113281080913D0190913E01099779F489E00E94ED
S11328202E0C83E00E946613C09A81E090E090939E
S11328303E0180933D01CFBF33C0C09880913304E3
S1132840882311F085E001C084E00E942E0C83FDF2
S113285005C080E00E942E0C83FD03C083E090E05D
S113286003C000E085E090E090933E0180933D0139
S1132870C09A1FBF002341F01092FB0483E00E9422
S113288066130E94DF0B0CC00E94FD06DC01CB0125
S113289020E431E040E050E0BC01CD010E94C10BD6
S11328A0DF91CF911F910F910895EF92FF920F93B3
S11328B01F93CF93DF938B018091FC049091FD04CF
S11328C02091FC0486FF2BC12F7B822F99278E3306
S11328D0910509F476C1CF9709F073C1C0914701FE
S11328E0D0914801588150936A018091C20390911C
S11328F0C3038330910509F451C08430910518F461
S1132900029729F005C1049709F491C001C183E03D
S113291090E09093C3038093C203852F9927019677
S113292040917201242F332728173907A4F180E03E
S113293090E0B79B02C081E090E0892B69F481B1FB
S11329409927E6E096958795EA95E1F780FD04C01E
S1132950451B41504093720120916A012B32D8F4F7
S1132960222391F0BE016F5F7F4F283018F047E0BB
S113297050E058C084E090E09093C3038093C20376
S1132980822F9927AC014EC02093AF03C09A84E0F4
S11329900E946613BAC00E94ED1313C184E090E054
S11329A09093C3038093C20380910F04882399F109
S11329B080912204882379F58A819927582F442706
S11329C089819927482B592B45FF25C08F81992749
S11329D0382F22278E819927282B392B80918B061B
S11329E090918C0628173907B1F447705070413024
S11329F0510589F4C09AC0988AE00E942E0CC09AAE
S1132A00C098289680916A018750482FBE018FE3B1
S1132A100E940D0ED6C0289680916A01875099278E
S1132A20AC01BE0180E090E00E94E50DCAC0C09AEE
S1132A308091A506882319F484E00E94661380918E
S1132A401B05882319F180916A018B3028F180914C
S1132A508204E82FFF27EE0FFF1FEA54F94F80810D
S1132A6091818FA7892F99278EA780918204992716
S1132A7001969C01287F3170821B930B8093820402
S1132A8080911B05815080931B0506C08FEF9FEF3B
S1132A908FA78FEF90E08EA780916A01FE01E80F67
S1132AA0F11D808187FF31C0012B79F16981677045
S1132AB0E0914701F0914801623009F5A0911704B3
S1132AC0B091180480913D0190913E010797E9F47B
S1132AD0ED019B8183818917C1F487B78F7E87BFFE
S1132AE0908181E08DA7E90FF11D829131968AA72B
S1132AF080818F778BA780E00E94EA0606C0613050
S1132B0021F48DE00E9480005CC00E94AB1359C088
S1132B101092AF03C09A84E00E94661352C02E3311
S1132B2009F04FC0C09A80913D0190913E010897F1
S1132B3079F4C09889E00E942E0CC09A83E00E9428
S1132B40661381E090E090933E0180933D0139C08B
S1132B5080913304882349F484E090E090933E010B
S1132B6080933D010E94FE132CC083E00E946613F3
S1132B7080913D0190913E01089719F48AE090E01C
S1132B8002C083E090E090933E0180933D010E9457
S1132B90A500DC01CB0166E371E00E9410310B96C5
S1132BA090931504809314047C01002711270E943C
S1132BB0FD06DC01CB01A8019701BC01CD010E94F7
S1132BC0C10BDF91CF911F910F91FF90EF9008956A
S1132BD0EF92FF921F93CF937C0184E00E948F07B2
S1132BE0182F80E30E948F07682F812F0E940D0306
S1132BF027C06C2F84E00E943307009721F46C2FC8
S1132C0080E30E94330760E070E00E94AF07FC019C
S1132C1082819927982F882723813327822B932B0E
S1132C208E159F0521F16C2F84E00E945707182F01
S1132C306C2F80E30E945707682F812F0E940D0399
S1132C40C82F40E050E08E3011F441E050E020E025
S1132C5030E0CE3011F421E030E080E090E0442315
S1132C6021F0222311F081E090E0892B11F28C2FC6
S1132C709927CF911F91FF90EF900895AF92BF9243
S1132C80CF92DF92FF920F931F93CF93DF93CDB731
S1132C90DEB724970FB6F894DEBF0FBECDBF5C013C
S1132CA00E94E815F82EA982BA828FEF8B831C82CA
S1132CB0CE0101960E9492028C01892B09F4ACC0CA
S1132CC040E050E02EE0F21611F441E050E020E044
S1132CD030E08EE0F81611F421E030E080E090E07E
S1132CE0442321F0222311F081E090E0892B09F0A4
S1132CF093C0F8012381203108F076C080E092E08F
S1132D0002C0880F991F2A95E2F7F8E281309F07E5
S1132D1024F0C12C88E2D82E01C06C018091D60524
S1132D208830C9F10E949B0A5091D605452F55233E
S1132D30C1F0E42FFF27EE0FFF1FDF01AB53BC4FA1
S1132D403E912E911296C216D30658F4E85BFB4FBF
S1132D50929182913296808391832D933C9341503A
S1132D6041F7E42FFF27EE0FFF1FDF01A85BBB4FE6
S1132D70AD92BC92EB53FC4FC082D1825F5F509303
S1132D80D6058091C5039091C603AA27BB27BC0131
S1132D90CD010E94D40AF80183818F5F83832F2D94
S1132DA03327F901B3E0F695E795BA95E1F7E75BC8
S1132DB0FE4F2770307081E090E002C0880F991FA9
S1132DC02A95E2F72081282B20838EE00E94800040
S1132DD023C061E08F2D0E9465108F2D0E94480F43
S1132DE0C5010E94E815F82E40E050E0FEE0FF1611
S1132DF011F441E050E020E030E08EE0F81611F4E8
S1132E0021E030E080E090E0442321F0222311F01F
S1132E1081E090E0892BE9F224960FB6F894DEBFA6
S1132E200FBECDBFDF91CF911F910F91FF90DF9027
S1132E30CF90BF90AF9008956F927F928F929F92A0
S1132E40AF92BF92CF92DF92EF92FF920F931F93B4
S1132E50CF93DF93CDB7DEB728970FB6F894DEBFD4
S1132E600FBECDBF962E842EE62EFF24E982FA8271
S1132E703E010894611C711C8FEF8B831C824423D8
S1132E80A1F1ED82FE828F831886CE0105960E9401
S1132E909202FC01892B49F18381882331F1138249
S1132EA013812091D605121700F5E8E4F4E081912E
S1132EB091918E159F05B1F4812F0E943C0211233C
S1132EC0A1F48091D605882381F00E949B0A809109
S1132ED0C5039091C603AA27BB27BC01CD010E945C
S1132EE0D40A03C01F5F121710F384E00E948F07F7
S1132EF0182F80E30E948F07682F812F0E940D03F3
S1132F008BC16D2D84E00E9433077C01892B29F449
S1132F106D2D80E30E9433077C0160E070E0C701FF
S1132F200E94AF07FC0182819927382F22278381D1
S1132F309927282B392BA92CBB242A153B0571F082
S1132F406D2D84E00E945707182F6D2D80E30E9499
S1132F505707682F812F0E940D035EC160E070E067
S1132F60C7010E944D038C01882009F09CC0C30155
S1132F700E946202282F409173018417C1F080914E
S1132F804006820F912D911DFC01887F9370E81BF0
S1132F90F90BEE0FFF1FEE0FFF1FEE5BF94F808161
S1132FA09181A281B38189839A83AB83BC834830A6
S1132FB019F0241709F450C0822F642F0E940431A1
S1132FC0941708F049C0992361F480914006992729
S1132FD001969C01287F3170821B930B80934006DD
S1132FE036C09417A0F580914006682F690F712DA3
S1132FF0711D9B01491B142FC90137FD0796887F5A
S1133000B901681B790B660F771F660F771F6E5B1C
S1133010794FA9014F5F5F4FCA0157FF02C0C90131
S11330200896887FFA01E81BF90BEE0FFF1FEE0FDD
S1133030FF1FEE5BF94F80819181A281B381FB0177
S113304080839183A283B38311509A01A9F680915E
S11330507301815080937301809140064091730104
S1133060840F912D911D9C01887F9370F901E81BB9
S1133070F90BEE0FFF1FEE0FFF1FEE5BF94FD301AD
S11330800D911D912D913C910083118322833383F3
S11330904F5F409373018381882309F0D7C0C50132
S11330A00E943E16D3C0C82CCA94C7010E945F0375
S11330B0803399F0A801B7018D2D0E945F0F8130F4
S11330C061F484E00E948F07182F80E30E948F0729
S11330D0682F812F0E940D039FC0B801C7010E9471
S11330E0E0038C2D880F8F5F2EE1482FB80180E616
S11330F00E947705882381F06D2D80E30E94190FCB
S113310084E00E948F07182F80E30E948F07682FA6
S1133110812F0E940D0380C0B801C7010E94F503EE
S1133120B80180E60E94A905BC01892B81F46D2DAC
S113313080E30E94190F84E00E948F07182F80E318
S11331400E948F07682F812F0E940D0365C08C2D6C
S11331508F70FB018083CC20A9F14C2D4150E42FCA
S1133160FF27EE0FFF1FE60FF71F319688E0891542
S113317018F489E090E007C0A4E7B1E0AA0EBB1EF2
S1133180D5018C9199279927818310824423D1F00A
S1133190E42FFF27EE0FFF1FE60FF71F9F012150BB
S11331A03040E281E93018F089E090E005C0FF2763
S11331B0EC58FE4F808199279927F9018183108269
S11331C04150E4CFCC2059F0FB0181819927982FFD
S11331D0882722813327822B932BBC0102C0692DBF
S11331E07727C7010E944203C7010E94C503ED2D42
S11331F0FF27EA55F94F82E080836D2D80E30E941A
S1133200970884E00E948F07182F80E30E948F079D
S1133210682F812F0E940D03D82E40E050E0FEE07D
S11332208F1711F441E050E020E030E06EE0D61654
S113323011F421E030E080E090E0442321F02223E7
S113324011F081E090E0892B09F45BCE28960FB64B
S1133250F894DEBF0FBECDBFDF91CF911F910F91C8
S1133260FF90EF90DF90CF90BF90AF909F908F90A2
S11332707F906F9008950F931F93CF93DF93082F40
S1133280162FC62FDD27CE010E9420028823C1F508
S1133290809141068823A9F0FE0193E0F695E79515
S11332A09A95E1F7E65CFB4FC770D07081E090E03F
S11332B002C0880F991FCA95E2F72081282B20832A
S11332C01FC0812F0E94AE02482F55274423A1F42A
S11332D0FE0183E0F695E7958A95E1F7E857F94F03
S11332E0C770D07081E090E002C0880F991FCA9522
S11332F0E2F72081282B2083612F802F0E941C1746
S1133300DF91CF911F910F91089540916F01242F68
S11333103327F901EE0FFF1FE20FF31FE85AFB4FAB
S1133320818392838081807E826080838091B406D1
S11333308E3011F44093B40661E08FE691E00E9470
S1133340D00280E00E9480000895FF920F931F93A3
S1133350CF93DF93F82E8A0180917D01882319F49D
S113336084E090E03EC090916F019E30C1F1CF2D7A
S1133370DD27C055DC4F88818E3089F52F3118F058
S113338082E090E02EC0892F9927FC01EE0FFF1FE9
S1133390E80FF91FE85AFB4F808199278F719070CD
S11333A00197E9F4622FCA010E941F086F2DC8011A
S11333B00E94F90820916F01822F9927FC01EE0FDA
S11333C0FF1FE80FF91FE85AFB4F80818F7D808330
S11333D02883C8010E94851980E090E002C085E03E
S11333E090E0DF91CF911F910F91FF900895CF92BC
S11333F0DF92EF92FF920F931F93CF93DF93E82E08
S11334006B01EA01F22E0E9456018C0160E070E02B
S1133410CE010E94AF07FC010183812F992780838D
S113342060E070E0CE010E94AF07FC01C3828D2DE5
S11334309927828384E0F80E6F2DCE010E941F0825
S1133440CE010E944108282F3327FF2481E0E8168B
S1133450F104A1F082E0E816F1041CF4EF2851F025
S11334601BC082E0E816F10469F083E0E816F10479
S113347069F012C0AE01B60180E00BC0AE01B60126
S113348081E007C0AE01B60182E003C0AE01B6011F
S113349083E00E94A51901C081E09927DF91CF91B3
S11334A01F910F91FF90EF90DF90CF9008952F928E
S11334B03F924F925F927F928F929F92AF92BF9270
S11334C0CF92DF92EF92FF920F931F93CF93DF93EC
S11334D04B015C017724CC24DD24CCE4EC2EC1E048
S11334E0FC2EF701608561FFF0C0208131814281AB
S11334F05381D501C401821B930BA40BB50B24800B
S113350035804680578082159305A405B50508F4D7
S1133510DCC060FF03C06D7F608709C0220D331DCE
S1133520441D551DF7012083318342835383F1E009
S1133530CF16D104C1F082E0C816D10424F4C1141A
S1133540D10431F0C2C092E0C916D10491F1BDC0DA
S11335500E942807809113058E3008F0B6C081E0E0
S11335600E948000B2C00E949B0A0DC08091D605C3
S1133570882379F080914804909149040E943E1672
S113358080E00E943C028091C5039091C603892B80
S113359069F38091D605882309F497C08091C50307
S11335A09091C603AA27BB27BC01CD010E94D40A6F
S11335B08CC00E945601019709F062C000910E016F
S11335C010910F0160E0C8010E94F90860E070E00A
S11335D0C8010E94AF07DC01149629E0E2E1F1E0A2
S11335E0822F01900D928A95E1F780910E019091BE
S11335F00F01AC0160E070E080E00E94F7190091D7
S11336000C0110910D0162E0C8010E94F90860E00C
S113361070E0C8010E94AF07DC0114962AE0EBE1D8
S1133620F1E0922F01900D929A95E1F780910C01AF
S113363090910D01AC0160E070E082E00E94F71906
S113364000910A0110910B0163E0C8010E94F9087E
S113365060E070E0C8010E94AF07DC0114962BE023
S1133660E5E2F1E0822F01900D928A95E1F78091D5
S11336700A0190910B01AC0160E070E083E023C08B
S11336800E945601EC01892B01F500910E01109165
S11336900F0160E0C8010E94F908BE01C8010E9440
S11336A0AF07DC01149629E0E0E3F1E0922F0190EA
S11336B00D929A95E1F780910E0190910F01AC0162
S11336C063E070E080E00E94F7197394E9E0F0E0B1
S11336D0EE0EFF1E0894C11CD11CF2E0F71508F091
S11336E000CF83E00E948000DF91CF911F910F9162
S11336F0FF90EF90DF90CF90BF90AF909F908F900E
S11337007F905F904F903F902F900895CF93DF93D9
S113371080917D01882309F444C090916F019E300B
S113372009F43FC020E030E080911205882311F4B1
S113373021E030E0C22FDD27CC2399F5892F99278A
S1133740DC01AA0FBB1FA80FB91FA85ABB4F2C91AD
S1133750822F99278F719070019719F520622C930D
S1133760CB010E948519909112059923C1F0809193
S1133770A603E82FFF27EE0FFF1FE250FB4F208127
S11337803181108211829150909312058F5F809342
S1133790A6038A3011F4C093A603B90102C060E005
S11337A070E0CB01DF91CF9108958F929F92AF92F9
S11337B0BF92CF92DF92EF92FF920F931F93CF931A
S11337C0DF93CDB7DEB76C018DB69EB6542FA0E063
S11337D0842F992702960DB71EB7081B190B0FB635
S11337E0F8941EBF0FBE0DBFEDB6FEB60894E11CE3
S11337F0F11C1FEFC1161FEFD10629F0EDB7FEB77C
S1133800C182A1E05A0FFFEF2F3F3F0729F0F701D4
S1133810E50FF11D20835F5F442359F087010A0FF0
S1133820111DD801FB0181818D93415032964423AF
S1133830D1F7C52ECA94F9F08701AA24BB24D52E4A
S1133840DA94F8018181682F80810E94CC04EC2DE8
S1133850FF27EA19FB09EE0DFF1D82913196682FAF
S113386080810E94CC04DA940894A11CB11C0F5FDF
S11338701F4FDD2031F70E94560169E00E9478094C
S11338800FB6F8949EBE0FBE8DBEDF91CF911F91EF
S11338900F91FF90EF90DF90CF90BF90AF909F90EB
S11338A08F900895BF92CF92DF92EF92FF920F9381
S11338B01F93B82E6B01EE24FF24B701C6010E94AA
S11338C0AF07FC0182819927182F0027838199274C
S11338D0082B192BB701C6010E94AF07FC01808198
S11338E09927B82FAA2781819927980140E0B70129
S11338F08A2B9B2B0E94D51B6B2D84E00E948B0F7F
S11339001F910F91FF90EF90DF90CF90BF9008959B
S11339102F923F924F925F926F927F928F929F92DB
S1133920AF92BF92CF92DF92EF92FF920F931F93C9
S1133930CF93DF93CDB7DEB760970FB6F894DEBFB1
S11339400FBECDBFC82E3B0160E070E0C3010E94F2
S1133950AF07FC0180819927582E4424818199273F
S1133960482A592A60E070E0C3010E94AF07FC01B5
S113397082819927382E222483819927282A392A5B
S113398060E070E0C3010E944D035C01BC0181E072
S11339900E942A069927182F882309F4B4C1B50177
S11339A081E00E94A9054C01012F1127015010400C
S11339B016950795088BC3010E94DB07E82EFF24A8
S11339C0EE2029F10E9456010894811C911C9C014F
S11339D0402FB401C2010E94D51B2C2D3327F901BD
S11339E0B3E0F695E795BA95E1F7E75BFE4F2770EC
S11339F0307081E090E002C0880F991F2A95E2F7A9
S1133A002081282B20838EE00E9480006DC28FE0ED
S1133A10A1E0B0E0AC0FBD1F1D928A95E9F7498281
S1133A205A820E9456014816590609F454C2DE2CE3
S1133A30B889EB16C0F47401F70181819927182F16
S1133A40002782819927082B192B0E9456010817F9
S1133A50190709F440C2D39422E030E0E20EF31EC9
S1133A603889D31648F30E945601B4016F5F7F4F23
S1133A709C014889C2010E94D51B8FEF9FEF73E020
S1133A80D72EE1E0F0E0EC0FFD1F37968193919380
S1133A90DA94D7FEFBCFA0E0B0914601AB1738F51E
S1133AA080918D06482F5527CA0157FD0796887FB8
S1133AB0FA01E81BF90BCF0164E0EE0FFF1F6A95D2
S1133AC0E1F7E81BF90BED57FB4F60E070E0208154
S1133AD0318189819A812817390711F461E070E0F6
S1133AE0672B29F4AF5F4F5F5F4FAB17E8F24A2FA4
S1133AF080914601A817E9F080918D068A0F912DD7
S1133B00911D9C01887F9370281B390BF90154E0A7
S1133B10EE0FFF1F5A95E1F7E21BF30BED57FB4F36
S1133B208FE0A1E0B0E0AC0FBD1F01900D928A952B
S1133B30E1F720914601283019F0421709F456C0E4
S1133B40842F622F0E940431921708F04FC09923EA
S1133B5061F480918D06992701969C01287F31702C
S1133B60821B930B80938D063CC09217D0F57FE0A7
S1133B70092F1127291B622F80918D06A801480F58
S1133B80511DCA0157FD0796887FFA01E81BF90BFE
S1133B90DF0134E0AA0FBB1F3A95E1F7AE1BBF0B60
S1133BA0AD57BB4FCA0101969C0197FF03C09A0110
S1133BB0285F3F4F287F821B930BFC0124E0EE0F0C
S1133BC0FF1F2A95E1F7E81BF90BED57FB4F272F51
S1133BD001900D922A95E1F761500F5F1F4F662304
S1133BE059F68091460181508093460180918D065B
S1133BF040914601840F912D911D9C01887F937003
S1133C00281B390BC90164E0220F331F6A95E1F7C1
S1133C10281B390B2D573B4F8FE0D901E1E0F0E031
S1133C20EC0FFD1F01900D928A95E1F74F5F4093D1
S1133C304601DD24D4016C91462F5527D9011396F2
S1133C40F90137968D91841731F480819181821521
S1133C50930509F440C1D394329683E08D1590F70F
S1133C60F9018281482F5527DA01A20FB31FFD0104
S1133C706383440F551F420F531FFA012782308676
S1133C808F5F8370F9018283B501C3010E94E00351
S1133C90B50181E00E942A06182F1E5F4FEFB5017F
S1133CA081E00E944B05482FD5018C91481718F0EC
S1133CB086E090E007C00EE1212FB50181E00E946B
S1133CC0C0059927892B09F006C1B501C3010E94DB
S1133CD0F503B8890B2F1127000F111F080D191DAB
S1133CE00F5F1F4F0E945601F8018183015010405D
S1133CF0892F9927F8018183C3010E942A036C2D1F
S1133D0080E30E9497084FEF25C0412FB50183E05F
S1133D100E9412068823E9F0412FB50183E00E9436
S1133D209705FC018081992744E0969587954A95EB
S1133D30E1F7482F5527413061F485819927382FC1
S1133D40222786819927282B392B622F82810E9472
S1133D50B709412FB50183E00E944B05182F20E0DD
S1133D6030E0D5018C91181710F021E030E0232BBE
S1133D7061F2B50180E60E942A069927182F88234C
S1133D8009F4AEC0B50180E60E94A9057C01812F2B
S1133D909927019796958795182FD2019101482F5D
S1133DA0F7018081682F7727FB01EF70F0701E17F1
S1133DB008F491C0CB0104E0959587950A95E1F745
S1133DC087709070882311F0AFEFBFEF660F672FF5
S1133DD0661F770B7195672B39F0EE2329F0412F7D
S1133DE04E1B4F5F2FEF3FEFC7010196BC01CD0182
S1133DF00E94D51BC3010E944206882309F470C0A7
S1133E00D7014C91242F3327C9018F7090708823D8
S1133E1091F5220F232F221F330B3195232BB1F061
S1133E20C2010E943809182F80E090E01E3011F47E
S1133E3081E090E0682F7727662309F055C0812F31
S1133E400E946510612F84E00E94190FB501C3011F
S1133E500E94E0034FEFB50180E60E944B050EE19E
S1133E6020E0482FB50180E60E94C005B501C301DA
S1133E700E94F50335C0982F9150892F8F70407F91
S1133E80842BF7018083F12FF91BF11790F4EF2FA6
S1133E90FF27EE0FFF1FEE0DFF1D81819927782F5D
S1133EA0662782819927682B792B6215730599F00F
S1133EB001C0B101C3010E944203C3010E94C503B2
S1133EC0EC2DFF27EA55F94F82E080836C2D80E3C7
S1133ED00E94970809C06C2D80E30E94190F04C04A
S1133EE06C2D80E30E948B0F60960FB6F894DEBFB2
S1133EF00FBECDBFDF91CF911F910F91FF90EF9037
S1133F00DF90CF90BF90AF909F908F907F906F90F5
S1133F105F904F903F902F9008952F923F924F9231
S1133F205F926F927F928F929F92AF92BF92CF9245
S1133F30DF92EF92FF920F931F93CF93DF93CDB74E
S1133F40DEB7E9970FB6F894DEBF0FBECDBF60E0D1
S1133F5070E081E090E08C0F9D1F0E944D032C01C6
S1133F601FAA64E081E090E08C0F9D1F0E94DD0396
S1133F7064E081E090E08C0F9D1F0E941F086FA9F0
S1133F8085E00E946001882309F478C384E00E94DC
S1133F908F07182F80E30E948F07682F812F0E94BC
S1133FA00D03D2C26B2C7724F30163E0F695E795F9
S1133FB06A95E1F7E75BFE4F8081282F3327C30121
S1133FC08770907041E050E0BA0102C0660F771F1D
S1133FD08A95E2F7262337232115310509F09A0142
S1133FE0232B71F46B2D84E00E945707182F6B2D3F
S1133FF080E30E945707682F812F0E940D03A4C2FB
S11340006B2D80E30E9433074C018C01009709F467
S11340100CC260E070E00E944D038DAB9EABBC010E
S113402081E00E942A069927182F882309F4D6C014
S1134030C4010E94DB07882399F46B2D80E30E945E
S1134040190FC3010E94F50284E00E948F07182F04
S113405080E30E948F07682F812F0E940D0374C292
S11340606DA97EA981E00E94A90588AF99AFE12ED0
S1134070FF240894E108F108F694E794AE2C60E07C
S113408070E0C4010E94AF07FC0180819927382E9B
S1134090222481819927282A392AA20161E070E02B
S11340A06C0F7D1F8B2D0E945F0F813079F4C3014B
S11340B00E94F50284E00E948F07182F80E30E947B
S11340C08F07682F812F0E940D033EC2B20181E049
S11340D090E08C0F9D1F0E94E0030E2D1127000F0E
S11340E0111F802F8F5F2EE1482FB20180E60E94BE
S11340F07705C82EDD24CC2099F06B2D80E30E9437
S1134100190FC3010E94F50284E00E948F07182F43
S113411080E30E948F07682F812F0E940D0314C231
S1134120B20181E090E08C0F9D1F0E94F503B20163
S113413080E60E94A905AC01892B99F46B2D80E3DC
S11341400E94190FC3010E94F50284E00E948F07A8
S1134150182F80E30E948F07682F812F0E940D0380
S1134160F3C18E2D8F708068DA018C93CE14D8F44D
S11341706E2DE8ADF9AD0E0F1F1F01501040F80170
S113418080819927982F882721813327822B932B8D
S1134190FD018283892F99278183615012960250F1
S11341A01040662361F7AA2059F0FA01818199270A
S11341B0982F882722813327822B932BBC0101C09F
S11341C0B10181E090E08C0F9D1F0E94420381E0C9
S11341D090E08C0F9D1F0E94C503D5C16DA97EA9D7
S11341E080E60E942A06882309F40CC16DA97EA9E1
S11341F080E60E94A9056C01DC018C91992774E08A
S1134200959587957A95E1F787709070882399F44E
S113421060E070E0C4010E94AF07FC01808199272F
S1134220182F002781819927082B192B0E945601EA
S113423008171907D9F4F6018081992754E0959558
S113424087955A95E1F787709070882309F4C1C067
S113425081819927182F002782819927082B192BF0
S11342600E9456010817190709F4B3C0D6018C91AE
S1134270992734E0959587953A95E1F78770907082
S1134280882361F460E070E0C4010E94AF07FC0180
S113429080819927382E2224818106C0F6018181EC
S11342A09927382E222482819927282A392AA20183
S11342B061E070E06C0F7D1F8B2D0E945F0F8130D9
S11342C079F4C3010E94F50284E00E948F07182F3D
S11342D080E30E948F07682F812F0E940D0334C151
S11342E0B20181E090E08C0F9D1F0E94E0030EE17B
S11342F027E0AE014D5C5F4FB20183E00E94720380
S1134300882399F06B2D80E30E94190FC3010E944A
S1134310F50284E00E948F07182F80E30E948F0724
S1134320682F812F0E940D030FC1B20181E090E03C
S11343308C0F9D1F0E94F5038BA9482FB20183E0C7
S11343400E9497057C01009799F46B2D80E30E94ED
S1134350190FC3010E94F50284E00E948F07182FF1
S113436080E30E948F07682F812F0E940D03ECC009
S1134370DC012C912F7020612C93F6018081992708
S113438014E0959587951A95E1F7207F87709070D2
S1134390282B2C93F40187819927982F882726812D
S11343A03327822B932BF7018683892F99278583C3
S11343B087010F5F1F4F0E945601F8018183892FE7
S11343C09927F70181832482832D99278383F1E040
S11343D0FFAB41E06B2D80E30E9417106B2D80E34F
S11343E00E94190F6FA9662309F0C9C084E00E94D6
S11343F08F07182F80E30E948F07682F812F0E9458
S11344000D03A2C06B2D80E30E94190FC3010E940B
S1134410F50284E00E948F07182F80E30E948F0723
S1134420682F812F0E940D038FC06B2D84E00E94A2
S113443033074C01009709F479C0B8010E94AF0713
S1134440FC0182819927382E222483819927282AE6
S1134450392ABE016C5C7F4FC4010E944D038DABB1
S11344609EAB8CA99927AC016DA97EA9C2010E94BB
S1134470E2308CA9682F81E090E08C0F9D1F0E9490
S11344806303A20161E070E06C0F7D1F8B2D0E941D
S11344905F0F8130C1F1B20181E090E08C0F9D1F6C
S11344A00E94E0032EE141E0B201842F0E947705CF
S11344B0882371F4B20181E090E08C0F9D1F0E946B
S11344C0F503B20181E00E94A905FC01892B29F4BE
S11344D06B2D80E30E94190F16C080918306982FDC
S11344E08F5F8093830690836FEF7FEF81E090E08E
S11344F08C0F9D1F0E94420381E090E08C0F9D1F52
S11345000E942A0340C06B2D84E00E94190FC3014E
S11345100E94F50284E00E948F07182F80E30E9416
S11345208F07682F812F0E940D030EC0C3010E94C4
S1134530F50284E00E948F07182F80E30E948F0702
S1134540682F812F0E940D03B82E40E050E07EE0DA
S1134550871711F441E050E020E030E08EE0B81617
S113456011F421E030E080E090E0442321F02223A4
S113457011F081E090E0892B09F414CD7FC09FA94C
S1134580992309F47BC061E085E00E9472018130C7
S113459009F474C082E3EDEDF3E0A1E0B0E0AC0F08
S11345A0BD1F0D9001928A95E1F7009101011091D0
S11345B00201C8010E94410884509927282FA801AC
S11345C0B10181E00E94F719992782309105C1F069
S11345D0833091051CF4892B39F023C08430910574
S11345E041F0059731F01DC08B2D99270E94F502EB
S11345F018C08FB7F8949927109229048FBF3EC032
S11346008FB7F8949927109229048FBF8B2D99277F
S11346100E94F5028B2D0E94480F8EE00E948000BC
S11346202DC0C4010E945F03803341F56DA97EA9AA
S113463081E00E942A06882309F1C4010E94DB0755
S11346408823E1F06DA97EA9C4010E94E0034FEF25
S11346506DA97EA981E00E944B050EE120E0482F60
S11346606DA97EA981E00E94C0056DA97EA9C4013F
S11346700E94F503B4018B2D0E94881CE9960FB6A5
S1134680F894DEBF0FBECDBFDF91CF911F910F9184
S1134690FF90EF90DF90CF90BF90AF909F908F905E
S11346A07F906F905F904F903F902F9008959F92CE
S11346B0AF92BF92CF92DF92EF92FF920F931F932C
S11346C0CF93DF93CDB7DEB721970FB6F894DEBF53
S11346D00FBECDBF9927AA27BB27FC01429708F03C
S11346E0A1C6EA5BFF4FEE0FFF1F0590F491E02D8A
S11346F0099480917D01882309F494C69090B406AE
S11347002EE0921609F48EC6A92CBB24F501EE0FF7
S1134710FF1FEA0DFB1DE85AFB4F2081822F9927CA
S11347208F719070029709F0DAC0E180F280922FC5
S1134730907E946090838091C4038E3011F49092A3
S1134740C403929596959770892F992761E0C62E98
S1134750D12CC822D92280FD9EC0C7010E942F07F8
S1134760282F33272430310521F02033310559F126
S113477090C0B601C7010E94AF07FC01828199274E
S1134780782F662783819927682B792B3FEF6F3F1A
S1134790730731F4C7010E944203692D84E076C097
S11347A00E9456018C01B601C7010E94AF07FC01AB
S11347B082819927982F882723813327822B932B53
S11347C0682F802F58C0B601C7010E94AF07FC01B3
S11347D082819927182F002783819927082B192B69
S11347E0B601C7010E944D037C01BC0181E00E9417
S11347F02A068823B9F1C8010E943809B6018E300F
S113480011F461E070E0672BC9F59927FC01EE0F04
S1134810FF1FE80FF91FE85AFB4F01811281C801FD
S11348200E945F03843019F08FEF90E004C0C80148
S11348300E9477089927E82EFF248501000F111F95
S11348400A0D1B1D085A1B4FF801818192810E9499
S11348502F07803399F46E2DF801818192810E9493
S1134860D7080CC0B70180E60E942A06882331F4D9
S11348700E945601602F0E943B1931C0E92DFF2789
S1134880EA55F94F82E08083692D80E30E949708FE
S113489026C0692D22C0C7010E9442061091B406A9
S11348A0882321F0C7010E942F0703C0C7010E947B
S11348B02F07282F33272430310521F020333105E9
S11348C031F00AC0B701812F0E94521C08C0B70101
S11348D0812F0E94881C03C0612F0E94190F62E07F
S11348E084EB96E00E94D0028091B4068E3008F0EA
S11348F099C580E059C580917D01882309F492C54A
S1134900809113058E3009F48DC59927FC01EE0FB3
S1134910FF1FE80FF91FE85AFB4F80819927887120
S11349209070892B09F493C001811281BE016F5FDD
S11349307F4FC8010E94AF07809113059927FC019E
S1134940EE0FFF1FE80FF91FE85AFB4F80819927EC
S11349508F7190708830910531F0409709F077C0DD
S1134960C8010E94770861E080E00E9472018130F2
S113497009F458C5C8010E942F07F8019781292F0F
S11349803327D22ECC249681292F3327C22AD32A27
S1134990E82EFF24F4E0EF16F10429F020E3E216F8
S11349A0F10429F008C0C8010E94480305C0C801E9
S11349B00E94480301C08FEFA82EBB2434E0E31605
S11349C0F10429F040E3E416F10469F01AC0B601D9
S11349D0C8010E94420364E0C8010E94DD034A2D1D
S11349E0B80181E00BC0B601C8010E94420360E334
S11349F0C8010E94DD034A2DB80180E00E948412A0
S1134A0001C081E0992782309105D1F0833091056E
S1134A1034F4009709F406C5019761F018C0853095
S1134A20910559F0863091051CF4049731F00FC0BC
S1134A30069769F40E9428070AC00E942807F2C456
S1134A400E9428076EE1C8010E941F080EC08091D1
S1134A5013050E94D70E68E183E195E00E94D0021D
S1134A60809113058E3008F0DDC481E09DC440912F
S1134A706701442349F58FB7F894282F3327E09032
S1134A801605F090170500911805109119058091ED
S1134A900A0690910B06A0910C06B0910D06E80E43
S1134AA0F91E0A1F1B1F2FBF80917006909171067B
S1134AB0A0917206B0917306409367019C01AD0109
S1134AC0C801B7010E94760A0E94CE09DC01CB011D
S1134AD0BC01CD0143C00E94CE097B018C016FEF64
S1134AE0A62E6FEFB62E6FEFC62E6FE7D62E70E0B0
S1134AF08FB7F89499277093D7058FBFECE4F1E052
S1134B0062E0808581FF1CC080819181A281B38194
S1134B10A8019701281B390B4A0B5B0BDA01C90169
S1134B202481358146815781281B390B4A0B5B0B45
S1134B302A153B054C055D051CF459016A0171E019
S1134B406150399667FFDDCF772309F46BC41A14DB
S1134B501B041C041D042CF0C801B7010E94571A41
S1134B6061C4A0927006B0927106C0927206D0928F
S1134B70730681E080936701A6019501C801B7011E
S1134B800E94760A4FC48FB7F894E82EFF2481E080
S1134B900E940B0C01E010E010933E0100933D01D4
S1134BA010923C011092450110928506EFBE8FB71A
S1134BB0F894E82EFF240E941C071093C30300936B
S1134BC0C2031092AF0389B78F7B89BF80E488BF8B
S1134BD08AB780628ABF8AB78F7E8ABF89B78064AA
S1134BE089BFEFBE8FB7F894082F11278091420137
S1134BF090914301049719F483E00E942E0C0FBF97
S1134C008FB7F894082F1127C09A80E00E9466138A
S1134C100FBF8FB7F894282F332782E080932604A0
S1134C202FBF11E010937D018091B4068E3018F4EB
S1134C3080E00E948000809113058E3018F4812F4B
S1134C400E9480000E945601019709F0EBC360E0C6
S1134C5074E080E090E00E94F50AE4C38FB7F89412
S1134C609927109226047BC08FB7F8949927F09067
S1134C7044018FBF63E082E00E946001882369F1F0
S1134C808FB7F894082F112710923E0110923D011E
S1134C9087B78F7E87BF87B78F7D87BF83E00E94EA
S1134CA06613C09A0FBF8FB7F894082F112710927C
S1134CB0C3031092C2030E941C07C09A89B78F7B5A
S1134CC089BF0FBF1092430110924201DE98DD9814
S1134CD0DE9A85E00E94800008C08FB7F894282FE0
S1134CE0332782E0809326042FBF0091A006109101
S1134CF0A1060E948A0180910001823008F092C3CB
S1134D00E82FFF27EE0FFF1FE559FE4F60817181E9
S1134D106017710709F086C34F2D82C38FB7F894CB
S1134D20282F3327122F8091C003882309F00CC148
S1134D3021E02093C00380914201909143010497A4
S1134D4021F4822F0E94210D03C088E00E9480007C
S1134D501FBF68C38FB7F89499271092C0038FBF01
S1134D6061C38FB7F894282F33278091410188239A
S1134D7009F0EAC02FBF80B3992756E0969587952E
S1134D805A95E1F7182F11708091450490916801AC
S1134D908917E1F01917D1F484E090E0909343016E
S1134DA0809342018FB7F894282F332781E08093B2
S1134DB041012FBF60E070E08DE10E94490C0E9428
S1134DC0AA0CC09AC09884E00E9480001093450405
S1134DD089E0EAC28FB7F8949927209109018FBF1F
S1134DE033272230310509F464C02330310544F4FB
S1134DF02115310571F02130310509F445C012C384
S1134E002330310509F471C02430310509F4A2C0FE
S1134E1009C3C0988FB7F894E82EFF24809142010B
S1134E2090914301029771F583E090E090934301E0
S1134E308093420168E170E08DE10E94490C11E029
S1134E40109368011092410180B3992746E096952A
S1134E5087954A95E1F781238093450489E00E9470
S1134E608000812F0E942E0C6FE772E08CE10E947B
S1134E70490C0E94700C0E94820C66E57AE287E17C
S1134E800E94490CEFBECEC2C09886E00E942E0C50
S1134E900E94700C0E94820C0E94AA0CC09AC098B6
S1134EA083E00E942E0CC09A81E00E94661388E081
S1134EB07BC2C0988FB7F894E82EFF2460E081E0AD
S1134EC00E946001082F1127002311F0EFBE0AC0D1
S1134ED0EFBE83E50E942A0C802F0E942A0C802FAB
S1134EE00E942A0CC09A82E032C08FB7F8949927A6
S1134EF020913D018FBF33272430310581F02530C7
S1134F00310524F42230310539F020C028503040D6
S1134F1023303105D8F406C00E94500E83C20E948B
S1134F20FE1380C2C09889E00E942E0CC09A83E0D0
S1134F300E9466138FB7F894282F332781E090E0FE
S1134F4090933E0180933D012FBF6CC283E00E9489
S1134F50661368C20E94450E65C28FB7F894082F85
S1134F6011276091700170917101E0913504F09105
S1134F7036048091D4059091D50510927101109258
S1134F80700110923604109235041092D5051092D7
S1134F90D4051092B5031092B40320E0AC01CF0104
S1134FA00E9455140FBF3EC28FB7F894282F3327A1
S1134FB080911C058093060182E080933F012FBFFE
S1134FC080910601882309F02DC28AE0EDC16FBFEC
S1134FD099C0A0914701B091480180916A01FD01F7
S1134FE0E80FF11D8081881F8827881FFD0184A791
S1134FF080916A01E80FF11D31978081FD0182A73C
S113500080916A01E80FF11D80818F77FD0183A7EC
S113501000914701109148013BE0C32ED12CC00EF2
S1135020D11EF0906A01F80181859927582F4427F1
S113503080859927482B592B83819927A82F782F6E
S11350408FEF8093A3068FB7F894682F20E030E0A9
S1135050E4E6F6E0808191818417950731F482813A
S1135060871709F4B4CF2093A3062F5F3F4F3396DD
S1135070243031057CF36FBF9091A30630E08FB7E5
S1135080F894282F9F3F21F080913B01891719F450
S113509090913B0131E0892F9927FC01EE0FFF1F0E
S11350A0E80FF91FEC59F94F40835183A28333234E
S11350B031F080913B018F5F837080933B012FBF60
S11350C0C8010E944206F4EFFF0E882321F0C801B4
S11350D00E945F0303C0C8010E945F0399278430C4
S11350E0910519F0C09731F00DC02F2DA601B8011C
S11350F084E004C02F2DA601B80180E30E94861B22
S1135100BC0101C0B80170934801609347018FB797
S1135110F89499271092AF038FBF0E94AB1382C1FA
S11351200E948D1F7FC180E090E02091160422230D
S113513011F481E090E0082F1127002309F471C0D5
S1135140109241068091BF03893009F06BC1B09081
S11351508706AA24CC24DD247601A3E0F694E79400
S1135160AA95E1F7F701E65CFB4F4081242F332732
S1135170C6018770907061E070E08B0102C0000F7F
S1135180111F8A95E2F7202331232115310509F0F7
S11351909B01232B89F0802F8095482340838A2DFF
S11351A00E94AE02482F55274423D1F4F701E85753
S11351B0F94F8081802B13C0C6010E9420028823EE
S11351C099F08A2D0E94AE02482F5527442361F09E
S11351D0F701E857F94F902F9095808189238083B8
S11351E06A2D8B2D0E941C17A3940894C11CD11CFA
S11351F029E0C216D10408F4AFCF20E030E080915A
S11352001D05882321F480918706B81611F021E04A
S113521030E0232B09F406C169E08B2D0E94780944
S113522001C1822F815080931604682F802F0E9421
S1135230B001402FE0901604F1E0FF2EFE1408F0B8
S113524044C0EF2DFF279F012F5F3F4F8E2D9927DD
S113525028173907ACF4EA54FC4F21818081E82FE8
S1135260FF27E45CFB4F80819927E22FFF27E45C52
S1135270FB4F2081821B9109181619060CF4F39434
S1135280E42FFF27EA54FC4F20810F2D1127F8014A
S1135290EA54FC4F8081E82FFF27E45CFB4F8081B8
S11352A09927E22FFF27E45CFB4F2081821B9109A1
S11352B01816190654F06F2D842F0E94B0014F2D3B
S11352C0000F111FF02EF394B9CF80911604E82F2C
S11352D0FF27EA54FC4F8081282F3327F901E65D2C
S11352E0FB4F89E08083B22EC22EDD24D601AC5858
S11352F0BE4FF601E75EFB4F80818C938091BF0324
S1135300281739F4109223040E94A5018FE00E940B
S11353108000F601E658F94F20813CC0022F112786
S1135320F801E00FF11FE25EFA4F8081282F332746
S1135330F601E45CFB4F90819F5FA22FBB27E9E15C
S1135340EE2EE4E0FE2EEA0EFB1EF701808189308A
S113535039F4A45CBB4F9C93822F0E94F90112C0C4
S1135360FD01EC58FE4F8081893071F4FD01E45C4D
S1135370FB4F8081981740F49083A65DBB4F8C91BE
S11353800E94C801F701B082000F111F025E1A4F7C
S1135390F801218180E090E0203411F481E090E074
S11353A0892B09F4BBCF8FE00E9480003BC0809121
S11353B086068823B9F101E010E090918606892FD2
S11353C08023F1F0212F3327F901EE0FFF1FE55958
S11353D0FE4F6081718110821182802F8095982305
S11353E0909386062115310521F02130310521F0F5
S11353F007C043E080E302C043E084E00E94F6106B
S1135400000F1F5F1830C8F20DC080910001E82F13
S1135410FF27EE0FFF1FE559FE4F41E060817181C8
S11354200E94D71221960FB6F894DEBF0FBECDBFEF
S1135430DF91CF911F910F91FF90EF90DF90CF906C
S1135440BF90AF909F90089580918A068F3FD1F0CE
S113545090918A0680918A06E82FFF27E257F94F38
S1135460808180938A0680918A068F3F11F480930D
S1135470A206892F9927FC01E257F94F2FEF2083C9
S11354809C0102C02FEF30E02F3F19F480E090E040
S11354900895822F0E94572381E090E00895CFEF72
S11354A0D0E1DEBFCDBF8FB7F894F82E42E150E0D3
S11354B06FEF70E08EE896E00E94FD308FEF8093EE
S11354C08A068093A20681E08EBD88E080BF83E0D7
S11354D083BF2CB53DB54AE78CB59DB582179307BC
S11354E008F441509C014423B9F792B782B7891755
S11354F0E9F32CB53DB592B782B78917E9F38CB5BA
S11355009DB5821B930B4096F5E096958795FA9589
S1135510E1F7909315058093140513BE83B78EBDF0
S11355208EB580BF12BE1DBC1CBC8FEF86BF86B774
S113553080937C0080B7282F332727703070211583
S11355403105C1F7D29AD19AD09ADA9AD99AD89ACF
S113555025BB8FEF84BBD498DC983DBD2CBD87B7A9
S1135560846087BF8EB5887F84608EBD80E285BFEE
S11355700E94242AC82FDD27CC23D1F7C093D60557
S1135580C0934006C0937301C0938D06C093460137
S11355900E94A501C093410689E08093870681E0BB
S11355A080931D050E94670907EA13E088E0F8016B
S11355B0282F11922A95E9F7C093370490E4EAE77B
S11355C0F6E09193815087FFFCCF8FEF9FEFE4E6E5
S11355D0F6E0808391831282339626E0ED36F2075B
S11355E0C1F3BCF30E94A500DC01CB0180934B0105
S11355F088ED95E090934801809347018E98B89A7E
S11356008C988FEF8093B506B89AD69AD59A0E9453
S1135610560190938C0680938B0680910301992701
S113562090934704809346048FE1809334048AE185
S11356308093740681E080930F0410922204809377
S1135640C10380B7886080BF8BE083BF86EE81BFD3
S113565087B7826087BF0E94F409809110019091FE
S113566011010196AA27BB278093D9039093DA03EB
S1135670A093DB03B093DC03E4E2F4E0119284E052
S1135680E932F807D9F3D0F3EEEFF4E080EB91E0E0
S113569081939193C29625E0E031F207C9F3C4F3F4
S11356A08AE0809312051092A603E8E5F4E09DE0F9
S11356B08081807E816080839150339697FFF8CFFC
S11356C08EE0E0EBF3E093E08193915097FFFCCF01
S11356D010926F018093B4068093C40380931305E2
S11356E010927D010E94242A8823E1F7FFBE78945A
S11356F088E0F80111928A95E9F70E94A500DC017F
S1135700CB018093830610924A011092490161E013
S113571082E00E947201882309F58FB7F894282F3C
S113572033278091420190914301892B11F02FBFBF
S11357301FC081E090E090934301809342012FBF0A
S1135740DD9A0E94FD06DC01CB0124E130E040E05B
S113575050E0BC01CD010E94C10B0AC062E0862F5B
S11357600E946001882321F461E082E00E946001CC
S11357708FB7F894682F5EC087B79927887B892BE9
S113578041F480917D00282F33272B7F211531058B
S113579019F080E090E021C08DB19927E6E096955C
S11357A08795EA95E1F7AC014170507080FF02C023
S11357B0C90113C08AB190919A00892B807C21F48D
S11357C08091740082FF02C0CA0107C0379B03C0E6
S11357D081E090E002C085E090E0282F87B7992708
S11357E083709070892BA1F080B79927877090708F
S11357F0892BD1F781B792B7891B8C3018F082B707
S1135800853F18F082E090E005C083E090E002C09C
S113581085E090E0E82F281708F4E22F85B7837E0F
S1135820FF27E055FF4F9491892B806285BF7894C0
S11358308895F89480918A068F3FC9F090918A06E2
S113584080918A06E82FFF27E257F94F80818093E1
S11358508A0680918A068F3F11F48093A206892FCD
S11358609927FC01E257F94F2FEF208302C08FEFF5
S113587090E08F3F09F480CF6FBF0E94572378CF09
S11358801F920F920FB60F9211242F933F934F93B1
S11358905F936F937F938F939F93AF93BF93EF9394
S11358A0FF9383B783BF00B600FCFDCF81B7992770
S11358B001969C014427552780919E0590919F0550
S11358C0A091A005B091A105820F931FA41FB51F3D
S11358D080939E0590939F05A093A005B093A10586
S11358E078940E94F409FF91EF91BF91AF919F9139
S11358F08F917F916F915F914F913F912F910F9075
S11359000FBE0F901F9018951F920F920FB60F9213
S113591011248F9383B783BF00B600FCFDCF8F9112
S11359200F900FBE0F901F90189578941F920F92AE
S11359300FB60F9211242F933F934F935F936F935E
S11359407F938F939F93AF93BF93CF93EF93FF93E3
S113595087B78F7E87BF78948FB7F894C82F8091CC
S1135960750690917606A0917706B0917806009717
S1135970A105B10509F069C080913D0190913E01F6
S11359808530910509F443C08630910530F48330A5
S1135990910579F0049791F146C08930910571F130
S11359A08A30910518F4079781F13DC00A9701F1F7
S11359B03AC080B39927A6E096958795AA95E1F712
S11359C080FF13C084E090E090933E0180933D01FA
S11359D00E94FD06DC01CB0127E030E040E050E00E
S11359E0BC01CD010E94C10B1EC00E94DF0B1BC075
S11359F089E090E090933E0180933D010E94BA11AA
S1135A00882389F40E94FE130EC080E00AC089E056
S1135A100E942E0C81E00E940B0C83E00E9466130E
S1135A2087E00E94EA068091420190914301019728
S1135A3071F482E090E09093430180934201DE98F8
S1135A40DE9A80E00E94210D02C00E94130BCFBF9A
S1135A50FF91EF91CF91BF91AF919F918F917F91E2
S1135A606F915F914F913F912F910F900FBE0F90C7
S1135A701F90189578941F920F920FB60F921124CD
S1135A800F900FBE0F901F90189578941F920F924D
S1135A900FB60F9211240F900FBE0F901F90189500
S1135AA078941F920F920FB60F9211240F931F93A5
S1135AB02F933F934F935F936F937F938F939F9312
S1135AC0AF93BF93CF93DF93EF93FF93CCB5DDB543
S1135AD080E286BF8FB7F894082F80913D019091A2
S1135AE03E018530910519F0069799F15DC086E075
S1135AF090E090933E0180933D0111E010931A05CC
S1135B0080E00E940B0CE0911704F091180481814D
S1135B1085FF02C01093450183E00E94661387B796
S1135B208F7E87BFE0911704F09118048181992733
S1135B3087709070019721F4C7A78D2F992786A7A6
S1135B4080B3992724E0969587952A95E1F780FDFF
S1135B5073C010921A0581E00E940B0CE0911704A7
S1135B60F0911804818185FF13C087E090E0909341
S1135B703E0180933D010E94FD06DC01CB0120E043
S1135B8031E040E050E0BC01CD010E94C10B03C0F4
S1135B9080E00E94EA0680B3992714E096958795E1
S1135BA01A95E1F780FF48C090913C01992371F563
S1135BB081E080931A05892F0E940B0C40911B05EC
S1135BC04830A0F480918204840F912D911D9C0192
S1135BD0887F9370281BE22FFF27EE0FFF1FEA54E4
S1135BE0F94FC083D1834F5F40931B0581E08093BD
S1135BF03C01D0936306C093620680B39927B4E056
S1135C0096958795BA95E1F780FD16C010921A050E
S1135C1081E00E940B0C10923C01809162069091ED
S1135C206306C81BD90B2A9738F480911B05882377
S1135C3019F0815080931B050FBFFF91EF91DF9105
S1135C40CF91BF91AF919F918F917F916F915F9110
S1135C504F913F912F911F910F910F900FBE0F9075
S1135C601F90189578941F920F920FB60F921124DB
S1135C702F933F938F939F938FB7F894282F3327B5
S1135C808091A4039091A50301969093A50380931A
S1135C90A4032FBF9F918F913F912F910F900FBE1F
S1135CA00F901F9018951F920F920FB60F92112408
S1135CB00F900FBE0F901F9018951F920F920FB662
S1135CC00F9211240F900FBE0F901F9018951F92E2
S1135CD00F920FB60F9211240F900FBE0F901F90CA
S1135CE018951F920F920FB60F9211240F900FBEAA
