S01800006275696C642F6D6963617A2F6D61696E2E73726563E5
S11300000C9475010C94595F0C94635F0C946D5FB0
S11300100C94955F0C949F5F0C94A95F0C94B35F50
S11300200C94E35F0C9492010C9492010C94565E30
S11300300C94A85D0C94405E0C94385F0C94535D52
S11300400C94975D0C94ED5F0C94BC600C9492013D
S11300500C941D610C9457600C9492010C949201C1
S11300600C944B5E0C946D620C944C620C9457622D
S11300700C9462620C9480620C942F620C94920132
S11300800C9441620C9492010C94920189538C5308
S11300908F53D755015704570D57105713571957F6
S11300A01C571F572257255728572B572E57315760
S11300B03F5760576357665769576C576F57725766
S11300C075578757BD576F590B580D585058765967
S11300D079597C597F5983598659AB59AE59CC59B2
S11300E0DA59F15900081C1814100000211042209C
S11300F063308440A550C660E770088129914AA105
S11301006BB18CC1ADD1CEE1EFF13112100273327B
S11301105222B5529442F772D662399318837BB354
S11301205AA3BDD39CC3FFF3DEE36224433420040B
S11301300114E664C774A44485546AA54BB52885A4
S11301400995EEE5CFF5ACC58DD55336722611165B
S11301503006D776F6669556B4465BB77AA71997F4
S11301603887DFF7FEE79DD7BCC7C448E5588668E3
S1130170A7784008611802282338CCC9EDD98EE944
S1130180AFF9488969990AA92BB9F55AD44AB77ABB
S1130190966A711A500A333A122AFDDBDCCBBFFB94
S11301A09EEB799B588B3BBB1AABA66C877CE44CCB
S11301B0C55C222C033C600C411CAEED8FFDECCDE4
S11301C0CDDD2AAD0BBD688D499D977EB66ED55E9B
S11301D0F44E133E322E511E700E9FFFBEEFDDDF34
S11301E0FCCF1BBF3AAF599F788F8891A981CAB1C0
S11301F0EBA10CD12DC14EF16FE18010A100C230F2
S1130200E3200450254046706760B9839893FBA3AC
S1130210DAB33DC31CD37FE35EF3B1029012F32241
S1130220D2323542145277625672EAB5CBA5A895FC
S113023089856EF54FE52CD50DC5E234C324A01491
S113024081046674476424540544DBA7FAB799878C
S1130250B8975FE77EF71DC73CD7D326F2369106E1
S1130260B01657667676154634564CD96DC90EF9D4
S11302702FE9C899E9898AB9ABA944586548067831
S11302802768C018E1088238A3287DCB5CDB3FEBEC
S11302901EFBF98BD89BBBAB9ABB754A545A376A81
S11302A0167AF10AD01AB32A923A2EFD0FED6CDDBC
S11302B04DCDAABD8BADE89DC98D267C076C645CD1
S11302C0454CA23C832CE01CC10C1FEF3EFF5DCFCC
S11302D07CDF9BAFBABFD98FF89F176E367E554E21
S11302E0745E932EB23ED10EF01E11241FBECFEFCA
S11302F0D0E1DEBFCDBF11E0A0E0B1E0E0E6FAEC72
S113030000E00BBF02C007900D92AC32B107D9F7E1
S11303101CE0ACE2B1E001C01D92A632B107E1F7E6
S11303200C94365A0C9400008FB7F89499270895CA
S11303308FBF0895FC01862F845F80830895FC019C
S113034062870895FC01828599270895FC018781BD
S11303509927382F222786819927822B932B08955A
S11303608FB7F894992720912401309125018FBFEC
S1130370C9010895982F8FB7F894482F552730E076
S1130380E92FFF27E357FA4F8081861709F431E0FC
S11303904FBF832F99270895282F91E08FB7F894A2
S11303A0382F662339F0E22FFF27E357FA4F808175
S11303B0882331F4E22FFF27E357FA4F608390E05C
S11303C03FBF892F9927089590912601981739F4F2
S11303D080915901823019F481E090E0089580E021
S11303E090E008958FB7F894992710928F058FBFE6
S11303F00895982F8FB7F894282FE92FFF27EF53EC
S1130400F44F80818F3FB1F48091F20B891791F002
S113041080918B098F3F19F490938B0907C08091C9
S1130420F20BE82FFF27EF53F44F90839093F20BD6
S113043080E001C085E02FBF99270895809159017C
S1130440882319F480E090E0089581E090E0089515
S1130450CF92DF92EF92FF920F931F93CF93DF938C
S11304606C018B017A01E901232B39F423C0F601D5
S11304706083718380E090E01FC0FB0133E0F69558
S1130480E7953A95E1F7EE0DFF1D808199279B01D1
S11304902770307002C0959587952A95E2F780FD04
S11304A0E6CFCB010196BE010E94B064BC01801767
S11304B0910719F781E090E0DF91CF911F910F919F
S11304C0FF90EF90DF90CF900895CF93DF93982F14
S11304D08FB7F894282F3327422F80914701882320
S11304E001F1E92FFF27E652FE4F80818F3FA1F4EF
S11304F0E0911C01E91781F080911D018F3F19F4EF
S113050090931D0104C0FF27E652FE4F9083909301
S11305101C0180E090E002C085E090E04FBF992785
S113052025C081E080934701909350092FBF8FB776
S1130530F894C82FDD279C2F80911B01823099F4F9
S113054080914701813021F481E20E94F90109C0C0
S1130550823049F48091500980931B0183E0809399
S11305604701CFBF01C09FBF80E090E0DF91CF91F2
S11305700895CF92DF92EF92FF920F931F93CF9340
S1130580C82F77278BE090E0689FF001699FF00DFA
S1130590789FF00D1124EF5FF64F8081882319F0C6
S11305A085E090E046C06115710519F06130710570
S11305B019F480E092E002C080E090E0AA27BB2713
S11305C0BA2FA92F982F882782179307A407B50756
S11305D048F0821B930BA40BB50B8C159D05AE053F
S11305E0BF0518F486E090E024C08BE090E0689F9B
S11305F0F001699FF00D789FF00D1124EF5FF64F25
S1130600C083238334834583568301831283C78243
S1130610D086E186F2866115710521F0613071059D
S113062019F005C080E001C081E00E94650280E00D
S113063090E0CF911F910F91FF90EF90DF90CF90BA
S113064008952F923F924F925F926F927F928F9272
S11306509F92AF92BF92CF92DF92EF92FF920F934D
S11306601F93CF93DF93CDB7DEB72A970FB6F894D5
S1130670DEBF0FBECDBF8FB7F894282F332729874D
S11306803A8720905705309058054090590550906E
S11306905A056624BEE4AB2EA3E8BA2EC62CD62C8B
S11306A0E62CF62C062D162D222D332D442D552DFA
S11306B0662D762D862D962D0E94A16229833A837C
S11306C04B835C836D837E838F839887822E932EE6
S11306D0A42EB52E2401350176946794579447943B
S11306E000E20E94AB63A22EB32EC42ED52EC60107
S11306F0B501640D751D861D971D97FF05C09F7775
S11307006F5F7F4F8F4F9F4F6093570570935805CE
S11307108093590590935A0539853FBF2A960FB6A1
S1130720F894DEBF0FBECDBFDF91CF911F910F9123
S1130730FF90EF90DF90CF90BF90AF909F908F90FD
S11307407F906F905F904F903F902F900895EF921D
S11307500F931F93AE2D99E0899FF0011124E65960
S1130760FE4F4083518362837383048315832683FE
S11307703783A17080858E7F8A2B826080878FE08B
S11307800E94F9011F910F91EF900895CF938FB7B5
S1130790F894C82F80918C05882341F482E20E944A
S11307A0F901882319F481E080938C05CFBFCF91A0
S11307B008950F931F93CF93DA01C22F4C5F5F4FBD
S11307C0FA016183272F3327FD0124838287FA01ED
S11307D0C48300914001109141010115110519F0E4
S11307E085E090E041C08FB7F894482F552724E066
S11307F030E020933E0110923D01B0934301A09359
S1130800420182E090E09093410180934001109274
S11308103B0110923C01C95F822F8C0F80933F01F2
S11308204FBF90E08FB7F894282F33278091220789
S1130830882331F481E08093220790932307982F33
S11308402FBF992321F00E94C603C80102C085E08E
S113085090E0882319F480E090E006C010924101F2
S11308601092400181E090E09927CF911F910F9160
S11308700895FC0184819927382F2227858199279F
S1130880822B932B0895EF92FF920F931F93E82FDF
S1130890FF27EE0FFF1FE751FE4F108211821092C7
S11308A0130120E08091E9019091EA01892B19F06C
S11308B08091D90480FD21E010921301222319F0C4
S11308C081E080931301809113018823E9F400915E
S11308D0E9011091EA01F8018285E82EFF24C8019C
S11308E00E943904BC010C5F1F4FF801848104503D
S11308F010409927282FA8018E2D0E94D903882300
S113090019F089E20E94F9011F910F91FF90EF9075
S11309100895CF93DF93EB01DA012B2F3C2F4D2F5A
S11309205527E82FFF27309739F0319719F42050D5
S11309303E4F02C02FEF3FEFCD0190704427552763
S1130940542F432F322F2227AA27BB27280F391FC2
S11309504A1F5B1FCA01B901DF91CF910895BF926D
S1130960CF92DF92EF92FF920F931F93CF93DF9377
S11309707A018B01C7E0D5E0811181E080931205F3
S11309808FEF9FEF80930C058FEF90E080930B0522
S1130990EBEABE2EB0921105C090E901D090EA01B5
S11309A0C114D104F1F4D093EA01C093E901E092B7
S11309B00F05809113018823A1F0CE010E94390410
S11309C0109213012E2DAE01BC018B2D0E94D90370
S11309D0882339F081E080931301D092EA01C09218
S11309E0E901DF91CF911F910F91FF90EF90DF907C
S11309F0CF90BF9008955698579810920502109280
S1130A005C05539A549A579A089520E08FB7F89446
S1130A10982F80915C098A3029F4809128078430CA
S1130A2009F421E09FBF222351F084E20E94F901DE
S1130A308FB7F8949927109246018FBF08958FB706
S1130A40F894282F332781E0809346012FBF08951F
S1130A5080E20E94F90180E090E00895CF92DF9255
S1130A60EF92FF920F931F93962FA42FA8018093C8
S1130A70480190937B09C901880F892F881F990B1E
S1130A80919580937C09220F852F9927282B2093F9
S1130A907D0940937E09F0923107E0923007D092AD
S1130AA04005C0923F05A093190980E20E94F90114
S1130AB01F910F91FF90EF90DF90CF900895CF9307
S1130AC0982F8FB7F894C82F80914701833081F510
S1130AD080911B01891761F520E030E080911D01B0
S1130AE08F3F11F421E030E0232BE9F48F3F81F0B4
S1130AF0282F3327F901E652FE4F808180931D0190
S1130B008F3F11F480931C018FEF8083C90102C0D1
S1130B108FEF90E08093500981E08093470181E258
S1130B200E94F90105C082E080931B0110924701E5
S1130B30CFBF81E090E0CF910895CF92EF92FF92E2
S1130B400F931F9380913401833079F423513540FE
S1130B5061F4109234010894E11CF11C011D111D73
S1130B60B801A7018C2D0E94AF041F910F91FF9033
S1130B70EF90CF9008958FB7F894682F77278091DE
S1130B808A0490918B042CB53DB506B602FE03C0D1
S1130B9001962CB53DB5AA27BB2744275527DC0170
S1130BA099278827822B932BA42BB52B6FBFBC01CD
S1130BB0CD010895CF92DF92EF92FF920F931F938E
S1130BC0609134016130D1F4082F1127011511050A
S1130BD021F00130110541F011C0CC24DD2476014F
S1130BE0A701960160E007C0CC24DD24760100E073
S1130BF010E0A701960183E00E94B9021F910F91B2
S1130C00FF90EF90DF90CF900895CF92EF92FF92F4
S1130C1080913401843089F410923401CC2031F471
S1130C20E09214058F2D99278093130543E050E03B
S1130C3060E070E08C2D0E94AF04FF90EF90CF90A5
S1130C400895282F33272115310541F0213031052E
S1130C5019F460507E4F02C060E070E0CB0108954B
S1130C60982F80E02FB7F894422F552722B3277D81
S1130C7022BB97FD939A959A8299806822BB96FD30
S1130C80939A959A8299806422BB95FD939A959A3A
S1130C908299806222BB94FD939A959A829980618D
S1130CA022BB93FD939A959A8299886022BB92FD08
S1130CB0939A959A8299846022BB91FD939A959A0E
S1130CC08299826022BB90FD939A959A8299816061
S1130CD04FBF99270895262FEAEEF0E02927220F27
S1130CE0F11DE20FF11DC895982F802D3196C895FE
S1130CF0902508950F931F93CF93C62F8C0180E006
S1130D0090E0662339F0F80161918F010E946B062F
S1130D10C150C9F7CF911F910F91089589B78B7F67
S1130D2089BF8FE10E94F90108958091FB048E7FB1
S1130D308093FB048091F8048E7F8093F8041092D2
S1130D4088080895982F8FB7F894282F3327422FB7
S1130D5080912101891741F480915301833021F45A
S1130D602FBF81E090E008954FBF80E090E00895A8
S1130D70282F869586958695E82FFF27E65DF84F00
S1130D80277081E090E002C0880F991F2A95E2F74E
S1130D9020812823822F992708958BE10E94F9014D
S1130DA099270895282F869586958695E82FFF27FD
S1130DB0E354FE4F277081E090E002C0880F991F32
S1130DC02A95E2F720812823822F99270895FC0190
S1130DD080818C50992708959C01653218F4C901CB
S1130DE00B96089580E090E0089520916E052A30D6
S1130DF018F081E090E00895E091F304E20FEA3006
S1130E0008F0EA50FF27EE0FFF1FEC5CF84F8083D9
S1130E1091832F5F20936E0580E090E008950F93F7
S1130E201F93909114068917E8F5882359F480914B
S1130E30F10B992701966AE070E00E94C4648093E4
S1130E40F10B2BC0482F891740F58091F10B282F07
S1130E50240F312D311DF901941B492FCF016AE074
S1130E6070E00E94C4649C01220F331F2A5F3D4F2F
S1130E708F010F5F1F4FC8016AE070E00E94C464D5
S1130E80FC01EE0FFF1FEA5FFD4F80819181F901A4
S1130E90808391834150F80109F7809114068150B1
S1130EA0809314061F910F9108950F931F93CF936E
S1130EB0FC01C0E010911406C117E8F48091F10B15
S1130EC00081282F3327C9016AE070E00E94C464BE
S1130ED0FC01EE0FFF1FEA5FFD4F40E050E0808110
S1130EE0801711F441E050E0452B29F4CF5F2F5FC8
S1130EF03F4FC11740F38C2F9927CF911F910F912A
S1130F00089582E00E94F90199270895CF92DF9213
S1130F10EF92FF920F931F93CF93DF93CDB7DEB77A
S1130F2022970FB6F894DEBF0FBECDBF182F862FC1
S1130F3069836E010894C11CD11C02E0F60101838F
S1130F4099277C01EE0CFF1CE80EF91E8CE496E058
S1130F50E80EF91EF701818192810E94A201811796
S1130F6039F4F701808182958695877080FF03C0EC
S1130F7086E090E028C0C6010E945507982F809112
S1130F8014069817D9F08091F10B890F912D911DBA
S1130F906AE070E00E94C464FC01EE0FFF1FEA5F88
S1130FA0FD4F61F08181823049F09927009749F023
S1130FB0019739F4802F0E94F90103C081E090E089
S1130FC002C080E090E022960FB6F894DEBF0FBE18
S1130FD0CDBFDF91CF911F910F91FF90EF90DF90E4
S1130FE0CF90089550918708552311F481E001C0F2
S1130FF08FE1982F20E030E0E22F552309F428E018
S113100033278FB7F894582F8091ED0B8E7F809300
S1131010ED0B322F27B160E070E0822F8295869528
S113102086958370E81749F4892F8850863118F41F
S11310302F71921711F461E070E0862F880F2091D0
S1131040ED0B2D7F282B9F71892F880F880F237814
S1131050282B2093ED0B892F992787B9406C217099
S11310602295220F207E4F7D422B4861383059F55E
S113107080911E0790911F0721E08638920718F08F
S113108087E090E01FC0833C910518F086E090E073
S113109019C08136910518F085E090E013C08033C3
S11310A0910518F084E090E00DC08831910518F0A6
S11310B083E090E007C00C9718F082E090E002C053
S11310C080E090E0382F3770487F432B842F992796
S11310D086B95FBF0895282F869586958695E82F53
S11310E0FF27E852FB4F277081E090E002C0880F91
S11310F0991F2A95E2F720812823822F99270895A2
S11311000F931F93CF93DF93982F8FB7F894082FE3
S113111080915301833009F050C0809121018917D7
S113112009F04BC08091D804882309F03EC081E0C7
S113113090E0892BE9F510915401C12FDD27219608
S1131140C230D10511F4C0E0D0E08C2F0E946B08AE
S1131150882381F4812F9927C817D90781F78FEF46
S113116090E08093F00581E08093530182E10E9436
S1131170F90123C08C2F869586958695E82FFF2745
S1131180E852FB4F2C2F277081E090E002C0880FBB
S1131190991F2A95E2F7982F90958081892380835F
S11311A0C09354018C2F9927DCCF80E090E0C1CF0D
S11311B082E080932101109253010FBF81E090E0FF
S11311C0DF91CF911F910F9108951F93CF93DF93D8
S11311D0C82F8FB7F894282F3327122F80915301EB
S11311E0882301F18C2F0E946B088823B1F48C2F83
S11311F0869586958695E82FFF27E852FB4FC770A2
S113120081E090E002C0880F991FCA95E2F720811F
S1131210282B208380E090E002C085E090E01FBF8F
S1131220992725C081E080935301C093F0052FBF17
S11312308FB7F894C82FDD279C2F8091210182302D
S113124099F480915301813021F482E10E94F901E3
S113125009C0823049F48091F0058093210183E034
S113126080935301CFBF01C09FBF80E090E0DF9126
S1131270CF911F91089581E00E94E50880E090E0FD
S1131280089580E00E94E50880E090E0089580E001
S11312900E94800880914D01813019F480E00E9401
S11312A0E5088FB7F894992710924D0110924E01DA
S11312B08FBF08951E9816988AE10E94F901089537
S11312C01D98159889E10E94F90108958FB7F89443
S11312D0282F33278091830780934F0183E08093E5
S11312E050012FBF0895CF93DF938FB7F894282F21
S11312F033278091FF058093200143E040935101FF
S11313002FBF8091200180935F098FB7F894C82F75
S1131310DD2790914901992359F080E00E94D2067B
S1131320882351F58091BD0181608093BD0124C063
S113133081E08093490190935205CFBF8FB7F89411
S11313409927379A8FBF8FB7F894C82FDD279C2F22
S113135080911F01813091F480914901813021F401
S11313608BE10E94F90108C0823041F4809152055A
S113137080931F0140934901CFBF01C09FBFDF91FC
S1131380CF9108959C01653218F4C9010B96089514
S113139080E090E00895CF93DF93282F809189080F
S11313A02817E0F48150809389082817B8F4382F5F
S11313B0822F9927880F991FDC01AE5BBA4FFC017D
S11313C0E85CF94F8281938181939193ED018A8145
S11313D09B818D939D932F5F2317A0F3DF91CF9172
S11313E008958FB7F8949927109291058FBF0895A7
S11313F0CF92DF92EF92FF920F931F93282F332700
S11314008BE090E0289FF001299FF00D389FF00DAC
S11314101124E252FE4F82819381A481B581009709
S1131420A105B10569F080819181880F991F80839E
S113143091838150944020F080E094E080839183F4
S11314408BE090E0289F6001299FD00C389FD00C3E
S113145011248EED91E0C80ED91EF6018681978184
S1131460A085B18582839383A483B5838081918190
S11314707C010027112769E0EE0CFF1C001F111FDF
S11314806A95D1F70E942103DC01CB01F60120818A
S11314903181322F2227330FB9010E94B064AA2769
S11314A0BB27E80EF91E0A1F1B1F220F331FC90199
S11314B0AA27BB278E199F09A00BB10B868397839C
S11314C0A087B18782819381A481B5818E0D9F1DF0
S11314D0A01FB11F82839383A483B5831F910F91AF
S11314E0FF90EF90DF90CF900895CF92DF92EF922C
S11314F0FF920F931F93CF93DF934091310190910B
S1131500BB0184E2989F90011124F901EF56FB4F2F
S11315108081F901EE56FB4F9081C82FDD27EE271D
S1131520FF27BAE0CC0FDD1FEE1FFF1FBA95D1F7DE
S11315308EE1989FC0011124AA27BB27C80FD91F89
S1131540EA1FFB1F89010D561B4F552741155105F5
S113155021F04130510559F016C0AEE1CA2ED12C0C
S1131560E12CF12C9E01AF0160E081E009C07EE135
S1131570C72ED12CE12CF12C9E01AF0161E0862F06
S11315800E94B90201C081E0882311F010921B0768
S1131590DF91CF911F910F91FF90EF90DF90CF904B
S11315A00895EF92FF920F931F93CF93DF93EC0173
S11315B0EE24FF240E94A6018C010E94B0010817AA
S11315C0190731F0CE010E94A6018F5F9F4F19F4D5
S11315D0C1E0EC2EF12CC701DF91CF911F910F9147
S11315E0FF90EF900895882311F06E9A08956E98F5
S11315F008958FB7F894282F33278091810780931B
S1131600260182E0809359012FBF8091260188230F
S113161019F48AE00E94F90108951F93CF93DF9390
S1131620C0915A01CC2351F4109129011F3F31F488
S11316306C2F8C2F0E94BA01882319F481E090E06A
S113164051C081E08093BF0180916201882311F031
S1131650C093BF018091BF01882309F441C08091E8
S11316605901823071F590912601992351F520E0BA
S113167030E0809128018F3F11F421E030E0232BEA
S1131680E1F48F3F79F0282F3327F901E05FF34F1E
S11316908081809328018F3F11F4109327011083D8
S11316A0C90102C08FEF90E08093810781E08093AD
S11316B059018CE00E94F90104C010932601909313
S11316C059010E941E02C82FDD27CC2331F48C2F30
S11316D00E94F30AC093F50BC09A80E090E002C028
S11316E085E090E0DF91CF911F910895CF93982FDB
S11316F08FB7F894282F3327C22F80912901891797
S1131700A9F02FBF81E090E038C04093290181E027
S113171090E002C0880F991F2A95E2F7809558231C
S113172050935A018AE00E94F90124C08FEF8093FC
S1131730290150915A015523A9F040E065E0E52FB5
S1131740FF27842F0E94A464492F292F3327CF0118
S1131750022E02C0959587950A94E2F780FDD5CFB5
S11317604F5FEFCF8FB7F894992710928D058FBFF5
S11317700E940D0BCFBF80E090E0CF9108951F939E
S1131780182F81E090E090935801809357011092B4
S113179062010E940D0B8FB7F894992710935E0194
S11317A08FBF86E00E94F9011F91089580E880931D
S11317B0EB011092DA04109288061092320710920C
S11317C0F60B089583E00E94F90199270895109279
S11317D06D0594E1E2E9F5E083E19193815087FF9F
S11317E0FCCF0895382F8FED94E0FC01E30FF11D39
S11317F02081DC01A60FB11D8C9180832C93808104
S1131800E2E9F5E0DF01A80FB11D3C93E20FF11D01
S113181060830895CF93DF93382F05C06C2F832FF7
S11318200E94F20B3C2F332319F1832F9927FC01DB
S1131830E152FB4F2081BC016150704077FDBC0137
S1131840EB01D595C795EC2FFF27E152FB4F808123
S1131850E82FFF27E050FA4F80819927E22FFF27D6
S1131860E050FA4F2081821B910918161906B4F230
S1131870DF91CF910895282F843118F082E090E011
S113188020C090916D05943119F481E090E019C065
S1131890A82FBB27AE56BA4F8C91843119F089E03A
S11318A090E00FC0E92FFF27E152FB4F20839C9368
S11318B09F5F90936D059150892F0E940A0C80E0E0
S11318C090E0992708959C01FC0193E0F695E79533
S11318D09A95E1F7EE50FA4F2770307081E090E06E
S11318E002C0880F991F2A95E2F7982F909580815E
S11318F0892380830895FC0123E0F695E7952A95D2
S1131900E1F7EE50FA4F208133278770907041E061
S113191050E0BA0102C0660F771F8A95E2F72623CA
S113192037232115310509F09A01822F992708954B
S11319309C012770307081E090E002C0880F991FED
S11319402A95E2F70895FC0133E0F695E7953A9578
S1131950E1F7EB52FB4F208133278770907041E011
S113196050E0BA0102C0660F771F8A95E2F726237A
S113197037232115310509F09A01822F99270895FB
S1131980CF93DF93582FEB014F3F11F440E006C093
S1131990FB01E40FF11D8281480F4E5F8881682F9F
S11319A077270CC0FE01E20FF31FDF01119681813E
S11319B0851771F0FD018181480F4E5F80E090E052
S11319C0461710F081E090E0242F3327882351F349
S11319D0C901DF91CF910895CF93DF93282FFB01A5
S11319E0DB01A40FB11DED0121968081481720F47D
S11319F0FD018181821719F080E090E002C08981A5
S1131A009927DF91CF910895CF93DF93EC01A0E064
S1131A10B091EC01AB1718F580911809482F5527A0
S1131A20CA0157FD0796887FFA01E81BF90BEE0FF0
S1131A30FF1FEE0FFF1FE05EF64F60E070E02081B5
S1131A403181888199812817390711F461E070E0A8
S1131A50672B29F4AF5F4F5F5F4FAB1708F38A2FF3
S1131A609927DF91CF9108950E94040D982F8091BA
S1131A70EC01981719F480E090E00895809118091A
S1131A80890F912D911D9C01887F9370281B390B20
S1131A90C901880F991F880F991F805E964F08957A
S1131AA0FB0120812F5F240F622F0E949A01089569
S1131AB0AF92BF92CF92DF92EF92FF920F931F9358
S1131AC0CF93DF93F82E6B015A01122F9E2DE2E083
S1131AD0EE2EE20EFB018081482F5527842F8F5F65
S1131AE0EE2DFF279F01280F311D892F992782177B
S1131AF093071CF482E090E01EC0EB01C40FD11DDB
S1131B002196802F9927AC01BE01CE018E0F9F1F15
S1131B100E946C64A114B10431F0112321F0F60188
S1131B208081F5018083F60180818E0D8083F882A7
S1131B30198380E090E0DF91CF911F910F91FF9086
S1131B40EF90DF90CF90BF90AF900895282FFB01C6
S1131B50DB01A40FB11D8081481720F4FD018181B0
S1131B60821719F080E090E00895CD01039608955E
S1131B70982F843138F4E82FFF27EF50FE4F8081EF
S1131B80843119F480E090E016C020E009C02F5F92
S1131B90943118F084E190E002C08E2F9927982F99
S1131BA0E92FFF27EF50FE4FE081E43111F0E917F0
S1131BB071F7822F9927992708959C012770307017
S1131BC081E090E002C0880F991F2A95E2F70895FA
S1131BD0FF920F931F93CF93DF93F82E643140F558
S1131BE0862F8F5F64E10E94A464192F0091410540
S1131BF01017F1F0C12FDD27FE01EE0FFF1FEC0FD0
S1131C00FD1FE45BF94F808199278F7190700497D1
S1131C1041F4818192810E94A2018F1511F4CE01B9
S1131C2009C0812F8F5F64E10E94A464192FE0CF63
S1131C3084E190E0DF91CF911F910F91FF9008957F
S1131C401F93CF93182FC0914105C431A0F48C2F5A
S1131C509927FC01EE0FFF1FE80FF91FE45BF94F12
S1131C60818192810E94A201811729F06C2F812F1A
S1131C700E94E80DC82F8C2F9927CF911F910895AA
S1131C809C01FC0183E0F695E7958A95E1F7E85716
S1131C90F64F2770307081E090E002C0880F991FE2
S1131CA02A95E2F7982F909580818923808308955F
S1131CB0CF92DF92EF92FF920F931F93CF93DF9314
S1131CC0982F6B01842FF22E202FFB01E40FF11DBE
S1131CD08F010F5F1F4FDB017C91472F552784171E
S1131CE018F48181891719F086E090E03BC0EF2D4C
S1131CF0FF27E80189819927E81BF90BD801A80F70
S1131D00B91F1296842F8F5F482F55278A2F8C195D
S1131D10642F681B620FFF2009F432971E161F06FA
S1131D207CF4842FAF01480F511DCA01820F911D0D
S1131D302E2D3327281739071CF482E090E012C0B7
S1131D407E0FE6017883862F9927AC01BD01CD0172
S1131D508E0F9F1F0E946C64FF2011F0F801F18226
S1131D6080E090E0DF91CF911F910F91FF90EF9071
S1131D70DF90CF900895CF93DF93EC0150E0DB0127
S1131D8023E0B695A7952A95E1F767707070E42F64
S1131D90FF27CF01860F971F0997E0F4AC0FBD1FF3
S1131DA08C91282F332788279927861B970B8E1B06
S1131DB09F0B089602C0359527958A95E2F781E036
S1131DC090E002C0880F991FEA95E2F781508223C0
S1131DD0992745C061157105E9F0460F4850FE0189
S1131DE0EA0FFB1F28E030E0261B370B81E090E070
S1131DF002C0880F991F2A95E2F7982F915080818D
S1131E0089239927042E02C0880F991F0A94E2F7A8
S1131E10582F1196483080F0FD01EC0FFD1F4850FB
S1131E2081919927042E02C0880F991F0A94E2F722
S1131E30582B1196483098F7442379F0AC0FBD1F06
S1131E408C91282F332788E090E0841B910902C0ED
S1131E50359527958A95E2F7522B852F992799274F
S1131E60DF91CF910895FF920F931F93CF93DF9348
S1131E708C01CB01F22EA42F33E0769567953A9529
S1131E80E1F79C01277030705527C1E0D0E0FE01D6
S1131E90042E02C0EE0FFF1F0A94E2F7BE2FB150CA
S1131EA0BF21CA01820F931F0997F8F4CF0101974C
S1131EB0309521953F4F241B350B285F3F4F022E51
S1131EC002C0880F991F0A94E2F7F801E60FF71F82
S1131ED08095408148238B2F992702C0880F991F32
S1131EE02A95E2F7482B408353C021153105F9F0B8
S1131EF088E090E0821B930B02C0CC0FDD1F8A9513
S1131F00E2F72197A20FA850F801E60FF71F8C2FD4
S1131F108095208128238B2F99270A2E02C095951E
S1131F2087950A94E2F7282B20836F5F7F4FA830B0
S1131F3090F02B2F3327FB01E00FF11FA850C901AC
S1131F400A2E02C0959587950A94E2F781936F5FF4
S1131F507F4FA83098F7AA23D9F048E050E04A1BF5
S1131F60510981E090E0042E02C0880F991F0A9461
S1131F70E2F70197F801E60FF71F208128238B2F42
S1131F80992702C0880F991F4A95E2F7282B2083CE
S1131F908F2D9927DF91CF911F910F91FF90089575
S1131FA0FF920F931F93CF93DF93F82E8B01CB01F6
S1131FB00E94E7069927682FC8010E94EC06EC01ED
S1131FC04FEFBC018F2D0E94C00C482F8881481709
S1131FD018F080E090E005C0BE018F2D0E94EC0C4B
S1131FE099279927DF91CF911F910F91FF90089521
S1131FF0BC0181E00E94D00F992708950E94A2019C
S1132000992708959C01FC0143E0F695E7954A95CC
S1132010E1F7EA59FE4F2770307081E090E002C08A
S1132020880F991F2A95E2F7982F9095808189232C
S1132030808308951F93CF93DF93EC010E94A20144
S113204099278430910519F0C09729F013C0CE0167
S11320500E94E70610C0CE010E94E7069927182FB8
S1132060682FCE010E94EC06FC0180818F5F181B53
S1132070812F01C08FEF81509927DF91CF911F915C
S113208008950E941A10845099270895FC0153E082
S1132090F695E7955A95E1F7EA59FE4F20813327E3
S11320A08770907041E050E0BA0102C0660F771F5C
S11320B08A95E2F7262337232115310509F09A0181
S11320C0822F9927089590914105891718F4282F94
S11320D02C5E01C0282F691718F4962F9C5E01C04E
S11320E0962F843119F4862F99270895643111F4B9
S11320F099270895291708F4682F862F992708959A
S11321001F9384E00E94200E182F80E30E94200E6B
S1132110682F812F0E94631099271F9108951F93A0
S1132120CF93DF93182F6431B0F4862F9927FC01E5
S1132130EE0FFF1FE80FF91FE45BF94F8081992729
S11321408F719070019739F0C181D281CE010E94C4
S1132150A201811719F080E090E001C0CE01DF9167
S1132160CF911F910895682F84E00E948F100895E5
S1132170982F462F692F80E30E9486079927089598
S11321800E94B00108950E94A6010895FF920F9342
S11321901F938C01F62E0E94E7069927682FC80129
S11321A00E94EC064F2DBC0183E00E94A60D1F91F6
S11321B00F91FF900895AF92BF92CF92DF92EF926A
S11321C0FF920F931F937C015B010E94E706082F87
S11321D01127F5010083602FC7010E94EC066C01F2
S11321E0FC0190819F5F802F891BF5018083682FFC
S11321F0C7010E949A01C6011F910F91FF90EF90B1
S1132200DF90CF90BF90AF900895AF92BF92CF92DE
S1132210DF92EF92FF920F931F93CF93DF93CDB78B
S1132220DEB721970FB6F894DEBF0FBECDBF182FCF
S11322305B01F42EBE016F5F7F4FC5010E94DB106E
S11322406C0109814FEFBC01812F0E94C00C482F03
S1132250F6018081481718F086E090E008C074E227
S1132260E72E2F2DB601812F0E94580E9927182F83
S11322704981B601C5010E94500D812F99272196ED
S11322800FB6F894DEBF0FBECDBFDF91CF911F9183
S11322900F91FF90EF90DF90CF90BF90AF90089593
S11322A0FF920F931F938C01F62E0E94E706992745
S11322B0682FC8010E94EC064F2DBC0183E00E94E8
S11322C0EC0C99271F910F91FF900895FF920F93A3
S11322D01F938C01F62E0E94E7069927682FC801E8
S11322E00E94EC064F2DBC0183E00E94C00C99278C
S11322F01F910F91FF900895FF920F931F938C01EC
S1132300F62E0E94E7069927682FC8010E94EC0662
S1132310FC0120E030E08081F81610F021E030E08C
S1132320822F99271F910F91FF900895FF920F9389
S11323301F93CF93DF93F82E8B01CB010E94E70606
S11323409927682FC8010E94EC06EC014FEFBC01ED
S11323508F2D0E94C00C482F8881481718F080E008
S113236090E004C0BE018F2D0E94A60DDF91CF9195
S11323701F910F91FF900895BC0180E60E94961171
S11323800895BC0180E60E94D00F99270895CF9349
S1132390DF93FC01DC011196ED0189819927982FC7
S11323A0882721813327822B932B80628183892F75
S11323B09927898380E090E0DF91CF9108950E946E
S11323C0C71199270895AF92BF92CF92DF92EF92EF
S11323D0FF920F931F93CF93DF93CDB7DEB721976F
S11323E00FB6F894DEBF0FBECDBF182F5B01F42EDD
S11323F0BE016F5F7F4FC5010E94DB106C01098134
S11324004FEFBC01812F0E94C00CF6019081891707
S113241018F489E090E00AC0B4E2EB2E2F2D40E0DE
S113242050E0B601812F0E94580D9927182F498139
S1132430B601C5010E94500D812F992721960FB630
S1132440F894DEBF0FBECDBFDF91CF911F910F91E6
S1132450FF90EF90DF90CF90BF90AF9008959C01D4
S1132460462FB90180E60E94E31199270895BC0123
S113247081E00E9496110895682F80E30E948F10D6
S113248008950F931F93182F682F84E00E94E80D7E
S1132490082F612F80E30E94E80D682F802F0E948F
S11324A0631099271F910F91089540E050E0843103
S11324B011F441E050E020E030E0843111F421E0F7
S11324C030E080E090E0442321F0222311F081E009
S11324D090E0992708951F93CF93DF93EC01162F73
S11324E00E94A2011F5F99278430910519F0C097BB
S11324F019F012C0612F0DC0CE010E94E706992782
S1132500682FCE010E94EC06FC0180818F5F810F51
S1132510682FCE010E949A01DF91CF911F910895F7
S1132520FC016683872F9927878308950F931F9350
S11325308C010E94E7069927682FC8010E94EC06C7
S11325404FEFBC0183E00E94C00C99271F910F91AB
S11325500895CF93DF93FC01DC011196ED0189818D
S11325609927982F882721813327822B932B8F7DBE
S11325708183892F9927898380E090E0DF91CF912F
S11325800895AF92BF92CF92DF92EF92FF920F9392
S11325901F93CF93DF93CDB7DEB721970FB6F8948F
S11325A0DEBF0FBECDBFF82E5B01BE016F5F7F4F54
S11325B0C5010E94DB106C0119814FEFBC018F2D06
S11325C00E94C00CEE24012F2E2D482FB6018F2D12
S11325D00E94580E182F4981B601C5010E94500D62
S11325E0812F992721960FB6F894DEBF0FBECDBF79
S11325F0DF91CF911F910F91FF90EF90DF90CF90DB
S1132600BF90AF900895FC0153E0F695E7955A9575
S1132610E1F7E050FB4F208133278770907041E051
S113262050E0BA0102C0660F771F8A95E2F72623AD
S113263037232115310509F09A01C90108951F9323
S1132640CF93DF93182F823318F082E090E030C0EC
S1132650C82FDD27CE010E940313882319F489E0D3
S113266090E026C0FE0163E0F695E7956A95E1F7F0
S1132670E050FB4FC770D07081E090E002C0880F3B
S1132680991FCA95E2F7982F9095808189238083BA
S113269080915D0999270E940313882311F01093F8
S11326A05D0980915F01815080935F0180E090E03B
S11326B0DF91CF911F910895CF93DF93843110F46C
S11326C0643118F082E090E040C0C82FDD27C05A82
S11326D0D64F98819233B9F1E92FFF27EE0FFF1FF0
S11326E0EA57F84F808121818617C1F42883892F06
S11326F00E941F138881823359F48091ED05815023
S11327008093ED0505C0FD012183892F0E941F13CD
S113271081E08093820780E090E017C0223399F033
S1132720A92FBB27AA0FBB1FAA57B84FFD01918140
S1132730E92FFF27EE0FFF1FEA57F84F8081218111
S1132740861709F3EBCF86E090E0DF91CF910895EF
S1132750EF92FF920F931F93CF93DF93062F843151
S113276008F055C0643108F052C0E82EFF24F70188
S1132770E05AF64F8081823379F0282F3327F9010C
S1132780E20FF31FEA57F84F8081801711F081811F
S1132790F2CF22333105D9F540915F01423319F468
S11327A022E330E030C080915D09C82FDD27FE01AF
S11327B073E0F695E7957A95E1F7E050FB4F9E01BB
S11327C02770307081E090E002C0880F991F2A952D
S11327D0E2F72081282B2083842F8F5F80935F0171
S11327E0823381F007C0812F8F5F62E30E94A4646B
S11327F090935D0910915D09812F99270E9403131D
S1132800882389F79E013327922F223319F482E318
S113281090E018C0D701A05AB64F4C91423329F426
S11328208091ED058F5F8093ED05892F9927FC0139
S1132830E80FF91FEA57F84F418300832C9321E0F6
S113284020938207DF91CF911F910F91FF90EF901A
S113285008959C01FB01413031F48081882311F0FB
S1132860D89801C0D89AC9010895EF92FF920F93A6
S11328701F93CF93DF93CDB7DEB722970FB6F894AB
S1132880DEBF0FBECDBF982FE82EFF24D701AA0FBD
S1132890BB1FAE0DBF1DA45BB94F8C91829586956D
S11328A0877080FF18C0FD01218132819091180743
S11328B09A3040F5E0918C04E90FEA3008F0EA50D0
S11328C0FF27EE0FFF1FEC5FF84F208331839F5FDC
S11328D09093180717C099838E010F5F1F4F82E0F2
S11328E0F8018183FD01818192810E94F506C8016E
S11328F00E945507982F80911406981719F0892F74
S11329000E940F07F701EE0FFF1FEE0DFF1DE45BA2
S1132910F94F8081807E8160808322960FB6F8947F
S1132920DEBF0FBECDBFDF91CF911F910F91FF90FE
S1132930EF900895DC01862F2C9130E064E1482F5C
S11329405527822F8F5F0E94A464292F892F9927EE
S1132950FC01EE0FFF1FE80FF91FE45BF94F8081C4
S113296099278F71907084239523892B11F02C93D0
S113297008953F5F343128F384E18C930895382F10
S1132980262F9927FC01EE0FFF1FE80FF91FE45BC8
S1132990F94F2F718081807E822B808380911A076A
S11329A0843111F430931A0780914105831729F477
S11329B064E081E495E00E949A1481E00E94F901A8
S11329C008951F93CF93182FC62F6431A8F4862F30
S11329D09927FC01EE0FFF1FE80FF91FE45BF94F85
S11329E0808199278F719070049731F4818192814D
S11329F00E94A201811719F086E090E006C068E009
S1132A008C2F0E94BF1480E090E0CF911F91089515
S1132A101F93CF93182FC62F6431A8F4862F9927BC
S1132A20FC01EE0FFF1FE80FF91FE45BF94F8081F3
S1132A3099278F719070049731F4818192810E945B
S1132A40A201811719F086E090E00EC08C2F0E943D
S1132A503514809141058C1729F464E081E495E0F4
S1132A600E949A1480E090E0CF911F9108951F93E3
S1132A70CF93182F682F84E00E940815C82F612F68
S1132A8080E30E940815C81719F48C2F992702C0F7
S1132A9081E090E09927CF911F910895682F80E3FA
S1132AA00E94081599270895EF92FF920F931F93A0
S1132AB0CF93DF93E82E8B01CB010E94A2019927CB
S1132AC0803311F46E2D2BC0C8010E94E7069927AC
S1132AD0F82E682FC8010E94EC06EC014F2D5527F3
S1132AE0CA01019685971CF082E090E008C0BE01FF
S1132AF0CE0101960E946C64188280E090E09927D0
S1132B00882311F0992707C04F2DBE01C8010E94E8
S1132B10500D80E090E0892B39F06E2D80E30E9407
S1132B20081581E090E006C060E3C8010E949F019F
S1132B3080E090E0DF91CF911F910F91FF90EF9093
S1132B4008951F93CF93DF93182FEB0141E0842F57
S1132B500E94E311882339F4BE0181E00E9496119A
S1132B60FC01892B39F4612F80E30E94081581E070
S1132B7090E011C080917409982F8F5F809374093D
S1132B8090836FEF7FEFCE010E949012CE010E94DE
S1132B90A91280E090E0DF91CF911F91089594E114
S1132BA0A1E7B5E0E1EFF1E083E191939D938150DA
S1132BB087FFFBCF0E94E70B81E080938605089591
S1132BC01F93CF93DF93182F94E1843118F082E0A0
S1132BD090E045C080911F09882319F085E090E0BA
S1132BE03EC080917F09181741F48091F40498172E
S1132BF021F480918207882369F181E080931F0981
S1132C0010937F099093F404109282070E94CF15C9
S1132C10C12FDD27FE01E050FA4F10821431B8F4C1
S1132C2090916D05943199F0DE01AE56BA4F8C91B6
S1132C30843169F4E92FFF27E152FB4F10839C9301
S1132C409F5F90936D059150892F0E940A0CCF5875
S1132C50DA4F188383E00E94F90180E090E099271D
S1132C60DF91CF911F9108950F931F93CF93DF931B
S1132C70C82F062F142F0E945C13112321F06C2FF0
S1132C80802F0E945C130E94B001182F24E184312C
S1132C9008F040C080911F098823E1F580917F09E5
S1132CA0181741F48091F404281721F480918207C5
S1132CB0882369F181E080931F0910937F09209391
S1132CC0F404109282070E94CF15C12FDD27FE0164
S1132CD0E050FA4F10821431B8F490916D0594319C
S1132CE099F0DE01AE56BA4F8C91843169F4E92F24
S1132CF0FF27E152FB4F10839C939F5F90936D05D8
S1132D009150892F0E940A0CCF58DA4F188383E020
S1132D100E94F901DF91CF911F910F9108958FB710
S1132D20F894982F82B720915A0830915B0840910B
S1132D305C0850915D0806B601FE0FC081B7280FEC
S1132D40311D411D511D82B7280F311D411D511DDB
S1132D502F5F3F4F4F4F5F4F04C0280F311D411D60
S1132D60511D9FBFCA01B90108950F931F93CF93BB
S1132D70DF9310E08FB7F894282F3327022F91B7F1
S1132D8082B746B7981711F041FF02C02FBF6AC03F
S1132D908091C2088823B1F10E948F16DC01CB0117
S1132DA0C0912407D0912507E0912607F0912707C9
S1132DB08C1B9D0BAE0BBF0B2091FC083091FD08C2
S1132DC04091FE085091FF0882179307A407B507A6
S1132DD020F01093C20811E015C02C0F3D1F4E1FA8
S1132DE05F1F80915A0890915B08A0915C08B09194
S1132DF05D08281B390B4A0B5B0B273E3105410547
S1132E00510510F086EE05C0223010F482E001C0B6
S1132E10822F682F615000B601FCFDCF82B7861760
S1132E2009F46F5F20915A0830915B0840915C0867
S1132E3050915D08DA01C901860F911DA11DB11DD4
S1132E400196A11DB11D82179307A407B50718F4B5
S1132E5060915A08609561BF0FBF112319F08EE08D
S1132E600E94F901DF91CF911F910F910895EF9284
S1132E70FF920F931F937B018C018FB7F894682FF7
S1132E80772781E08093C208E0922407F092250717
S1132E9000932607109327072093FC083093FD081E
S1132EA04093FE085093FF086FBF0E94B5161F9110
S1132EB00F91FF90EF9008950F931F93CF93DF939B
S1132EC00E948F16AB01BC0180915305909154056B
S1132ED0A0915505B09156058A019B01081B190B59
S1132EE02A0B3B0BE901D801809172018D7F8093FD
S1132EF0720180918908882359F0282FE2E4F5E0D3
S1132F00808191818A1B9B0B819391932150C1F7FE
S1132F10409353055093540560935505709356059B
S1132F20DF91CF911F910F910895AF92BF92CF92ED
S1132F30DF92EF92FF920F931F93F82E5A016B01C9
S1132F400E948F16DC01CB0131E0E32E960185014E
S1132F50AC01BD018F2D0E94A7031F910F91FF901B
S1132F60EF90DF90CF90BF90AF900895AF92BF9253
S1132F70CF92DF92EF920F931F935B016C010E943B
S1132F808F16DC01CB0141E0E42E96018501AC01F2
S1132F90BD0180E00E94A7031F910F91EF90DF9085
S1132FA0CF90BF90AF900895AF92BF92CF92DF922F
S1132FB0EF920F931F93CF93DF93AA24BB24650151
S1132FC010E00E948F16FC01EB018091A901909101
S1132FD0AA01A091AB01B091AC01C81BD90BEA0BBB
S1132FE0FB0B2091E0013091E1014091E20150910D
S1132FF0E3012115310541055105E1F08FB7F8943E
S1133000082F1127A091F70B8A2F9927BC01617013
S1133010707080FF02C061E070E0672B39F4AE7F0E
S1133020A093F70B2C1B3D0B4E0B5F0B0FBF5901ED
S11330306A0111E0112371F00E948F16DC01CB01AB
S113304051E0E52E96018501AC01BD0187E00E94A7
S1133050A70305C08091B1018D7F8093B101DF91F9
S1133060CF911F910F91EF90DF90CF90BF90AF90D1
S113307008951F93CF93DF93182F482F55278BE084
S113308090E0489FE001499FD00D589FD00D112436
S1133090C252DE4F61E070E0688379831A868A81C8
S11330A09B81AC81BD810097A105B10521F18FB74A
S11330B0F894282F3327FA01A3E0F695E795AA950B
S11330C0E1F7E950F44F4770507002C0660F771F64
S11330D04A95E2F78081862B80832FBF1A821B8258
S11330E01C821D821E821F8218861986812F0E94CF
S11330F0F8090E94D417DF91CF911F910895AF92E0
S1133100BF92CF92DF92EF920F931F93882389F09F
S11331100E9421035B016C018FEF90E0A0E0B0E01E
S1133120A822B922CA22DB2280E190E0A0E0B0E02C
S113313010C00E9421035B016C018FE790E0A0E0C6
S1133140B0E0A822B922CA22DB2280E890E0A0E005
S1133150B0E0A80EB91ECA1EDB1E0E948F16DC0149
S1133160CB0111E0E12E96018501AC01BD0185E0A2
S11331700E94A7031F910F91EF90DF90CF90BF9013
S1133180AF900895AF92BF92CF92DF92EF920F93D8
S11331901F9380916305282F33272150304081E00D
S11331A090E0A0E0B0E004C0880F991FAA1FBB1FE5
S11331B02A95D2F780935F0590936005A0936105EB
S11331C0B09362050E942103DC01CB019C014427DA
S11331D0552780915F0590916005A0916105B0919C
S11331E062050197A109B109282339234A235B23E6
S11331F05C016D010894A11CB11CC11CD11CA20E60
S1133200B31EC41ED51EA0925F05B0926005C09285
S11332106105D0926205809164058E7F8093640578
S11332208091A8018D7F8093A8010E948F16DC01F4
S1133230CB0101E0E02E96018501AC01BD0186E0E1
S11332400E94A7031F910F91EF90DF90CF90BF9042
S1133250AF90089580916305893029F089E08093C7
S113326063050E94C2180895EF920F931F93169A54
S11332701E9A0E948F16DC01CB0121E0E22E0AE0A7
S113328010E020E030E0AC01BD0183E00E94A70320
S11332901F910F91EF900895AF92BF92CF92DF925A
S11332A0EF92FF920F931F93CF93DF930E94BB057E
S11332B0FC01EB018091650590916605A09167057D
S11332C0B0916805A0905809B0905909C0905A0966
S11332D0D0905B099C01AD012A0D3B1D4C1D5D1D69
S11332E079018A01EC1AFD0A0E0B1F0BC817D907C6
S11332F0EA07FB0730F0281739074A075B0770F025
S113330005C0281739074A075B0728F4C217D307F3
S1133310E407F50718F0EE24FF24870121E0E21604
S113332020E8F20620E0020720E0120730F1C05046
S1133330D048EF4FFF4FC0936505D0936605E093E7
S11333406705F0936805C050D048E040F04080E045
S113335090E8AFEFBFEFE80EF91E0A1F1B1FE092C3
S11333605809F092590900935A0910935B09E12C0A
S113337030E8F32E012D112D14C08A0D9B1DAC1DB8
S1133380BD1D8093650590936605A0936705B09372
S11333906805109258091092590910925A0910920E
S11333A05B09B7012CB53DB5C9018C1B9D0B039678
S11333B08E159F0520F0B9016D5F7F4F02C06C0F21
S11333C07D1F6115710511F461E070E0615070407A
S11333D07BBD6ABD80E186BF87B7806187BFDF910F
S11333E0CF911F910F91FF90EF90DF90CF90BF90FE
S11333F0AF9008950F931F93DC01CB016FB7F8943E
S1133400062F11278093650590936605A0936705A1
S1133410B0936805209358093093590940935A0989
S113342050935B090E944C190FBF1F910F9108958F
S1133430CF92DF92EF92FF920F931F938FB7F8947E
S1133440C82EDD240E942103DC01CB0166E470E078
S11334500E94B0640B969093EF058093EE057C0177
S1133460002711270E94BB05DC01CB01A8019701AD
S1133470BC01CD010E94FA19CFBE1F910F91FF909C
S1133480EF90DF90CF90089561E0862F0E94CC01E9
S1133490882309F58FB7F894282F332780915C018E
S11334A090915D01892B11F02FBF24C081E090E041
S11334B090935D0180935C012FBFDD9A0E94BB0550
S11334C0DC01CB0124E130E040E050E0BC01CD015F
S11334D00E94FA190FC062E081E00E94BA018823B9
S11334E019F089E090E0089561E0862F0E94BA0106
S11334F0882319F080E090E0089585E090E0089535
S1133500CF92DF92EF92FF920F931F939091170641
S1133510923040F51092F1058EE0989F80011124BD
S1133520065E194F892F9927009719F0019761F0CA
S11335301EC05EE0C52ED12CE12CF12C20E030E041
S113354040E050E060E00AC04EE0C42ED12CE12CF3
S1133550F12C20E030E040E050E061E084E00E94A3
S1133560B90205C00E94441A83E08093F1051F91BB
S11335700F91FF90EF90DF90CF900895CF92DF925C
S1133580EF92FF920F931F93E82F8091F1059927F3
S11335908230910581F0039709F06DC08E2F992731
S11335A0009719F0019719F066C080E001C081E02E
S11335B00E94050660C08091BC0B9091BD0B0091E8
S11335C01706E816F906C9F011270115110521F0AF
S11335D00130110541F04FC0CC24DD247601A70150
S11335E0960160E008C0CC24DD24760100E010E000
S11335F0A701960161E082E036C020911A092F5F8D
S113360020931A09A02FBB278EE090E0A89FF00119
S1133610A99FF00DB89FF00D1124E65EF94F878144
S1133620281720F561E06093F105822F9927880F10
S1133630991F40969C0144275527109719F011971C
S113364051F019C0E2E0CE2ED12CE12CF12C0CEB80
S11336501BE060E007C072E0C72ED12CE12CF12CF6
S11336600CEB1BE084E00E94B90205C00F5F0093DD
S113367017060E94801A1F910F91FF90EF90DF9020
S1133680CF90089597B79F7D97BF90E296BF882308
S113369019F08EB5806402C08EB58F7B8EBD87B75E
S11336A0806287BF80E090E008951F93182F81E027
S11336B00E94F30A1FB9779BFECF8FB199271F9100
S11336C008951F93CF93DF93182F8FB7F894C82FC3
S11336D0DD2760E0862F0E94BA01882321F0CFBF46
S11336E080E090E005C0CFBF812F0E94551B992731
S11336F0DF91CF911F9108950F931F93CF93DF9381
S113370001E08FB7F894C82FDD271C2F8091570153
S1133710909158010897D1F489E00E94611B83E0DD
S11337200E94760BC09A81E090E0909358018093B8
S113373057018FB7F894282F332783E080935E01D5
S11337402FBF86E00E94F901CFBF33C0C09880919B
S1133750A705882311F085E001C084E00E94611B65
S113376083FD05C080E00E94611B83FD03C083E0EC
S113377090E003C000E085E090E0909358018093CE
S11337805701C09A1FBF002341F01092010783E044
S11337900E94760B0E94181A0CC00E94BB05DC0123
S11337A0CB0120E431E040E050E0BC01CD010E94B7
S11337B0FA19DF91CF911F910F910895EF92FF9223
S11337C00F931F938FB7F894E82EFF2481E00E9493
S11337D0421B01E010E0109358010093570110922E
S11337E056011092620110927809EFBE8FB7F894D7
S11337F0E82EFF240E94D60B1093FF040093FE04CE
S11338001092DA0489B78F7B89BF80E488BF8AB7B6
S113381080628ABF8AB78F7E8ABF89B7806489BF76
S1133820EFBE8FB7F894082F112780915C01909117
S11338305D01049719F483E00E94611B0FBF8FB7E9
S1133840F894082F1127C09A80E00E94760B0FBFCE
S11338508FB7F894282F332782E080938E052FBFEB
S11338608091E0019091E101A091E201B091E30126
S11338700097A105B10519F085E090E024C080937C
S1133880E0019093E101A093E201B093E3018093FE
S1133890E4019093E501A093E601B093E70110924F
S11338A0E8018091E8010E94F8098FB7F894282F65
S11338B033278091F70B81608093F70B2FBF0E9411
S11338C0D41780E090E0182F80E00E94391811236B
S11338D019F481E08093F00B11E010931506109316
S11338E05D0510931A0280910E0C843118F480E067
S11338F00E94F90180911A07843118F4812F0E94E3
S1133900F90180911A07843118F4812F0E94F9017A
S11339100E94B0010B9771F40E948F16DC01CB0159
S1133920EE240AEF10E020E030E0AC01BD0182E0BB
S11339300E94A7031F910F91FF90EF900895FF92AB
S11339400F931F93CF93DF93F82E8B018FB7F894C7
S1133950C82FDD2760E0862F0E94BA01882321F05A
S1133960CFBF80E090E00CC0CFBF8F2D0E94551BCD
S1133970812F99270E94551B802F0E94551B992740
S1133980DF91CF911F910F91FF9008958FB7F89415
S11339909927209157098FBF85E0289FC0011124E2
S11339A0825D9E4F9064BC0188E10E949F1C089533
S11339B0CF938FB7F894C82F8091FD04682F772791
S11339C0762F6627770F770F770F20E030E080910E
S11339D05E05882331F080918505882311F021E06C
S11339E030E0A4E0220F331FAA95E1F7622B732B7A
S11339F0626E726281E10E949F1CCFBFCF910895D5
S1133A00CF92DF92FF920F931F93CF93DF93CDB7A3
S1133A10DEB724970FB6F894DEBF0FBECDBF8FB7C5
S1133A20F894282F3327FE0131968091180690913F
S1133A3019068983892F992781838091BE0B9091E0
S1133A40BF0B8B83892F99278C832FBF6F0194E041
S1133A50F92E8FB7F894082F112760E0862F0E9463
S1133A60BA019927882311F00FBF16C00FBF082F82
S1133A70112708591E4F802F80680E94551B1695E8
S1133A800795802F807C0E94551BF60181916F0160
S1133A900E94551BFA94C9F724960FB6F894DEBF1A
S1133AA00FBECDBFDF91CF911F910F91FF90DF909B
S1133AB0CF900895CF938FB7F894282F3327809110
S1133AC05B01882311F02FBF31C02FBF80B399272A
S1133AD056E0969587955A95E1F7C82FC170809165
S1133AE016069091BE018917E1F0C917D1F484E05C
S1133AF090E090935D0180935C018FB7F894282F38
S1133B00332781E080935B012FBF60E070E08DE19B
S1133B100E949F1C0E94001DC09AC09884E00E94CD
S1133B20F901C093160689E00E94F901CF91089526
S1133B30882311F06F9A08956F9808951F9310E0E9
S1133B40812F0E94F30ABA9ABB98B99AB89A6C9AD0
S1133B50C098812F0E94981D709A6B986A986898F3
S1133B6081E00E94F30A1F910895EF92FF920F9350
S1133B701F93CF93DF93F82E8FB7F894082F112754
S1133B80E02E61E080E00E94CC01C82FDD27CC2329
S1133B9021F00FBF85E090E02EC08C2F0E94E4013D
S1133BA0882321F0F09229012C2F22C090915901F1
S1133BB0992341F482E0809359019093260180E097
S1133BC090E002C081E090E09927C82F882311F487
S1133BD00E949E1D8C2F9927282F882319F4F09278
S1133BE0290106C08FB7F894992710928D058FBFCD
S1133BF0EFBE822F9927DF91CF911F910F91FF90F4
S1133C00EF9008950F931F93CF93DF93C82F8FB72F
S1133C10F894082F11E0612F80E00E94CC019927CD
S1133C20882391F5C09329010E94E401C82FDD2760
S1133C30CC2311F08AE00FC00E941E02882311F4E5
S1133C400E949E1D80915901882341F410935901CB
S1133C50809381078CE00E94F90122C08091100CAE
S1133C608F3FF1F4E0912701EE23D1F080912801F8
S1133C708F3F19F41092280104C0FF27E05FF34F2F
S1133C80C083109227010CC081E090E002C0880F2D
S1133C90991FCA95E2F720915A01282B20935A01C3
S1133CA00FBF80E090E0DF91CF911F910F910895B5
S1133CB0CF9383E00E94B51D9927C82F882319F05C
S1133CC083E00E94021E8C2F9927CF910895CF93F1
S1133CD08FB7F894282F3327C22F8091F5048823B7
S1133CE021F02FBF81E090E013C021E02093F50480
S1133CF080915C0190915D01049721F4822F0E94D0
S1133D00021E03C088E00E94F901CFBF80E090E06A
S1133D10CF9108958F929F92AF92BF92CF92DF92EC
S1133D20EF92FF920F931F93CF93DF938FB7F89483
S1133D30C090AA05D090AB058090DC019090DD0185
S1133D40C091DD04D091DE04AE01465F5F4F209147
S1133D506108309162082417350708F09A018FBF73
S1133D6059010894A108B108CA15DB05E8F47E01DD
S1133D70E80CF91C8E010C0D1D1DC114D10419F0A1
S1133D80F801808101C080E00E94551B81149104D8
S1133D9011F0F701808321960F5F1F4F0894E11CF7
S1133DA0F11CCA15DB0548F381E00E94981D8FB70A
S1133DB0F894982FC114D10431F0CC0EDD1EF60115
S1133DC080818FB901C01FB8D093DE04C093DD0495
S1133DD09FBF80E090E0DF91CF911F910F91FF9002
S1133DE0EF90DF90CF90BF90AF909F908F90089509
S1133DF0CF93DF939C01EA018FB7F894992730930E
S1133E00AB052093AA057093DD016093DC01509308
S1133E106208409361081092DE041092DD048FBFA3
S1133E20452B31F08FB10E948A1E482F552704C0BC
S1133E308BE00E94F901AE01CA01DF91CF91089590
S1133E40DF92EF92FF920F931F93CF93DF93182F7C
S1133E507B01D42E00E08FB7F894C82FDD27602FA4
S1133E60802F0E94BA01882321F0CFBF80E090E028
S1133E7017C0CFBF1064812F9927909303078093B5
S1133E800207809102070E94551B082F8D2D992748
S1133E90AC01B70180E090E00E94F81E802F9927C2
S1133EA0DF91CF911F910F91FF90EF90DF900895D4
S1133EB0C098809164019091650141E0BC018FE359
S1133EC00E94201F089582E090E09093FF04809365
S1133ED0FE0421E02093DA0490E0809129018430EB
S1133EE009F4922F992329F484E00E94B51D8823B4
S1133EF019F40E94581F089584E00E94021E089538
S1133F001F93CF93DF938FB7F894C82FDD271C2F0F
S1133F108091FE049091FF04892B29F484E00E948F
S1133F20760BCFBF2BC01092DA042091F60B22231C
S1133F3041F080E090E0B79B02C081E090E0892BE3
S1133F4049F481B1992766E0969587956A95E1F7DA
S1133F5080FD08C0222319F021502093F60B0E9403
S1133F60631F0BC081E090E09093FF048093FE04F4
S1133F701092F60B84E00E94760B1FBFDF91CF9165
S1133F801F9108950E94D60BC09AC09888E00E94A1
S1133F90611B88E00E94611BC09A84E00E94760B3A
S1133FA00E94801F0895EF92FF920F931F93CF9367
S1133FB0DF938B0180910207909103072091020700
S1133FC086FF2CC12F7B822F99278E33910509F40C
S1133FD079C1CF9709F076C1C0916401D091650190
S1133FE058815093C2018091FE049091FF04833064
S1133FF0910509F451C08430910518F4029729F011
S113400006C1049709F494C002C183E090E0909340
S1134010FF048093FE04852F992701964091EB01BC
S1134020242F332728173907A4F180E090E0B79BA9
S113403002C081E090E0892B69F481B19927A6E060
S113404096958795AA95E1F780FD04C0451B4150DC
S11340504093EB012091C2012133D8F4222391F043
S1134060BE016F5F7F4F283018F047E050E05BC01F
S113407084E090E09093FF048093FE04822F9927BC
S1134080AC0151C02093DA04C09A84E00E94760BFC
S1134090BBC00E94C21F16C184E090E09093FF044D
S11340A08093FE0480915E058823B1F1809185059B
S11340B0882391F58A819927582F44278981992744
S11340C0482B592B45FF28C08F819927382F222749
S11340D08E819927282B392B8091BE0B9091BF0B91
S11340E02817390719F02F5F3F4FB1F4477050700C
S11340F04130510589F4C09AC0988AE00E94611B3E
S1134100C09AC09828968091C2018750482FBE015A
S11341108FE30E94201FD6C028968091C201875049
S11341209927AC01BE0180E090E00E94F81ECAC04D
S1134130C09A8091F60B882319F484E00E94760BD0
S113414080913207882319F18091C2018B3028F1C4
S113415080918806E82FFF27EE0FFF1FEF5EF34FD5
S1134160808191818DAB892F99278CAB80918806B2
S1134170992701969C01287F3170821B930B8093B1
S113418088068091320781508093320706C08FEFF2
S11341909FEF8DAB8FEF90E08CAB8091C201FE015D
S11341A0E80FF11D808187FF2FC0012B69F1698120
S11341B06770E0916401F0916501623009F5A091A6
S11341C06F05B09170058091570190915801079740
S11341D0D9F4ED019B8183818917B1F487B78F7E70
S11341E087BF908181E08BABE90FF11D82913196FD
S11341F088AB80818F7789AB80E00E94BF0B04C0BD
S1134200613011F48DE02BC00E94801F5BC01092BE
S1134210DA04C09A84E00E94760B54C02E3309F06D
S113422051C0C09A80915701909158010897D1F4D8
S1134230C09889E00E94611BC09A83E00E94760BBB
S113424081E090E090935801809357018FB7F894E0
S1134250282F332783E080935E012FBF86E00E94DE
S1134260F90130C08091A705882349F484E090E0E7
S113427090935801809357010E947C1B23C083E0D4
S11342800E94760B83E090E090935801809357014D
S11342900E942103DC01CB0166E371E00E94B0645B
S11342A00B9690936A05809369057C01002711277A
S11342B00E94BB05DC01CB01A8019701BC01CD0123
S11342C00E94FA19DF91CF911F910F91FF90EF9007
S11342D008950F931F938FB7F894082F11276091B7
S11342E0DC017091DD01E091AA05F091AB058091AC
S11342F06108909162081092DD011092DC01109225
S1134300AB051092AA0510926208109261081092EF
S1134310DE041092DD0420E0AC01CF010E94D31F23
S11343200FBF1F910F910895FF920F931F93CF9387
S1134330DF9300916F0510917005F80187A5992707
S1134340C82F882309F4CFE1C098809178098C178D
S113435041F08C2F9927806E9068BC0185E10E9402
S11343609F1CC0937809F801F080FA948FB7F894F1
S1134370C82FDD2760E0862F0E94BA01882311F040
S1134380CFBF13C0CFBF8EE390E090930307809319
S11343900207809102070E94551B8F2D9927AC01BB
S11343A060E070E0C8010E94F81EDF91CF911F9178
S11343B00F91FF900895CF92DF92EF92FF920F93A7
S11343C01F93CF93DF93EA01D22E8A876E83872FC0
S11343D099278F838FB7F894282F33278091180655
S11343E0909119062FBF8C83892F9927249689834E
S11343F024978CE0D80E41E0C42E6C2D82E00E94FC
S1134400CC01082F1127002309F07BC0809169019A
S1134410982F8C0D809369019B838FB7F894E82EB5
S1134420FF2462E08C2D0E94BA01882321F4EFBEA0
S113443081E090E05DC08FB7F894282F332784E0A3
S113444080938E052FBFD093EF0BC093EE0BEFBE7E
S1134450FE01D19289819927807290708983892F76
S1134460992781839927982F882729813327822B9D
S1134470932B816498688983892F992781830E946B
S1134480B0018887892F99272896898328970BABB1
S113449008AB09AB1DAA0CABC09277094091EE0B97
S11344A05091EF0B8FB7F894282F33278091570141
S11344B0909158018830910511F0019711F02FBFA8
S11344C015C082E090E09093580180935701C09208
S11344D0A7055093700540936F05009301072FBF04
S11344E00E94581E882311F40E94942180E090E0D9
S11344F09927C82F882311F00E94F2018C2F992745
S113450002C085E090E09927DF91CF911F910F9130
S1134510FF90EF90DF90CF900895AF92BF92CF922B
S1134520DF92EF92FF920F931F93CF93DF93B82EF6
S11345307B01A42E86E08B1518F481E090E035C051
S1134540CB2DDD27CC0FDD1FC653DE4FC880D980AD
S1134550C114D10419F085E090E027C06883798301
S1134560642FC7010E949A01809122018730E0F0F4
S1134570C7010E94A201082F1127C7010E94A601AA
S1134580B09222012A2DA701BC01802F0E94DB21B9
S11345909927282F882329F087E080932201C88255
S11345A0D982822F992701C0C601DF91CF911F9133
S11345B00F91FF90EF90DF90CF90BF90AF90089550
S11345C0809132018430F1F580913001882309F023
S11345D085C081E08093300185E00E946F23809143
S11345E00C0C90910D0C80935A04892F9927809379
S11345F0590480912A0190912B0180935C04892FA6
S1134600992780935B04209108013091090140911E
S11346100A0150910B0120936004BB27A52F942F0E
S1134620832F80935F04CA01AA27BB2780935E046B
S1134630852F9927AA27BB2780935D0480910701C2
S11346408093610480913201853009F047C08091E4
S11346501709882331F080E00E947F18109217090F
S113466008958091F30B882321F481E00E946F2345
S1134670089520E030E040E050E0F901E75AFB4FB4
S1134680D901A957BA4F8C9181872F5F3F4F4F4F64
S11346905F4F253031054105510578F38091590468
S11346A09927982F882720915A043327822B932BFC
S11346B080935404892F99278093550462EA8EE4E9
S11346C094E00E949F014EE06EE474E083E00E9457
S11346D08D22882319F080E00E947F180895CF93DB
S11346E0C82F8230A0F480913201833011F08530DC
S11346F071F41092300199278230910519F00497D2
S113470021F005C00E94342402C00E94E022C0931C
S11347103201CF9108958091A8018D7F8093A801E3
S113472080919F018D7F80939F0180E00E946F2381
S11347308FEF90E0A0E0B0E080930801909309012E
S1134740A0930A01B0930B018FEF8093070180E0DF
S113475090E0A0E0B0E0FC01E957FA4F1082019626
S1134760A11DB11D85309105A105B105A0F380E01F
S113477090E0A0E0B0E0FC01E55DF84F1082019606
S1134780A11DB11D85309105A105B105A0F385E0FA
S1134790809311012FEF30E040E050E02093AF050B
S11347A080E090E0A0E0B0E08093AE058093AD059A
S11347B08093AC052093B0052093B30580936305E3
S11347C080E090E008958F929F92AF92BF92CF9233
S11347D0DF92EF92FF920F931F936B017C014901CB
S11347E05A010E948B23C092ED01D092EE01E09217
S11347F0EF01F092F00180921B0990921C09A092A3
S11348001D09B0921E090093D90111270115110544
S113481021F00130110541F013C0CC24DD247601D0
S1134820A701960160E008C0CC24DD24760100E0F5
S113483010E0A701960161E082E00E94B90201C084
S113484081E0282F3327822F222311F42093110192
S113485099271F910F91FF90EF90DF90CF90BF9019
S1134860AF909F908F900895AF92BF92CF92DF92B6
S1134870EF92FF920F931F93CF93DF93CDB7DEB7E1
S113488022970FB6F894DEBF0FBECDBF64E28EE46C
S113489094E00E94C2096C0160913201862F82501B
S11348A0823008F0C9C0E0900D01F0900E01009133
S11348B00F01109110018091AC059927AA27BB27FD
S11348C0B82FAA27992788272091AD053327442795
S11348D05527A90133272227822B932BA42BB52BF1
S11348E02091AE05332744275527542F432F322FC9
S11348F02227822B932BA42BB52B2091AF05332792
S113490044275527822B932BA42BB52BE816F906A5
S11349100A071B0729F4809164058160809364056C
S1134920623039F510913001112309F085C081E01E
S11349308093300183E00E946F2320910D01309118
S11349400E0140910F0150911001F6012383BB2702
S1134950A52F942F832F8283CA01AA27BB27818383
S1134960852F9927AA27BB27808380910C018483F4
S11349701583F6018581992723E230E04BE257E065
S1134980BC01CE0101960E942802A82EBB24AA20B5
S113499021F081E00E946F234FC08981F601858355
S11349A02091310180910C019981482F5527662768
S11349B07727AAE0440F551F661F771FAA95D1F7E2
S11349C08EE1989FC0011124AA27BB27480F591FC5
S11349D06A1F7B1F86010A5F1F4F3327211531058C
S11349E021F02130310551F015C0FEE1CF2ED12C3C
S11349F0E12CF12C9A01AB016A2D08C0EEE1CE2E18
S1134A00D12CE12CF12C9A01AB0161E084E00E94ED
S1134A10B90201C081E0882379F00E948F16DC017D
S1134A20CB0141E0E42E00E110E020E030E0AC01F5
S1134A30BD0185E00E94A70322960FB6F894DEBF5D
S1134A400FBECDBFDF91CF911F910F91FF90EF90DB
S1134A50DF90CF90BF90AF900895CF93DF93FC0188
S1134A60EB0190913201892F8250823050F5809170
S1134A700D0190910E01A0910F01B0911001C81782
S1134A80D907EA07FB074CF0C817D907EA07FB0761
S1134A90A1F580910C01481780F581E00E946F23F5
S1134AA080E090E0A0E0B0E0FC01E55DF84F10820A
S1134AB00196A11DB11D85309105A105B105A0F395
S1134AC01CC094509230C8F480910801909109015F
S1134AD0A0910A01B0910B01C817D907EA07FB0797
S1134AE04CF0C817D907EA07FB0739F4809107018E
S1134AF0841718F081E080931709DF91CF9108950E
S1134B00EF92FF920F931F93CF937B018C01C42FDD
S1134B1080913201882319F481E00E946F23E0928E
S1134B200801F092090100930A0110930B01C0934C
S1134B30070180E090E0A0E0B0E02FEFFC01E9572E
S1134B40FA4F20830196A11DB11D85309105A10561
S1134B50B105A0F380E090E0CF911F910F91FF90F9
S1134B60EF9008958F929F92AF92BF92CF92DF926F
S1134B70EF92FF920F931F936B017C0149015A013D
S1134B800E948B2382E080931101C092AF05BB2762
S1134B90AF2D9E2D8D2D8093AE05C701AA27BB276F
S1134BA08093AD058F2D9927AA27BB278093AC0549
S1134BB0089481089108A108B108EAE0B694A79482
S1134BC097948794EA95D1F7882D8F5F8093B005E9
S1134BD08093B30565E08CEA95E00E947A068093A1
S1134BE0B205892F99278093B105809111018230F4
S1134BF011F40E942A1984E0809311010093310179
S1134C008091AC059927AA27BB27382F2227112783
S1134C1000278091AD059927AA27BB27DC01992796
S1134C208827082B192B2A2B3B2B8091AE0599271B
S1134C30AA27BB27BA2FA92F982F8827082B192B0F
S1134C402A2B3B2B8091AF059927AA27BB27082B3A
S1134C50192B2A2B3B2B8091B0059927482FC9018A
S1134C60B8010E94802580E090E01F910F91FF9091
S1134C70EF90DF90CF90BF90AF909F908F9008956A
S1134C80CF93BC01C0E081E08093230C609396082D
S1134C90872F992780939508E7E9F8E08EED603037
S1134CA0780749F420912C0130912D0140912E0177
S1134CB050912F0104C020E030E040E050E0238315
S1134CC0BB27A52F942F832F8283CA01AA27BB2732
S1134CD08183852F9927AA27BB2780939708992733
S1134CE0AA27BB27B82FAA27992788272091980895
S1134CF0332744275527A90133272227822B932BB7
S1134D00A42BB52B20919908332744275527542FDA
S1134D10432F322F2227822B932BA42BB52B2091A8
S1134D209A08332744275527822B932BA42BB52B82
S1134D300097A105B105B1F060507E4D21F4CAE0A1
S1134D4065EF75E002C060E070E08C2F992706964D
S1134D50859708F0CEE18C2F9927AC018BE998E078
S1134D600E946364CA5F8FEF9FEF809390088FEF78
S1134D7090E0809391086DE08AE898E00E949F019A
S1134D804C2F6AE878E085E00E948D22CF91089547
S1134D90CF93DC018091F00B882309F458C08AE09A
S1134DA0E5EFF5E00D9001928A95E1F780912C01F1
S1134DB090912D01A0912E01B0912F01CD01AA2730
S1134DC0BB270196A11DB11D80932C0190932D0149
S1134DD0A0932E01B0932F010097A105B10559F4BA
S1134DE00196A11DB11D80932C0190932D01A093D8
S1134DF02E01B0932F0180912C0190912D01A0914F
S1134E002E01B0912F01DC019927882720912A01D6
S1134E1030912B0144275527820F931FA41FB51FE0
S1134E2080932C0190932D01A0932E01B0932F0118
S1134E3080911506882359F0C091230CCC2339F4B2
S1134E4080E09EED0E9440268C2F0E943918CF915D
S1134E5008955F926F927F928F929F92AF92BF92CA
S1134E60CF92DF92EF92FF920F931F93CF93DF9332
S1134E70CDB7DEB72A970FB6F894DEBF0FBECDBF0D
S1134E808FB7F89499272091390160903701709079
S1134E9038015090FC048FBF222309F09CC2F30117
S1134EA082856BE0E62EF12CE60CF71C8B3A09F0B8
S1134EB092C2F70181819927009719F0019719F09F
S1134EC07CC2A22E02C051E0A52EF7018081082FDA
S1134ED011270430110509F40FC105301105A4F49C
S1134EE00130110509F442C00230110524F4011502
S1134EF0110519F170C20230110509F47EC00330A6
S1134F00110509F4AAC067C20730110509F423C1C9
S1134F10083011054CF40530110509F427C2063098
S1134F20110509F434C157C20830110509F4C3C08E
S1134F300930110509F432C24EC261E060933401B4
S1134F408A2D9927009719F0019749F0D3C0CC24F2
S1134F50DD2476018C01A701960160E005C0CC2414
S1134F60DD247601A701960182E0C1C082E080932E
S1134F70340187010C5F1F4FF70184819927382F73
S1134F802227F80181819927282B392BC7010696FE
S1134F90A901BC0183E698E00E946364F701828161
S1134FA09927982F882723813327822B932BAC01B1
S1134FB06627772784819927982F8827F8012181EC
S1134FC03327822B932B6C01EE24FF240A2D112707
S1134FD00115110521F00130110541F08BC003E6E4
S1134FE018E09A01AB0160E081E081C003E618E0BB
S1134FF09A01AB0161E0862F7AC083E0809334018B
S1135000F70182819927982F882723813327822BC0
S1135010932BAC016627772784819927982F8827BB
S113502025813327822B932B6C01EE24FF240A2D38
S113503011270115110521F00130110539F05AC06D
S113504003E115E09A01AB0160E005C003E115E05E
S11350509A01AB0161E084E04AC084E080933401AA
S1135060F70182819927982F882723813327822B60
S1135070932BAC016627772784819927982F88275B
S113508025813327822B932B6C01EE24FF240A2DD8
S113509011270115110521F00130110529F02AC04D
S11350A09A01AB0160E005C000E010E09A01AB0199
S11350B061E085E01CC086E0809334010A2D11274D
S11350C00115110521F00130110541F013C0CC2464
S11350D0DD247601A701960160E008C0CC24DD241C
S11350E0760100E010E0A701960161E083E00E94F0
S11350F0B90265C181E063C123E1E22E25E0F22E0D
S113510040E050E060E070E00A2D11270115110520
S113511021F00130110519F008C080E001C081E0E0
S11351200E9489049B01AC0104C020E030E040E00F
S113513050E0F7012383BB27A52F942F832F82836D
S1135140CA01AA27BB278183852F9927AA27BB27B2
S1135150809313052DC185E08093340141E050E034
S113516060E070E080E00E94AF04A09212010E940F
S11351708F16DC01CB0111E0E12E00E014E020E009
S113518030E0AC01BD0184E00E94A70324C18EE09D
S1135190A89E80011124065E194FF8018081918137
S11351A0A281B3818F5F9F4FAF4FBF4F09F4D8C027
S11351B00E948B23B2E0CB2ED12CCC0EDD1EF80145
S11351C020813181428153812D83BB27A52F942FC8
S11351D0832FF6018283CA01AA27BB278B83852FDD
S11351E09927AA27BB278A83F801848195818F8315
S11351F0892F99278E83A886848595858A87892F08
S1135200992789871982CE0101960E94C8268A812E
S11352109927AA27BB27182F0027FF24EE248B8168
S11352209927AA27BB27DC0199278827E82AF92A86
S11352300A2B1B2BF60182819927AA27BB27BA2F99
S1135240A92F982F8827E82AF92A0A2B1B2B8D814E
S11352509927AA27BB27E82AF92A0A2B1B2B898519
S11352609927982F88272A853327822B932B5C0133
S1135270CC24DD248885882E99240E948B2382E007
S113528080931101E092AF05BB27A12F902F8F2DA2
S11352908093AE05C801AA27BB278093AD05812F53
S11352A09927AA27BB278093AC050894A108B108C5
S11352B0C108D108EAE0D694C794B794A794EA95B4
S11352C0D1F78A2D8F5F8093B0058093B30565E095
S11352D08CEA95E00E947A068093B205892F99277B
S11352E08093B10580911101823011F40E942A1932
S11352F084E080931101809231018091AC0599275B
S1135300AA27BB27382F2227112700278091AD0514
S11353109927AA27BB27DC0199278827082B192B53
S11353202A2B3B2B8091AE059927AA27BB27BA2F9E
S1135330A92F982F8827082B192B2A2B3B2B8091D8
S1135340AF059927AA27BB27082B192B2A2B3B2B00
S11353508091B0059927482FC901B8010E94802582
S113536041E050E060E070E080E033C0EE24FF24D0
S11353708701ED82EC82EB82EA821F82EE82A886AC
S1135380EA86E98681E08983CE0101960E94C826D7
S113539041E050E060E070E08E2D1BC084E594E4B1
S11353A0AFE0B7ECE2E1F5E081839283A383B483B9
S11353B045E050E060E070E0D7CF21E003C0282F43
S11353C0882349F01092340141E050E060E070E03D
S11353D0822F0E94AF048FB7F894E52DFF27EE0FBC
S11353E0FF1FEA5EFE4F6082718290914501552055
S11353F011F09B7F01C09D7F9093450110923A016B
S11354008FBF2A960FB6F894DEBF0FBECDBFDF91D3
S1135410CF911F910F91FF90EF90DF90CF90BF90AD
S1135420AF909F908F907F906F905F90089550E021
S11354308FB7F894682F77274091A605842F992772
S11354409C012170307080FF02C021E030E0232BEA
S113545021F04E7F4093A60551E06FBF552379F0AC
S113546080911506882341F08091230C882321F430
S113547080E09EED0E9440268BE20E94F90108958F
S1135480CF92EF920F931F93CF93DF938901CEE4D2
S1135490D4E0F4E2EF2E6E2DCE010E94C2090696EE
S11354A00817190771F580913201833051F5CC202A
S11354B021F081E00E946F2324C080910C0C909114
S11354C00D0C80935404892F99278093550463EA23
S11354D0CE010E949F014E2DBE0184E00E948D22C8
S11354E0882379F00E948F16DC01CB0171E0E72E4E
S11354F000E110E020E030E0AC01BD0185E00E9455
S1135500A703DF91CF911F910F91EF90CF90089552
S11355103F924F925F926F927F928F929F92AF923F
S1135520BF92CF92DF92EF92FF920F931F93CF938C
S1135530DF93E82F2A013B01E9013C2C8091F1051E
S113554099278130910509F469C0823091051CF4D2
S1135550892BE9F0BAC0039709F0B7C08E2F9927B9
S1135560009719F0019749F0B0C080E00E949D05B2
S11355709E01B301A20180E007C081E00E949D0565
S11355809E01B301A20181E00E94402A9EC0CC206A
S113559009F09BC040911706242F33278EE090E03A
S11355A0289FF001299FF00D389FF00D1124E65E2D
S11355B0F94F80819181A281B3818F5F9F4FAF4F5B
S11355C0BF4F31F1C0921A0961E06093F1052115D2
S11355D0310521F02130310571F077C022E0C22E6F
S11355E0D12CE12CF12C0CEB1BE020E130E040E06D
S11355F050E0632D0BC092E0C92ED12CE12CF12C8C
S11356000CEB1BE020E130E040E050E084E05BC0C4
S11356104F5F409317060E94801A57C082E0809320
S1135620F10560911A0900911706662301F5112707
S11356300115110521F00130110561F046C080E526
S1135640C82E83E0D82EE12CF12C20E131E040E09B
S113565050E038C0C0E5CC2EC3E0DC2EE12CF12CA8
S113566000E010E020E131E040E050E02AC0862F65
S11356709927AA27BB27BC01CD0120E534E040E0EF
S113568050E00E9485649B01AC01205F3F4F4F4F67
S11356905F4F11270115110521F00130110549F063
S11356A014C0B0E5CB2EB4E0DB2EE12CF12C60E08D
S11356B009C0A0E5CA2EA4E0DA2EE12CF12C00E00A
S11356C010E061E085E00E94B902DF91CF911F9163
S11356D00F91FF90EF90DF90CF90BF90AF909F908D
S11356E08F907F906F905F904F903F9008950F93AD
S11356F01F93CF93DF938FB7F894992720912901B3
S11357008FBF33272230310509F464C023303105BB
S113571044F42115310571F02130310509F445C0F7
S1135720B5C02330310509F471C02430310509F4C2
S1135730ABC0ACC0C0988FB7F894C82FDD27809158
S11357405C0190915D01029771F583E090E0909384
S11357505D0180935C0168E170E08DE10E949F1C13
S113576011E01093BE0110925B0180B3992736E0DB
S1135770969587953A95E1F781238093160689E0FB
S11357800E94F901812F0E94611B6FE772E08CE196
S11357900E949F1C0E94C61C0E94D81C66E57AE2E7
S11357A087E10E949F1CCFBF71C0C09886E00E9411
S11357B0611B0E94C61C0E94D81C0E94001DC09A36
S11357C0C09883E00E94611BC09A81E00E94760B1E
S11357D088E053C0C0988FB7F894082F112760E071
S11357E0862F0E94BA01C82FDD27CC2311F00FBFEA
S11357F00AC00FBF83E50E94551B8C2F0E94551BC6
S11358008C2F0E94551BC09A82E03BC08FB7F8943E
S11358109927209157018FBF33272430310571F028
S11358202530310524F42230310529F029C02830EF
S1135830310539F025C00E94942128C00E947C1BA8
S113584025C0C09889E00E94611BC09A83E00E9431
S1135850760B8FB7F894282F332781E090E090934C
S11358605801809357012FBF8FB7F894282F3327FF
S113587083E080935E012FBF86E00E94F90106C099
S113588083E00E94760B02C00E94581FDF91CF91E3
S11358901F910F910895982F80913A01882399F5CB
S11358A0992389F531E030933A0180911A0180936C
S11358B0390120914501822F83238093FC04809138
S11358C014019091150190933801809337018091D0
S11358D0440180933601322731702E7F232B822F8F
S11358E08170E82FFF27EE0FFF1FEA5EFE4F8081D5
S11358F091819093150180931401277E2093450193
S113590087E20E94F90108951F93CF93182FC62FA1
S11359108091280799278130910509F182309105FA
S11359201CF4009749F025C18230910509F454C054
S1135930039709F464C01DC1112309F441C11092F5
S1135940C6011092C50110920009109243091092E9
S11359504B069093C1018093C00181E04DC0112397
S113596009F02EC18091C0019091C1010E946B0683
S11359709093C1018093C00182E080932807C09373
S11359804309C43409F0F5C0C43409F0F2C0212F2E
S11359908091450180FF03C0982F969503C0982FEE
S11359A096959695917099F480FF02C0846001C029
S11359B082608093450180914501877E8860809351
S11359C04501109244018FEF80931A0101C025E034
S11359D0222309F4F5C0CDC0112309F0CAC0609395
S11359E04B068091C0019091C1010E946B06909377
S11359F0C1018093C00183E080932807E1C08091B6
S1135A0000098F3F09F4B5C0112309F449C082305D
S1135A1008F4AFC09091C501992319F0E92FE15022
S1135A2001C0E2E09E2FFF27EB53FE4F8281282F17
S1135A303327322F2227992319F0E92FE15001C08F
S1135A40E2E0FF27EB53FE4F82819927282B392B65
S1135A508091C0019091C1012817390709F089C0CC
S1135A6080E00E944B2C30914B068091800920915C
S1135A708109982F9F5F963008F090E0921709F4FF
S1135A8078C0E82FFF27E058F64F32838F5F80936A
S1135A908009863010F0109280090E94C60369C004
S1135AA0823008F452C08091C601E82FFF27EB53DF
S1135AB0FE4F8281482F5527342F20914501822F94
S1135AC0869586958695837099278130910519F07E
S1135AD0029781F01FC0822F877E806180934501E9
S1135AE0442311F484E001C080E0809344013093A6
S1135AF01A0110C080914401883360F4E0911401CC
S1135B00F0911501E80FF11D4083809144018F5FEE
S1135B10809344018091C601E82FFF27EB53FE4F89
S1135B2092818F5F8093C601833010F01092C6017A
S1135B30892F9927682F8091C0019091C1010E94FB
S1135B406B069093C1018093C0018091C501E82F39
S1135B50FF27EB53FE4FC2838F5F8093C5018330D1
S1135B6010F01092C501809100098F5F80930009A5
S1135B7027C01092C6011092C501109228071092F6
S1135B8000091092430910924B061092C101109221
S1135B90C001809135018D7F80933501C1E08C2F48
S1135BA00E944B2C80914601882331F084E080933D
S1135BB028070E94050504C0112311F0C09328078B
S1135BC0CF911F910895282F8FB7F89499272CB956
S1135BD05E9A8FBF0895CF93DF93FC016115710521
S1135BE019F481E090E020C0C091240CD091250CE0
S1135BF0209719F085E090E017C09093250C8093CE
S1135C00240C709376096093750981E080935C0598
S1135C105E9A569A2196D093C401C093C3012197EA
S1135C2080810E94E32DCE01DF91CF910895982FBA
S1135C308D57823068F480913501816080933501FD
S1135C4080E289278093A9058DE78093420902C0E9
S1135C509093420961E070E082E499E00E94EB2DA8
S1135C6099270895809135018E7F809335018EE7C1
S1135C708093420961E070E082E499E00E94EB2D98
S1135C80992708951F93CF93B0E01B2FCB2F8FB785
S1135C90F894382FB0938C054B2F80915C0988239E
S1135CA009F441E02C2F883009F421E09C2F89303D
S1135CB009F491E0222311F4992359F0C0935C096B
S1135CC080915E09E82FFF27EE0FFF1FE05EF84F7B
S1135CD0C0833FBF222311F4992311F18091190746
S1135CE08F5F8093190780917A09833499F48FB771
