S01800006275696C642F6D6963617A2F6D61696E2E73726563E5
S11300000C9466010C94CE370C94D8370C94E237D8
S11300100C940A380C9414380C941E380C94283818
S11300200C9458380C9483010C9483010C94CB36B3
S11300300C941D360C94B5360C94AD370C94C8351D
S11300400C940C360C9462380C94CC380C948301C8
S11300500C942D390C9483010C9483010C9483012A
S11300600C94C0360C94873A0C94663A0C94713A0A
S11300700C947C3A0C949A3A0C94493A0C9483016B
S11300800C945B3A0C9483010C948301F52A1C2B89
S1130090282BC32BC92B232C262C2C2C662C282D47
S11300A04E2D622D9C2DCE2D7A2F162E182E5B2EC2
S11300B0812F9B2F7830823086308930AE30B53234
S11300C0D332E132F83200081C1814100000211059
S11300D0422063308440A550C660E77008812991AE
S11300E04AA16BB18CC1ADD1CEE1EFF13112100256
S11300F073325222B5529442F772D66239931883FE
S11301007BB35AA3BDD39CC3FFF3DEE36224433421
S113011020040114E664C774A44485546AA54BB54D
S113012028850995EEE5CFF5ACC58DD553367226F5
S113013011163006D776F6669556B4465BB77AA79D
S113014019973887DFF7FEE79DD7BCC7C448E55841
S11301508668A7784008611802282338CCC9EDD9ED
S11301608EE9AFF9488969990AA92BB9F55AD44A95
S1130170B77A966A711A500A333A122AFDDBDCCB3D
S1130180BFFB9EEB799B588B3BBB1AABA66C877C61
S1130190E44CC55C222C033C600C411CAEED8FFD8D
S11301A0ECCDCDDD2AAD0BBD688D499D977EB66E35
S11301B0D55EF44E133E322E511E700E9FFFBEEFDD
S11301C0DDDFFCCF1BBF3AAF599F788F8891A9819F
S11301D0CAB1EBA10CD12DC14EF16FE18010A10089
S11301E0C230E3200450254046706760B983989379
S11301F0FBA3DAB33DC31CD37FE35EF3B1029012D9
S1130200F322D2323542145277625672EAB5CBA544
S1130210A89589856EF54FE52CD50DC5E234C32428
S1130220A01481046674476424540544DBA7FAB718
S11302309987B8975FE77EF71DC73CD7D326F23678
S11302409106B01657667676154634564CD96DC964
S11302500EF92FE9C899E9898AB9ABA944586548C8
S113026006782768C018E1088238A3287DCB5CDBB8
S11302703FEB1EFBF98BD89BBBAB9ABB754A545A18
S1130280376A167AF10AD01AB32A923A2EFD0FED84
S11302906CDD4DCDAABD8BADE89DC98D267C076C68
S11302A0645C454CA23C832CE01CC10C1FEF3EFF58
S11302B05DCF7CDF9BAFBABFD98FF89F176E367EB8
S11302C0554E745E932EB23ED10EF01E11241FBE05
S11302D0CFEFD0E1DEBFCDBF11E0A0E0B1E0E0E7B9
S11302E0FAE700E00BBF02C007900D92AA32B107F3
S11302F0D9F714E0AAE2B1E001C01D92A73DB1070D
S1130300E1F70C9438330C9400008FB7F8949927D4
S113031008958FBF0895FC0162870895FC018285CA
S113032099270895FC0187819927382F22278681F0
S11303309927822B932B08958FB7F89499272091AE
S11303402001309121018FBFC9010895982F8FB7E3
S1130350F894482F552730E0E92FFF27ED53FD4F40
S11303608081861709F431E04FBF832F99270895C0
S1130370682F81E00E94A60199270895282F91E013
S11303808FB7F894382F662339F0E22FFF27ED5307
S1130390FD4F8081882331F4E22FFF27ED53FD4F79
S11303A0608390E03FBF892F99270895909122019F
S11303B0981739F480914B01823019F481E090E070
S11303C0089580E090E008958FB7F89499271092EB
S11303D0C5028FBF0895982F8FB7F894282FE92F5F
S11303E0FF27E656FB4F80818F3FB1F48091BA041A
S11303F0891791F0809195048F3F19F49093950497
S113040007C08091BA04E82FFF27E656FB4F90837C
S11304109093BA0480E001C085E02FBF9927089526
S113042080914B01882319F480E090E0089581E0E5
S113043090E0089580E0682F0E94A601992708950E
S1130440CF92DF92EF92FF920F931F93CF93DF939C
S11304506C018B017A01E901232B39F423C0F601E5
S11304606083718380E090E01FC0FB0133E0F69568
S1130470E7953A95E1F7EE0DFF1D808199279B01E1
S11304802770307002C0959587952A95E2F780FD14
S1130490E6CFCB010196BE010E94B83CBC01801797
S11304A0910719F781E090E0DF91CF911F910F91AF
S11304B0FF90EF90DF90CF900895CF93DF93982F24
S11304C08FB7F894282F3327422F80914501882332
S11304D001F1E92FFF27E455FE4F80818F3FA1F4FE
S11304E0E0911C01E91781F080911D018F3F19F4FF
S11304F090931D0104C0FF27E455FE4F9083909311
S11305001C0180E090E002C085E090E04FBF992795
S113051025C081E0809345019093D7022FBF8FB708
S1130520F894C82FDD279C2F80911B01823099F409
S113053080914501813021F482E10E94EB0109C0E0
S1130540823049F48091D70280931B0183E0809329
S11305504501CFBF01C09FBF80E090E0DF91CF9104
S11305600895CF92DF92EF92FF920F931F93CF9350
S1130570C82F77278BE090E0689FF001699FF00D0A
S1130580789FF00D1124E85BFB4F8081882319F0DC
S113059085E090E046C06115710519F06130710580
S11305A019F480E092E002C080E090E0AA27BB2723
S11305B0BA2FA92F982F882782179307A407B50766
S11305C048F0821B930BA40BB50B8C159D05AE054F
S11305D0BF0518F486E090E024C08BE090E0689FAB
S11305E0F001699FF00D789FF00D1124E85BFB4F3B
S11305F0C083238334834583568301831283C78254
S1130600D086E186F2866115710521F061307105AD
S113061019F005C080E001C081E00E945D0280E025
S113062090E0CF911F910F91FF90EF90DF90CF90CA
S11306300895CF92DF92EF92FF920F931F93670179
S113064078019927009719F0019731F00DC08901BD
S11306509A01AB0160E004C089019A01AB0161E039
S113066084E00E94B10201C081E099271F910F919B
S1130670FF90EF90DF90CF900895FC019A01AB01B9
S11306802383BB27A52F942F832F8283CA01AA27F4
S1130690BB278183852F9927AA27BB278083CA017B
S11306A0B90108952F923F924F925F926F927F9279
S11306B08F929F92AF92BF92CF92DF92EF92FF926E
S11306C00F931F93CF93DF93CDB7DEB72A970FB65F
S11306D0F894DEBF0FBECDBF8FB7F894282F332711
S11306E029873A872090A4023090A5024090A60260
S11306F05090A70266243EE4A32E23E8B22EC62C13
S1130700D62CE62CF62C062D162D222D332D442D19
S1130710552D662D762D862D962D0E94BB3A298364
S11307203A834B835C836D837E838F839887822E89
S1130730932EA42EB52EC62ED72EE82EF92E2401E4
S11307403501769467945794479400E2282D392D07
S11307504A2D5B2D6C2D7D2D8E2D9F2D0E94C53B2A
S1130760A22EB32EC42ED52EC601B501640D751D5F
S1130770861D971D97FF05C09F776F5F7F4F8F4F33
S11307809F4F6093A4027093A5028093A602909356
S1130790A70239853FBF2A960FB6F894DEBF0FBE75
S11307A0CDBFDF91CF911F910F91FF90EF90DF901C
S11307B0CF90BF90AF909F908F907F906F905F90FD
S11307C04F903F902F900895EF920F931F93AE2D6B
S11307D099E0899FF0011124E65AFE4F408351832A
S11307E0628373830483158326833783A170808592
S11307F08E7F8A2B826080878DE00E94EB011F919F
S11308000F91EF900895CF938FB7F894C82F8091EC
S1130810C202882341F483E10E94EB01882319F486
S113082081E08093C202CFBFCF9108950F931F93AD
S1130830CF93DA01C22F4C5F5F4FFA016183272FF8
S11308403327FD0124838287FA01C48300913E018A
S113085010913F010115110519F085E090E041C0A8
S11308608FB7F894482F552724E030E020933C01BB
S113087010923B01B0934101A093400182E090E0CB
S113088090933F0180933E011092390110923A01F6
S1130890C95F822F8C0F80933D014FBF90E08FB7CB
S11308A0F894282F332780911603882331F481E0AC
S11308B08093160390931703982F2FBF992321F049
S11308C00E940304C80102C085E090E0882319F463
S11308D080E090E006C010923F0110923E0181E05A
S11308E090E09927CF911F910F910895FC01848185
S11308F09927382F222785819927822B932B0895B6
S1130900EF92FF920F931F93E82FFF27EE0FFF1F25
S1130910E554FE4F108211821092130120E0809161
S1130920BB019091BC01892B19F08091610280FD7B
S113093021E010921301222319F081E08093130126
S1130940809113018823E9F40091BB011091BC014B
S1130950F8018285E82EFF24C8010E947604BC01B8
S11309600C5F1F4FF8018481045010409927282FF1
S1130970A8018E2D0E941604882319F08AE10E9492
S1130980EB011F910F91FF90EF900895CF92DF92AA
S1130990EF92FF920F931F93082F11270115110552
S11309A021F00130110541F013C0CC24DD2476017F
S11309B0A701960160E008C0CC24DD24760100E0A4
S11309C010E0A701960161E083E00E94B10201C03A
S11309D081E099271F910F91FF90EF90DF90CF90C6
S11309E00895CF92DF92EF92FF920F931F93F70136
S11309F09927009719F0019741F011C06801790116
S1130A008F019A01AB0160E006C0680179018F0192
S1130A109A01AB0161E085E00E94B10201C081E06E
S1130A2099271F910F91FF90EF90DF90CF90089539
S1130A30CF92DF92EF92FF920F931F936701780199
S1130A409927009719F0019739F00EC089019A018E
S1130A50AB0160E081E005C089019A01AB0161E06E
S1130A60862F0E94B10201C081E099271F910F9146
S1130A70FF90EF90DF90CF900895CF92DF92EF92A6
S1130A80FF920F931F93082F11270115110521F0D1
S1130A900130110541F013C0CC24DD247601A701F7
S1130AA0960160E008C0CC24DD24760100E010E06B
S1130AB0A701960161E082E00E94B10201C081E0D9
S1130AC099271F910F91FF90EF90DF90CF90089599
S1130AD09C016D3118F080E090E00895C9010B96F7
S1130AE00895CF93DF93EB01DA01252F362F472F9B
S1130AF05527E82FFF27309739F0319719F4205004
S1130B003E4F02C02FEF3FEFCD0190704427552791
S1130B10542F432F322F2227AA27BB27280F391FF0
S1130B204A1F5B1FCA01B901DF91CF910895BF929B
S1130B30CF92DF92EF92FF920F931F93CF93DF93A5
S1130B407A018B01C2E7D2E0811181E080937D02BA
S1130B508FEF9FEF809377028FEF90E08093760280
S1130B602BEAB22EB0927C02C090BB01D090BC01A3
S1130B70C114D104F1F4D093BC01C093BB01E09241
S1130B807A02809113018823A1F0CE010E94760499
S1130B90109213012E2DAE01BC018B2D0E94160460
S1130BA0882339F081E080931301D092BC01C09274
S1130BB0BB01DF91CF911F910F91FF90EF90DF90D8
S1130BC0CF90BF90089520E08FB7F894982F80912C
S1130BD080048A3029F480911C03843009F421E0D4
S1130BE09FBF222351F085E10E94EB018FB7F89457
S1130BF09927109244018FBF08958FB7F894282F36
S1130C00332781E0809344012FBF089581E10E943E
S1130C10EB0180E090E00895CF92DF92EF92FF9293
S1130C200F931F93962FA42F8093460190938804CB
S1130C30C901880F892F881F990B91958093890486
S1130C40220F812F9927282B20938A0400938B0449
S1130C50F0922503E0922403D092A302C092A20250
S1130C60A0935F0481E10E94EB011F910F91FF901B
S1130C70EF90DF90CF900895CF93982F8FB7F8948B
S1130C80C82F80914501833081F580911B0189171C
S1130C9061F520E030E080911D018F3F11F421E0E7
S1130CA030E0232BE9F48F3F81F0282F3327F9011B
S1130CB0E455FE4F808180931D018F3F11F4809392
S1130CC01C018FEF8083C90102C08FEF90E08093F5
S1130CD0D70281E08093450182E10E94EB0105C0C7
S1130CE082E080931B0110924501CFBF81E090E028
S1130CF0CF910895CF92EF92FF920F931F9380911B
S1130D003201833079F42E57324061F4109232016B
S1130D100894E11CF11C011D111DB801A7018C2DC3
S1130D200E9497051F910F91FF90EF90CF90089527
S1130D308FB7F894682F7727809127029091280223
S1130D402CB53DB506B602FE03C001962CB53DB5E3
S1130D50AA27BB2744275527DC0199278827822BFC
S1130D60932BA42BB52B6FBFBC01CD010895CF925B
S1130D70DF92EF92FF920F931F93609132016130E3
S1130D80D1F4082F11270115110521F001301105A7
S1130D9041F011C0CC24DD247601A701960160E066
S1130DA007C0CC24DD24760100E010E0A701960101
S1130DB083E00E94B1021F910F91FF90EF90DF90AA
S1130DC0CF900895CF92EF92FF92809132018430B8
S1130DD089F410923201CC2031F4E0927F028F2DFD
S1130DE0992780937E0243E050E060E070E08C2D10
S1130DF00E949705FF90EF90CF900895282F3327F6
S1130E002115310541F02130310519F460507E4F30
S1130E1002C060E070E0CB010895982F80E02FB706
S1130E20F894422F552722B3277D22BB97FD939A2E
S1130E30959A8299806822BB96FD939A959A829995
S1130E40806422BB95FD939A959A8299806222BB15
S1130E5094FD939A959A8299806122BB93FD939A0B
S1130E60959A8299886022BB92FD939A959A829969
S1130E70846022BB91FD939A959A8299826022BBE9
S1130E8090FD939A959A829981604FBF992708950E
S1130E90262FECECF0E02927220FF11DE20FF11DC3
S1130EA0C895982F802D3196C895902508950F9355
S1130EB01F93CF93C62F8C0180E090E0662339F016
S1130EC0F80161918F010E944807C150C9F7CF9181
S1130ED01F910F91089589B78B7F89BF80E10E948C
S1130EE0EB01089580916D028E7F80936D02809155
S1130EF06A028E7F80936A021092E0030895CF9273
S1130F00DF92EF92FF920F931F93282F33278BE0EA
S1130F1090E0289FF001299FF00D389FF00D1124D7
S1130F20E055FE4F82819381A481B5810097A1058C
S1130F30B10569F080819181880F991F8083918325
S1130F408150944020F080E094E0808391838BE092
S1130F5090E0289F6001299FD00C389FD00C112469
S1130F6080EB91E0C80ED91EF60186819781A08599
S1130F70B18582839383A483B583808191817C012D
S1130F800027112789E0EE0CFF1C001F111F8A9512
S1130F90D1F70E945203DC01CB01F601208131819B
S1130FA0322F2227330FB9010E94B83CAA27BB274E
S1130FB0E80EF91E0A1F1B1F220F331FC901AA279F
S1130FC0BB278E199F09A00BB10B86839783A0873B
S1130FD0B18782819381A481B5818E0D9F1DA01F4D
S1130FE0B11F82839383A483B5831F910F91FF90D4
S1130FF0EF90DF90CF900895CF92DF92EF92FF921F
S11310000F931F93CF93DF9340912F019091900101
S11310108CE1989F90011124F901E35DFD4F8081DB
S1131020F901E25DFD4F9081C82FDD27EE27FF27F0
S11310305AE0CC0FDD1FEE1FFF1F5A95D1F786E152
S1131040989FC0011124AA27BB27C80FD91FEA1FE4
S1131050FB1F8901015D1D4F55274115510521F0E5
S11310604130510559F016C026E1C22ED12CE12C95
S1131070F12C9E01AF0160E081E009C096E1C92E28
S1131080D12CE12CF12C9E01AF0161E0862F0E944E
S1131090B10201C081E0882311F010920F03DF91A7
S11310A0CF911F910F91FF90EF90DF90CF90089513
S11310B0882311F06E9A08956E98089588E00E942E
S11310C0EB01992708951F93CF93DF93C0914C01AF
S11310D0CC2351F4109125011F3F31F46C2F8C2F38
S11310E00E94A601882319F481E090E051C081E0B8
S11310F08093930180915501882311F0C09393014B
S113110080919301882309F441C080914B0182307E
S113111071F590912201992351F520E030E08091FE
S113112024018F3F11F421E030E0232BE1F48F3FC1
S113113079F0282F3327F901EF53FB4F80818093F7
S113114024018F3F11F4109323011083C90102C0BD
S11311508FEF90E08093580381E080934B018AE005
S11311600E94EB0104C01093220190934B010E9452
S11311701002C82FDD27CC2331F48C2F0E9458088D
S1131180C093BD04C09A80E090E002C085E090E086
S1131190DF91CF911F910895CF93982F8FB7F89433
S11311A0282F3327C22F809125018917A9F02FBF3B
S11311B081E090E038C04093250181E090E002C0D6
S11311C0880F991F2A95E2F78095582350934C0174
S11311D088E00E94EB0124C08FEF80932501509199
S11311E04C015523A9F040E065E0E52FFF27842F4B
S11311F00E94AC3C492F292F3327CF01022E02C075
S1131200959587950A94E2F780FDD5CF4F5FEFCF90
S11312108FB7F89499271092C3028FBF0E94630876
S1131220CFBF80E090E0CF91089583E00E94CC0886
S11312309927089583E00E94CC0880E090E0089507
S11312408FB7F8949927609350018FBF84E00E9470
S1131250EB0108951F93182F81E090E090934A01C9
S113126080934901109255010E9463088FB7F89446
S11312709927109350018FBF84E00E94EB011F91C6
S1131280089587E00E94EB019927089586E00E9463
S1131290EB019927089580E88093ED011092620292
S11312A010920A03109226031092BE0408959C0122
S11312B06D3118F4C9010B96089580E090E008950B
S11312C09C01FC0163E0F695E7956A95E1F7EC561D
S11312D0FB4F2770307081E090E002C0880F991FA7
S11312E02A95E2F72081282B208308958FB7F8945C
S11312F0982F82B72091BB033091BC034091BD036A
S11313005091BE0306B601FE0FC081B7280F311DF0
S1131310411D511D82B7280F311D411D511D2F5FE5
S11313203F4F4F4F5F4F04C0280F311D411D511DCA
S11313309FBFCA01B90108950F931F93CF93DF9301
S113134010E08FB7F894282F3327022F91B782B774
S113135046B7981711F041FF02C02FBF6AC08091B1
S113136011048823B1F10E947609DC01CB01C091FC
S11313701803D0911903E0911A03F0911B038C1BFD
S11313809D0BAE0BBF0B209143043091440440915C
S113139045045091460482179307A407B50720F02B
S11313A01093110411E015C02C0F3D1F4E1F5F1F39
S11313B08091BB039091BC03A091BD03B091BE0387
S11313C0281B390B4A0B5B0B273E310541055105A0
S11313D010F086EE05C0223010F482E001C0822FA6
S11313E0682F615000B601FCFDCF82B7861709F45F
S11313F06F5F2091BB033091BC034091BD035091BA
S1131400BE03DA01C901860F911DA11DB11D01960C
S1131410A11DB11D82179307A407B50718F46091A5
S1131420BB03609561BF0FBF112319F08CE00E94CC
S1131430EB01DF91CF911F910F910895CF92DF922D
S1131440EF92FF920F936B017C012093770430930A
S113145078044093790450937A04009391018FB7F0
S1131460F894682F772781E080931104C0921803C1
S1131470D0921903E0921A03F0921B0320934304C1
S11314803093440440934504509346046FBF0E9434
S11314909C090F91FF90EF90DF90CF9008950E94E8
S11314A07609DC01CB01BC01CD010895AF92BF9256
S11314B0CF92DF92EF92FF920F931F93F82E5A016F
S11314C06B010E947609DC01CB0171E0E72E9601E5
S11314D08501AC01BD018F2D0E94E4031F910F9182
S11314E0FF90EF90DF90CF90BF90AF900895AF92B0
S11314F0BF92CF92DF92EF920F931F93882389F0CC
S11315000E9452035B016C018FEF90E0A0E0B0E019
S1131510A822B922CA22DB2280E190E0A0E0B0E058
S113152010C00E9452035B016C018FE790E0A0E0C1
S1131530B0E0A822B922CA22DB2280E890E0A0E031
S1131540B0E0A80EB91ECA1EDB1E0E947609DC019B
S1131550CB01E1E0EE2E96018501AC01BD0182E0F4
S11315600E94E4031F910F91EF90DF90CF90BF9002
S1131570AF900895AF92BF92CF92DF92EF920F9304
S11315801F938091AF02282F33272150304081E0F0
S113159090E0A0E0B0E004C0880F991FAA1FBB1F11
S11315A02A95D2F78093AB029093AC02A093AD023C
S11315B0B093AE020E945203DC01CB019C0144278C
S11315C055278091AB029091AC02A091AD02B091ED
S11315D0AE020197A109B109282339234A235B23C9
S11315E05C016D010894A11CB11CC11CD11CA20E8C
S11315F0B31EC41ED51EA092AB02B092AC02C09220
S1131600AD02D092AE028091B0028E7F8093B00280
S113161080917D018D7F80937D010E947609DC019C
S1131620CB01F1E0EF2E96018501AC01BD0183E011
S11316300E94E4031F910F91EF90DF90CF90BF9031
S1131640AF9008958091AF02893029F089E08093AA
S1131650AF020E94BA0A0895AF92BF92CF92DF926E
S1131660EF920F931F93CF93DF93AA24BB246501BA
S113167010E00E947609FC01EB0180917E019091BB
S11316807F01A0918001B0918101C81BD90BEA0BA5
S1131690FB0B2091B2013091B3014091B401509100
S11316A0B5012115310541055105E1F08FB7F894D5
S11316B0082F1127A09194048A2F9927BC016170E7
S11316C0707080FF02C061E070E0672B39F4AE7F78
S11316D0A09394042C1B3D0B4E0B5F0B0FBF5901C1
S11316E06A0111E0112371F00E947609DC01CB013B
S11316F0C1E0EC2E96018501AC01BD0184E00E949D
S1131700E40305C0809186018D7F80938601DF917B
S1131710CF911F910F91EF90DF90CF90BF90AF903A
S113172008951F93CF93DF93182F482F55278BE0ED
S113173090E0489FE001499FD00D589FD00D11249F
S1131740C055DE4F61E070E0688379831A868A8130
S11317509B81AC81BD810097A105B10521F18FB7B3
S1131760F894282F3327FA0183E0F695E7958A95B4
S1131770E1F7EC56FB4F4770507002C0660F771FBD
S11317804A95E2F78081862B80832FBF1A821B82C1
S11317901C821D821E821F8218861986812F0E9438
S11317A07F070E942C0BDF91CF911F9108958050E9
S11317B09E4D19F480E00E94910B0895AF92BF9260
S11317C0CF92DF92EF92FF920F931F93CF93DF9309
S11317D00E949806FC01EB018091B1029091B20243
S11317E0A091B302B091B402A0907C04B0907D04A7
S11317F0C0907E04D0907F049C01AD012A0D3B1D56
S11318004C1D5D1D79018A01EC1AFD0A0E0B1F0B9C
S1131810C817D907EA07FB0730F0281739074A0722
S11318205B0770F005C0281739074A075B0728F4DF
S1131830C217D307E407F50718F0EE24FF24870145
S113184021E0E21620E8F20620E0020720E0120779
S113185030F1C050D048EF4FFF4FC093B102D09346
S1131860B202E093B302F093B402C050D048E04017
S1131870F04080E090E8AFEFBFEFE80EF91E0A1FDA
S11318801B1FE0927C04F0927D0400937E0410936D
S11318907F04E12C90E8F92E012D112D14C08A0D3E
S11318A09B1DAC1DBD1D8093B1029093B202A09309
S11318B0B302B093B40210927C0410927D0410928F
S11318C07E0410927F04B7012CB53DB5C9018C1B71
S11318D09D0B03968E159F0520F0B9016D5F7F4F18
S11318E002C06C0F7D1F6115710511F461E070E099
S11318F0615070407BBD6ABD80E186BF87B780615F
S113190087BFDF91CF911F910F91FF90EF90DF90F0
S1131910CF90BF90AF9008950F931F93DC01CB013C
S11319206FB7F894062F11278093B1029093B202F7
S1131930A093B302B093B40220937C0430937D044B
S113194040937E0450937F040E94DE0B0FBF1F91CF
S11319500F910895CF92DF92EF92FF920F931F930E
S11319608FB7F894C82EDD240E945203DC01CB010A
S113197066E470E00E94B83C0B969093D602809384
S1131980D5027C01002711270E949806DC01CB01B7
S1131990A8019701BC01CD010E948C0CCFBE1F9100
S11319A00F91FF90EF90DF90CF90089561E0862F24
S11319B00E94BE01882309F58FB7F894282F332796
S11319C080914E0190914F01892B11F02FBF24C0BB
S11319D081E090E090934F0180934E012FBFDD9AF8
S11319E00E949806DC01CB0124E130E040E050E0A5
S11319F0BC01CD010E948C0C0FC062E081E00E940A
S1131A00A601882319F089E090E0089561E0862F0B
S1131A100E94A601882319F080E090E0089585E0F3
S1131A2090E008950E94D60C99270895CF92DF92F2
S1131A30EF92FF920F931F939091E502923040F53D
S1131A401092D8028EE0989F8001112408511D4FF6
S1131A50892F9927009719F0019761F01EC03EE085
S1131A60C32ED12CE12CF12C20E030E040E050E0FA
S1131A7060E00AC02EE0C22ED12CE12CF12C20E033
S1131A8030E040E050E061E084E00E94B10205C033
S1131A900E94D60C83E08093D8021F910F91FF908F
S1131AA0EF90DF90CF900895CF92DF92EF92FF9264
S1131AB00F931F93E82F8091D802992782309105C4
S1131AC081F0039709F06DC08E2F9927009719F0C4
S1131AD0019719F066C080E001C081E00E94E2062F
S1131AE060C080919604909197040091E502E816F5
S1131AF0F906C9F011270115110521F0013011056E
S1131B0041F04FC0CC24DD247601A701960160E0AA
S1131B1008C0CC24DD24760100E010E0A701960182
S1131B2061E082E036C0209160042F5F209360045E
S1131B30A02FBB278EE090E0A89FF001A99FF00D95
S1131B40B89FF00D1124E851FD4F8781281720F527
S1131B5061E06093D802822F9927880F991F4096DD
S1131B609C0144275527109719F0119751F019C07B
S1131B70E2E0CE2ED12CE12CF12C06E914E060E059
S1131B8007C072E0C72ED12CE12CF12C06E914E039
S1131B9084E00E94B10205C00F5F0093E5020E9439
S1131BA0160D1F910F91FF90EF90DF90CF90089545
S1131BB097B79F7D97BF90E296BF882319F08EB5A3
S1131BC0806402C08EB58F7B8EBD87B7806287BF6D
S1131BD080E090E0089581E00E94D80D992708954F
S1131BE01F93182F81E00E9458081FB9779BFECFDE
S1131BF08FB199271F9108950E94F00D9927089598
S1131C001F93CF93DF93182F8FB7F894C82FDD2736
S1131C1060E0862F0E94A601882321F0CFBF80E0D8
S1131C2090E005C0CFBF812F0E94F00D9927DF916E
S1131C30CF911F91089589E00E94000E992708957D
S1131C400F931F93CF93DF9301E08FB7F894C82FBE
S1131C50DD271C2F8091490190914A010897D1F406
S1131C6089E00E94000E83E00E94CC08C09A81E0C3
S1131C7090E090934A01809349018FB7F894282FFC
S1131C80332783E0809350012FBF84E00E94EB014F
S1131C90CFBF33C0C0988091C702882311F085E07C
S1131CA001C084E00E94000E83FD05C080E00E9414
S1131CB0000E83FD03C083E090E003C000E085E0F4
S1131CC090E090934A0180934901C09A1FBF00237A
S1131CD041F010920B0383E00E94CC080E94AA0CEE
S1131CE00CC00E949806DC01CB0120E431E040E006
S1131CF050E0BC01CD010E948C0CDF91CF911F916B
S1131D000F91089583E00E94000E99270895FF9291
S1131D100F931F93CF93DF93F82E8B018FB7F89413
S1131D20C82FDD2760E0862F0E94A601882321F0BA
S1131D30CFBF80E090E00CC0CFBF8F2D0E94F00D8C
S1131D40812F99270E94F00D802F0E94F00D992772
S1131D50DF91CF911F910F91FF900895BC018DE108
S1131D600E94870E992708958FB7F8949927209198
S1131D707B048FBF85E0289FC0011124825D9E4FA4
S1131D809064BC0188E10E94870E0895CF938FB7B9
S1131D90F894C82F80916F02682F7727762F6627D3
S1131DA0770F770F770F20E030E08091AA02882325
S1131DB031F08091BB02882311F021E030E0A4E0EF
S1131DC0220F331FAA95E1F7622B732B626E7262A6
S1131DD081E10E94870ECFBFCF910895CF92DF9209
S1131DE0FF920F931F93CF93DF93CDB7DEB7249762
S1131DF00FB6F894DEBF0FBECDBF8FB7F894282F6F
S1131E003327FE0131968091E6029091E70289839F
S1131E10892F9927818380919804909199048B83C9
S1131E20892F99278C832FBF6F0194E0F92E8FB7E8
S1131E30F894082F112760E0862F0E94A6019927A5
S1131E40882311F00FBF16C00FBF082F11270859A0
S1131E501E4F802F80680E94F00D16950795802FE5
S1131E60807C0E94F00DF60181916F010E94F00DBB
S1131E70FA94C9F724960FB6F894DEBF0FBECDBF0F
S1131E80DF91CF911F910F91FF90DF90CF90089534
S1131E90882311F06F9A08956F9808951F9310E0A6
S1131EA0812F0E945808BA9ABB98B99AB89A6C9A2A
S1131EB0C098812F0E94480F709A6B986A9868980E
S1131EC081E00E9458081F910895EF92FF920F93AA
S1131ED01F93CF93DF93F82E8FB7F894082F112711
S1131EE0E02E61E080E00E94BE01C82FDD27CC23F4
S1131EF021F00FBF85E090E02EC08C2F0E94D60108
S1131F00882321F0F09225012C2F22C090914B01BF
S1131F10992341F482E080934B019093220180E065
S1131F2090E002C081E090E09927C82F882311F443
S1131F300E944E0F8C2F9927282F882319F4F09292
S1131F40250106C08FB7F89499271092C3028FBF5A
S1131F50EFBE822F9927DF91CF911F910F91FF90B0
S1131F60EF9008950F931F93CF93DF93C82F8FB7EC
S1131F70F894082F11E0612F80E00E94BE01992798
S1131F80882391F5C09325010E94D601C82FDD272F
S1131F90CC2311F088E00FC00E941002882311F4B2
S1131FA00E944E0F80914B01882341F410934B0102
S1131FB0809358038AE00E94EB0122C08091C104FF
S1131FC08F3FF1F4E0912301EE23D1F080912401BD
S1131FD08F3F19F41092240104C0FF27EF53FB4FE5
S1131FE0C083109223010CC081E090E002C0880FEE
S1131FF0991FCA95E2F720914C01282B20934C019C
S11320000FBF80E090E0DF91CF911F910F91089571
S1132010CF9383E00E94650F9927C82F882319F076
S113202083E00E94B20F8C2F9927CF910895CF930C
S11320308FB7F894282F3327C22F80916702882303
S113204021F02FBF81E090E013C021E020936702CC
S113205080914E0190914F01049721F4822F0E94A8
S1132060B20F03C086E00E94EB01CFBF80E090E096
S1132070CF9108958F929F92AF92BF92CF92DF92A9
S1132080EF92FF920F931F93CF93DF938FB7F89440
S1132090C090CA02D090CB028090AE019090AF0164
S11320A0C0916502D0916602AE01465F5F4F2091F8
S11320B0C2033091C3032417350708F09A018FBF78
S11320C059010894A108B108CA15DB05E8F47E019A
S11320D0E80CF91C8E010C0D1D1DC114D10419F05E
S11320E0F801808101C080E00E94F00D8114910408
S11320F011F0F701808321960F5F1F4F0894E11CB4
S1132100F11CCA15DB0548F381E00E94480F8FB724
S1132110F894982FC114D10431F0CC0EDD1EF601D1
S113212080818FB901C01FB8D0936602C093650245
S11321309FBF80E090E0DF91CF911F910F91FF90BE
S1132140EF90DF90CF90BF90AF909F908F900895C5
S1132150CF93DF939C01EA018FB7F89499273093CA
S1132160CB022093CA027093AF016093AE015093E7
S1132170C3034093C20310926602109265028FBF9C
S1132180452B31F08FB10E943A10482F552704C0D7
S113219089E00E94EB01AE01CA01DF91CF9108955D
S11321A0DF92EF92FF920F931F93CF93DF93182F39
S11321B07B01D42E00E08FB7F894C82FDD27602F61
S11321C0802F0E94A601882321F0CFBF80E090E0F9
S11321D017C0CFBF1064812F992790930D0380936C
S11321E00C0380910C030E94F00D082F8D2D99276C
S11321F0AC01B70180E090E00E94A810802F9927DD
S1132200DF91CF911F910F91FF90EF90DF90089590
S1132210C098809156019091570141E0BC018FE331
S11322200E94D010089582E090E090937102809310
S1132230700221E02093620290E0809125018430B5
S113224009F4922F992329F484E00E94650F8823CE
S113225019F40E940811089584E00E94B20F0895B1
S11322601F93CF93DF938FB7F894C82FDD271C2FCC
S11322708091700290917102892B29F484E00E946C
S1132280CC08CFBF2BC0109262022091BE0422233F
S113229041F080E090E0B79B02C081E090E0892BA0
S11322A049F481B1992756E0969587955A95E1F7B7
S11322B080FD08C0222319F021502093BE040E94FF
S11322C013110BC081E090E090937102809370022F
S11322D01092BE0484E00E94CC081FBFDF91CF910E
S11322E01F9108950E944B09C09AC09888E00E94EB
S11322F0000E88E00E94000EC09A84E00E94CC0880
S11323000E9430110895EF92FF920F931F93CF9381
S1132310DF938B0180910C0390910D0320910C03AA
S113232086FF2CC12F7B822F99278E33910509F4C8
S113233079C1CF9709F076C1C0915601D091570168
S1132340588150939601809170029091710283306C
S1132350910509F451C08430910518F4029729F0CD
S113236006C1049709F494C002C183E090E09093FD
S1132370710280937002852F992701964091ED0197
S1132380242F332728173907A4F180E090E0B79B66
S113239002C081E090E0892B69F481B19927F6E0CD
S11323A096958795FA95E1F780FD04C0451B415049
S11323B04093ED01209196012932D8F4222391F023
S11323C0BE016F5F7F4F283018F047E050E05BC0DC
S11323D084E090E09093710280937002822F992799
S11323E0AC0151C020936202C09A84E00E94CC08E0
S11323F0BBC00E94721116C184E090E090937102F8
S1132400809370028091AA028823B1F18091BB026B
S1132410882391F58A819927582F44278981992700
S1132420482B592B45FF28C08F819927382F222705
S11324308E819927282B392B8091980490919904A7
S11324402817390719F02F5F3F4FB1F447705070C8
S11324504130510589F4C09AC0988AE00E94000E68
S1132460C09AC0982896809196018750482FBE0143
S11324708FE30E94D010D6C0289680919601875091
S11324809927AC01BE0180E090E00E94A810CAC068
S1132490C09A8091BE04882319F484E00E94CC0879
S11324A080912603882319F1809196018B3028F1BD
S11324B080910A03E82FFF27EE0FFF1FEE53FB4F17
S11324C0808191818DA7892F99278CA780910A03F8
S11324D0992701969C01287F3170821B930B80936E
S11324E00A038091260381508093260306C08FEF50
S11324F09FEF8DA78FEF90E08CA780919601FE014E
S1132500E80FF11D808187FF2FC0012B69F16981DC
S11325106770E0915601F0915701623009F5A0917E
S1132520B902B091BA028091490190914A0107978A
S1132530D9F4ED019B8183818917B1F487B78F7E2C
S113254087BF908181E08BA7E90FF11D82913196BD
S113255088A780818F7789A780E00E942A0904C018
S1132560613011F48BE02BC00E9430115BC01092DB
S11325706202C09A84E00E94CC0854C02E3309F051
S113258051C0C09A8091490190914A010897D1F4B1
S1132590C09889E00E94000EC09A83E00E94CC0893
S11325A081E090E090934A01809349018FB7F894B9
S11325B0282F332783E0809350012FBF84E00E94AB
S11325C0EB0130C08091C702882349F484E090E095
S11325D090934A01809349010E94200E23C083E016
S11325E00E94CC0883E090E090934A0180934901D3
S11325F00E945203DC01CB0166E371E00E94B83C07
S11326000B969093B6028093B5027C0100271127A4
S11326100E949806DC01CB01A8019701BC01CD0101
S11326200E948C0CDF91CF911F910F91FF90EF903E
S11326300895FF920F931F93CF93DF930091B902F4
S11326401091BA02F80187A19927C82F882309F4A9
S1132650CFE1C098809185048C1741F08C2F992785
S1132660806E9068BC0185E10E94870EC09385044A
S1132670F801F080FA948FB7F894C82FDD2760E052
S1132680862F0E94A601882311F0CFBF13C0CFBFAD
S11326908EE390E090930D0380930C0380910C03E0
S11326A00E94F00D8F2D9927AC0160E070E0C80105
S11326B00E94A810DF91CF911F910F91FF90089570
S11326C0CF92DF92EF92FF920F931F93CF93DF93FA
S11326D0EA01D22E8A876E83872F99278F838FB73B
S11326E0F894282F33278091E6029091E7022FBFB8
S11326F08C83892F99272496898324978CE0D80E7C
S113270031E0C32E6C2D82E00E94BE01082F1127F8
S1132710002309F07BC080915901982F8C0D809380
S113272059019B838FB7F894E82EFF2462E08C2D27
S11327300E94A601882321F4EFBE81E090E05DC0F1
S11327408FB7F894282F332784E08093C4022FBFD7
S1132750D093B904C093B804EFBEFE01D19289812D
S11327609927807290708983892F9927818399276B
S1132770982F882729813327822B932B816498688B
S11327808983892F992781830E949C018887892FB7
S113279099272896898328970BA708A709A71DA618
S11327A00CA7C09284044091B8045091B9048FB727
S11327B0F894282F33278091490190914A01883059
S11327C0910511F0019711F02FBF15C082E090E040
S11327D090934A0180934901C092C7025093BA0270
S11327E04093B90200930B032FBF0E940810882363
S11327F011F40E94191380E090E09927C82F8823D0
S113280011F00E94E4018C2F992702C085E090E02A
S11328109927DF91CF911F910F91FF90EF90DF9057
S1132820CF9008959F92AF92BF92CF92DF92EF9292
S1132830FF920F93CF93DF93982E7B01042F85E0B3
S1132840891518F481E090E035C0C92DDD27CC0F3F
S1132850DD1FC156DE4FC880D980C114D10419F0E0
S113286085E090E027C068837983045FFB010083DF
S11328700C50809126018630E0F0CB010E948E013D
S1132880A82EBB24C7010E94920190922601202FFA
S1132890A701BC018A2D0E9460139927282F882341
S11328A029F086E080932601C882D982822F992755
S11328B001C0C601DF91CF910F91FF90EF90DF909F
S11328C0CF90BF90AF909F90089580913001843055
S11328D0F1F580912E01882309F085C081E0809371
S11328E02E0185E00E94F4148091BF049091C004ED
S11328F08093FF01892F99278093FE0180912701FE
S11329009091280180930102892F992780930002D6
S1132910209108013091090140910A0150910B0165
S113292020930502BB27A52F942F832F80930402A5
S1132930CA01AA27BB2780930302852F9927AA27B8
S1132940BB27809302028091070180930602809145
S11329503001853009F047C080915E04882331F04E
S113296080E00E94770A10925E0408958091BB046F
S1132970882321F481E00E94F414089520E030E0DB
S113298040E050E0F901E250FE4FD901A454BD4F9C
S11329908C9181872F5F3F4F4F4F5F4F263031051A
S11329A04105510578F38091FE019927982F8827D6
S11329B02091FF013327822B932B8093F901892FD8
S11329C099278093FA0162EA83EF91E00E948B01D8
S11329D04FE063EF71E082E00E941214882319F043
S11329E080E00E94770A0895CF93C82F8230A0F424
S11329F080913001833011F0853071F410922E01F2
S1132A0099278230910519F0049721F005C00E949E
S1132A10B91502C00E946514C0933001CF91089586
S1132A2080917D018D7F80937D01809174018D7FE4
S1132A308093740180E00E94F4148FEF90E0A0E092
S1132A40B0E08093080190930901A0930A01B09328
S1132A500B018FEF8093070180E090E0A0E0B0E0ED
S1132A60FC01E454FD4F10820196A11DB11D863076
S1132A709105A105B105A0F380E090E0A0E0B0E0ED
S1132A80FC01E25EFC4F10820196A11DB11D86304F
S1132A909105A105B105A0F385E0809311012FEF05
S1132AA030E040E050E02093CF0280E090E0A0E0EE
S1132AB0B0E08093CE028093CD028093CC02209329
S1132AC0D0022093D3028093AF0280E090E0089577
S1132AD08F929F92AF92BF92CF92DF92EF92FF922A
S1132AE00F931F936B017C0149015A010E94101539
S1132AF0C092EE01D092EF01E092F001F092F10168
S1132B008092610490926204A0926304B09264047F
S1132B100093AB0111270115110521F001301105B6
S1132B2041F013C0CC24DD247601A701960160E0B6
S1132B3008C0CC24DD24760100E010E0A701960152
S1132B4061E082E00E94B10201C081E0282F3327B6
S1132B50822F222311F42093110199271F910F91A1
S1132B60FF90EF90DF90CF90BF90AF909F908F90A9
S1132B700895AF92BF92CF92DF92EF92FF920F939C
S1132B801F93CF93DF93CDB7DEB722970FB6F89498
S1132B90DEBF0FBECDBF6CE183EF91E00E94570909
S1132BA06C0160913001862F8250823008F0C9C0D8
S1132BB0E0900D01F0900E0100910F0110911001B1
S1132BC08091CC029927AA27BB27B82FAA27992737
S1132BD088272091CD02332744275527A90133277D
S1132BE02227822B932BA42BB52B2091CE023327A3
S1132BF044275527542F432F322F2227822B932BE0
S1132C00A42BB52B2091CF02332744275527822BA1
S1132C10932BA42BB52BE816F9060A071B0729F4F6
S1132C208091B00281608093B002623039F51091D6
S1132C302E01112309F085C081E080932E0183E0E9
S1132C400E94F41420910D0130910E0140910F0166
S1132C5050911001F6012383BB27A52F942F832FB6
S1132C608283CA01AA27BB278183852F9927AA2794
S1132C70BB27808380910C0184831583F6018581B1
S1132C8099272FE230E04EE153E0BC01CE010196DA
S1132C900E942002A82EBB24AA2021F081E00E94D9
S1132CA0F4144FC08981F601858320912F0180910E
S1132CB00C019981482F552766277727AAE0440FEE
S1132CC0551F661F771FAA95D1F786E1989FC0010B
S1132CD01124AA27BB27480F591F6A1F7B1F86018F
S1132CE00A5F1F4F33272115310521F021303105AB
S1132CF051F015C0F6E1CF2ED12CE12CF12C9A0124
S1132D00AB016A2D08C0E6E1CE2ED12CE12CF12CCA
S1132D109A01AB0161E084E00E94B10201C081E04C
S1132D20882379F00E947609DC01CB0131E0E32E9F
S1132D3000E110E020E030E0AC01BD0182E00E943F
S1132D40E40322960FB6F894DEBF0FBECDBFDF9129
S1132D50CF911F910F91FF90EF90DF90CF90BF9094
S1132D60AF900895CF93DF93FC01EB019091300174
S1132D70892F8250823050F580910D0190910E017F
S1132D80A0910F01B0911001C817D907EA07FB07FA
S1132D904CF0C817D907EA07FB07A1F580910C018D
S1132DA0481780F581E00E94F41480E090E0A0E0F0
S1132DB0B0E0FC01E25EFC4F10820196A11DB11D42
S1132DC086309105A105B105A0F31CC09450923042
S1132DD0C8F48091080190910901A0910A01B09171
S1132DE00B01C817D907EA07FB074CF0C817D90726
S1132DF0EA07FB0739F480910701841718F081E092
S1132E0080935E04DF91CF910895EF92FF920F9328
S1132E101F93CF937B018C01C42F809130018823B1
S1132E2019F481E00E94F414E0920801F09209017F
S1132E3000930A0110930B01C093070180E090E016
S1132E40A0E0B0E02FEFFC01E454FD4F2083019695
S1132E50A11DB11D86309105A105B105A0F380E047
S1132E6090E0CF911F910F91FF90EF9008958F9272
S1132E709F92AF92BF92CF92DF92EF92FF920F9305
S1132E801F936B017C0149015A010E94101582E0D5
S1132E9080931101C092CF02BB27AF2D9E2D8D2DA3
S1132EA08093CE02C701AA27BB278093CD028F2D22
S1132EB09927AA27BB278093CC02089481089108FC
S1132EC0A108B108EAE0B694A79497948794EA9588
S1132ED0D1F7882D8F5F8093D0028093D30265E071
S1132EE08CEC92E00E9457078093D202892F992795
S1132EF08093D10280911101823011F40E94220B3F
S1132F0084E08093110100932F018091CC029927D2
S1132F10AA27BB27382F2227112700278091CD020B
S1132F209927AA27BB27DC0199278827082B192B67
S1132F302A2B3B2B8091CE029927AA27BB27BA2F95
S1132F40A92F982F8827082B192B2A2B3B2B8091EC
S1132F50CF029927AA27BB27082B192B2A2B3B2BF7
S1132F608091D0029927482FC901B8010E94051702
S1132F7080E090E01F910F91FF90EF90DF90CF9051
S1132F80BF90AF909F908F900895CF93BC01C0E005
S1132F9081E08093D4046093ED03872F9927809375
S1132FA0EC03EEEEF3E08EED6030780749F4209107
S1132FB02A0130912B0140912C0150912D0104C024
S1132FC020E030E040E050E02383BB27A52F942F7E
S1132FD0832F8283CA01AA27BB278183852F992740
S1132FE0AA27BB278093EE039927AA27BB27B82FCC
S1132FF0AA27992788272091EF03332744275527A9
S1133000A90133272227822B932BA42BB52B2091A4
S1133010F003332744275527542F432F322F2227D9
S1133020822B932BA42BB52B2091F1033327442718
S11330305527822B932BA42BB52B0097A105B10503
S1133040B1F060507E4D21F4CAE069ED72E002C037
S113305060E070E08C2F992706964D9708F0C6E142
S11330608C2F9927AC0182EF93E00E947D3CCA5FCC
S11330708FEF9FEF8093E7038FEF90E08093E80357
S11330806DE081EE93E00E948B014C2F61EE73E0C2
S113309084E00E941214CF910895CF93DC018091B3
S11330A0B704882309F458C08AE0E9EDF2E00D90F2
S11330B001928A95E1F780912A0190912B01A091C8
S11330C02C01B0912D01CD01AA27BB270196A11D8A
S11330D0B11D80932A0190932B01A0932C01B093EE
S11330E02D010097A105B10559F40196A11DB11D4B
S11330F080932A0190932B01A0932C01B0932D016E
S113310080912A0190912B01A0912C01B0912D0165
S1133110DC01992788272091270130912801442731
S11331205527820F931FA41FB51F80932A019093E4
S11331302B01A0932C01B0932D018091E3028823ED
S113314059F0C091D404CC2339F480E09EED0E9460
S1133150C5178C2F0E94910BCF9108950E944D1892
S1133160089550E08FB7F894682F7727409158015D
S1133170842F99279C012170307080FF02C021E0C8
S113318030E0232B21F04E7F4093580151E06FBF74
S1133190552379F08091E302882341F08091D4048F
S11331A0882321F480E09EED0E94C5178CE10E94E3
S11331B0EB010895CF92EF920F931F93CF93DF9378
S11331C08901C3EFD1E06CE1E62E6E2DCE010E94A1
S11331D0570906960817190771F510913001133035
S11331E051F5CC2021F081E00E94F41424C0809198
S11331F0BF049091C0048093F901892F992780938B
S1133200FA0163EACE010E948B014E2DBE01812F8B
S11332100E941214882379F00E947609DC01CB0104
S113322041E0E42E00E110E020E030E0AC01BD011B
S113323082E00E94E403DF91CF911F910F91EF9000
S1133240CF9008953F924F925F926F927F928F92A8
S11332509F92AF92BF92CF92DF92EF92FF920F9321
S11332601F93CF93DF93E82F2A013B01E9013C2C04
S11332708091D80299278130910509F469C0823080
S113328091051CF4892BE9F0BAC0039709F0B7C083
S11332908E2F9927009719F0019749F0B0C080E06C
S11332A00E947A069E01B301A20180E007C081E07A
S11332B00E947A069E01B301A20181E00E94DA18FD
S11332C09EC0CC2009F09BC04091E502242F3327F7
S11332D08EE090E0289FF001299FF00D389FF00DBB
S11332E01124E851FD4F80819181A281B3818F5FC8
S11332F09F4FAF4FBF4F31F1C092600461E06093C4
S1133300D8022115310521F02130310571F077C043
S1133310C2E0CC2ED12CE12CF12C06E914E020E102
S113332030E040E050E0632D0BC0B2E0CB2ED12C56
S1133330E12CF12C06E914E020E130E040E050E01B
S113334084E05BC04F5F4093E5020E94160D57C0B6
S113335082E08093D802609160040091E5026623C4
S113336001F511270115110521F00130110561F056
S113337046C0A0E5CA2EA3E0DA2EE12CF12C20E110
S113338031E040E050E038C0F0E5CF2EF3E0DF2E2E
S1133390E12CF12C00E010E020E131E040E050E0CD
S11333A02AC0862F9927AA27BB27BC01CD0120E577
S11333B034E040E050E00E948D3C9B01AC01205F72
S11333C03F4F4F4F5F4F11270115110521F0013079
S11333D0110549F014C0E0E5CE2EE4E0DE2EE12C28
S11333E0F12C60E009C070E5C72E74E0D72EE12C03
S11333F0F12C00E010E061E085E00E94B102DF9171
S1133400CF911F910F91FF90EF90DF90CF90BF90DD
S1133410AF909F908F907F906F905F904F903F9070
S11334200895982F80913801882399F5992389F577
S113343031E03093380180911A0180933701209153
S11334404301822F832380936E0280911401909113
S11334501501909336018093350180914201809348
S11334603401322731702E7F232B822F8170E82F75
S1133470FF27EE0FFF1FEA5EFE4F8081918190933C
S1133480150180931401277E2093430188E10E9453
S1133490EB0108951F93CF93182FC62F80911C031F
S11334A099278130910509F1823091051CF4009728
S11334B049F025C18230910509F454C0039709F4F9
S11334C064C01DC1112309F441C110929B011092E3
S11334D09A01109247041092680410920903909381
S11334E095018093940181E04DC0112309F02EC110
S11334F080919401909195010E94480790939501C1
S11335008093940182E080931C03C0936804C434C4
S113351009F0F5C0C43409F0F2C0212F80914301B1
S113352080FF03C0982F969503C0982F9695969583
S1133530917099F480FF02C0846001C0826080931E
S1133540430180914301877E8860809343011092F8
S113355042018FEF80931A0101C025E0222309F470
S1133560F5C0CDC0112309F0CAC06093090380914E
S11335709401909195010E9448079093950180933E
S1133580940183E080931C03E1C0809147048F3F42
S113359009F4B5C0112309F449C0823008F4AFC05E
S11335A090919A01992319F0E92FE15001C0E2E0CA
S11335B09E2FFF27E656FE4F8281282F3327322F76
S11335C02227992319F0E92FE15001C0E2E0FF27F7
S11335D0E656FE4F82819927282B392B809194013E
S11335E0909195012817390709F089C080E00E945D
S11335F0111A3091090380918C0420918D04982F25
S11336009F5F963008F090E0921709F478C0E82F95
S1133610FF27E457FB4F32838F5F80938C048630FF
S113362010F010928C040E94030469C0823008F4E4
S113363052C080919B01E82FFF27E656FE4F8281FE
S1133640482F5527342F20914301822F8695869544
S11336508695837099278130910519F0029781F03E
S11336601FC0822F877E806180934301442311F41D
S113367084E001C080E08093420130931A0110C0BD
S113368080914201803360F4E0911401F0911501BE
S1133690E80FF11D4083809142018F5F80934201C6
S11336A080919B01E82FFF27E656FE4F92818F5FA2
S11336B080939B01833010F010929B01892F9927EE
S11336C0682F80919401909195010E9448079093EE
S11336D095018093940180919A01E82FFF27E65683
S11336E0FE4FC2838F5F80939A01833010F0109253
S11336F09A01809147048F5F8093470427C01092FA
S11337009B0110929A0110921C031092470410928C
S1133710680410920903109295011092940180910B
S113372033018D7F80933301C1E08C2F0E94111AE5
S113373080914401882331F084E080931C030E942B
S1133740E30504C0112311F0C0931C03CF911F9112
S11337500895282F8FB7F89499272CB95E9A8FBFB4
S11337600895CF93DF93FC016115710519F481E08D
S113377090E020C0C091D504D091D604209719F0D0
S113378085E090E017C09093D6048093D50470939D
S113379083046093820481E08093A9025E9A569A1E
S11337A02196D0939801C0939701219780810E941C
S11337B0A91BCE01DF91CF910895982F8D578230A8
S11337C068F48091330181608093330180E289271A
S11337D08093C9028DE78093670402C090936704C5
S11337E061E070E087E694E00E94B11B9927089598
S11337F0809133018E7F809333018EE78093670439
S113380061E070E087E694E00E94B11B9927089577
S1133810CF92DF92EF92FF920F931F938091E00378
S1133820882339F085E08093460181E10E94EB0111
S11338302FC020914204822F9927FC01EE0FFF1F15
S1133840E80FF91FE659FD4F808182FF06C022234D
S113385011F068E807C069E805C0222311F063E8A5
S113386001C066E8822F9927FC01EE0FFF1FE80FC5
S1133870F91FE859FD4F8081918121E0C22ED12C9E
S1133880EE24FF2487019C0140E089E00E940C069D
S11338901F910F91FF90EF90DF90CF900895CF92FA
S11338A0DF92EF92FF920F931F93CF93C82F8091D3
S11338B0E003882339F085E08093460181E10E948A
S11338C0EB011DC0CC2311F060E601C061E68C2F32
S11338D09927FC01EE0FFF1FE80FF91FE859FD4F70
S11338E08081918151E0C52ED12CEE24FF248701E3
S11338F09C0140E08AE00E940C06C0932703CF910C
S11339001F910F91FF90EF90DF90CF900895CF9289
S1133910DF92EF92FF920F931F93082F1127011547
S1133920110521F00130110541F013C0CC24DD2430
S11339307601A701960160E008C0CC24DD2476015D
S113394000E010E0A701960161E083E00E94B1026B
S113395001C081E099271F910F91FF90EF90DF90B4
S1133960CF9008950F931F938091D302482F55272A
S11339708091D0024817A8F58091CC029927AA27F4
S1133980BB27382F2227112700278091CD029927A2
S1133990AA27BB27DC0199278827082B192B2A2B58
S11339A03B2B8091CE029927AA27BB27BA2FA92F98
S11339B0982F8827082B192B2A2B3B2B8091CF0279
S11339C09927AA27BB27082B192B2A2B3B2BC90184
S11339D0B8010E94051784E08093B0020E94220B74
S11339E010C04FEF6FEF70E080E090E00E94051789
S11339F00E94101581E0809311018091AB010E9417
S1133A00871C1F910F910895CF92EF92FF920F930D
S1133A101F93CF93DF93CDB7DEB722970FB6F894F9
S1133A20DEBF0FBECDBF409190018CE1489FF001F5
S1133A301124CF01815D9D4F2817390709F0E9C092
S1133A40CC2091F080E090E0A0E0B0E02FEFFC010A
S1133A50E454FD4F20830196A11DB11D86309105CC
S1133A60A105B105A0F3CCC0E25DFD4F2081822FFA
S1133A70869586958695E82FFF27E454FD4F277099
S1133A8081E090E002C0880F991F2A95E2F7982FF1
S1133A909095808189238083842F992701969C01A6
S1133AA02E7F3370821B930B8093900180910F03C0
S1133AB0815080930F032FE230E04CEB52E060E042
S1133AC070E0CE0101960E942002882309F49BC075
S1133AD0E0900801F090090100910A0110910B0196
S1133AE0609107018091CC029927AA27BB27B82FA0
S1133AF0AA27992788272091CD02332744275527C1
S1133B00A90133272227822B932BA42BB52B209199
S1133B10CE02332744275527542F432F322F2227F1
S1133B20822B932BA42BB52B2091CF023327442730
S1133B305527822B932BA42BB52BE816F9060A07DD
S1133B401B0709F05AC08091D3029927681709F01E
S1133B5054C08F5F8093D30265E08CEC92E00E94A6
S1133B6057078093D202892F99278093D10280919D
S1133B70D302482F55278091D002481718F40E9489
S1133B80B21C3BC08091CC029927AA27BB27382FAF
S1133B902227112700278091CD029927AA27BB2726
S1133BA0DC0199278827082B192B2A2B3B2B809182
S1133BB0CE029927AA27BB27BA2FA92F982F882787
S1133BC0082B192B2A2B3B2B8091CF029927AA274C
S1133BD0BB27082B192B2A2B3B2BC901B8010E94A8
S1133BE0051781E0809311018091AB010E94871C2D
S1133BF0882319F08BE10E94EB0181E00E94F41408
S1133C0010920F0306C080910F03882311F00E94C5
S1133C10FC0722960FB6F894DEBF0FBECDBFDF912E
S1133C20CF911F910F91FF90EF90CF9008958F92B5
S1133C309F92AF92BF92CF92DF92EF92FF920F9337
S1133C401F93CF93DF93D82E4A015B01E901CC2067
S1133C50D9F44EE084169104A104B104A8F4992780
S1133C602EE030E0829FA001839F500D929F500D63
S1133C701124CA01880D991D28193909A901BE0109
S1133C8088519D4F0E947D3C8D2D9927009719F0F6
S1133C900197B9F02DC080913201823069F453E06C
S1133CA0C43CD50749F41092320141E050E060E091
S1133CB070E08C2D0E9497059E01B501A40180E05F
S1133CC015C080913201823069F483E0C43CD80786
S1133CD049F41092320141E050E060E070E08C2D34
S1133CE00E9497059E01B501A40181E00E94041D74
S1133CF0DF91CF911F910F91FF90EF90DF90CF90C4
S1133D00BF90AF909F908F90089583E080931101AE
S1133D102091EE013091EF014091F0015091F101B9
S1133D202093CF02BB27A52F942F832F8093CE02FD
S1133D30CA01AA27BB278093CD02852F9927AA27DA
S1133D40BB278093CC028091610490916204A0917E
S1133D506304B09164040197A109B1092AE0B695FE
S1133D60A795979587952A95D1F78F5F8093D00271
S1133D701092D30265E08CEC92E00E945707809386
S1133D80D202892F99278093D10280911101833027
S1133D9011F40E94220B84E0809311018091AB0105
S1133DA080932F010E94B21C0895482F6623F9F4D2
S1133DB0282F33278EE090E0289FF001299FF00DF3
S1133DC0389FF00D1124E851FD4F8FEF9FEFAFEFB7
S1133DD0BFEF80839183A283B383148215826683A9
S1133DE0678310861186628763871486158680919F
S1133DF0D802992782309105B9F00397E1F4242F72
S1133E0033272115310521F02130310519F00895AA
S1133E1080E001C081E00E94B706809111018823EF
S1133E2051F40E94851E08958091E5028F5F80936E
S1133E30E5020E94160D0895862F9091320191306B
S1133E4011F0963041F41092320141E050E060E00C
S1133E5070E00E94970508959927009719F001973B
S1133E6061F0089580E00E941C1F8091110181304F
S1133E7071F48BE10E94EB01089581E00E941C1F04
S1133E8080911101813019F48BE10E94EB010895B6
S1133E904F925F926F927F928F929F92AF92BF9256
S1133EA0CF92DF92EF92FF920F931F93CF93DF9302
S1133EB0C82E7B0180911E01082F11278BE090E012
S1133EC0089FF001099FF00D189FF00D1124E85B85
S1133ED0FB4FD08087809084A184B2848091230298
S1133EE090912402A0912502B0912602881A990A81
S1133EF0AA0ABB0A43805480658076804818590812
S1133F006A087B08C181D281C819D9098FEF8093CF
S1133F101E0110820115110521F00130110519F05F
S1133F2005C0808101C081E00E943C068D2D992747
S1133F308330910509F461C08430910534F48130F3
S1133F40910501F10297A9F166C08430910519F039
S1133F500597F1F160C00115110521F0013011053B
S1133F6041F059C0850174019E01B301A20180E0B2
S1133F7006C0850174019E01B301A20181E00E9483
S1133F80221949C00115110521F00130110541F034
S1133F9042C0850174019E01B301A20180E006C004
S1133FA0850174019E01B301A20181E00E94171EE4
S1133FB032C00115110521F00130110521F02BC08B
S1133FC06C2D80E002C06C2D81E00E94D51E23C0C0
S1133FD00115110521F00130110539F01CC09501BE
S1133FE08401B301A20180E005C095018401B301FD
S1133FF0A20181E00E94540D0EC00115110521F0AB
S11340000130110521F007C06C2D80E002C06C2D39
S113401081E00E942C1FDF91CF911F910F91FF909F
S1134020EF90DF90CF90BF90AF909F908F907F9054
S11340306F905F904F900895282F9091BF03409305
S1134040BF03892F992785309105D9F186309105D1
S11340507CF48230910579F0833091051CF401974A
S1134060A1F008958330910581F0049709F1089532
S11340700897A4F0089580911E018F3F11F1222327
S113408089F4CB010E94E621089580911E018F3F9F
S1134090C1F0222339F480E090E0F4CF80911E0136
S11340A08F3F79F060E070E0822F0E94481F0895EE
S11340B080911E018F3F29F060E070E0822F0E9402
S11340C0481F0895CF92DF92EF92FF920F931F93B0
S11340D040914204842F9927FC01EE0FFF1FE80F43
S11340E0F91FDF01A859BD4F2091B7023091B802E2
S11340F08D919C9111972817390709F0E4C05091CC
S1134100BF03852F99278530910509F450C0863067
S1134110910594F48230910509F499C08330910596
S113412024F4019709F475C000C18330910509F4A2
S1134130ACC0049749F0F9C0883091050CF446C02E
S11341400A970CF0F2C04DC0809153019091540134
S113415081309105C9F08130910518F0029779F00A
S1134160E4C04091E003442309F0C9C011E0C12E2A
S1134170D12CEE24FF24870161E88BE0D4C0E659FA
S1134180FD4F808184608083842F9927FC01EE0F8A
S1134190FF1FE80FF91FE659FD4F8081826080837D
S11341A040E060E070E0842F0E941C20BEC0E6590D
S11341B0FD4F808181FF8CC0809153019091540107
S11341C08D939C9380818D7F80831BC0E659FD4F26
S11341D0808181FF06C0869586958695837009F057
S11341E07FC0842F9927FC01EE0FFF1FE80FF91FF2
S11341F0E659FD4F808181FF6BC0583011F0563075
S113420011F48EE080C01092BF03852F0E949B2280
S11342108CC0E659FD4F808180FD71C0442311F0AC
S113422064ED01C066ED4091530150915401209119
S1134230D2043091D3048091C0039091C1036C01E6
S113424079018A0120E030E042E0842F6CC0E65915
S1134250FD4F808180FD53C0442311F064ED01C003
S113426066ED80915301909154012091C0033091E7
S1134270C1034091D2045091D30469017A018C01A5
S113428020E030E042E083E04EC0E659FD4F8081FB
S113429080FD35C0442311F064E801C067E8409113
S11342A05301509154012091D2043091D304809150
S11342B0C0039091C1036C0179018A0120E030E0D0
S11342C040E084E030C0E659FD4F808181FD03C0A9
S11342D00E94081C2AC0869586958695837021F0D5
S11342E0842F0E944F1C21C08091BF03843019F495
S11342F02D933C93EDCE8091E003882339F085E043
S11343008093460181E10E94EB010FC0442311F028
S113431063E501C065E5F1E0CF2ED12CEE24FF2446
S1134320870140E088E00E940C061F910F91FF90E6
S1134330EF90DF90CF9008950F931F938093BF0366
S11343403093D3042093D2041093C1030093C00389
S11343507093B8026093B702509354014093530191
S113436080916802909169026817790719F4109294
S1134370420413C080916B0290916C026817790714
S113438021F481E08093420408C090E080914204CB
S1134390882309F491E0909342046050784068F4D3
S11343A081E04830580748F481E00930180728F4C0
S11343B0400F511F4950514020F08FE00E94EB0103
S11343C002C00E9462201F910F9108955F926F9224
S11343D07F928F929F92AF92BF92CF92DF92EF9291
S11343E0FF920F931F93CF93DF933C0150901E01D4
S11343F0252D33278BE090E0289FF001299FF00DB5
S1134400389FF00D1124E85BFB4FC181D281A0904D
S11344102302B0902402C0902502D0902602A11459
S1134420B104C104D10429F4B30180E00E94481FFF
S113443072C0E380F48005811681BB27A12F902FE1
S11344408F2DBC01852D0E94FE064C018FEFE822C2
S1134450FF2400E011E00E191F09C801AA27BB2799
S1134460A816B906CA06DB0620F4009123021091AF
S11344702402A80166277727A41AB50AC60AD70A10
S1134480A0922302B0922402C0922502D092260266
S1134490252D33278BE090E0289FF001299FF00D14
S11344A0389FF00D1124E85BFB4F83819481A58133
S11344B0B681840F951FA61FB71F83839483A5839A
S11344C0B683CE01800F911F818392838081282F30
S11344D033272430310581F02530310524F421308F
S11344E0310529F018C02530310559F014C09E015A
S11344F0A701B40183E00DC09E01A701B40181E0CE
S113450008C07092D3046092D2049301A701B4014D
S113451082E00E949C21DF91CF911F910F91FF9027
S1134520EF90DF90CF90BF90AF909F908F907F904F
S11345306F905F9008958093BF0380916A02982FD3
S1134540927081FD03C0909342040CC080916D026F
S113455081FD04C081E08093420404C08EE00E9487
S1134560EB010895809142049927FC01EE0FFF1F8F
S1134570E80FF91FE659FD4F8081877E80830E94F2
S113458062200895EF92FF920F931F93482F809318
S11345901E01282F33278BE090E0289FF001299FEC
S11345A0F00D389FF00D1124E85BFB4F80819927B3
S11345B08230910519F0039779F012C0EE24FF249C
S11345C0B701842F0E94FE0687019701A701BC0151
S11345D084E00E949C2122C087E00E949B221EC08E
S11345E0242F33278BE090E0289FF001299FF00DC2
S11345F0389FF00D1124E85BFB4F87819085A185DE
S1134600B285218132818093230290932402A09366
S11346102502B0932602C9010E94E6211F910F9141
S1134620FF90EF900895EF92FF920F931F93CF9313
S1134630DF93EA018C017B01209751F0C8010F5FE1
S11346401F4F0E946A3CF70181937F012197F4CFA9
S113465080E090E0DF91CF911F910F91FF90EF9058
S11346600895EF92FF920F931F93CF93DF93EA0184
S11346708C017B01209759F0F70121917F01C8013A
S11346800F5F1F4F622F0E94723C2197F3CF8CB3B0
S11346909927969587959C012170307080FDF7CFFE
S11346A0C901DF91CF911F910F91FF90EF90089571
S11346B00F931F93CF93DF93CDB7DEB725970FB634
S11346C0F894DEBF0FBECDBF8E010F5F1F4F45E0D4
S11346D050E0B80180EE9FE00E94132380912701EF
S11346E09091280189839A8382E28B8363E0C801D5
S11346F00E9457079C018C819D818217930749F082
S11347002C833D8345E050E0B80180EE9FE00E9499
S1134710312325960FB6F894DEBF0FBECDBFDF91CF
S1134720CF911F910F9108951F93CF93DF93CDB72E
S1134730DEB760970FB6F894DEBF0FBECDBF182F5B
S11347408FB7F8940E94582340E050E060E070E096
S1134750812F9927009719F0019719F006C080E07E
S113476001C081E00E94710504C06FEF7FEF8FEFFD
S11347709FEF69837A838B839C838FEF8D831E8263
S113478046E050E0BE016F5F7F4F80EF9FE00E94E4
S113479031238EE0189FF0011124E851FD4F8081F0
S11347A09181A281B38189879A87AB87BC871D8752
S11347B0848195818F8398874AE050E0BE01695FC8
S11347C07F4F86EE9FE00E94312388E190E029E04C
S11347D00FB6F894A89581BD0FBE21BDFFCFCF922F
S11347E0DF92EF92FF920F931F93CF93DF93CDB796
S11347F0DEB72A970FB6F894DEBF0FBECDBF79019E
S11348008A016A3018F4462F552702C04AE050E066
S1134810BC0189ED92E00E947D3CE0922A01F09275
S11348202B0100932C0110932D01F091E0026F2FC6
S113483077279EE0699F8001112408511D4F8091C4
S1134840D9029927009721F0019709F4BDC0E8C067
S1134850E091DA028E2F9927AA27BB27582F4427E5
S1134860332722278091DB029927AA27BB27DC0163
S113487099278827282B392B4A2B5B2B8091DC0224
S11348809927AA27BB27BA2FA92F982F8827282B27
S1134890392B4A2B5B2B8091DD029927AA27BB2752
S11348A0282B392B4A2B5B2BD801CD90DD90ED9032
S11348B0FC90C216D306E406F506B9F5BFEFCB1695
S11348C0BFEFDB06BFEFEB06BFEFFB0671F1809194
S11348D0DE029927382F22278091DF029927282B7F
S11348E0392BF801848195818217930708F098C0C9
S11348F0C0920301D0920401E0920501F0920601F6
S11349008091E1029927382F22278091E20299278A
S1134910282B392B3093020120930101609300016D
S1134920C901AA27BB27062F48C08E2F9927AA277B
S1134930BB27F82EEE24DD24CC248091DB029927BA
S1134940AA27BB27DC0199278827C82AD92AEA2A5B
S1134950FB2A8091DC029927AA27BB27BA2FA92F0B
S1134960982F8827C82AD92AEA2AFB2A8091DD02AF
S11349709927AA27BB27C82AD92AEA2AFB2AC09240
S11349800301D0920401E0920501F09206018091A6
S1134990E1029927382F22278091E2029927282BB8
S11349A0392B30930201209301014F2F5527409357
S11349B00001C901AA27BB27042F9C01AD01C7012F
S11349C0B6010E9468152CC0F80180819181A281F2
S11349D0B3818F5F9F4FAF4FBF4F11F14AE050E05B
S11349E0BE016F5F7F4F86EE9FE00E9413232B81F1
S11349F03C814D815E81F80180819181A281B381E6
S1134A00281739074A075B0739F429813A818481D9
S1134A1095812817390721F08091E0020E949423A0
S1134A202A960FB6F894DEBF0FBECDBFDF91CF91AB
S1134A301F910F91FF90EF90DF90CF900895AF9268
S1134A40BF92CF92DF92EF92FF920F931F93CF9377
S1134A50DF935C016B01F42EDC011896ED01898172
S1134A609927582F4427F50180859927482B592BDE
S1134A7083819927C82F782F8FEF8093BC048FB739
S1134A80F894682F20E030E0E9E6F4E08081918139
S1134A908417950729F48281871749F02093BC0471
S1134AA02F5F3F4F33962430310584F302C06FBF2C
S1134AB038C36FBF9091BC0430E08FB7F894282FAF
S1134AC09F3F21F080914701891719F49091470184
S1134AD031E0892F9927FC01EE0FFF1FE80FF91F22
S1134AE0E759FB4F40835183C283332331F08091D4
S1134AF047018F5F8370809347012FBFC5010E94D8
S1134B0092018C010E949C010817190739F0C50114
S1134B100E9492018F5F9F4F09F003C3C5010E9459
S1134B208E016F2D6C5099278E30910509F4CDC0FC
S1134B308F30910534F486309105A1F00D9759F129
S1134B40F0C2823A910509F4ABC1833A91052CF481
S1134B50813A910509F4DDC0E4C2833A910509F470
S1134B6039C2DFC2623009F0DCC2E601898180FF0C
S1134B7002C0DA9801C0DA9AF601818181FF02C08D
S1134B80D99801C0D99AE601898182FF02C0D898D8
S1134B90C8C2D89AC6C2F60180819927182F002767
S1134BA081819927082B192B3296E6018A8199274E
S1134BB0AA27BB27582F44273327222781819927E7
S1134BC0AA27BB27DC0199278827282B392B4A2BB6
S1134BD05B2B82819927AA27BB27BA2FA92F982F4D
S1134BE08827282B392B4A2B5B2B83819927AA27CB
S1134BF0BB27282B392B4A2B5B2BEEED00301E07ED
S1134C0049F4C0912A01D0912B01E0912C01F0913B
S1134C102D0104C0C0E0D0E0E0E0F0E08091E302C8
S1134C20882309F47EC22097E105F10599F4211542
S1134C3031054105510571F0C60106966650FEED39
S1134C4000301F0711F40E94EF2300501E4D09F09D
S1134C5068C226C0211531054105510549F4209744
S1134C60E105F10529F000501E4D09F05AC218C0A3
S1134C70DA01C9018C1B9D0BAE0BBF0B181619066C
S1134C801A061B068CF4C60106966650AEED00307B
S1134C901A0711F40E94EF2300501E4D09F041C27F
S1134CA080E00E94910B3DC22C173D074E075F0721
S1134CB051F400501E4D09F034C28091BA018F5F47
S1134CC08093BA012EC2C80121C08091E3028823D7
S1134CD009F427C2F60180819927382F2227818180
S1134CE09927282B392BFEED20303F0709F019C2F4
S1134CF080912A0190912B01A0912C01B0912D015A
S1134D000097A105B10509F40CC2C9010E94C51799
S1134D1008C2E6012496F60184819927AA27BB27B5
S1134D20182F0027FF24EE2489819927AA27BB275F
S1134D30DC0199278827E82AF92A0A2B1B2B8A8168
S1134D409927AA27BB27BA2FA92F982F8827E82AA3
S1134D50F92A0A2B1B2B8B819927AA27BB27E82A20
S1134D60F92A0A2B1B2B8091CC029927AA27BB274F
S1134D70B82FAA27992788272091CD0233274427C3
S1134D805527A90133272227822B932BA42BB52B3C
S1134D902091CE02332744275527542F432F322FF7
S1134DA02227822B932BA42BB52B2091CF023327C0
S1134DB044275527822B932BA42BB52BE816F906F1
S1134DC00A071B0709F0ADC18281823009F0A9C12D
S1134DD080911101843009F0A4C1A9E0EA2EF12CDC
S1134DE0EC0CFD1C81859927182F0027F701818180
S1134DF09927082B192B65E0CE010E945707081745
S1134E00190709F08EC1F60181859927982F882703
S1134E10F70121813327822B932B892B09F481C13C
S1134E2020911101243009F07CC18F81682F7727EC
S1134E308091D302482F5527461708F50091B002F8
S1134E400E7F59F5D6018C919927D82FCC27F601DE
S1134E5081819927C82BD92B109130011130E9F4A5
S1134E60822F0E94F414D093C004C093BF04109303
S1134E70BB0400935E04812F0E94770A0EC0209128
S1134E80B002641730F4822F817084608093B00282
S1134E9004C021602093B00244C10E94220B41C18E
S1134EA080913001882309F43CC1F6013496E6016F
S1134EB08C819927AA27BB27182F0027FF24EE24CB
S1134EC081819927AA27BB27DC0199278827E82A0B
S1134ED0F92A0A2B1B2B82819927AA27BB27BA2FD1
S1134EE0A92F982F8827E82AF92A0A2B1B2B8381BC
S1134EF09927AA27BB27E82AF92A0A2B1B2B88857E
S1134F009927C82F482FC801B7010E94B216F6018D
S1134F1080819927382F222781819927282B392BA3
S1134F2080912701909128012817390709F0F9C0C9
S1134F308091080190910901A0910A01B0910B019F
S1134F40E816F9060A071B0709F0EBC08091070170
S1134F50C81708F0E6C0209130012130A9F0822F53
S1134F6082508230F0F480910D0190910E01A09155
S1134F700F01B0911001E816F9060A071B0789F41E
S1134F8080910C01C81769F4F6013996AEE1B3E0DB
S1134F9081919C91892B8D9373E0A332B707C1F360
S1134FA0B8F3213009F0BDC082E00E94F414E0920D
S1134FB00D01F0920E0100930F0110931001C093A4
S1134FC00C018FEF9FEF9093C0048093BF040E9465
S1134FD0B915A7C080913001882309F4A2C0E60165
S1134FE08C81482F552788819927AA27BB27382FDA
S1134FF022271127002789819927AA27BB27DC01AB
S113500099278827082B192B2A2B3B2B8A81992730
S1135010AA27BB27BA2FA92F982F8827082B192B2B
S11350202A2B3B2B8B819927AA27BB27082B192BCB
S11350302A2B3B2BC901B8010E94B21688819927FB
S1135040AA27BB27582F442733272227898199274A
S1135050AA27BB27DC0199278827282B392B4A2B21
S11350605B2B8A819927AA27BB27BA2FA92F982FB0
S11350708827282B392B4A2B5B2B8B819927AA272E
S1135080BB27282B392B4A2B5B2B8091080190914D
S11350900901A0910A01B0910B01281739074A07A9
S11350A05B0709F03EC09C81809107019817C9F500
S11350B02D81822F869586958695E82FFF27E454C7
S11350C0FD4F80819927277002C0959587952A9571
S11350D0E2F780FF26C040910F03423010F5809123
S11350E090018427282F33278CE190E0289FF0013A
S11350F0299FF00D389FF00D1124E75DFD4F8CE1E1
S1135100D6010D9001928A95E1F7842F8F5F8093E9
S11351100F03813031F4E50188858093A8020E9451
S1135120FC07C501DF91CF911F910F91FF90EF9084
S1135130DF90CF90BF90AF9008952F923F924F92FF
S11351405F927F928F929F92AF92BF92CF92DF92A3
S1135150EF92FF920F931F93CF93DF934B015C0168
S11351607724EE24FF24AAE5CA2EA1E0DA2EF60164
S1135170608561FF12C12081318142815381D50153
S1135180C401821B930BA40BB50B2480358046808D
S1135190578082159305A405B50508F4FEC060FF89
S11351A003C06D7F60870AC0220D331D441D551D49
S11351B0D6012D933D934D935C931397B2E0EB1678
S11351C0F10409F449C0E3E0EE16F10444F4E114F7
S11351D0F10479F0F1E0EF16F104C9F1DEC083E0E7
S11351E0E816F104F1F194E0E916F10409F49BC026
S11351F0D4C0809151019091520101969093520133
S113520080935101C0919901CC2309F0C6C08093C9
S1135210C901892F99278093C8018FEF9FEF80934D
S1135220C3018FEF90E08093C40166E08DEB91E0C1
S11352300E948B0142E06DEB71E08C2F0E941214EE
S1135240882309F0AAC081E080939901A6C08091C7
S113525012010E949423A1C00E9465140E94B915F2
S11352609CC08091B00280FD36C020913101222380
S113527091F5809127019091280180933403892F1F
S113528099278093330382E0809335032093360378
S113529007E313E089E0ECECF2E0D80101900D9211
S11352A08A95E1F78FEF9FEF80932E038FEF90E0C5
S11352B080932F0361EAC8010F970E948B014EE08F
S11352C0B8016F50704081E00E941214882319F4D1
S11352D081E08093310140E050E0809130018230E0
S11352E010F041E050E02091B002452B21F0822FD4
S11352F08170846008C0822F8E7F39F0982F92507D
S1135300822F8170892B8093B0028091B0028E7FAE
S113531039F48091AF02863118F48F5F8093AF0225
S11353200E94BA0A3AC020918201309183014091CF
S11353308401509185018091B2019091B301A091B3
S1135340B401B091B5010097A105B10521F1821B0B
S1135350930BA40BB50BB9F48091BA01882369F4BB
S11353608FB7F894282F3327809158018160809358
S113537058012FBF8CE10E94EB0180E00E947F075F
S11353801092BA0108C08093B2019093B301A09324
S1135390B401B093B5010E942C0B7394E9E0F0E0E2
S11353A0CE0EDF1E0894E11CF11CF5E0F71508F0A1
S11353B0DECE8DE00E94EB01DF91CF911F910F9122
S11353C0FF90EF90DF90CF90BF90AF909F908F9021
S11353D07F905F904F903F902F900895EF920F939E
S11353E01F93992782309105E9F0833091052CF4BD
S11353F0009771F0019799F052C08430910509F437
S11354004CC084309105DCF0059709F446C047C0D0
S11354106D5B714009F043C01092990140C0109235
S113542031013DC0809130018530C9F58091BB04C4
S113543081508093BB0480E00E94770A30C06CE105
S113544083EF91E00E945709FC01892B41F12581EA
S1135450822F869586958695E82FFF27E25EFC4F7E
S1135460277081E090E002C0880F991F2A95E2F727
S1135470982F90958081892380830E947609DC018E
S1135480CB0111E0E12E02E010E020E030E0AC01BD
S1135490BD0182E00E94E40302C01092D4041F9173
S11354A00F91EF900895CF92DF92EF92FF920F93B6
S11354B01F93CF93DF93D82EEB01C42EE82FFF2741
S11354C0EE0FFF1FE156FE4F1082118280912601DC
S11354D09927019666E070E00E94CC3C80932601F7
S11354E000E0382F432F5527FA01E40FF51FE1564A
S11354F0FE4F80819181892B99F0832F8695869523
S11355008695E82FFF27EA57FB4F80819927232FA1
S1135510277002C0959587952A95E2F780FF0AC007
S1135520CA01019666E070E00E94CC3C382F0F5F00
S11355300630C0F230932601063018F086E08093DE
S11355402601E0912601E630F0F4FF27EE0FFF1F5D
S1135550E156FE4F00811181C8010E948E01E82EA0
S1135560FF24C8010E949201BC01F80180818C5083
S11355709927282FA8018E2D0E946013882319F0E3
S113558081E00E94EB014C2DBE018D2D0E94EE297D
S1135590DF91CF911F910F91FF90EF90DF90CF900B
S11355A008958F929F92AF92BF92CF92DF92EF9223
S11355B0FF920F931F93CF93DF93CDB7DEB72A9754
S11355C00FB6F894DEBF0FBECDBF9927AA27BB271D
S11355D0FC014D9710F00C94FA32EA5BFF4FEE0F8A
S11355E0FF1F0590F491E02D09948091860488238F
S11355F011F40C94FA3201E010E090918604892FA2
S11356008023A1F0E12FFF27EE0FFF1FE156FE4F8D
S11356102081318110821182802F8095982390936C
S1135620860443E0B901812F0E94EE29000F1F5F19
S1135630183018F30C94FA3280912601E82FFF27D2
S1135640EE0FFF1FE156FE4F41E060817181F8C00B
S11356508FB7F894082F11270E94EB0D31E0E32E49
S1135660F12CF0924A01E092490110924801109203
S11356705501109285040FBF8FB7F894082F112796
S11356800E944B09F0927102E09270021092620241
S113569089B78F7B89BF80E488BF8AB780628ABF5D
S11356A08AB78F7E8ABF89B7806489BF0FBF8FB7DF
S11356B0F894082F112780914E0190914F0104977F
S11356C011F40E94820E0FBF8FB7F894082F112790
S11356D0C09A80E00E94CC080FBF8FB7F894282F9F
S11356E0332782E08093C4022FBF80E02091B2016F
S11356F03091B3014091B4015091B50121153105A8
S11357004105510519F085E090E021C02093B201D4
S11357103093B3014093B4015093B5012093B60183
S11357203093B7014093B8015093B9018093BA0103
S11357300E947F078FB7F894082F112780E090E02C
S11357400E9460090FBF0E942C0B80E090E0182F8C
S113575080E09EED0E94D70B112319F481E0809321
S1135760B70481E08093E3020E944F0ADC01CB017D
S1135770EE240AEF10E020E030E0AC01BD018E2DF4
S11357800E94E40337C78FB7F89499271092C40294
S1135790EAC68FB7F8949927F09050018FBF83E041
S11357A00E94B801882361F18FB7F894082F11275C
S11357B010924A011092490187B78F7E87BF87B73D
S11357C08F7D87BF0E941509C09A0FBF8FB7F894C9
S11357D0082F112710927102109270020E944B0937
S11357E0C09A89B78F7B89BF0FBF10924F01109267
S11357F04E01DE98DD98DE9A83E00E94EB0108C03A
S11358008FB7F894282F332782E08093C4022FBFE8
S11358100091B8041091B9040E94E401809126011A
S1135820863008F0E7C6E82FFF27EE0FFF1FE1568A
S1135830FE4F608171816017710709F0DBC64F2D3F
S11358400E94532AD7C60E941710D4C68FB7F89463
S113585099271092670287C68FB7F894282F3327A9
S113586080914D01882311F02FBFC4C62FBF80B390
S1135870992726E0969587952A95E1F7182F1170B8
S11358808091E402909192018917D9F01917C9F413
S113589084E090E090934F0180934E018FB7F89489
S11358A0282F332781E080934D012FBF80E090E0C3
S11358B00E94AE0E0E94EE0EC09AC09882E00E9432
S11358C0EB011093E4020E94410994C68FB7F89447
S11358D09927209125018FBF33272230310509F400
S11358E062C02330310544F42115310571F02130B3
S11358F0310509F443C07EC62330310509F46EC076
S11359002430310509F4A1C075C6C0988FB7F89446
S1135910E82EFF2480914E0190914F01029761F58A
S113592083E090E090934F0180934E0188E190E0F2
S11359300E94AE0E11E01093920110924D0180B3BB
S1135940992706E0969587950A95E1F78123809338
S1135950E4020E944109812F0E94000E6FE772E069
S11359608CE10E94870E0E94B40E0E94C60E66E56A
S11359707AE287E10E94870EEFBE3CC6C09886E0BB
S11359800E94000E0E94B40E0E94C60E0E94EE0EEB
S1135990C09AC0980E94820EC09A81E00E94CC08EE
S11359A00E94460927C6C0988FB7F894E82EFF24B2
S11359B00E941A02182F882311F0EFBE0AC0EFBE0E
S11359C083E50E94FC0D812F0E94FC0D812F0E9413
S11359D0FC0DC09A82E00E94CC080CC68FB7F894E4
S11359E09927209149018FBF33272430310571F065
S11359F02530310524F42230310529F023C0283024
S1135A00310539F01FC00E941913F4C50E94200EFD
S1135A10F1C5C0980E941B0EC09A0E941A098FB744
S1135A20F894282F332781E090E090934A018093E3
S1135A3049012FBF63E08091B9029091BA020E949C
S1135A402009D8C50E941A09D5C50E940811D2C5DB
S1135A508FB7F894082F11276091AE017091AF01B0
S1135A60E091CA02F091CB028091C2039091C303EA
S1135A701092AF011092AE011092CB021092CA02A2
S1135A801092C3031092C203109266021092650230
S1135A9020E0AC01CF010E94831132C18FB7F8948A
S1135AA0282F3327809158038093220182E080932A
S1135AB04B012FBF80912201882309F09BC50E94CE
S1135AC05E0898C5A0915601B09157018091960146
S1135AD0FD01E80FF11D8081881F8827881FFD01C3
S1135AE082A780919601E80FF11D31978081FD0115
S1135AF080A780919601E80FF11D80818F77FD01C9
S1135B0081A7E0915601F09157019F01255F3F4F16
S1135B1080919601482FB901CF010E941F259093CF
S1135B205701809356018FB7F89499271092620217
S1135B308FBF0E9430115EC500919101002339F599
S1135B408FB7F894282F3327C0901803D0901903E7
S1135B50E0901A03F0901B03809143049091440455
S1135B60A0914504B0914604C80ED91EEA1EFB1E3E
S1135B702FBF8091770490917804A0917904B0911B
S1135B807A049C01AD01C701B6010E941E0A0E945D
S1135B904F0ADC01CB01BC01CD013FC00E944F0A7A
S1135BA05B016C012FEF3FEF4FEF5FE770E08FB7C2
S1135BB0F8949927709311048FBFEAE5F1E065E04A
S1135BC0808581FF1CC080819181A281B38186017F
S1135BD07501E81AF90A0A0B1B0BD801C701E48006
S1135BE0F58006811781E81AF90A0A0B1B0BE216E5
S1135BF0F306040715071CF4A801970171E061502E
S1135C00399667FFDDCF772309F4F4C4121613061F
S1135C10140615062CF0C601B5010E949D28EAC49D
S1135C2001E0C601B5010E941E0AE4C440E03BC085
S1135C30809146018630D9F5959A95980000000028
S1135C4020E030E080B399279695879596958795BF
S1135C5080FD02C021E030E0022F1127DB9A0E9470
S1135C60720780912703002359F09927FC01EE0F56
S1135C70FF1FE80FF91FE659FD4F8081877ED7C0CB
S1135C809927FC01EE0FFF1FE80FF91FE659FD4F9E
S1135C909081892F8695869586958370823010F43D
S1135CA09D7FE2C04AE060E070E081E027C1DB9ABA
S1135CB00E947207DAC080914601992705970297DE
S1135CC008F59598DB9887ED0E940D078FB7F89437
S1135CD0082F112784E088BF89B7846089BF95980D
S1135CE082E090E0019701960197E1F780B399274C
