S01800006275696C642F6D6963617A2F6D61696E2E73726563E5
S11300000C945B000C9457290C9461290C946B2973
S11300100C9475290C947F290C9489290C949329A8
S11300200C94C3290C9478000C9478000C945428F4
S11300300C9499270C943E280C9436290C9444274C
S11300400C9488270C94CD290C9478000C94780097
S11300500C9478000C9478000C9478000C9478003C
S11300600C9449280C9478000C9478000C94780033
S11300700C9478000C9478000C9478000C9478001C
S11300800C9478000C9478000C947800801E101F57
S11300900C203E208C20F420FA2052216D21742162
S11300A07721342237224B224E22E423ED241125DA
S11300B000081C18141011241FBECFEFD0E1DEBFBE
S11300C0CDBF11E0A0E0B1E0ECEFF8E500E00BBF3C
S11300D002C007900D92AA34B107D9F714E0AAE43C
S11300E0B1E001C01D92AB3EB107E1F70C9462256B
S11300F00C9400008FB7F894992708958FBF089542
S11301002F923F924F925F926F927F928F929F9223
S1130110AF92BF92CF92DF92EF92FF920F931F9311
S1130120CF93DF93CDB7DEB72A970FB6F894DEBF2F
S11301300FBECDBF8FB7F894282F332729873A876E
S113014020900A0330900B0340900C0350900D0351
S113015066242EE4A22E93E8B92EC62CD62CE62CC7
S1130160F62C062D162D222D332D442D552D662DBE
S1130170762D862D962D0E94372A29833A834B8328
S11301805C836D837E838F839887822E932EA42E27
S1130190B52EC62ED72EE82EF92E240135017694DD
S11301A067945794479400E2282D392D4A2D5B2DEE
S11301B06C2D7D2D8E2D9F2D0E94412BA22EB32EB2
S11301C0C42ED52EC601B501640D751D861D971D5F
S11301D097FF05C09F776F5F7F4F8F4F9F4F60934F
S11301E00A0370930B0380930C0390930D033985DA
S11301F03FBF2A960FB6F894DEBF0FBECDBFDF9186
S1130200CF911F910F91FF90EF90DF90CF90BF900F
S1130210AF909F908F907F906F905F904F903F90A2
S11302202F900895982F8FB7F894282FE92FFF2740
S1130230EF53FB4F80818F3FB1F48091D504891730
S113024091F08091BD048F3F19F49093BD0407C0D1
S11302508091D504E82FFF27EF53FB4F90839093B1
S1130260D50480E001C085E02FBF99270895EF925F
S11302700F931F93AE2D99E0899FF0011124E55A45
S1130280FE4F4083518362837383048315832683E3
S11302903783A17080858E7F8A2B8260808783E07C
S11302A00E9412011F910F91EF9008958EE00E9419
S11302B0120199270895FC0180818C509927089593
S11302C0FC0187819927382F222786819927822B41
S11302D0932B08958FB7F8949927209104013091B6
S11302E005018FBFC9010895982F8FB7F894482F3F
S11302F0552730E0E92FFF27E25EFC4F8081861707
S113030009F431E04FBF832F99270895682F82E0C5
S11303100E94740199270895282F91E08FB7F894CB
S1130320382F662339F0E22FFF27E25EFC4F8081ED
S1130330882331F4E22FFF27E25EFC4F608390E0D4
S11303403FBF892F9927089590910601981719F4B2
S113035081E090E0089580E090E0089580914F015D
S1130360882319F480E090E0089581E090E00895F6
S113037060E00E9474019927089560E081E00E9482
S11303807401992708958FE00E9412019927089516
S11303901092150394E0E4E2F3E083E0919381503A
S11303A087FFFCCF08950E94C8010895282FA82F25
S11303B0BB27A451BD4F9C91E62FFF27E451FD4F6D
S11303C080818C9390838C91E82FFF27EC5DFC4F08
S11303D02083E92FFF27EC5DFC4F60830895CF93C2
S11303E0DF93382F05C06C2F832F0E94D6013C2F3A
S11303F0332319F1832F9927FC01E451FD4F208108
S1130400BC016150704077FDBC01EB01D595C795E7
S1130410EC2FFF27E451FD4F8081E82FFF27EF5C8D
S1130420FC4F80819927E22FFF27EF5CFC4F20814E
S1130430821B910918161906B4F2DF91CF91089521
S1130440282F843018F082E090E020C090911503AA
S1130450943019F481E090E019C0A82FBB27AC5D5B
S1130460BC4F8C91843019F089E090E00FC0E92FE3
S1130470FF27E451FD4F20839C939F5F90931503C6
S11304809150892F0E94EF0180E090E09927089510
S11304909C012770307081E090E002C0880F991FA2
S11304A02A95E2F7089553E0969587955A95E1F7D2
S11304B00895FC0163E0F695E7956A95E1F7E45445
S11304C0FB4F208133278770907041E050E0BA01E0
S11304D002C0660F771F8A95E2F72623372321157A
S11304E0310509F09A01822F99270895CF93DF935C
S11304F0282F809142042817E0F48150809342040D
S11305002817B8F4382F822F9927880F991FDC01F8
S1130510AA50BD4FFC01E85CFC4F8281938181931A
S11305209193ED018A819B818D939D932F5F231776
S1130530A0F3DF91CF910895CF93DF93EC01A0E076
S1130540B091B401AB1718F580917A04482F552760
S1130550CA0157FD0796887FFA01E81BF90BEE0FD5
S1130560FF1FEE0FFF1FE458FB4F60E070E0208197
S11305703181888199812817390711F461E070E08D
S1130580672B29F4AF5F4F5F5F4FAB1708F38A2FD8
S11305909927DF91CF9108950E949C02982F809112
S11305A0B401981719F480E090E0089580917A04DA
S11305B0890F912D911D9C01887F9370281B390B05
S11305C0C901880F991F880F991F84589B4F08955C
S11305D0FC0162870895CF93DF93FC01DC0111963F
S11305E0ED0189819927982F882721813327822B30
S11305F0932B8F7D8183892F9927898380E090E0D5
S1130600DF91CF910895982F843038F4E82FFF2795
S1130610EB54FE4F8081843019F480E090E016C0E2
S113062020E009C02F5F943018F084E090E002C00D
S11306308E2F9927982FE92FFF27EB54FE4FE08147
S1130640E43011F0E91771F7822F9927992708955B
S1130650FF920F931F93CF93DF938C01CB01F22E64
S1130660A42FB3E076956795BA95E1F79C012770BE
S113067030705527C1E0D0E0FE01042E02C0EE0F19
S1130680FF1F0A94E2F7BE2FB150BF21CA01820FA7
S1130690931F0997F8F4CF010197309521953F4FA7
S11306A0241B350B285F3F4F022E02C0880F991F71
S11306B00A94E2F7F801E60FF71F8095408148237A
S11306C08B2F992702C0880F991F2A95E2F7482B90
S11306D0408353C021153105F9F088E090E0821B76
S11306E0930B02C0CC0FDD1F8A95E2F72197A20F6E
S11306F0A850F801E60FF71F8C2F8095208128233E
S11307008B2F99270A2E02C0959587950A94E2F7B4
S1130710282B20836F5F7F4FA83090F02B2F332737
S1130720FB01E00FF11FA850C9010A2E02C09595E4
S113073087950A94E2F781936F5F7F4FA83098F70B
S1130740AA23D9F048E050E04A1B510981E090E027
S1130750042E02C0880F991F0A94E2F70197F8014A
S1130760E60FF71F208128238B2F992702C0880FBB
S1130770991F4A95E2F7282B20838F2D9927DF9123
S1130780CF911F910F91FF9008950F931F93CF93D3
S1130790DF938C01EB01672B19F00E945B018883C6
S11307A0C8010B96DF91CF911F910F9108950E947C
S11307B0C5030895CF93DF93FC01DC011196ED018D
S11307C089819927982F882721813327822B932B7E
S11307D080628183892F9927898380E090E0DF916B
S11307E0CF910895FC016683872F99278783089505
S11307F00E94F20308959C012770307081E090E01C
S113080002C0880F991F2A95E2F7089553E0969540
S113081087955A95E1F708959C01FC0163E0F695EC
S1130820E7956A95E1F7E75AFE4F2770307081E04B
S113083090E002C0880F991F2A95E2F7982F9095AF
S113084080818923808308959091F502891718F493
S1130850382F385F01C0382F691718F4262F285F06
S113086001C0262F321708F4682F862F9927089580
S1130870FC01828599270895FC01862F845F80837B
S11308800895EF92FF920F931F937C018B010E94B6
S11308905B01F80190819F5F891B682FC7010E944B
S11308A03C041F910F91FF90EF900895EF92FF92F7
S11308B00F931F937C018B010E945B01F8019081CF
S11308C09F5F980F692FC7010E943C041F910F91ED
S11308D0FF90EF900895FC018285992708950E9466
S11308E06B0499270895EF92FF920F931F93CF9370
S11308F0E82EC62F683000F5CF5FC770F090F50280
S1130900CF15D1F00C2F1127F801EE0FFF1FEE0FBA
S1130910FF1FE85BFC4F808199278F7390700497C9
S113092041F4828193810E946B048E1511F4C801F5
S113093005C0CF5FC770E4CF88E090E0CF911F91EE
S11309400F91FF90EF9008951F93CF93182FC091AC
S1130950F502C83098F4EC2FFF27EE0FFF1FEE0FBF
S1130960FF1FE85BFC4F828193810E946B04811717
S113097029F06C2F812F0E947304C82F8C2F992784
S1130980CF911F9108951F93CF93DF93182F683051
S1130990A8F4E62FFF27EE0FFF1FEE0FFF1FE85B03
S11309A0FC4F808199278F739070019739F0C28131
S11309B0D381CE010E946B04811719F080E090E08E
S11309C001C0CE01DF91CF911F910895682F84E07B
S11309D00E94C30408951F93CF93DF93EC01162F55
S11309E00E946B041F5F99278430910519F0C0970A
S11309F019F00FC0612F0AC060E070E0CE010E94C0
S1130A00C503FC0180818F5F810F682FCE010E9496
S1130A103C04DF91CF911F910895CF93DF93EB01B5
S1130A200E94C503FC01209729F090819F5F888173
S1130A30891B888380818F5FE80FF11DCF01DF91CF
S1130A40CF9108950F931F93CF93DF938C01EB0104
S1130A500E946B0499278430910519F0C09731F0F6
S1130A600BC0BE01C8010E94C50304C0BE01C80179
S1130A700E940D059C0105C0209709F0188220E012
S1130A8030E0209719F0888181508883C90101964C
S1130A90DF91CF911F910F91089560E070E00E9463
S1130AA02205FC0182819927382F222783819927E7
S1130AB0822B932B08950F931F93CF93DF93C0E062
S1130AC0D0E0BE010E942205FC0182819927182FE3
S1130AD0002783819927082B192B0E946A01081784
S1130AE0190711F4C1E0D0E08C2F9927DF91CF9141
S1130AF01F910F91089560E070E00E942205FC01AF
S1130B0080819927382F222781819927822B932B43
S1130B10089594E0A8E1B3E0E5EBF1E083E091937C
S1130B209D93815087FFFBCF0E94C80181E0809391
S1130B301D030895EF92FF921F93CF93DF93162F17
S1130B40843008F06DC0643008F06AC0E82EFF24D9
S1130B50F701EC54FB4F8081883081F0282F332734
S1130B60F901E20FF31FE45DFB4F8081811711F05F
S1130B708181F2CF2830310509F052C070914A01C9
S1130B80783019F488E090E046C06091B304A62F51
S1130B90BB27FD01C3E0F695E795CA95E1F7E05D53
S1130BA0FC4FCD018770907041E050E09A0102C083
S1130BB0220F331F8A95E2F78081822B8083872F4F
S1130BC08F5F80934A01883029F1EA01762F02C0B1
S1130BD07F5F7770872F9927FC0153E0F695E7959F
S1130BE05A95E1F7E05DFC4F2081422F552787702D
S1130BF090709E0102C0220F331F8A95E2F74223B0
S1130C0053234115510511F041E050E0452B01F704
S1130C107093B304CD01282F3327922F283019F471
S1130C2088E090E018C0D701AC54BB4F4C914830D9
S1130C3029F480912D038F5F80932D03892F9927A9
S1130C40FC01E80FF91FE45DFB4F418310832C93F3
S1130C5021E020932B04DF91CF911F91FF90EF901F
S1130C600895CF93DF93582FEB018881682F77275E
S1130C700CC0FE01E20FF31FDF011196818185177D
S1130C8071F0FD018181480F4E5F80E090E04617CE
S1130C9010F081E090E0242F3327882351F3C90119
S1130CA0DF91CF910895AF92BF92CF92DF92EF92EE
S1130CB0FF920F931F93CF93DF93A82EEB01B42ED3
S1130CC0E22E40E00E9431069881292F33278217B3
S1130CD018F489E090E030C0422F5527CA018B0DEB
S1130CE0911D03962E2D33272817390718F482E017
S1130CF090E021C0BB20E9F06E01C40ED51E860130
S1130D000F5F1F4F82E0F82EFB0C802F8C1BE81A1C
S1130D10EF188E2D9927AC01B801C8018F0D911DD4
S1130D200E94E62B88818F0D8883F601A182F80149
S1130D30B18280E090E09927DF91CF911F910F91CC
S1130D40FF90EF90DF90CF90BF90AF900895242F45
S1130D50462FBC0180E60E94530699270895CF923E
S1130D60DF92FF920F931F93CF93DF93382FDB0112
S1130D70F22EFB01E40FF11DEF0121968C91682FF7
S1130D807727461718F48181831719F086E090E0DD
S1130D9030C0332789819927281B390BFE01E80FBE
S1130DA0F91F329611278E2F8A1BA801481B51095F
S1130DB0FF2011F4225030401216130614F4421B83
S1130DC0530B6901C60ED11CC601019608171907F9
S1130DD018F482E090E00DC0862F820F8C93BF013F
S1130DE0CF01820F931F0E94E62BF110F98280E05D
S1130DF090E0DF91CF911F910F91FF90DF90CF9002
S1130E000895DF92EF92FF920F931F93D82E7B01E8
S1130E10142F40E00E943106012F20E0482FB70133
S1130E208D2D0E94AF0699271F910F91FF90EF908F
S1130E30DF900895CF93DF93282FFB01DB01A40FEC
S1130E40B11DED0121968081481720F4FD018181B7
S1130E50821719F080E090E002C089819927DF9120
S1130E60CF9108951F93CF93DF93182FEB0140E0A8
S1130E700E943106482F8881481718F080E090E0DE
S1130E8005C0BE01812F0E941A079927DF91CF91D7
S1130E901F910895BC0181E00E94320799270895AB
S1130EA0282FFB01DB01A40FB11D8081481720F41A
S1130EB0FD018181821719F080E090E00895CD0151
S1130EC0039608951F93CF93DF93182FEB0140E00F
S1130ED00E943106482F8881481718F080E090E07E
S1130EE004C0BE01812F0E945007DF91CF911F9152
S1130EF00895BC0181E00E9462070895BC0180E668
S1130F000E9462070895EF92FF920F931F93CF936D
S1130F10DF93EC01EE24FF240E9460018C010E9407
S1130F206A010817190731F0CE010E9460018F5F32
S1130F309F4F19F491E0E92EF12CC701DF91CF9175
S1130F401F910F91FF90EF900895882311F06E9AEE
S1130F5008956E9808958AE00E94120199270895D1
S1130F600F931F93CF93DF93C0915001CC2359F477
S1130F70109109011F3F39F401E06C2F802F0E946A
S1130F807401882319F481E090E050C00093AA0111
S1130F9080915501882311F0C093AA018091AA0180
S1130FA0882309F441C080914F01823071F59091FA
S1130FB00601992351F520E030E0809108018F3F2C
S1130FC011F421E030E0232BE1F48F3F79F0282F56
S1130FD03327F901E652FB4F8081809308018F3F4C
S1130FE011F4109307011083C90102C08FEF90E040
S1130FF080932A0481E080934F018CE00E941201C7
S113100004C01093060190934F010E94AE01C82FB3
S1131010DD27CC2331F48C2F0E94A507C093D7047D
S1131020C09A80E090E002C085E090E0DF91CF912B
S11310301F910F9108951F93182F81E090E09093D2
S11310404E0180934D01109255010E94B0071093F8
S1131050540186E00E9412011F9108958FB7F894FD
S1131060682F77278091B4029091B5022CB53DB5D5
S113107006B602FE03C001962CB53DB5AA27BB27D0
S113108044275527DC0199278827822B932BA42BEF
S1131090B52B6FBFBC01CD01089589E00E941201F8
S11310A09927089588E00E9412019927089580E8FD
S11310B08093B3011092B70210926803109229042E
S11310C01092D80408950E946A01089581E00E9454
S11310D012019927089580E00E941201992708952A
S11310E08FB7F8949927109221038FBF08958FB773
S11310F0F8949927109223038FBF08959C01FC0153
S1131100A3E0F695E795AA95E1F7E75AFE4F277015
S1131110307081E090E002C0880F991F2A95E2F7B1
S11311202081282B208308950F931F93CF938C0144
S113113084E00E94A40418C06C2F84E00E94C304BD
S113114060E070E00E942205FC0182819927982FBB
S1131150882723813327822B932B8017910769F0EB
S11311606C2F84E00E947304C82F80E090E0C830A4
S113117011F481E090E0892BF9F28C2F9927CF911B
S11311801F910F9108950F931F93CF93DF938C01B9
S1131190C62FDD27C130D10561F0C230D1051CF462
S11311A0209729F008C0C230D10519F004C080E3AB
S11311B003C084E001C080E09927682FC8010E9421
S11311C0E802C130D10559F0C230D1051CF4CD2B51
S11311D021F009C0229729F006C080E305C087E109
S11311E003C089E101C080E0C82FC8010E946B04DC
S11311F099278430910519F0C09739F00DC060E04B
S113120070E0C8010E94C50305C060E070E0C80139
S11312100E940D05FC0102C0E0E0F0E0C083DF9114
S1131220CF911F910F9108950F931F938C0162E04A
S11312300E94C30860E070E0C8010E942205049681
S11312401F910F9108950E94830799270895CB0158
S11312500E945B0199270895CB010E945B019927A5
S11312600895CF93DF93EC010E946B049927843097
S1131270910519F0C09739F00DC060E070E0CE011F
S11312800E94C50305C060E070E0CE010E940D0518
S1131290FC0102C0E0E0F0E080819927DF91CF916A
S11312A00895482F5527FA01EE0FFF1FEE0FFF1F79
S11312B0E85BFC4F8081829586958695837080FFDC
S11312C016C02281338190912004953080F4E091FE
S11312D0B602E90FE53008F0E550FF27EE0FFF1FD7
S11312E0EC51FC4F208331839F5F90932004FA01DB
S11312F0EE0FFF1FEE0FFF1FE85BFC4F8081807C29
S11313008160808308950E946A010895DC012C9114
S113131030E0462F55272F5F2770E22FFF27EE0F6F
S1131320FF1FEE0FFF1FE85BFC4F808199278F732F
S1131330907084239523892B11F02C9308953F5F9B
S1131340383048F388E08C930895282F962FE82F9F
S1131350FF27EE0FFF1FEE0FFF1FE85BFC4F9F738D
S11313608081807C892B808380912104883011F4D2
S1131370209321048091F502821729F464E085EF1B
S113138092E00E94860981E00E94120108951F9351
S1131390CF93182FC62F6830A0F4E62FFF27EE0F47
S11313A0FF1FEE0FFF1FE85BFC4F808199278F73AF
S11313B09070049731F4828193810E946B048117A9
S11313C019F086E090E006C068E08C2F0E94A50921
S11313D080E090E0CF911F910895682F80E30E94F0
S11313E0C709992708951F93CF93182FC62F6830E4
S11313F0A0F4E62FFF27EE0FFF1FEE0FFF1FE85BA1
S1131400FC4F808199278F739070049731F4828107
S113141093810E946B04811719F086E090E00EC05E
S11314208C2F0E9451098091F5028C1729F464E0F5
S113143085EF92E00E94860980E090E0CF911F91B1
S11314400895682F80E30E94F30999270895FF9275
S11314500F931F93CF93DF93F82E8B01EA01CB01F7
S11314600E943804803331F46F2D0E94F30981E027
S113147090E012C04DE150E0BE01CE0101960E9401
S1131480E62B1882BE01C8010E94560460E3C8011D
S11314900E94E80280E090E0DF91CF911F910F91CC
S11314A0FF900895FF920F931F93CF93DF93F82E2D
S11314B08B01EA010E94270A8130D9F0BE01C801DC
S11314C00E9441042EE141E0BE01842F0E94530694
S11314D0882359F4BE01C8010E945604BE0181E06C
S11314E00E946207FC01892B39F46F2D80E30E946E
S11314F0F30981E090E011C080912C03982F8F5F55
S113150080932C0390836FEF7FEFC8010E94F20356
S1131510C8010E94EB0280E090E0DF91CF911F911F
S11315200F91FF900895682F84E00E94F309992792
S1131530089568E381E294E00E94860908958FB7D4
S1131540F894982F82B720913C0430913D04409147
S11315503E0450913F0406B601FE0FC081B7280F28
S1131560311D411D511D82B7280F311D411D511DD3
S11315702F5F3F4F4F4F5F4F04C0280F311D411D58
S1131580511D9FBFCA01B90108950F931F93CF93B3
S1131590DF9310E08FB7F894282F3327022F91B7E9
S11315A082B746B7981711F041FF02C02FBF6AC037
S11315B0809143048823B1F10E949F0ADC01CB018E
S11315C0C0912404D0912504E0912604F0912704CD
S11315D08C1B9D0BAE0BBF0B2091760430917704CE
S11315E0409178045091790482179307A407B507B2
S11315F020F01093430411E015C02C0F3D1F4E1F23
S11316005F1F80913C0490913D04A0913E04B091F1
S11316103F04281B390B4A0B5B0B273E3105410560
S1131620510510F086EE05C0223010F482E001C0AE
S1131630822F682F615000B601FCFDCF82B7861758
S113164009F46F5F20913C0430913D0440913E04C5
S113165050913F04DA01C901860F911DA11DB11DEE
S11316600196A11DB11D82179307A407B50718F4AD
S113167060913C04609561BF0FBF112319F082E0B3
S11316800E941201DF91CF911F910F910895CF9283
S1131690DF92EF92FF920F936B017C012093AA04D7
S11316A03093AB044093AC045093AD0400937601A3
S11316B08FB7F894682F772781E080934304C09212
S11316C02404D0922504E0922604F0922704209367
S11316D076043093770440937804509379046FBF71
S11316E00E94C50A0F91FF90EF90DF90CF9008956C
S11316F00E949F0ADC01CB01BC01CD0108950F9328
S11317001F93CF93DF930E949F0AAB01BC0180918A
S1131710060390910703A0910803B09109038A017D
S11317209B01081B190B2A0B3B0BE901D801809183
S11317306C018D7F80936C0180914204882359F061
S1131740282FE6EFF2E0808191818A1B9B0B819325
S113175091932150C1F7409306035093070360937C
S1131760080370930903DF91CF911F910F9108959E
S1131770AF92BF92CF92DF92EF92FF920F931F939B
S11317805B016C0111E0F12E0E949F0ADC01CB0188
S1131790EF2C96018501AC01BD018F2D0E9437010C
S11317A01F910F91FF90EF90DF90CF90BF90AF907B
S11317B008950F931F93CF93DF938C0120E032E0C1
S11317C002C0220F331F6A95E2F788E221303807FE
S11317D01CF0C0E0D8E201C0E901809142048830E5
S11317E0C9F10E947F0B50914204452F5523C1F04B
S11317F0E42FFF27EE0FFF1FDF01AA50BD4F3E91DC
S11318002E911296C217D30758F4E85CFC4F9291BC
S113181082913296808391832D933C93415041F77A
S1131820E42FFF27EE0FFF1FDF01A85CBC4F0D93D1
S11318301C93EA50FD4FC083D1835F5F50934204F1
S11318408091F6029091F702AA27BB27BC01CD0133
S11318500E94B80BDF91CF911F910F9108954F9281
S11318605F927F928F929F92AF92BF92CF92DF92BC
S1131870EF92FF920F931F93CF93DF93CDB7DEB711
S113188028970FB6F894DEBF0FBECDBF862E742EF8
S1131890E62EFF24E982FA822E010894411C511C91
S11318A08FEF8B831C824423A1F1ED82FE828F8310
S11318B01886CE0105960E94CC02FC01892B49F1C1
S11318C08381882331F113821381209142041217FA
S11318D000F5E8E3F3E0819191918E159F05B1F451
S11318E0812F0E9476021123A1F48091420488235F
S11318F081F00E947F0B8091F6029091F702AA2753
S1131900BB27BC01CD010E94B80B03C01F5F121797
S113191010F3C70140C1692D84E00E94C3046C0127
S113192060E070E00E94C5035C01772009F096C076
S11319308091B401883009F054C0C2010E949C0215
S11319404091B401642F0E94082C941708F049C0F8
S1131950992361F480917A04992701969C01287F48
S11319603170821B930B80937A0436C09417A0F5D0
S113197080917A04682F690F712D711D9B01642F6A
S1131980691BC90137FD0796887F8901081B190B5C
S1131990000F111F000F111F04581B4FA9014F5FA7
S11319A05F4FCA0157FF02C0C9010896887FFA0138
S11319B0E81BF90BEE0FFF1FEE0FFF1FE458FB4F60
S11319C080819181A281B381F80180839183A28374
S11319D0B38361509A01A9F68091B4018150809338
S11319E0B40180917A044091B401840F912D911D2A
S11319F09C01887F93708901081B190B000F111F2C
S1131A00000F111F04581B4FF20180819181A281A4
S1131A10B381F80180839183A283B3834F5F4093A2
S1131A20B4018381882309F0C3C0E82CFF24970103
S1131A30A501B601892D0E94520A813009F4A9C07A
S1131A40692D80E30E94C709F8016381C7010E94E0
S1131A50D90BF80183818F5F8383AAC0F1E07F16DD
S1131A60A9F4D6011196FD0181819927982F882721
S1131A70F60121813327822B932B80628183892F66
S1131A809927FD018183692D84E081C0172D1150B0
S1131A90AC01B601892D0E94270A813009F479C06E
S1131AA0B501C6010E944104812F880F8F5F2EE18A
S1131AB0482FB50180E60E945306882359F4B501E6
S1131AC0C6010E945604B50180E60E9462079C018B
S1131AD0892B29F4692D80E30E94F3095AC0812FD0
S1131AE08F70F90180831150A12FBB27AA0FBB1F50
S1131AF0A20FB31F1196F3E0F81518F484E090E0F8
S1131B0006C0E82DFF27EB54FE4F808199279927C3
S1131B10FD0181831C921123C9F0E12FFF27EE0FF1
S1131B20FF1FE20FF31FDF011197E281E43018F089
S1131B3084E090E005C0FF27EB54FE4F8081992795
S1131B409927FD0181831C921150E5CFF901818110
S1131B509927982F882722813327822B932BBC0126
S1131B60C6010E94F203D6011196FD0181819927D5
S1131B70982F8827F60121813327822B932B8062AB
S1131B808183892F9927FD018183692D80E30E9438
S1131B90C709882D99270E949408982E80E090E028
S1131BA0F8E09F1611F481E090E0892B09F4B3CE9C
S1131BB028960FB6F894DEBF0FBECDBFDF91CF914C
S1131BC01F910F91FF90EF90DF90CF90BF90AF9057
S1131BD09F908F907F905F904F9008950E942F0C5C
S1131BE00895AF92BF92CF92DF92EF920F931F931B
S1131BF05B016C010E949F0ADC01CB01F1E0EF2E36
S1131C0096018501AC01BD0182E00E9437011F915C
S1131C100F91EF90DF90CF90BF90AF9008950F9306
S1131C201F93CF93DF93EC010E946A01892B81F407
S1131C3000910C0110910D01D0930D01C0930C0182
S1131C4060E074E080E090E00E94F10DC80101C002
S1131C50CE01DF91CF911F910F910895EF92FF92E2
S1131C601F93CF93DF93CDB7DEB721970FB6F894C8
S1131C70DEBF0FBECDBF182F7B012983BE016F5F6E
S1131C807F4FC7010E942205498144504983BC010A
S1131C906C5F7F4F212F33272731310519F029310C
S1131CA0310529F4C7010E940F0EBC0101C0B70120
S1131CB0CB0121960FB6F894DEBF0FBECDBFDF91E6
S1131CC0CF911F91FF90EF900895AF92BF92CF9262
S1131CD0DF92EF92FF920F931F93CF93DF930E94B3
S1131CE02E08FC01EB0180910F0390911003A09149
S1131CF01103B0911203A090AF04B090B004C0904F
S1131D00B104D090B2049C01AD012A0D3B1D4C1DC1
S1131D105D1D79018A01EC1AFD0A0E0B1F0BC81711
S1131D20D907EA07FB0730F0281739074A075B078A
S1131D3070F005C0281739074A075B0728F4C21753
S1131D40D307E407F50718F0EE24FF24870121E008
S1131D50E21620E8F20620E0020720E0120730F144
S1131D60C050D048EF4FFF4FC0930F03D0931003E0
S1131D70E0931103F0931203C050D048E040F040C8
S1131D8080E090E8AFEFBFEFE80EF91E0A1F1B1FBB
S1131D90E092AF04F092B0040093B1041093B20443
S1131DA0E12CA0E8FA2E012D112D14C08A0D9B1DE3
S1131DB0AC1DBD1D80930F0390931003A0931103DA
S1131DC0B09312031092AF041092B0041092B104B5
S1131DD01092B204B7012CB53DB5C9018C1B9D0B03
S1131DE003968E159F0520F0B9016D5F7F4F02C0E9
S1131DF06C0F7D1F6115710511F461E070E0615095
S1131E0070407BBD6ABD80E186BF87B7806187BFB4
S1131E10DF91CF911F910F91FF90EF90DF90CF90C2
S1131E20BF90AF9008950F931F93DC01CB016FB760
S1131E30F894062F112780930F0390931003A09317
S1131E401103B09312032093AF043093B004409372
S1131E50B1045093B2040E94650E0FBF1F910F91FD
S1131E600895CF92DF92EF92FF920F931F938FB753
S1131E70F894C82EDD240E948000DC01CB0166E4C6
S1131E8070E00E94142C0B9690932F0380932E03E2
S1131E907C01002711270E942E08DC01CB01A80138
S1131EA09701BC01CD010E94130FCFBE1F910F916A
S1131EB0FF90EF90DF90CF90089597B79F7D97BFE5
S1131EC090E296BF882319F08EB5806402C08EB567
S1131ED08F7B8EBD87B7806287BF80E090E00895D6
S1131EE081E00E945D0F992708951F93182F81E0C8
S1131EF00E94A5071FB9779BFECF8FB199271F9129
S1131F0008950E94750F992708951F93CF93DF9327
S1131F10182F8FB7F894C82FDD2760E081E00E9466
S1131F207401882321F0CFBF80E090E005C0CFBFCB
S1131F30812F0E94750F9927DF91CF911F910895EA
S1131F4089E00E94850F9927089583E00E94850FF8
S1131F5099270895FF920F931F93CF93DF93F82E41
S1131F608B018FB7F894C82FDD2760E081E00E94D1
S1131F707401882321F0CFBF80E090E00CC0CFBF74
S1131F808F2D0E94750F812F99270E94750F802F26
S1131F900E94750F9927DF91CF911F910F91FF90A8
S1131FA00895BC018DE10E94AA0F992708958FB767
S1131FB0F89499272091AE048FBF85E0289FC00133
S1131FC01124825D9E4F9064BC0188E10E94AA0F97
S1131FD00895CF938FB7F894C82F8091F202682F99
S1131FE07727762F6627770F770F770F20E030E07B
S1131FF080910E03882331F080911C03882311F013
S113200021E030E084E0220F331F8A95E1F7622B50
S1132010732B626E726281E10E94AA0FCFBFCF91CF
S11320200895CF92DF92FF920F931F93CF93DF9384
S1132030CDB7DEB724970FB6F894DEBF0FBECDBF81
S11320408FB7F894282F3327FE01319680913603F9
S1132050909137038983892F992781838091BE04C6
S11320609091BF048B83892F99278C832FBF6F0195
S113207034E0F32E8FB7F894082F112760E081E045
S11320800E9474019927882311F00FBF16C00FBF57
S1132090082F112708591E4F802F80680E94750F42
S11320A016950795802F807C0E94750FF60181910B
S11320B06F010E94750FFA94C9F724960FB6F8942D
S11320C0DEBF0FBECDBFDF91CF911F910F91FF9067
S11320D0DF90CF900895CF938FB7F894282F3327AC
S11320E080915101882311F02FBF31C02FBF80B3DD
S11320F0992766E0969587956A95E1F7C82FC17090
S1132100809135039091A9018917E1F0C917D1F4A1
S113211084E090E090935301809352018FB7F89438
S1132120282F332781E0809351012FBF60E070E0B6
S11321308DE10E94AA0F0E941110C09AC09884E0F9
S11321400E941201C093350389E00E941201CF91CD
S11321500895882311F06F9A08956F9808951F9336
S113216010E0812F0E94A507BA9ABB98B99AB89A31
S11321706C9AC098812F0E94A910709A6B986A98E3
S1132180689881E00E94A5071F9108950F931F93FB
S1132190CF93DF93C82F8FB7F894082F11E0612FE6
S11321A0812F0E948C019927882391F5C0930901FE
S11321B00E94A401C82FDD27CC2311F08AE00FC0B0
S11321C00E94AE01882311F40E94AF1080914F0148
S11321D0882341F410934F0180932A048CE00E94D9
S11321E0120122C08091DA048F3FF1F4E0910701DB
S11321F0EE23D1F0809108018F3F19F41092080169
S113220004C0FF27E652FB4FC083109207010CC0A5
S113221081E090E002C0880F991FCA95E2F72091EF
S11322205001282B209350010FBF80E090E0DF91F4
S1132230CF911F910F9108958F929F92AF92BF9269
S1132240CF92DF92EF92FF920F931F93CF93DF937E
S11322508FB7F894C0902A03D0902B038090B101DB
S11322609090B201C091EA02D091EB02AE01465FB8
S11322705F4F20914004309141042417350708F042
S11322809A018FBF59010894A108B108CA15DB054A
S1132290E8F47E01E80CF91C8E010C0D1D1DC1141F
S11322A0D10419F0F801808101C080E00E94750F0B
S11322B08114910411F0F701808321960F5F1F4F61
S11322C00894E11CF11CCA15DB0548F381E00E9467
S11322D0A9108FB7F894982FC114D10431F0CC0E03
S11322E0DD1EF60180818FB901C01FB8D093EB02C7
S11322F0C093EA029FBF80E090E0DF91CF911F91ED
S11323000F91FF90EF90DF90CF90BF90AF909F9090
S11323108F900895CF93DF939C01EA018FB7F894CF
S1132320992730932B0320932A037093B20160936F
S1132330B10150934104409340041092EB02109277
S1132340EA028FBF452B31F08FB10E941C11482F38
S1132350552704C08BE00E941201AE01CA01DF912F
S1132360CF910895DF92EF92FF920F931F93CF9333
S1132370DF93182F7B01D42E00E08FB7F894C82F79
S1132380DD27602F81E00E947401882321F0CFBFF4
S113239080E090E017C0CFBF1064812F99279093FD
S11323A0E3038093E2038091E2030E94750F082FF8
S11323B08D2D9927AC01B70180E090E00E948A112D
S11323C0802F9927DF91CF911F910F91FF90EF906C
S11323D0DF900895C098809157019091580141E091
S11323E0BC018FE30E94B2110895FF920F931F93D3
S11323F0CF93DF930091160310911703F80181A581
S11324009927C82F882309F4CFE1C0988091B90493
S11324108C1741F08C2F9927806E9068BC0185E160
S11324200E94AA0FC093B904F801F080FA948FB700
S1132430F894C82FDD2760E081E00E9474018823AE
S113244011F0CFBF13C0CFBF8EE390E09093E303AE
S11324508093E2038091E2030E94750F8F2D9927E8
S1132460AC0160E070E0C8010E948A11DF91CF9155
S11324701F910F91FF900895AF92BF92CF92DF9278
S1132480EF92FF920F931F938C017B010E948000B7
S1132490DC01CB01802391238E0D9F1D5C01CC2494
S11324A0DD240E949F0ADC01CB0171E0E72E960136
S11324B08501AC01BD0180E00E9437018FB7F8941B
S11324C0282F332782E080931E032FBF1F910F9183
S11324D0FF90EF90DF90CF90BF90AF9008958FB7AB
S11324E0F894992710921E038FBF80912104E82F3E
S11324F0FF27EE0FFF1FEE0FFF1FE85BFC4F8081ED
S1132500829586958695837080FD0FC08181992779
S11325108130910551F0823091053CF4892B29F4E6
S11325200E9477088EE00E94120160E170E08FE063
S113253090E00E943C12809121040E94510968E3BA
S113254081E294E00E94860980912104883018F485
S113255081E00E94120108959927009719F00197CC
S113256019F0089580E301C084E00E946F12089579
S11325708FB7F894992710921F038FBF0895EF9295
S1132580FF920F931F93CF93DF93F82E8FB7F89496
S1132590082F1127E02E61E0862F0E948C01C82F9E
S11325A0DD27CC2321F00FBF85E090E026C08C2FDF
S11325B00E94A4018823C9F490914F01992341F406
S11325C082E080934F019093060180E090E002C086
S11325D081E090E09927C82F882311F40E94AF105E
S11325E08C2F9927C82F882319F4F092090102C06F
S11325F00E94B812EFBE8C2F9927DF91CF911F91C3
S11326000F91FF90EF90089582E090E09093F40290
S11326108093F30221E02093B70290E080910901B6
S1132620843009F4922F992329F484E00E94BF1284
S1132630882319F40E94EA11089584E00E94C610C8
S11326400895CF9383E00E94BF129927C82F88234F
S113265019F083E00E94C6108C2F9927CF9108951A
S1132660CF92DF92EF92FF920F931F93CF93DF935A
S1132670EA01D22E8A876E83872F99278F838FB79B
S1132680F894282F332780913603909137032FBF76
S11326908C83892F99272496898324978CE0D80EDC
S11326A041E0C42E6C2D83E00E948C01082F112779
S11326B0002309F084C080915A01982F8C0D8093D7
S11326C05A019B838FB7F894E82EFF2462E0862F8B
S11326D00E947401882321F4EFBE81E090E066C07B
S11326E08FB7F894282F332784E0809320032FBFDB
S11326F0D093D404C093D304EFBEFE01D192898158
S11327009927807290708983892F992781839927CB
S1132710982F882729813327822B932B81649868EB
S11327208983892F992781830E946A018887892F49
S113273099272896898328970DA70AA70BA71FA670
S11327400EA7C092B8044091D3045091D4048FB71B
S1132750F894282F3327622F80914D0190914E01D8
S11327608830910531F08A30910519F0893091054E
S113277011F46FBF19C0019711F02FBF15C082E08B
S113278090E090934E0180934D01C09228035093A2
S11327901703409316030093E1032FBF0E942113F4
S11327A0882311F40E94F51180E090E09927C82F46
S11327B0882311F00E9470088C2F992702C085E0AD
S11327C090E09927DF91CF911F910F91FF90EF90A7
S11327D0DF90CF900895AF92BF92CF92DF92EF92A5
S11327E0FF920F931F93CF93DF93B82E7B01A42EF8
S11327F081E08B1518F481E090E034C0CB2DDD2707
S1132800CC0FDD1FC455DE4FC880D980C114D1045C
S113281019F085E090E026C068837983642FC701AE
S11328200E943C04809100018230D8F0F701828537
S1132830082F1127C7010E946001B09200012A2DC0
S1132840A701BC01802F0E9430139927282F8823C9
S113285029F082E080930001C882D982822F9927CF
S113286001C0C601DF91CF911F910F91FF90EF90AE
S1132870DF90CF90BF90AF9008959F92AF92BF9298
S1132880CF92DF92EF92FF920F931F93CF93DF9338
S11328905B01942EC82FDD27FE01EC0FFD1FE455CC
S11328A0FE4F1082118280910001992701969C01AC
S11328B08E7F9370281B390B2093000160E0322F28
S11328C0432F5527FA01E40FF51FE455FE4F80818D
S11328D09181892B99F0832F869586958695E82F8B
S11328E0FF27E654FB4F80819927232F277002C0CE
S11328F0959587952A95E2F780FF0AC04F5F5F4F51
S1132900CA018E7F9370342F381B6F5F6230C0F220
S113291030930001623018F082E080930001E0916E
S11329200001E230F0F4FF27EE0FFF1FE455FE4FE5
S113293000811181F8018285C82EDD24C8010E941E
S113294060017C01C8010E945B019927282FA8011E
S1132950B7018C2D0E943013882319F081E10E9465
S11329601201209719F0219729F009C0492DB501CA
S113297080E303C0492DB50184E00E946F12DF910A
S1132980CF911F910F91FF90EF90DF90CF90BF9068
S1132990AF909F900895CF93982F8FB7F894282FD6
S11329A03327C22F809109018917A9F02FBF81E035
S11329B090E034C04093090181E090E002C0880FA8
S11329C0991F2A95E2F780955823509350018AE085
S11329D00E94120120C08FEF809309015091500191
S11329E05523A9F040E065E0E52FFF27842F0E94DE
S11329F0082C492F292F3327CF01022E02C0959589
S1132A0087950A94E2F780FDD5CF4F5FEFCF0E9400
S1132A10B8120E94B007CFBF80E090E0CF91089534
S1132A201F93CF93DF938FB7F894C82FDD271C2F04
S1132A308091F3029091F402892B29F484E00E949E
S1132A40CB14CFBF2BC01092B7022091D8042223FD
S1132A5041F080E090E0B79B02C081E090E0892BD8
S1132A6049F481B19927F6E096958795FA95E1F7AF
S1132A7080FD08C0222319F021502093D8040E941D
S1132A8004130BC081E090E09093F4028093F3026E
S1132A901092D80484E00E94CB141FBFDF91CF9121
S1132AA01F9108950E945708C09AC09888E00E9418
S1132AB0850F88E00E94850FC09A84E00E94CB14A1
S1132AC00E941015089583E00E94CB14992708955D
S1132AD083E00E94CB1480E090E008950F931F934D
S1132AE0CF93DF9301E08FB7F894C82FDD271C2F15
S1132AF080914D0190914E01099779F489E00E94EB
S1132B00850F83E00E94CB14C09A81E090E09093FB
S1132B104E0180934D01CFBF33C0C09880912803EC
S1132B20882311F085E001C084E00E94850F83FDB5
S1132B3005C080E00E94850F83FD03C083E090E020
S1132B4003C000E085E090E090934E0180934D0136
S1132B50C09A1FBF002341F01092E10383E00E945A
S1132B60CB140E94310F0CC00E942E08DC01CB0153
S1132B7020E431E040E050E0BC01CD010E94130F9D
S1132B80DF91CF911F910F910895EF92FF920F93D0
S1132B901F93CF93DF938B018091E2039091E30322
S1132BA02091E20386FF2BC12F7B822F99278E333E
S1132BB0910509F476C1CF9709F073C1C09157010B
S1132BC0D091580158815093AB018091F3029091B8
S1132BD0F4028330910509F451C08430910518F44E
S1132BE0029729F005C1049709F491C001C183E05B
S1132BF090E09093F4028093F302852F9927019635
S1132C004091B301242F332728173907A4F180E01A
S1132C1090E0B79B02C081E090E0892B69F481B118
S1132C20992706E0969587950A95E1F780FD04C0FB
S1132C30451B41504093B3012091AB012B32D8F492
S1132C40222391F0BE016F5F7F4F283018F047E0D8
S1132C5050E058C084E090E09093F4028093F30233
S1132C60822F9927AC014EC02093B702C09A84E00A
S1132C700E94CB14BAC00E94521513C184E090E0A4
S1132C809093F4028093F30280910E03882399F1C8
S1132C9080911C03882379F58A819927582F44272A
S1132CA089819927482B592B45FF25C08F81992766
S1132CB0382F22278E819927282B392B8091BE0407
S1132CC09091BF0428173907B1F447705070413010
S1132CD0510589F4C09AC0988AE00E94850FC09A71
S1132CE0C09828968091AB018750482FBE018FE38E
S1132CF00E94B211D6C028968091AB0187509927C3
S1132D00AC01BE0180E090E00E948A11CAC0C09A62
S1132D108091D804882319F484E00E94CB14809114
S1132D202904882319F18091AB018B3028F180911B
S1132D306803E82FFF27EE0FFF1FE552FB4F80814A
S1132D4091818FA7892F99278EA78091680399274E
S1132D5001969C01287F3170821B930B809368033A
S1132D608091290481508093290406C08FEF9FEF3E
S1132D708FA78FEF90E08EA78091AB01FE01E80F43
S1132D80F11D808187FF31C0012B79F16981677062
S1132D90E0915701F0915801623009F5A0911603B2
S1132DA0B091170380914D0190914E010797E9F47A
S1132DB0ED019B8183818917C1F487B78F7E87BF1B
S1132DC0908181E08DA7E90FF11D829131968AA748
S1132DD080818F778BA780E00E941B0806C061303A
S1132DE021F48DE00E9412015CC00E94101559C0AC
S1132DF01092B702C09A84E00E94CB1452C02E33C2
S1132E0009F04FC0C09A80914D0190914E010897EE
S1132E1079F4C09889E00E94850FC09A83E00E94EB
S1132E20CB1481E090E090934E0180934D0139C022
S1132E3080912803882349F484E090E090934E0124
S1132E4080934D010E946E152CC083E00E94CB1428
S1132E5080914D0190914E01089719F48AE090E019
S1132E6002C083E090E090934E0180934D010E9454
S1132E708000DC01CB0166E371E00E94142C0B9608
S1132E8090931403809313037C01002711270E945D
S1132E902E08DC01CB01A8019701BC01CD010E94E1
S1132EA0130FDF91CF911F910F91FF90EF90089531
S1132EB00F931F938FB7F894082F11276091B101D6
S1132EC07091B201E0912A03F0912B0380914004A8
S1132ED0909141041092B2011092B10110922B030F
S1132EE010922A0310924104109240041092EB02B3
S1132EF01092EA0220E0AC01CF010E94C5150FBF79
S1132F001F910F9108952091B001E22FFF27EE0F3A
S1132F10FF1FEE0FFF1FE85BFC4F828393838081CA
S1132F20807C826080838091D904883011F420935E
S1132F30D90461E080EB91E00E94860980E00E9460
S1132F40120108951F93CF93DF93182FEA01809104
S1132F50B901882319F484E090E034C0E091B00111
S1132F60E83071F12F3118F082E090E02BC0FF2798
S1132F70EE0FFF1FEE0FFF1FE85BFC4F80819927C8
S1132F808F7390700197E1F4622FCE010E94EB04DD
S1132F90612FCE010E94C3088091B001E82FFF2762
S1132FA0EE0FFF1FEE0FFF1FE85BFC4F80818F7B4E
S1132FB080831183CE010E94831780E090E002C0D9
S1132FC085E090E0DF91CF911F910895AF92BF9279
S1132FD0CF92DF92EF92FF920F931F93CF93DF93E1
S1132FE0CDB7DEB721970FB6F894DEBF0FBECDBFC5
S1132FF0E82E5B016A01F22E0E946A018C0160E0F6
S113300070E0C6010E942205FC010183812F9927EB
S1133010808360E070E0C6010E942205FC01A38267
S11330208B2D9927828384E0F80E6F2DC6010E94B0
S1133030EB04C6010E946B0499278430910519F0B2
S1133040C09731F011C0C6010E945B01282F0DC04A
S1133050BE016F5F7F4FC6010E94C503FC018081E2
S11330608F5F2981281B01C020E0215033278E2D3A
S113307099278931910569F08A3191051CF44797A4
S113308021F011C0C09749F00EC0A601B50181E03E
S113309007C0A601B50182E003C0A601B50180E026
S11330A00E94A21701C081E0992721960FB6F894D7
S11330B0DEBF0FBECDBFDF91CF911F910F91FF9067
S11330C0EF90DF90CF90BF90AF9008954F925F92B2
S11330D06F927F928F929F92AF92BF92CF92DF9224
S11330E0EF92FF920F931F93CF93DF93CDB7DEB789
S11330F024970FB6F894DEBF0FBECDBF2B013C0161
S1133100CC2488249924EBE5AE2EE1E0BE2EF50113
S1133110608561FF19C12081318142815381D301CE
S1133120C201821B930BA40BB50BE480F5800681CE
S113313017818E159F05A007B10708F405C160FF2C
S113314003C06D7F60870AC02E0D3F1D401F511FB5
S1133150D5012D933D934D935C931397B1E08B165A
S11331609104E9F0E2E08E16910424F481149104B0
S113317039F0EAC0F2E08F16910409F473C0E4C098
S11331808FB7F894992710921E038FBF8091210462
S1133190883008F0D9C081E00E941201D5C00E9495
S11331A07F0B49C080914204882309F44BC0E0900E
S11331B03803F0903903C7010E949408D82EE9829D
S11331C0FA828FEF8B831C82CE0101960E94CC027F
S11331D08C01892B69F180E090E028E0D21611F48B
S11331E081E090E0892B21F5F80163816031B8F426
S11331F0C7010E94D90BF80183818F5F83838D2DD2
S113320099270E947E088EE00E94120111C06D2D44
S113321084E00E94F309C7010E949408D82E80E03C
S113322090E0F8E0DF1611F481E090E0892B79F367
S113323080E00E9476028091F6029091F702892B39
S113324009F4B0CF80914204882309F47DC08091B1
S1133250F6029091F702AA27BB27BC01CD010E9478
S1133260B80B72C00E946A0100910C0110910D010B
S11332700197A1F561E0C8010E94C30860E070E015
S1133280C8010E942205DC0114961EE0E0E1F1E091
S1133290212F01900D922A95E1F780910C019091D4
S11332A00D01212FAC0160E070E087E10E94E61778
S11332B080910A0190910B010E941409EEE1F1E062
S11332C0DC01212F01900D922A95E1F780910A01EA
S11332D090910B01212FAC01B40133C061E0C8010E
S11332E00E94C30860E070E0C8010E942205DC016E
S11332F014962EE0ECE2F1E0322F01900D923A9513
S1133300E1F780910C0190910D01AC0163E070E054
S113331087E10E94E61780910A0190910B010E94B7
S1133320140920E1EAE3F1E0DC01322F01900D926F
S11333303A95E1F780910A0190910B01AC0163E0A9
S113334070E089E10E94E617C39489E090E0A80E3A
S1133350B91E0894811C911C92E09C1508F0D7CEEC
S113336083E00E94120124960FB6F894DEBF0FBECC
S1133370CDBFDF91CF911F910F91FF90EF90DF9020
S1133380CF90BF90AF909F908F907F906F905F9001
S11333904F900895CF93DF938091B901882309F466
S11333A043C09091B001983009F43EC020E030E071
S11333B080912004882311F421E030E0C22FDD271E
S11333C0CC2391F5A92FBB27AA0FBB1FAA0FBB1FA4
S11333D0A85BBC4F2C91822F99278F739070019713
S11333E019F520642C93CB010E948317909120043B
S11333F09923C1F08091B602E82FFF27EE0FFF1F3B
S1133400EC51FC4F208131811082118291509093B4
S113341020048F5F8093B602853011F4C093B60206
S1133420B90102C060E070E0CB01DF91CF91089553
S1133430FF920F931F93CF93DF93A0915701B09105
S113344058018091AB01FD01E80FF11D8081881FB7
S11334508827881FFD0184A78091AB01E80FF11D27
S113346031978081FD0182A78091AB01E80FF11DA6
S113347080818F77FD0183A7C0915701D0915801B6
S11334808E01055F1F4FF090AB0189859927582F56
S1133490442788859927482B592B8B819927A82F56
S11334A0782F8FEF8093D6048FB7F894682F20E09D
S11334B030E0EEE9F4E0808191818417950729F4E6
S11334C08281871749F02093D6042F5F3F4F3396AC
S11334D02430310584F302C06FBF3EC06FBF9091AA
S11334E0D60430E08FB7F894282F9F3F21F08091C5
S11334F04B01891719F490914B0131E0892F9927D9
S1133500FC01EE0FFF1FE80FF91FE256FB4F40834B
S11335105183A283332331F080914B018F5F8370F9
S113352080934B012FBFCE010E9483079A852F2DD4
S11335302C50892F99278430910519F0C09729F0D0
S11335400BC0A801BE0184E003C0A801BE0180E352
S11335500E94CA19BC0101C0BE0170935801609356
S113356057018FB7F89499271092B7028FBF0E9422
S11335701015DF91CF911F910F91FF9008958F92B5
S11335809F92AF92BF92CF92DF92EF92FF920F93EE
S11335901F93CF93DF93CDB7DEB76C018DB69EB684
S11335A0542FA0E0842F992702960DB71EB7081B4D
S11335B0190B0FB6F8941EBF0FBE0DBFEDB6FEB6C5
S11335C00894E11CF11C1FEFC1161FEFD10629F06E
S11335D0EDB7FEB7C182A1E05A0FFFEF2F3F3F07BF
S11335E029F0F701E50FF11D20835F5F442359F0B3
S11335F087010A0F111DD801FB0181818D93415070
S113360032964423D1F7C52ECA94F9F08701AA242F
S1133610BB24D52EDA94F8018181682F80810E9421
S11336209A05EC2DFF27EA19FB09EE0DFF1D829187
S11336303196682F80810E949A05DA940894A11C1F
S1133640B11C0F5F1F4FDD2031F70E946A01F82E75
S113365024E0F3E0F81708F442C080917B04882347
S1133660F1F58091BB04F81641F48091F00228171B
S113367021F480912B04882379F181E080937B04E9
S1133680F092BB042093F00210922B040E9489054F
S11336900F2D1127F801EF5CFC4F108283E08F158A
S11336A0B8F090911503943099F0D801AC5DBC4FFB
S11336B08C91843069F4E92FFF27E451FD4FF082A7
S11336C09C939F5F909315039150892F0E94EF0163
S11336D0085E1C4FF801F0828FE00E9412010FB6C1
S11336E0F8949EBE0FBE8DBEDF91CF911F910F91B6
S11336F0FF90EF90DF90CF90BF90AF909F908F900E
S113370008952F923F924F925F926F927F928F9281
S11337109F92AF92BF92CF92DF92EF92FF920F935C
S11337201F93CF93DF93CDB7DEB761970FB6F894AD
S1133730DEBF0FBECDBF888B4B0160E070E0C401DB
S11337400E942205FC0180819927582E44248181FE
S11337509927482A592A60E070E0C4010E94220592
S1133760FC0182819927382E222483819927282AD3
S1133770392A60E070E0C4010E94C5035C01BC0109
S113378081E00E9432079927182F882309F48FC1FA
S1133790B50181E00E9462073C01E12EFF240894F8
S11337A0E108F108F694E794E98ACC24DD24B60113
S11337B0C4010E942205FC0182819927182F002749
S11337C083819927082B192B0E946A01081719076E
S11337D019F451E0C52ED12C0C2D11270023A1F092
S11337E00E946A010894611C711C9C014E2DB30156
S11337F0C2010E94BF1A2889822F99270E947E083D
S11338008EE00E9412013AC28FE0A1E0B0E0AC0F5A
S1133810BD1F1D928A95E9F749825A820E946A0166
S11338204816590609F426C2D02EB9890B17C0F4DC
S11338307301F70181819927182F00278281992725
S1133840082B192B0E946A010817190709F412C2E0
S1133850D39422E030E0E20EF31E3989D31648F304
S11338600E946A01B3016F5F7F4F9C014989C201C5
S11338700E94BF1A8FEF9FEF33E0D32EE1E0F0E018
S1133880EC0FFD1F379681939193DA94D7FEFBCF0B
S113389080915601883009F07DC010E00091C00489
S11338A0A02FBB27AD01CA0157FD0796887FFA01F7
S11338B0E81BF90BCF0124E0EE0FFF1F2A95E1F777
S11338C0E81BF90BE759FC4F60E070E0208131817F
S11338D089819A812817390711F461E070E0672B18
S11338E029F41F5F4F5F5F4F1830E8F24091560193
S11338F0812F642F0E94082C941708F04BC0992341
S113390051F41196CD019D01287F3170821B930BD8
S11339108093C0043AC0692F9417B8F57FE0802FD4
S1133920890F912D911D9C01461B642FC90137FD00
S11339300796887FD901A81BB90BCD0104E0AA0F13
S1133940BB1F0A95E1F7A81BB90BA759BC4FA901E6
S11339504F5F5F4FCA0157FF02C0C9010896887FB5
S1133960FA01E81BF90BCF0114E0EE0FFF1F1A95C3
S1133970E1F7E81BF90BE759FC4F272F01900D9253
S11339802A95E1F761509A0189F680915601815098
S1133990809356018091C00440915601840F912D6B
S11339A0911D9C01887F9370281B390BC901E4E0A9
S11339B0220F331FEA95E1F7281B390B27593C4F97
S11339C08FE0D901E1E0F0E0EC0FFD1F01900D92D2
S11339D08A95E1F74F5F40935601DD24D3016C9142
S11339E0462F5527D9011396F90137968D918417DF
S11339F031F4808191818215930509F43BC1D394FC
S1133A00329683E08D1590F7F9018281482F55276E
S1133A10DA01A20FB31FFD016383440F551F420F48
S1133A20531FFA01278230868F5F8370F9018283E6
S1133A30B501C4010E944104B50181E00E9432072E
S1133A40182F1E5F40E0B50181E00E943106482F27
S1133A50D5018C91481718F086E090E007C00EE17C
S1133A60212FB50181E00E94AF069927892B09F027
S1133A7001C1B501C4010E945604B9890B2F112755
S1133A80000F111F060D171D0F5F1F4F0E946A01C3
S1133A90F801818301501040892F9927F80181830F
S1133AA0C4010E94EB02688980E30E94C70940E0D8
S1133AB0B50183E00E943106482F20E030E0D501B3
S1133AC08C91481710F021E030E0232B89F3B501E5
S1133AD080E60E9432079927182F882309F495C09D
S1133AE0B50180E60E9462076C01812F9927019736
S1133AF096958795182FD2019101482FF601808160
S1133B00682F7727FB01EF70F0701E1708F4B2C01E
S1133B10CB0154E0959587955A95E1F7877090709D
S1133B20882311F0AFEFBFEF660F672F661F770B87
S1133B307195672B39F0EE2329F0412F4E1B4F5F0F
S1133B402FEF3FEFC6010196BC01CD010E94BF1AC1
S1133B50C4010E948307882309F457C0D6013C910D
S1133B60832F8F70E82EFF24EE20A9F4B501C40141
S1133B700E9441044E2DB50180E60E9431060EE1FB
S1133B802E2D482FB50180E60E94AF06B501C40171
S1133B900E9456043AC09E2D9150892F8F70307F19
S1133BA0832BF6018083212F291B211798F4E22F00
S1133BB0FF27EE0FFF1FEC0DFD1D81819927782F44
S1133BC0662782819927682B792B6215730509F47E
S1133BD051C001C0B101C4010E94F203D401119685
S1133BE0FD0181819927982F8827F40121813327AA
S1133BF0822B932B80628183892F9927FD018183F6
S1133C00688980E30E94C70939C0EE24FF24B70104
S1133C10C4010E942205FC0182819927182F0027E4
S1133C2083819927082B192B0E946A010817190709
S1133C3019F441E0E42EF12CEF28E1F0F889F83092
S1133C40E8F4EF2FFF27EE0FFF1FEE0FFF1FE85BD7
S1133C50FC4F808199278F739070049779F4828147
S1133C6093810E946B04803349F460E188890E9447
S1133C70A50904C0688980E30E94F30961960FB620
S1133C80F894DEBF0FBECDBFDF91CF911F910F918E
S1133C90FF90EF90DF90CF90BF90AF909F908F9068
S1133CA07F906F905F904F903F902F9008952F9248
S1133CB03F924F925F926F927F928F929F92AF92B8
S1133CC0BF92CF92DF92EF92FF920F931F93CF9305
S1133CD0DF93CDB7DEB7E8970FB6F894DEBF0FBE1B
S1133CE0CDBF9927AA27BB27FC01429708F0A6C697
S1133CF0EA5BFF4FEE0FFF1F0590F491E02D09944E
S1133D008091B901882309F499C6F090D90428E078
S1133D10F21609F493C6EF2DFF27EE0FFF1FEE0FE7
S1133D20FF1FE85BFC4F2081822F99278F739070CF
S1133D30029709F068C002811381922F907C9460ED
S1133D4090838091F502883011F4F092F502892F66
S1133D50829586958695837080FD37C0C8010E9440
S1133D606F04282F33272430310521F02033310507
S1133D7041F146C00E9483094C01C8010E944D05CF
S1133D806C01E82EFF24C7010E9459028823D9F54B
S1133D908C2D0E940303B82E882369F4C7010E9466
S1133DA053028C0104541B4FC7010E944802D801DE
S1133DB09C91982B9C934B2D6C2D882D0E94EE0D7D
S1133DC022C08F2D0E94ED091EC0C8010E94230944
S1133DD0F090D904882321F0C8010E946F0403C025
S1133DE0C8010E946F04282F33272430310559F06D
S1133DF02033310529F4B8018F2D0E94811B03C0A3
S1133E006F2D0E94F30962E089ED94E00E94860917
S1133E108091D904883008F011C60E946B080EC640
S1133E208091B901882309F409C68091210488305E
S1133E3009F404C6E82FFF27EE0FFF1FEE0FFF1F44
S1133E40E85BFC4F8081992788739070892B09F473
S1133E50D5C0E280F380BE016D5C7F4FC7010E9434
S1133E6022056C0180912104E82FFF27EE0FFF1F2C
S1133E70EE0FFF1FE85BFC4F808199278F739070D2
S1133E808031910509F484C0813191051CF40897AF
S1133E9039F0B4C0809709F0B1C0C7010E9431095C
S1133EA061E080E00E948C01813009F4C7C5C7013C
S1133EB00E946F04182FC7010E9460015C01012F4A
S1133EC011270430110521F00033110531F00AC027
S1133ED0B70184E00E94270906C0B70180E30E946D
S1133EE0270901C080E0C82EDD240430110521F02B
S1133EF00033110569F01AC0B501C7010E94F2032D
S1133F0064E0C7010E94E8024C2DB70181E00BC0B8
S1133F10B501C7010E94F20360E3C7010E94E802F1
S1133F204C2DB70180E00E94EB1301C081E099277A
S1133F308230910511F18330910534F4009709F42E
S1133F407DC5019769F05AC08530910581F08630AE
S1133F5091051CF4049759F051C0069709F04EC01E
S1133F608FB7F894992710921E038FBF47C08FB75D
S1133F70F894992710921E03B5C18FB7F894992726
S1133F8010921E038FBF6EE1C7010E94EB0441C073
S1133F90C7010E94230900912104882311F11127EC
S1133FA0000F111F000F111F065B1C4FC7010E9459
S1133FB031092BA999278731910519F0499729F0DF
S1133FC00BC0A601B70187E103C0A601B70189E1CF
S1133FD00E942E0EBC0101C0B701F80160837183F9
S1133FE00DC01127000F111F000F111F085B1C4F7C
S1133FF0C7010E943109F801E282F3828091210411
S11340000E9451090E94990A80912104883008F085
S113401015C50E94660812C500917601002339F582
S11340208FB7F894282F3327C0902404D090250408
S1134030E0902604F0902704809176049091770410
S1134040A0917804B0917904C80ED91EEA1EFB1E13
S11340502FBF8091AA049091AB04A091AC04B091BD
S1134060AD049C01AD01C701B6010E94470B0E943B
S1134070780BDC01CB01BC01CD0143C00E94780B5D
S11340806B017C017FEF872E7FEF972E7FEFA72EAA
S11340907FE7B72E70E08FB7F894992770934304A5
S11340A08FBFEBE5F1E062E0808581FF1CC0808179
S11340B09181A281B381A7019601281B390B4A0B78
S11340C05B0BDA01C9012481358146815781281BA4
S11340D0390B4A0B5B0B281539054A055B051CF4A3
S11340E049015A0171E06150399667FFDDCF7723AA
S11340F009F4A4C4181419041A041B042CF0C701ED
S1134100B6010E9466189AC401E0A5019401C70192
S1134110B6010E94470B92C48FB7F894082F112759
S11341200E94700F61E0E62EF12CF0924E01E092B5
S11341304D0110924C01109255011092B9040FBF19
S11341408FB7F894082F11270E945708F092F402B1
S1134150E092F3021092B70289B78F7B89BF80E4A3
S113416088BF8AB780628ABF8AB78F7E8ABF89B7C1
S1134170806489BF0FBF8FB7F894082F11278091EF
S1134180520190915301049711F40E94A50F0FBF9F
S11341908FB7F894082F1127C09A80E00E94CB149F
S11341A00FBF8FB7F894282F332782E08093200322
S11341B02FBF81E08093B9018091D904883010F435
S11341C00E946B0880912104883010F40E946608D4
S11341D00E946308019709F031C460E074E080E054
S11341E090E00E94F10D2AC48FB7F8949927109299
S11341F0200378C08FB7F8949927F09054018FBFAB
S113420083E00E948601882361F18FB7F894082F18
S1134210112710924E0110924D0187B78F7E87BFF0
S113422087B78F7D87BF0E946315C09A0FBF8FB772
S1134230F894082F11271092F4021092F3020E94AE
S11342405708C09A89B78F7B89BF0FBF109253015B
S113425010925201DE98DD98DE9A85E00E941201E8
S113426008C08FB7F894282F332782E08093200367
S11342702FBF0091D3041091D4040E947008809140
S11342800001823008F0DAC3E82FFF27EE0FFF1F8A
S1134290E455FE4F608171816017710709F0CEC348
S11342A04F2DCAC38FB7F894282F3327122F80912C
S11342B0F102882309F0D0C021E02093F10280911B
S11342C0520190915301049721F4822F0E94C61049
S11342D002C00E9452081FBFB1C38FB7F894992738
S11342E01092F1028FBFAAC30E946B10A7C38FB7AD
S11342F0F8949927209109018FBF33272230310583
S113430009F462C02330310544F42115310571F0FC
S11343102130310509F443C091C32330310509F438
S11343206EC02430310509F49CC088C3C0988FB78F
S1134330F894E82EFF248091520190915301029742
S113434061F583E090E0909353018093520188E1FA
S113435090E00E94D10F11E01093A9011092510135
S113436080B3992756E0969587955A95E1F781236E
S1134370809335030E944D08812F0E94850F6FE7BB
S113438072E08CE10E94AA0F0E94D70F0E94E90FED
S113439066E57AE287E10E94AA0FEFBE4FC3C09898
S11343A086E00E94850F0E94D70F0E94E90F0E94A9
S11343B01110C09AC0980E94A50FC09A81E00E9473
S11343C0CB140E9452083AC3C0988FB7F894E82ED1
S11343D0FF240E94BD01182F882311F0EFBE0AC0EC
S11343E0EFBE83E50E94810F812F0E94810F812FF0
S11343F00E94810FC09A82E00E94CB141FC38FB722
S1134400F894992720914D018FBF3327243031052B
S113441081F02530310524F42230310539F01EC0F5
S11344202850304023303105C8F406C00E94F511ED
S113443005C30E946E1502C3C0980E94A00FC09AC3
S11344400E9468158FB7F894282F332781E090E0F5
S113445090934E0180934D012FBFF0C20E946815C6
S1134460EDC20E94EA11EAC20E945817E7C28FB750
S1134470F894282F332780912A048093060182E040
S113448080934F012FBF80910601882309F0D6C283
S11344900E94AB07D3C20E94181AD0C260E070E039
S11344A081E090E08C0F9D1F0E94D7031C0185E0E2
S11344B00E94B801882309F4C1C284E00E94A404C4
S11344C0182F80E30E94A404682F812F0E942404E3
S11344D0F6C0A72CBB24C5010E940604FC01E75AC0
S11344E0FE4F8081082F1127C5010E94FB0308237A
S11344F019230115110511F001E010E0012B09F455
S1134500D1C0672D80E30E94C3044C017C01009755
S113451009F4A5C060E070E00E94D7032C010E945A
S11345204A07182F882309F446C0C4010E945B057A
S1134530882309F440C0C2010E9479078EAB9FAB67
S1134540E12EFF240894E108F108F694E794E8AE1C
S1134550C4010E947B058CAB9DABA10161E070E0BE
S11345606C0F7D1F872D0E94270A813009F497C0A4
S1134570B10181E090E08C0F9D1F0E94410438AD91
S1134580C32EDD24CC0CDD1C8C2D8F5F4EE1682FF7
S1134590C1010E94A706682E882369F4B10181E055
S11345A090E08C0F9D1F0E945604C1010E947E075B
S11345B08C01009721F4872D0E94210A70C021E00C
S11345C0422F60E070E00E942803262D43E061E062
S11345D070E0C8010E9428032E2D44E064E070E0DE
S11345E0C8010E94280348AD6416E0F44E2D6EA95C
S11345F07FA96C0D7D1D61507040D801FB01808145
S11346009927982F882721813327822B932BFD010B
S11346108283892F9927818341501296625070407A
S1134620442361F7F8ADFF2359F0F80181819927FC
S1134630982F882722813327822B932BBC0102C019
S11346406CA97DA981E090E08C0F9D1F0E94F80366
S113465081E090E08C0F9D1F0E94DA034BC0872DF0
S11346600E94E6044C010097D1F00E944D058C0194
S11346702FEF3FEF2CAB3DABB701C4010E94D70332
S11346802C019801A10161E070E06C0F7D1F872D62
S11346900E94520A813071F5872D0E94930AC50148
S11346A00E940C04672D84E00E947304182F672D68
S11346B080E30E947304682F812F0E942404782EC3
S11346C040E050E038E0831711F441E050E020E08E
S11346D030E088E0781611F421E030E080E090E0EA
S11346E0442321F0222311F081E090E0892B09F486
S11346F0F0CEA4C161E085E00E948C01813009F410
S11347009DC182E3E8EBF2E0A1E0B0E0AC0FBD1F95
S11347100D9001928A95E1F7809101019091020137
S113472020E0AC016CA97DA980E30E94E6179927DB
S113473082309105A1F0833091051CF4892B39F066
S11347401FC08430910541F0059731F019C0872DC1
S113475099270E940C0414C00E9477086FC10E941C
S11347607708872D99270E940C04672D84E00E9406
S1134770F309672D80E30E94F3090E9456015EC18C
S1134780C4010E943804803309F058C1C2010E9458
S11347904A07882309F452C1C4010E945B05882397
S11347A009F44CC1B201C4010E9441044EE1B201BA
S11347B081E00E940107B201C4010E945604B401C1
S11347C0872D0E94811B3AC180E090E0209115035F
S11347D0222311F481E090E0082F11270023A1F196
S11347E010927B048091F002843009F027C1B090CC
S11347F0BB04CC24EE24FF24C7010E945902882361
S1134800D1F08C2D0E940303D82E8823A1F0C70178
S11348100E9453028C0104541B4FC7010E9448029A
S1134820982F9095F8018081892380834D2D6C2DDC
S11348308B2D0E942F0CC3940894E11CF11CF4E00E
S1134840EF16F104C8F2FAC0822F81508093150349
S1134850682F802F0E94D601402FE090150351E06D
S1134860F52EFE1408F047C0AF2DBB279D012F5F26
S11348703F4F8E2D992728173907C4F4FD01E351C2
S1134880FD4F2081A451BD4F8C91E82FFF27EF5C91
S1134890FC4F80819927E22FFF27EF5CFC4F20819A
S11348A0821B9109181619060CF4F394E42FFF27C0
S11348B0E451FD4F20810F2D1127F801E451FD4FE4
S11348C08081E82FFF27EF5CFC4F80819927E22F3E
S11348D0FF27EF5CFC4F2081821B910918161906F3
S11348E054F06F2D842F0E94D6014F2D000F111FFD
S11348F0F02EF394B6CF80911503E82FFF27E451EF
S1134900FD4F8081282F3327F901EC5DFC4F84E0B3
S11349108083B22EC22EDD24D601AB54BE4FF601E5
S1134920E85EFC4F80818C938091F002281731F46B
S113493010921D030E94D3010E94C301F601EC549E
S1134940FB4F20813EC0022F1127F801E00FF11F19
S1134950E45DFB4F8081282F3327F601EF5CFC4F89
S113496090819F5FA22FBB2738E1E32E33E0F32E23
S1134970EA0EFB1EF7018081843049F4AF5CBC4F22
S11349809C93822F0E942002D701BC9214C0FD0187
S1134990EB54FE4F8081843071F4FD01EF5CFC4FD9
S11349A08081981740F49083AC5DBC4F8C910E9439
S11349B0EF01F701B082000F111F045D1B4FF801D6
S11349C0218180E090E0283011F481E090E0892B8F
S11349D009F4B9CF0E94C30131C08091BA0488237D
S11349E069F101E010E09091BA04892F8023A1F0CD
S11349F0E12FFF27EE0FFF1FE455FE4F2081318189
S1134A0010821182802F809598239093BA0443E0FA
S1134A10B901812F0E94AC12000F1F5F183018F3E8
S1134A200DC080910001E82FFF27EE0FFF1FE45512
S1134A30FE4F41E0608171810E943D14E8960FB6FB
S1134A40F894DEBF0FBECDBFDF91CF911F910F91C0
S1134A50FF90EF90DF90CF90BF90AF909F908F909A
S1134A607F906F905F904F903F902F90089580912A
S1134A70BD048F3FD1F09091BD048091BD04E82F17
S1134A80FF27EF53FB4F80818093BD048091BD04C9
S1134A908F3F11F48093D504892F9927FC01EF539C
S1134AA0FB4F2FEF20839C0102C02FEF30E02F3FFC
S1134AB019F480E090E00895822F0E94571E81E04F
S1134AC090E00895CFEFD0E1DEBFCDBF8FB7F8946B
S1134AD0182F42E150E06FEF70E081EC94E00E9407
S1134AE0F82B8FEF8093BD048093D50481E08EBDB5
S1134AF088E080BF83E083BF2CB53DB54AE78CB521
S1134B009DB58217930708F441509C014423B9F7DB
S1134B1092B782B78917E9F32CB53DB592B782B73E
S1134B208917E9F38CB59DB5821B930B409655E02C
S1134B30969587955A95E1F79093230480932204E0
S1134B4013BE83B78EBD8EB580BF12BE1DBC1CBC08
S1134B508FEF86BF86B780937C0080B7282F3327DA
S1134B602770307021153105C1F7D29AD19AD09AA5
S1134B70DA9AD99AD89A25BB8FEF84BBD498DC985B
S1134B803DBD2CBD87B7846087BF8EB5887F8460A8
S1134B908EBD80E285BF0E943725C82FDD27CC2338
S1134BA0D1F7C0934204C0937A04C093B401C09374
S1134BB0C004C09356010E94C801C0937B0484E0E2
S1134BC08093BB0481E080932B040E948905C093E9
S1134BD03003C0932D0398E0E4EBF4E083E0919379
S1134BE0815087FFFCCF8FEF9FEFEEE9F4E08083E5
S1134BF091831282339624E0E73AF207C1F3BCF3BF
S1134C000E948000DC01CB0180935A0184E494E08B
S1134C1090935801809357018E98B89A8C988FEF8F
S1134C208093DA04B89AD69AD59A0E946A0190932E
S1134C30BF048093BE0480910301992790933703A6
S1134C40809336038FE1809329038AE18093AE0435
S1134C5081E080930E0310921C038093F20280B7CC
S1134C60886080BF8BE083BF86EE81BF87B7826098
S1134C7087BF0E94C50A80910E0190910F01019691
S1134C80AA27BB2780930A0390930B03A0930C03DA
S1134C90B0930D03EEE1F3E0119283E0E332F80701
S1134CA0D9F3D0F3E4EEF3E08AEB91E081939193AE
S1134CB0C29623E0EC3EF207C9F3C4F385E0809387
S1134CC020041092B602E8E4F3E097E08081807C4F
S1134CD0816080839150349697FFF8CF98E01092CA
S1134CE0B0019093D9049093F5029093210410920B
S1134CF0B9010E943725C82FDD27CC23D1F71FBF68
S1134D007894C09330030E948000DC01CB0180932F
S1134D102C03C093590161E082E00E948C01882336
S1134D2009F58FB7F894282F332780915201909179
S1134D305301892B11F02FBF1FC081E090E09093A5
S1134D405301809352012FBFDD9A0E942E08DC018B
S1134D50CB0124E130E040E050E0BC01CD010E94F1
S1134D60130F0AC062E0862F0E947401882321F485
S1134D7061E082E00E9474018FB7F894682F5EC0EE
S1134D8087B79927887B892B41F480917D00282F50
S1134D9033272B7F2115310519F080E090E021C0E5
S1134DA08DB1992746E0969587954A95E1F7AC0130
S1134DB04170507080FF02C0C90113C08AB1909144
S1134DC09A00892B807C21F48091740082FF02C0B8
S1134DD0CA0107C0379B03C081E090E002C085E0B0
S1134DE090E0282F87B7992783709070892BA1F0C2
S1134DF080B7992787709070892BD1F781B792B7C4
S1134E00891B8C3018F082B7853F18F082E090E05F
S1134E1005C083E090E002C085E090E0E82F281709
S1134E2008F4E22F85B7837EFF27E055FF4F949166
S1134E30892B806285BF78948895F8948091BD040D
S1134E408F3FC9F09091BD048091BD04E82FFF27E6
S1134E50EF53FB4F80818093BD048091BD048F3F4D
S1134E6011F48093D504892F9927FC01EF53FB4F4C
S1134E702FEF208302C08FEF90E08F3F09F480CFA3
S1134E806FBF0E94571E78CF1F920F920FB60F92DA
S1134E9011242F933F934F935F936F937F938F933B
S1134EA09F93AF93BF93EF93FF9383B783BF00B6F2
S1134EB000FCFDCF81B7992701969C014427552713
S1134EC080913C0490913D04A0913E04B0913F0434
S1134ED0820F931FA41FB51F80933C0490933D043D
S1134EE0A0933E04B0933F0478940E94C50AFF91B6
S1134EF0EF91BF91AF919F918F917F916F915F914E
S1134F004F913F912F910F900FBE0F901F901895C6
S1134F101F920F920FB60F9211248F9383B783BF02
S1134F2000B600FCFDCF8F910F900FBE0F901F9025
S1134F30189578941F920F920FB60F9211242F9305
S1134F403F934F935F936F937F938F939F93AF930D
S1134F50BF93CF93EF93FF9387B78F7E87BF7894E8
S1134F608FB7F894C82F8091AF049091B004A091AA
S1134F70B104B091B2040097A105B10509F069C06C
S1134F8080914D0190914E018530910509F443C003
S1134F908630910530F48330910579F0049791F1CE
S1134FA046C08930910571F18A30910518F407974C
S1134FB081F13DC00A9701F13AC080B3992766E0B8
S1134FC0969587956A95E1F780FF13C084E090E099
S1134FD090934E0180934D010E942E08DC01CB0179
S1134FE027E030E040E050E0BC01CD010E94130F07
S1134FF01EC00E94310F1BC089E090E090934E01C7
S113500080934D010E942113882389F40E946E1518
S11350100EC080E00AC089E00E94850F81E00E94F2
S11350205D0F83E00E94CB1487E00E941B088091EF
S1135030520190915301019771F482E090E09093B2
S1135040530180935201DE98DE9A80E00E94C610DC
S113505002C00E94650ECFBFFF91EF91CF91BF9127
S1135060AF919F918F917F916F915F914F913F91FC
S11350702F910F900FBE0F901F90189578941F9248
S11350800F920FB60F9211240F900FBE0F901F9026
S1135090189578941F920F920FB60F9211240F90C7
S11350A00FBE0F901F90189578941F920F920FB611
S11350B00F9211240F931F932F933F934F935F935A
S11350C06F937F938F939F93AF93BF93CF93DF930C
S11350D0EF93FF93CCB5DDB580E286BF8FB7F8942C
S11350E0082F80914D0190914E018530910519F062
S11350F0069799F15DC086E090E090934E0180930D
S11351004D0111E01093280480E00E945D0FE091AE
S11351101603F0911703818185FF02C01093550196
S113512083E00E94CB1487B78F7E87BFE09116037C
S1135130F09117038181992787709070019721F46A
S1135140C7A78D2F992786A780B39927F4E0969552
S11351508795FA95E1F780FD73C01092280481E0E9
S11351600E945D0FE0911603F0911703818185FF82
S113517013C087E090E090934E0180934D010E940C
S11351802E08DC01CB0120E031E040E050E0BC011E
S1135190CD010E94130F03C080E00E941B0880B35E
S11351A09927E4E096958795EA95E1F780FF48C052
S11351B090914C01992371F581E080932804892F03
S11351C00E945D0F409129044830A0F48091680347
S11351D0840F912D911D9C01887F9370281BE22FD1
S11351E0FF27EE0FFF1FE552FB4FC083D1834F5FB4
S11351F04093290481E080934C01D0939D04C09393
S11352009C0480B3992774E0969587957A95E1F785
S113521080FD16C01092280481E00E945D0F109258
S11352204C0180919C0490919D04C81BD90B2A9732
S113523038F480912904882319F08150809329043B
S11352400FBFFF91EF91DF91CF91BF91AF919F91EC
S11352508F917F916F915F914F913F912F911F910A
S11352600F910F900FBE0F901F90189578941F9276
S11352700F920FB60F9211242F933F938F939F9306
S11352808FB7F894282F33278091B4029091B502F8
S113529001969093B5028093B4022FBF9F918F9192
S11352A03F912F910F900FBE0F901F9018951F9252
S11352B00F920FB60F9211240F900FBE0F901F90F4
S11352C018951F920F920FB60F9211240F900FBED4
S11352D00F901F9018951F920F920FB60F921124E2
S11352E00F900FBE0F901F9018951F920F920FB63C
S11352F00F9211240F900FBE0F901F9018951F92BC
S11353000F920FB60F9211240F900FBE0F901F90A3
S113531018951F920F920FB60F9211240F900FBE83
S11353200F901F9018951F920F920FB60F92112491
S11353302F933F934F935F936F937F938F939F9399
S1135340AF93BF93EF93FF938091F3029091F40294
S1135350019719F40E94041305C08091D8048F5F4B
S11353608093D804FF91EF91BF91AF919F918F915A
S11353707F916F915F914F913F912F910F900FBE4D
S11353800F901F9018951F920F920FB60F92112431
S11353900F900FBE0F901F9018951F920F920FB68B
S11353A00F9211242F933F934F935F936F937F93A7
S11353B08F939F93AF93BF93EF93FF938FB1282F56
S11353C03327E091B101F091B201309739F0809127
S11353D0EA029091EB02E80FF91F20838091EA0220
S11353E09091EB0201969093EB028093EA0280E0A5
S11353F00E94A9108091EA029091EB02409140042E
S1135400509141048417950718F40E941C111EC082
S11354108091B1019091B201E0912A03F0912B03A4
S11354201092B2011092B10110922B0310922A0330
S113543010924104109240041092EB021092EA027E
S11354402FB120E0BC01CF010E94C515FF91EF915F
S1135450BF91AF919F918F917F916F915F914F9188
S11354603F912F910F900FBE0F901F901895A0E3BE
S1135470B0E0EDE3FAE20C94472C222E332E442EB6
S1135480552E662E772E882E992E2A2D3B2DA8E098
S1135490FE013196AA2E1192AA94E9F729823A8242
S11354A04B825C826D827E828F829886FE01399661
S11354B0BA2E1192BA94E9F729873A87CB86DC860B
S11354C0ED86FE860F87188BFE0171961192AA95C0
S11354D0E9F7C980DA80EB80FC80C9A6DAA6EBA6DE
S11354E0FCA6870176018FEF9FEFA0E0B0E0E822F1
S11354F0F9220A231B23A9A4BAA4CBA4DCA4160171
S11355004424552489859A85AB85BC858DA79EA79F
S1135510AFA7B8AB5C016D018FEF9FEFA0E0B0E0E7
S1135520A822B922CA22DB228DA59EA5AFA5B8A9BF
S11355303D0188249924C801B701A60195010E9460
S1135540282C69A37AA38BA39CA3C801B701A40147
S113555093010E94282C6DA37EA38FA398A7C20158
S1135560B101A60195010E94282C7B018C01C20186
S1135570B101A40193010E94282C9B01AC01A9A0B4
S1135580BAA0CBA0DCA0C601AA27BB27ADA0BEA0B1
S1135590CFA0D8A4A80EB91ECA1EDB1EAE0CBF1C19
S11355A0C01ED11EADA2BEA2CFA2D8A6AE14BF0407
S11355B0C006D10620F4205030404F4F5F4FCDA09D
S11355C0DEA0EFA0F8A4C701AA27BB27820F931F70
S11355D0A41FB51F8D8F9E8FAF8FB8A3A60133274D
S11355E0222789A19AA1ABA1BCA1A070B070280FF9
S11355F0391F4A1F5B1F298F3A8F4B8F5C8FA98CF1
S1135600BA8CCB8CDC8CED8CFE8C0F8D18A1ED8AC2
S1135610FE8A0F8B188F2D853E854F85588969A585
S11356207AA58BA59CA50E94282C3B014C018D8159
S11356309E81AF81B885BC01CD012DA53EA54FA5A6
S113564058A90E94282CDC01CB01680E791E8A1E01
S11356509B1E8D899E89AF89B88D860D971DA81DC7
S1135660B91D8D8B9E8BAF8BB88F6D897E898F8989
S1135670988D2A2D3B2D4C2D5D2DE2E1E0960C9466
S1135680632C8F929F92AF92BF92CF92DF92EF9250
S1135690FF920F93CF93DF93CDB7DEB768970FB622
S11356A0F894DEBF0FBECDBFE82E002349F4298B4A
S11356B03A8B4B8B5C8B6D8B7E8B8F8B988F6CC0F6
S11356C088E0FE01319611928A95E9F729833A839D
S11356D04B835C836D837E83EF82988740E2401B1B
S11356E014160CF041C08D819E81AF81B8856C0188
S11356F07D0104C0CC0CDD1CEE1CFF1C4A95D2F7C6
S1135700202F332727FD3095022E04C0B695A79588
S1135710979587950A94D2F78D879E87AF87B88B24
S113572089819A81AB81BC8104C0B695A795979570
S113573087952A95D2F78C299D29AE29BF29898777
S11357409A87AB87BC8729853A854B855C856D85AF
S11357507E858F859889298B3A8B4B8B5C8B6D8BDF
S11357607E8B8F8B988F18C01D861E861F86188A85
S1135770842F992787FD909522273327281B390BDF
S11357808D819E81AF81B88504C0B695A795979504
S113579087952A95D2F7D3CF29893A894B895C8991
S11357A06D897E898F89988D68960FB6F894DEBFCF
S11357B00FBECDBFDF91CF910F91FF90EF90DF909F
S11357C0CF90BF90AF909F908F90089568177907FE
S11357D068F4FB01DC01E40FF51FA40FB51F02C040
S11357E002900E9241505040D8F708950C94FF2B2C
S11357F0DC0101C06D9341505040E0F70895FB0176
S1135800DC0102C001900D9241505040D8F7089538
S1135810991B79E004C0991F961708F0961B881FFE
S11358207A95C9F780950895AA1BBB1B51E107C05F
S1135830AA1FBB1FA617B70710F0A61BB70B881F1C
S1135840991F5A95A9F780959095BC01CD010895AB
S1135850629FD001739FF001829FE00DF11D649F50
S1135860E00DF11D929FF00D839FF00D749FF00DDC
S1135870659FF00D9927729FB00DE11DF91F639F7D
S1135880B00DE11DF91FBD01CF01112408952F9220
S11358903F924F925F926F927F928F929F92AF92BC
S11358A0BF92CF92DF92EF92FF920F931F93CF9309
S11358B0DF93CDB7DEB7CA1BDB0B0FB6F894DEBFA0
S11358C00FBECDBF09942A88398848885F846E84C6
S11358D07D848C849B84AA84B984C884DF80EE8010
S11358E0FD800C811B81AA81B981CE0FD11D0FB619
S10F58F0F894DEBF0FBECDBFED0108959B
S11358FC02B802220100FFFFFFFFEE037701010053
S113590C48656C6C6F206D6F7465203021004865A0
S113591C6C6C6F206D6F74652032210048656C6C63
S113592C6F206D6F746520332100476F6F6462794B
S10D593C65206D6F746520332100AF
S9030000FC
