S01800006275696C642F6D6963617A2F6D61696E2E73726563E5
S11300000C9449000C943E180C9448180C94521803
S11300100C945C180C9466180C9470180C947A1850
S11300200C94AA180C9466000C9466000C943B176C
S11300300C9480160C9425170C941D180C942B16F4
S11300400C946F160C94B4180C9466000C9466000F
S11300500C9466000C9466000C9466000C94660084
S11300600C9430170C9466000C9466000C94660093
S11300700C9466000C9466000C9466000C94660064
S11300800C9466000C9466000C94660000081C181E
S1130090141011241FBECFEFD0E1DEBFCDBF11E09D
S11300A0A0E0B1E0E4E9F6E300E00BBF02C0079092
S11300B00D92A232B107D9F713E0A2E2B1E001C078
S11300C01D92A534B107E1F70C9479140C94000047
S11300D08FB7F894992708958FBF08958FB7F89430
S11300E0992720910201309103018FBFC90108951E
S11300F02F923F924F925F926F927F928F929F9234
S1130100AF92BF92CF92DF92EF92FF920F931F9321
S1130110CF93DF93CDB7DEB72A970FB6F894DEBF3F
S11301200FBECDBF8FB7F894282F332729873A877E
S113013020904702309048024090490250904A0271
S113014066242EE4A22E93E8B92EC62CD62CE62CD7
S1130150F62C062D162D222D332D442D552D662DCE
S1130160762D862D962D0E941E1929833A834B8362
S11301705C836D837E838F839887822E932EA42E37
S1130180B52EC62ED72EE82EF92E240135017694ED
S113019067945794479400E2282D392D4A2D5B2DFE
S11301A06C2D7D2D8E2D9F2D0E94281AA22EB32EEC
S11301B0C42ED52EC601B501640D751D861D971D6F
S11301C097FF05C09F776F5F7F4F8F4F9F4F60935F
S11301D04702709348028093490290934A023985FA
S11301E03FBF2A960FB6F894DEBF0FBECDBFDF9196
S11301F0CF911F910F91FF90EF90DF90CF90BF9020
S1130200AF909F908F907F906F905F904F903F90B2
S11302102F900895982F8FB7F894282FE92FFF2750
S1130220EA5FFC4F80818F3FB1F4809130038917DE
S113023091F0809103038F3F19F49093030307C057
S113024080913003E82FFF27EA5FFC4F908390935F
S1130250300380E001C085E02FBF99270895EF9215
S11302600F931F93AE2D99E0899FF0011124E05D57
S1130270FE4F4083518362837383048315832683F3
S11302803783A17080858E7F8A2B8260808783E08C
S11302900E940A011F910F91EF900895FC01808143
S11302A08C5099270895FC0187819927382F22279C
S11302B086819927822B932B0895982F8FB7F894D2
S11302C0482F552730E0E92FFF27EB5AFD4F808157
S11302D0861709F431E04FBF832F99270895282FFB
S11302E091E08FB7F894382F662339F0E22FFF2777
S11302F0EB5AFD4F8081882331F4E22FFF27EB5A1C
S1130300FD4F608390E03FBF892F99270895909116
S11303100401981719F481E090E0089580E090E0DA
S1130320089580912601882319F480E090E00895CF
S113033081E090E00895EF92FF920F931F93CF9383
S1130340DF93EC01EE24FF240E9453018C010E94F0
S11303506E000817190731F0CE010E9453018F5F18
S11303609F4F19F441E0E42EF12CC701DF91CF91A6
S11303701F910F91FF90EF900895882311F06E9ACA
S113038008956E9808950F931F93CF93DF93C091B0
S11303902701CC2359F4109107011F3F39F401E0E0
S11303A06C2F802F0E945D01882319F481E090E076
S11303B050C00093440180912C01882311F0C09314
S11303C0440180914401882309F441C080912601AD
S11303D0823071F590910401992351F520E030E0C9
S11303E0809106018F3F11F421E030E0232BE1F4EA
S11303F08F3F79F0282F3327F901EC5CFC4F808183
S1130400809306018F3F11F4109305011083C901F5
S113041002C08FEF90E080937B0281E080932601FD
S11304208CE00E940A0104C01093040190932601F9
S11304300E949101C82FDD27CC2331F48C2F0E9418
S1130440BD01C0933203C09A80E090E002C085E011
S113045090E0DF91CF911F910F9108951F93182F72
S113046081E090E0909325018093240110922C0167
S11304700E94C30110932B0186E00E940A011F9180
S113048008958FB7F894682F772780913D02909153
S11304903E022CB53DB506B602FE03C001962CB54E
S11304A03DB5AA27BB2744275527DC019927882770
S11304B0822B932BA42BB52B6FBFBC01CD010895C8
S11304C080E880934B0110924002109263021092D4
S11304D07902109233030895FC0162870895FC01A8
S11304E08285992708950F931F93CF93DF938C01EF
S11304F0EB01672B19F00E944E018883C8010B960B
S1130500DF91CF911F910F9108950F931F93CF9374
S1130510DF938C01EB010E946F028A3531F4BE0136
S1130520C8010E9473029C0105C0209709F018823B
S113053020E030E0209719F0888181508883C90138
S11305400196DF91CF911F910F9108950F931F93FF
S1130550CF93DF93EC01062F11270115110511F438
S11305608AE501C080E09927682FCE010E946C02C1
S1130570012B11F480E501C080E0182FCE010E9408
S11305806F028A3539F460E070E0CE010E94730294
S1130590FC0102C0E0E0F0E01083DF91CF911F91F5
S11305A00F910895FC016087872F9927818708950B
S11305B0FC016683872F992787830895FC01862F82
S11305C0845F808308958FB7F89499271092580216
S11305D08FBF0895DC01862F2C9130E066E0482F10
S11305E05527822F8F5F0E94D41A292FE92FFF27C6
S11305F0EE0FFF1FEE0FFF1FE85EFC4F808199276F
S11306008F73907084239523892B11F02C93089574
S11306103F5F363030F386E08C930895FF920F935A
S11306201F93CF93DF93F82E162F6630A8F4C62FAE
S1130630DD27CC0FDD1FCC0FDD1FC85EDC4F08812A
S1130640802F99278F739070049731F48A819B814E
S11306500E946F028F1519F086E090E018C0802F79
S1130660807C886088838091B202863011F4109374
S1130670B20280914801811729F464E088E491E092
S11306800E94EA0281E00E940A0180E090E0DF918A
S1130690CF911F910F91FF9008954F925F926F92A7
S11306A07F929F92AF92BF92CF92DF92EF92FF928E
S11306B00F931F93CF93DF935B016C019924EE2476
S11306C0FF2400E311E0F801608561FF3BC0208155
S11306D0318142815381D601C501821B930BA40B46
S11306E0B50B448055806680778084159505A605F2
S11306F0B70540F160FF03C06D7F608709C0240D1A
S1130700351D461D571DF8012083318342835383D1
S1130710E114F10429F0F1E0EF16F10479F012C0CC
S11307208FB7F8949927109255028FBF8091B20227
S1130730863040F481E00E940A0104C060E08AE54A
S11307400E940E039394075F1F4F0894E11CF11C51
S113075081E0891508F0B7CF83E00E940A01DF9198
S1130760CF911F910F91FF90EF90DF90CF90BF90AA
S1130770AF909F907F906F905F904F9008951F93DC
S1130780CF93DF93182F6630A8F4E62FFF27EE0FE0
S1130790FF1FEE0FFF1FE85EFC4F808199278F73C8
S11307A09070019739F0C281D381CE010E946F020B
S11307B0811719F080E090E001C0CE01DF91CF9164
S11307C01F910895EF92FF920F931F93CF93E82EFA
S11307D0663040F5862F8F5F66E00E94D41AC92FD9
S11307E0F0904801CF15F1F00C2F1127F801EE0F0E
S11307F0FF1FEE0FFF1FE85EFC4F808199278F7368
S11308009070049741F4828193810E946F028E1547
S113081011F4C80109C08C2F8F5F66E00E94D41ABE
S1130820C92FE0CF86E090E0CF911F910F91FF9008
S1130830EF9008951F93CF931AE5C0914801EC2FD0
S1130840FF27EE0FFF1FEE0FFF1FE85EFC4F8281B4
S113085093810E946F02811729F06C2F812F0E94CF
S1130860E203C82F6C2F04C08AE50E94E203682FBC
S113087080E090E0663011F481E090E0892BA1F3F0
S1130880CF911F910895CF93DF93EC010E946F02E3
S11308908A3539F460E070E0CE010E947302FC01F5
S11308A002C0E0E0F0E080819927DF91CF910895C4
S11308B01F93CF93DF93EC01162F0E946F02612FD9
S11308C06F5F8A3519F4CE010E94DE02DF91CF9169
S11308D01F910895482F5527FA01EE0FFF1FEE0FC1
S11308E0FF1FE85EFC4F8081829586958695837014
S11308F080FF16C02281338190917102953080F47B
S1130900E0913F02E90FE53008F0E550FF27EE0FD4
S1130910FF1FE959FD4F208331839F5F909371023C
S1130920FA01EE0FFF1FEE0FFF1FE85EFC4F808100
S1130930807C8160808308951F93CF93182FC62FE6
S11309406630A0F4E62FFF27EE0FFF1FEE0FFF1F08
S1130950E85EFC4F808199278F739070049731F47F
S1130960828193810E946F02811719F086E090E0E2
S11309700EC08C2F0E946A04809148018C1729F4C0
S113098064E088E491E00E94EA0280E090E0CF9184
S11309901F9108958FB7F894982F82B720917C0205
S11309A030917D0240917E0250917F0206B601FE95
S11309B00FC081B7280F311D411D511D82B7280F6B
S11309C0311D411D511D2F5F3F4F4F4F5F4F04C0DD
S11309D0280F311D411D511D9FBFCA01B901089542
S11309E00F931F93CF93DF9310E08FB7F894282FC2
S11309F03327022F91B782B746B7981711F041FFFA
S1130A0002C02FBF6AC08091B4028823B1F10E9452
S1130A10CA04DC01CB01C0917402D0917502E0914B
S1130A207602F09177028C1B9D0BAE0BBF0B2091CD
S1130A30E5023091E6024091E7025091E802821704
S1130A409307A407B50720F01093B40211E015C072
S1130A502C0F3D1F4E1F5F1F80917C0290917D02E1
S1130A60A0917E02B0917F02281B390B4A0B5B0BCD
S1130A70273E31054105510510F086EE05C02230B0
S1130A8010F482E001C0822F682F615000B601FC8F
S1130A90FDCF82B7861709F46F5F20917C023091F5
S1130AA07D0240917E0250917F02DA01C901860FD6
S1130AB0911DA11DB11D0196A11DB11D82179307A2
S1130AC0A407B50718F460917C02609561BF0FBF5D
S1130AD0112319F082E00E940A01DF91CF911F9146
S1130AE00F910895EF92FF920F931F937B018C0156
S1130AF08FB7F894682F772781E08093B402E0924F
S1130B007402F09275020093760210937702209398
S1130B10E5023093E6024093E7025093E8026FBF88
S1130B200E94F0041F910F91FF90EF900895AF92EF
S1130B30BF92CF92DF92EF92FF920F931F93CF93C6
S1130B40DF930E944102FC01EB0180914C029091E1
S1130B504D02A0914E02B0914F02A090FC02B090C1
S1130B60FD02C090FE02D090FF029C01AD012A0D4F
S1130B703B1D4C1D5D1D79018A01EC1AFD0A0E0B0B
S1130B801F0BC817D907EA07FB0730F028173907E6
S1130B904A075B0770F005C0281739074A075B0747
S1130BA028F4C217D307E407F50718F0EE24FF244E
S1130BB0870121E0E21620E8F20620E0020720E0A7
S1130BC0120730F1C050D048EF4FFF4FC0934C0292
S1130BD0D0934D02E0934E02F0934F02C050D048A0
S1130BE0E040F04080E090E8AFEFBFEFE80EF91E80
S1130BF00A1F1B1FE092FC02F092FD020093FE020A
S1130C001093FF02E12CE0E8FE2E012D112D14C0FB
S1130C108A0D9B1DAC1DBD1D80934C0290934D020B
S1130C20A0934E02B0934F021092FC021092FD0268
S1130C301092FE021092FF02B7012CB53DB5C90116
S1130C408C1B9D0B03968E159F0520F0B9016D5FDB
S1130C507F4F02C06C0F7D1F6115710511F461E0B7
S1130C6070E0615070407BBD6ABD80E186BF87B78C
S1130C70806187BFDF91CF911F910F91FF90EF901B
S1130C80DF90CF90BF90AF9008950F931F93DC0136
S1130C90CB016FB7F894062F112780934C029093E1
S1130CA04D02A0934E02B0934F022093FC02309366
S1130CB0FD024093FE025093FF020E9497050FBF6E
S1130CC01F910F910895CF92DF92EF92FF920F93AD
S1130CD01F938FB7F894C82EDD240E947800DC019E
S1130CE0CB0166E470E00E94E01A0B9690935F02D9
S1130CF080935E027C01002711270E944102DC01DF
S1130D00CB01A8019701BC01CD010E944506CFBECD
S1130D101F910F91FF90EF90DF90CF90089597B7B8
S1130D209F7D97BF90E296BF882319F08EB58064AB
S1130D3002C08EB58F7B8EBD87B7806287BF80E08F
S1130D4090E008951F93182F81E00E94BD011FB900
S1130D50779BFECF8FB199271F9108951F93CF934F
S1130D60DF93182F8FB7F894C82FDD2760E081E058
S1130D700E945D01882321F0CFBF80E090E005C090
S1130D80CFBF812F0E94A2069927DF91CF911F9197
S1130D900895FF920F931F93CF93DF93F82E8B0147
S1130DA08FB7F894C82FDD2760E081E00E945D01D1
S1130DB0882321F0CFBF80E090E00CC0CFBF8F2DFF
S1130DC00E94A206812F99270E94A206802F0E94CA
S1130DD0A2069927DF91CF911F910F91FF9008955B
S1130DE08FB7F89499272091FB028FBF85E0289F45
S1130DF0C0011124825D9E4F9064BC0188E10E9471
S1130E00C9060895CF938FB7F894C82F80914402F0
S1130E10682F7727762F6627770F770F770F20E0D5
S1130E2030E080914B02882331F080915402882372
S1130E3011F021E030E0A4E0220F331FAA95E1F77E
S1130E40622B732B626E726281E10E94C906CFBF6E
S1130E50CF910895CF92DF92FF920F931F93CF9378
S1130E60DF93CDB7DEB724970FB6F894DEBF0FBE7D
S1130E70CDBF8FB7F894282F3327FE013196809188
S1130E806102909162028983892F992781838091DD
S1130E900403909105038B83892F99278C832FBF9B
S1130EA06F0194E0F92E8FB7F894082F112760E0B2
S1130EB081E00E945D019927882311F00FBF16C0BD
S1130EC00FBF082F112708591E4F802F80680E94DA
S1130ED0A20616950795802F807C0E94A206F60133
S1130EE081916F010E94A206FA94C9F724960FB665
S1130EF0F894DEBF0FBECDBFDF91CF911F910F914C
S1130F00FF90DF90CF900895882311F06F9A089591
S1130F106F9808951F9310E0812F0E94BD01BA9A23
S1130F20BB98B99AB89A6C9AC098812F0E9484078A
S1130F30709A6B986A98689881E00E94BD011F912D
S1130F4008950F931F93CF93DF93C82F8FB7F8940F
S1130F50082F11E0612F812F0E946F0199278823A8
S1130F6091F5C09307010E948701C82FDD27CC2388
S1130F7011F08AE00FC00E949101882311F40E94AD
S1130F808A0780912601882341F4109326018093D7
S1130F907B028CE00E940A0122C0809134038F3FBF
S1130FA0F1F4E0910501EE23D1F0809106018F3F29
S1130FB019F41092060104C0FF27EC5CFC4FC083B7
S1130FC0109205010CC081E090E002C0880F991FC7
S1130FD0CA95E2F720912701282B209327010FBF00
S1130FE080E090E0DF91CF911F910F9108958F924F
S1130FF09F92AF92BF92CF92DF92EF92FF920F93A4
S11310001F93CF93DF938FB7F894C0905C02D09076
S11310105D028090490190904A01C0914102D091B3
S11310204202AE01465F5F4F2091800230918102FF
S11310302417350708F09A018FBF59010894A108B5
S1131040B108CA15DB05E8F47E01E80CF91C8E0131
S11310500C0D1D1DC114D10419F0F801808101C0CB
S113106080E00E94A2068114910411F0F7018083AC
S113107021960F5F1F4F0894E11CF11CCA15DB0574
S113108048F381E00E9484078FB7F894982FC11425
S1131090D10431F0CC0EDD1EF60180818FB901C080
S11310A01FB8D0934202C09341029FBF80E090E0FA
S11310B0DF91CF911F910F91FF90EF90DF90CF9030
S11310C0BF90AF909F908F900895CF93DF939C0132
S11310D0EA018FB7F894992730935D0220935C025C
S11310E070934A01609349015093810240938002B6
S11310F010924202109241028FBF452B31F08FB102
S11311000E94F707482F552704C08BE00E940A016C
S1131110AE01CA01DF91CF910895DF92EF92FF9261
S11311200F931F93CF93DF93182F7B01D42E00E0EE
S11311308FB7F894C82FDD27602F81E00E945D01EE
S1131140882321F0CFBF80E090E017C0CFBF1064A8
S1131150812F99279093660280936502809165029E
S11311600E94A206082F8D2D9927AC01B70180E0BB
S113117090E00E946508802F9927DF91CF911F91FD
S11311800F91FF90EF90DF900895C09880912D010A
S113119090912E0141E0BC018FE30E948D080895D7
S11311A0FF920F931F93CF93DF93009152021091FC
S11311B05302F80187A19927C82F882309F4CFE1A6
S11311C0C098809101038C1741F08C2F9927806E71
S11311D09068BC0185E10E94C906C0930103F8012F
S11311E0F080FA948FB7F894C82FDD2760E081E08F
S11311F00E945D01882311F0CFBF13C0CFBF8EE3DF
S113120090E09093660280936502809165020E944B
S1131210A2068F2D9927AC0160E070E0C8010E94FE
S11312206508DF91CF911F910F91FF900895AF92C0
S1131230BF92CF92DF92EF92FF920F931F938C0194
S11312407B010E947800DC01CB01802391238E0D69
S11312509F1D5C01CC24DD240E94CA04DC01CB0167
S113126051E0E52E96018501AC01BD0180E00E94AC
S11312702F018FB7F894282F332782E080935502EB
S11312802FBF1F910F91FF90EF90DF90CF90BF90F1
S1131290AF900895CF93282F8FB7F8949927109281
S11312A055028FBFC091B2022A3591F40E946E009C
S11312B09C01019751F4CC2341F4809108018823C7
S11312C021F0C0930801C90104C080E090E001C08E
S11312D080E0813039F468E070E087E090E00E94BB
S11312E0170916C060E170E08FE090E00E941709D2
S11312F08091B2020E946A0468E382EB92E00E9449
S1131300EA028091B202863018F481E00E940A0158
S1131310CF9108958FB7F8949927109256028FBFF2
S11313200895EF92FF920F931F93CF93DF93F82EBC
S11313308FB7F894082F1127E02E61E0862F0E94C2
S11313406F01C82FDD27CC2321F00FBF85E090E08B
S113135026C08C2F0E9487018823C9F4909126010E
S1131360992341F482E0809326019093040180E064
S113137090E002C081E090E09927C82F882311F4FF
S11313800E948A078C2F9927C82F882319F4F0927A
S1131390070102C00E948A09EFBE8C2F9927DF91B2
S11313A0CF911F910F91FF90EF90089582E090E00C
S11313B0909346028093450221E02093400290E0FE
S11313C080910701843009F4922F992329F484E051
S11313D00E949109882319F40E94C508089584E0A5
S11313E00E94A1070895CF9383E00E949109992751
S11313F0C82F882319F083E00E94A1078C2F992716
S1131400CF910895CF92DF92EF92FF920F931F93A3
S1131410CF93DF93EA01D22E8A876E83872F992791
S11314208F838FB7F894282F33278091610290918E
S113143062022FBF8C83892F99272496898324974E
S11314408CE0D80E11E0C12E6C2D83E00E946F0158
S1131450082F1127002309F084C080912F01982FB1
S11314608C0D80932F019B838FB7F894E82EFF2473
S113147062E0862F0E945D01882321F4EFBE81E0A3
S113148090E066C08FB7F894282F332784E08093C8
S113149057022FBFD0931703C0931603EFBEFE016C
S11314A0D19289819927807290708983892F992795
S11314B081839927982F882729813327822B932B7F
S11314C0816498688983892F992781830E946E009B
S11314D08887892F99272896898328970BA708A797
S11314E009A71DA60CA7C0920003409116035091B2
S11314F017038FB7F894282F3327622F8091240184
S1131500909125018830910531F08A30910519F0C8
S11315108930910511F46FBF19C0019711F02FBFE5
S113152015C082E090E09093250180932401C0923D
S11315305A025093530240935202009364022FBF05
S11315400E94F309882311F40E94D00880E090E0FF
S11315509927C82F882311F00E94E3028C2F992722
S113156002C085E090E09927DF91CF911F910F9100
S1131570FF90EF90DF90CF9008959F92AF92BF922B
S1131580CF92DF92EF92FF920F931F93CF93DF934B
S11315905B01942EC82FDD27FE01EC0FFD1FEA5BD3
S11315A0FE4F108211821092000120E080914601CA
S11315B090914701892B19F08091020380FD21E06D
S11315C010920001222319F081E0809300018091A0
S11315D000018823D9F40091460110914701F801D4
S11315E08285C82EDD24C8010E9453017C01C801F4
S11315F00E944E019927282FA801B7018C2D0E9423
S1131600020A882319F08FE00E940A01CD2B29F4E5
S1131610492DB5018AE50E944A09DF91CF911F91B6
S11316200F91FF90EF90DF90CF90BF90AF909F907D
S11316300895CF93982F8FB7F894282F3327C22F6C
S1131640809107018917A9F02FBF81E090E034C091
S11316504093070181E090E002C0880F991F2A950A
S1131660E2F780955823509327018AE00E940A01EB
S113167020C08FEF80930701509127015523A9F0D3
S113168040E065E0E52FFF27842F0E94D41A492FFC
S1131690292F3327CF01022E02C0959587950A94EE
S11316A0E2F780FDD5CF4F5FEFCF0E948A090E94F9
S11316B0C301CFBF80E090E0CF9108951F93CF93F3
S11316C0DF938FB7F894C82FDD271C2F8091450234
S11316D090914602892B29F484E00E94190BCFBF14
S11316E02BC01092400220913303222341F080E06A
S11316F090E0B79B02C081E090E0892B49F481B16E
S1131700992736E0969587953A95E1F780FD08C0CC
S1131710222319F02150209333030E94D6090BC0D1
S113172081E090E090934602809345021092330347
S113173084E00E94190B1FBFDF91CF911F91089580
S11317400E946002C09AC09888E00E94AE0688E0B9
S11317500E94AE06C09A84E00E94190B0E945E0BA0
S113176008950F931F93CF93DF9301E08FB7F894FD
S1131770C82FDD271C2F8091240190912501099702
S113178079F489E00E94AE0683E00E94190BC09AA6
S113179081E090E09093250180932401CFBF33C072
S11317A0C09880915A02882311F085E001C084E03A
S11317B00E94AE0683FD05C080E00E94AE0683FD54
S11317C003C083E090E003C000E085E090E09093E4
S11317D0250180932401C09A1FBF002341F0109279
S11317E0640283E00E94190B0E9463060CC00E94ED
S11317F04102DC01CB0120E431E040E050E0BC01D7
S1131800CD010E944506DF91CF911F910F9108955C
S1131810EF92FF920F931F93CF93DF938B018091ED
S11318206502909166022091650286FF2BC12F7B91
S1131830822F99278E33910509F476C1CF9709F049
S113184073C1C0912D01D0912E015881509345014F
S113185080914502909146028330910509F451C06C
S11318608430910518F4029729F005C1049709F40E
S113187091C001C183E090E09093460280934502B9
S1131880852F9927019640914B01242F3327281740
S11318903907A4F180E090E0B79B02C081E090E0BA
S11318A0892B69F481B19927E6E096958795EA95A5
S11318B0E1F780FD04C0451B415040934B0120914A
S11318C045012932D8F4222391F0BE016F5F7F4F86
S11318D0283018F047E050E058C084E090E090933E
S11318E0460280934502822F9927AC014EC0209373
S11318F04002C09A84E00E94190BBAC00E94A00B57
S113190013C184E090E09093460280934502809155
S11319104B02882399F180915402882379F58A81B6
S11319209927582F442789819927482B592B45FFFC
S113193025C08F819927382F22278E819927282B1C
S1131940392B809104039091050328173907B1F4CA
S1131950477050704130510589F4C09AC0988AE0AC
S11319600E94AE06C09AC09828968091450187507F
S1131970482FBE018FE30E948D08D6C0289680911F
S1131980450187509927AC01BE0180E090E00E9498
S11319906508CAC0C09A80913303882319F484E08F
S11319A00E94190B80917902882319F180914501D5
S11319B08B3028F180916302E82FFF27EE0FFF1F81
S11319C0EB5CFC4F808191818DA7892F99278CA78F
S11319D080916302992701969C01287F3170821BB4
S11319E0930B8093630280917902815080937902F2
S11319F006C08FEF9FEF8DA78FEF90E08CA78091AB
S1131A004501FE01E80FF11D808187FF31C0012BE4
S1131A1079F169816770E0912D01F0912E016230B6
S1131A2009F5A0915202B091530280912401909142
S1131A3025010797E9F4ED019B8183818917C1F49E
S1131A4087B78F7E87BF908181E08BA7E90FF11D57
S1131A508291319688A780818F7789A780E00E9440
S1131A602E0206C0613021F48DE00E940A015CC0A0
S1131A700E945E0B59C010924002C09A84E00E94FA
S1131A80190B52C02E3309F04FC0C09A8091240123
S1131A9090912501089779F4C09889E00E94AE06D8
S1131AA0C09A83E00E94190B81E090E09093250195
S1131AB08093240139C080915A02882349F484E038
S1131AC090E090932501809324010E94B10B2CC0D7
S1131AD083E00E94190B80912401909125010897BD
S1131AE019F48AE090E002C083E090E0909325012D
S1131AF0809324010E947800DC01CB0166E371E04D
S1131B000E94E01A0B9690935102809350027C013C
S1131B10002711270E944102DC01CB01A801970193
S1131B20BC01CD010E944506DF91CF911F910F9119
S1131B30FF90EF90089520917A02E22FFF27EE0F95
S1131B40FF1FEE0FFF1FE85EFC4F828393838081AB
S1131B50807C8260808380914C01863011F42093D4
S1131B604C0161E08AE792E00E94EA0280E00E9470
S1131B700A010895EF92FF920F931F93CF93DF937F
S1131B80E82E8B01EA01F22E8091B302882319F426
S1131B9084E090E03FC0E0917A02E630C9F18CE144
S1131BA0821718F482E090E035C0FF27EE0FFF1F84
S1131BB0EE0FFF1FE85EFC4F808199278F739070B2
S1131BC0019731F50E946E00BC01CE010E94D20241
S1131BD0B801CE010E94D8026F2DCE010E94580494
S1131BE06E2DCE010E94A602CE010E949B0D809113
S1131BF07A02E82FFF27EE0FFF1FEE0FFF1FE85EAC
S1131C00FC4F80818F7B8083E18280E090E002C082
S1131C1085E090E0DF91CF911F910F91FF90EF90BD
S1131C200895CF93DF938091B302882309F44CC0C5
S1131C30E0917A02E63009F447C020E030E0809178
S1131C407102882311F421E030E0C22FDD27CC2378
S1131C50D9F5FF27EE0FFF1FEE0FFF1FE85EFC4FC5
S1131C60808199278F739070019771F5CB010E9441
S1131C709B0D80917A02E82FFF27EE0FFF1FEE0FD6
S1131C80FF1FE85EFC4F8081806480839091710225
S1131C909923C1F080913F02E82FFF27EE0FFF1F29
S1131CA0E959FD4F20813181108211829150909326
S1131CB071028F5F80933F02853011F4C0933F021D
S1131CC0B90102C060E070E0CB01DF91CF910895CB
S1131CD0AF92BF92CF92DF92EF92FF920F931F9336
S1131CE0CF93DF93CDB7DEB722970FB6F894DEBF5C
S1131CF00FBECDBFE82EFF2407E0E016F10409F47F
S1131D0097C318E0E116F10414F523E0E216F10498
S1131D1009F451C284E0E816F10474F4A1E0EA166F
S1131D20F10409F432C1B2E0EB16F1040CF00FC275
S1131D30E114F104A9F1A1C5E5E0EE16F10409F4FA
S1131D401BC3F6E0EF16F1040CF01CC386C20BE0D3
S1131D50E016F10409F48BC41CE0E116F1045CF410
S1131D6029E0E216F10409F486C38AE0E816F104D6
S1131D700CF0BAC379C3ADE0EA16F10409F4B5C4B2
S1131D80BDE0EB16F1040CF499C4EEE0EE16F10498
S1131D9009F440C5FFE0EF16F10409F461C56DC50F
S1131DA08091B302882309F468C580914C01863080
S1131DB009F463C5E82FFF27EE0FFF1FEE0FFF1F87
S1131DC0E85EFC4F8081A82EBB240FE3A022BB2435
S1131DD012E0A116B10409F0CCC0C280D380BE01C8
S1131DE06F5F7F4FC6010E94850290914C01E92FDD
S1131DF0FF27EE0FFF1FEE0FFF1FE85EFC4F8081F1
S1131E00807C8460808380914801863011F49093B3
S1131E104801F60181859927182F00278085992785
S1131E20082B192B0E946E000817190711F4C7011B
S1131E3009C0C6010E949B01882319F081E090E04B
S1131E4001C0C50199278130910549F1823091057E
S1131E501CF4892B29F08DC0029709F456C089C05F
S1131E60C6010E946F02282F332710914C012A3596
S1131E7009F049C00E941A04112309F07AC00E9493
S1131E80CA04DC01CB0141E0E42E08EE13E020E0BB
S1131E9030E0AC01BD018E2D0E942F016AC0C60145
S1131EA00E946F02282F332710914C012A3559F5CF
S1131EB00E941A04123009F05CC00E946E006C018A
S1131EC0019709F056C031E0F32E6F2D8AE50E9488
S1131ED0BF038C01B6010E94D20260E0C8010E94D7
S1131EE0A60260E070E0C8010E948502EBE0F1E028
S1131EF029E0DC0101900D922A95E1F76F2D8AE526
S1131F000E940E0336C0612F31C0C6010E946F02C9
S1131F10282F3327F0904C012A3539F50E941A04F2
S1131F200E946E008C01892B21F5B3E0FB1609F5A4
S1131F30809108018823E9F01092080162E08AE5A3
S1131F400E949C040E941A0426E0F22E2EE042E82D
S1131F5052E0B80180E00E94BA0DFA940F5F1F4F5F
S1131F60F7FEF4CF0E941A0404C06F2D822F0E9442
S1131F709C0462E08CE491E00E94EA0280914C01AE
S1131F80863008F07AC480E0ABC38091B302882322
S1131F9009F473C48091B202863009F46EC4E82F48
S1131FA0FF27EE0FFF1FEE0FFF1FE85EFC4F80813F
S1131FB0992788739070892B09F4B9C0E280F38063
S1131FC0BE016E5F7F4FC7010E9485028091B202FD
S1131FD0082F1127000F111F000F111F085E1C4F3F
S1131FE0F801808199278F7390708031910509F4ED
S1131FF098C0813191051CF4089739F098C08097F6
S113200009F095C0C7010E94430461E080E00E948A
S11320106F01813009F431C4C7010E946F02182F87
S1132020C7010E9453016C01012F11270A351105C4
S113203021F4C7010E944E0101C080E0A82EBB24F8
S11320400A351105E9F5B601C7010E94D8026AE50F
S1132050C7010E946C02C0904601D0904701C11490
S1132060D10419F085E090E02CC0F0924701E09291
S113207046016A2DC7010E94DE0280910001882377
S1132080E9F0F7018285082F1127C7010E94530147
S1132090109200012A2DA701BC01802F0E94020A80
S11320A09927282F882339F081E080930001D0926A
S11320B04701C0924601822F992703C0C60101C07F
S11320C081E099278230910509F18330910534F438
S11320D0009709F4D2C3019761F029C085309105B6
S11320E079F0863091051CF4049751F020C00697CE
S11320F0F1F48FB7F8949927109255028FBF17C047
S11321008FB7F894992710925502B3C18FB7F894FA
S11321109927109255028FBF6CE1C7010E945804A1
S113212014C0C7010E944304F801E282F382809143
S1132130B2020E946A0468E382EB92E00E94EA021F
S11321408091B202863008F098C381E0C9C2409100
S11321504201442349F58FB7F894282F3327E090A0
S11321607402F090750200917602109177028091CA
S1132170E5029091E602A091E702B091E802E80E30
S1132180F91E0A1F1B1F2FBF8091F7029091F802BE
S1132190A091F902B091FA02409342019C01AD0171
S11321A0C801B7010E9472050E94CA04DC01CB0178
S11321B0BC01CD013FC00E94CA045B016C012FEF3A
S11321C03FEF4FEF5FE770E08FB7F8949927709374
S11321D0B4028FBFE0E3F1E061E0808581FF1CC0C1
S11321E080819181A281B38186017501E81AF90A7F
S11321F00A0B1B0BD801C701E480F5800681178107
S1132200E81AF90A0A0B1B0BE216F3060407150772
S11322101CF4A801970171E06150399667FFDDCF86
S1132220772309F42AC312161306140615062CF094
S1132230C601B5010E944D0320C32093F7023093D9
S1132240F8024093F9025093FA0281E0809342012C
S1132250C601B5010E94720510C38FB7F894E82E29
S1132260FF2481E00E948F0601E010E01093250115
S1132270009324011092230110922C011092010367
S1132280EFBE8FB7F894E82EFF240E9460021093EB
S11322904602009345021092400289B78F7B89BFA2
S11322A080E488BF8AB780628ABF8AB78F7E8ABF7C
S11322B089B7806489BFEFBE8FB7F894082F1127C0
S11322C08091290190912A01049719F483E00E94D6
S11322D0AE060FBF8FB7F894082F1127C09A80E07D
S11322E00E94190B0FBF8FB7F894282F332782E071
S11322F0809357022FBF11E01093B30280914C01D9
S1132300863018F480E00E940A018091B20286307F
S113231018F4812F0E940A0160E082E892E00E9492
S1132320A60260E070E082E892E00E9485021EE06E
S1132330E4E1F1E0DC01E12E01900D92EA94E1F791
S1132340809184029927982F88272091830233272C
S1132350822B932B806280938302892F9927809309
S113236084020E946E000196212F42E852E0BC01D3
S113237080E00E94BA0D81C28FB7F8949927109219
S1132380570277C08FB7F8949927F0902B018FBF2D
S113239063E082E00E945D01882369F18FB7F894BD
S11323A0082F1127109225011092240187B78F7EE0
S11323B087BF87B78F7D87BF83E00E94190BC09AC0
S11323C00FBF8FB7F894082F11271092460210926E
S11323D045020E946002C09A89B78F7B89BF0FBFF4
S11323E010922A0110922901DE98DD98DE9A85E088
S11323F00E940A0108C08FB7F894282F332782E07F
S1132400809357022FBF00911603109117030E9467
S1132410E30280910001882309F02FC260914601F4
S1132420709147016017710709F027C24F2D23C22D
S11324308FB7F894282F3327122F809143028823D3
S113244009F00CC121E0209343028091290190916D
S11324502A01049721F4822F0E94A10703C088E077
S11324600E940A011FBF09C28FB7F89499271092DE
S113247043028FBF02C28FB7F894282F332780916D
S11324802801882309F0EAC02FBF80B39927A6E06A
S113249096958795AA95E1F7182F1170809160029F
S11324A0909143018917E1F01917D1F484E090E089
S11324B090932A01809329018FB7F894282F33270A
S11324C081E0809328012FBF60E070E08DE10E94DD
S11324D0C9060E942A07C09AC09884E00E940A0193
S11324E01093600289E0FCC08FB7F894992720917B
S11324F007018FBF33272230310509F464C023302C
S1132500310544F42115310571F02130310509F408
S113251045C0B3C12330310509F471C024303105FD
S113252009F4A2C0AAC1C0988FB7F894E82EFF247A
S11325308091290190912A01029771F583E090E03E
S113254090932A018093290168E170E08DE10E9453
S1132550C90611E0109343011092280180B3992712
S1132560F6E096958795FA95E1F7812380936002CA
S113257089E00E940A01812F0E94AE066FE772E093
S11325808CE10E94C9060E94F0060E94020766E5DB
S11325907AE287E10E94C906EFBE6FC1C09886E067
S11325A00E94AE060E94F0060E9402070E942A07BB
S11325B0C09AC09883E00E94AE06C09A81E00E944F
S11325C0190B88E08DC0C0988FB7F894E82EFF24CB
S11325D060E081E00E945D01082F1127002311F0C3
S11325E0EFBE0AC0EFBE83E50E94A206802F0E94C0
S11325F0A206802F0E94A206C09A82E032C08FB742
S1132600F8949927209124018FBF33272430310572
S113261081F02530310524F42230310539F020C011
S11326202850304023303105D8F406C00E94D00829
S113263024C10E94B10B21C1C09889E00E94AE065A
S1132640C09A83E00E94190B8FB7F894282F332780
S113265081E090E090932501809324012FBF0DC168
S113266083E00E94190B09C10E94C50806C18FB7F7
S1132670F894082F11276091490170914A01E09163
S11326805C02F0915D02809180029091810210922F
S11326904A011092490110925D0210925C0210925C
S11326A0810210928002109242021092410220E0B4
S11326B0AC01CF010E94080C0FBFDFC08FB7F894A4
S11326C0282F332780917B028093040182E080933A
S11326D026012FBF80910401882309F0CEC08AE02F
S11326E00E940A01CAC06FBF87C0A0912D01B0919A
S11326F02E0180914501FD01E80FF11D8081881FA5
S11327008827881FFD0182A780914501E80FF11DEC
S113271031978081FD0180A780914501E80FF11D6B
S113272080818F77FD0181A700912D0110912E01E9
S1132730EBE0EE2EF12CE00EF11ED0904501F801F5
S113274081859927582F442780859927482B592B11
S113275083819927A82F782F8FEF809331038FB728
S1132760F894682F20E030E0EBEEF2E08081918174
S11327708417950731F48281871709F4B4CF209325
S113278031032F5F3F4F3396243031057CF36FBF05
S11327909091310330E08FB7F894282F9F3F21F0B8
S11327A080912201891719F49091220131E0892F37
S11327B09927FC01EE0FFF1FE80FF91FE551FD4FAC
S11327C040835183A283332331F0809122018F5FB0
S11327D08370809322012FBFC8010E949B01F801DE
S11327E092852D2D2C509A3539F4A701B8018AE52C
S11327F00E94110EBC0101C0B80170932E016093B8
S11328002D018FB7F8949927109240028FBF0E9430
S11328105E0B33C080910203882379F101E010E05C
S113282030910203832F8023B1F0812F9927FC017B
S1132830EE0FFF1FEA5BFE4F6081718110821182EF
S1132840202F2095322330930203892B21F443E077
S11328508AE50E944A09000F1F5F183008F30DC073
S113286080910001E82FFF27EE0FFF1FEA5BFE4F68
S113287041E0608171810E94BD0A22960FB6F894EE
S1132880DEBF0FBECDBFDF91CF911F910F91FF909F
S1132890EF90DF90CF90BF90AF90089580910303A5
S11328A08F3FD1F09091030380910303E82FFF271A
S11328B0EA5FFC4F808180930303809103038F3F81
S11328C011F480933003892F9927FC01EA5FFC4FB0
S11328D02FEF20839C0102C02FEF30E02F3F19F42B
S11328E080E090E00895822F0E94680E81E090E0DD
S11328F00895CFEFD0E1DEBFCDBF8FB7F894C82FD6
S113290040E150E06FEF70E086E093E00E94CD1A62
S11329108FEF809303038093300381E08EBD88E0C2
S113292080BF83E083BF2CB53DB54AE78CB59DB528
S11329308217930708F441509C014423B9F792B7D6
S113294082B78917E9F32CB53DB592B782B78917D9
S1132950E9F38CB59DB5821B930B4096F5E09695F3
S11329608795FA95E1F7909373028093720213BEF0
S113297083B78EBD8EB580BF12BE1DBC1CBC8FEF4D
S113298086BF86B780937C0080B7282F33272770B3
S1132990307021153105C1F7D29AD19AD09ADA9ABA
S11329A0D99AD89A25BB8FEF84BBD498DC983DBDC7
S11329B02CBD87B7846087BF8EB5887F84608EBD49
S11329C080E285BF0E944E148823E1F78FEF9FEFCA
S11329D0EBEEF2E0808391831282339622E0E43FAF
S11329E0F207C1F3BCF30E947800DC01CB018093B1
S11329F02F0185EB92E090932E0180932D018E9808
S1132A00B89A8C988FEF80933403B89AD69AD59A53
S1132A100E946E009093050380930403809101014A
S1132A20992790936202809361028FE180935B0205
S1132A308AE18093FB0281E080934B02109254025E
S1132A408093440280B7886080BF8BE083BF86EEAA
S1132A5081BF87B7826087BF0E94F004809109011B
S1132A6090910A010196AA27BB278093470290936D
S1132A704802A0934902B0934A02E5E5F2E01192BC
S1132A8082E0E935F807D9F3D0F3E7E6F2E08DE424
S1132A9091E081939193C09622E0EF36F207C9F357
S1132AA0C4F385E08093710210923F02E8E1F3E001
S1132AB0982F8081807C816080839150349697FF29
S1132AC0F8CF96E010927A0290934C0190934801CB
S1132AD09093B2021092B3020E944E148823E1F73D
S1132AE0CFBF789461E082E00E946F01882309F5EA
S1132AF08FB7F894282F33278091290190912A01C8
S1132B00892B11F02FBF1FC081E090E090932A0120
S1132B10809329012FBFDD9A0E944102DC01CB0181
S1132B2024E130E040E050E0BC01CD010E944506C4
S1132B300AC062E0862F0E945D01882321F461E0CF
S1132B4082E00E945D018FB7F894682F5EC087B75A
S1132B509927887B892B41F480917D00282F332786
S1132B602B7F2115310519F080E090E021C08DB153
S1132B709927E6E096958795EA95E1F7AC014170CF
S1132B80507080FF02C0C90113C08AB190919A00AD
S1132B90892B807C21F48091740082FF02C0CA01D9
S1132BA007C0379B03C081E090E002C085E090E05D
S1132BB0282F87B7992783709070892BA1F080B74D
S1132BC0992787709070892BD1F781B792B7891BA9
S1132BD08C3018F082B7853F18F082E090E005C091
S1132BE083E090E002C085E090E0E82F281708F425
S1132BF0E22F85B7837EFF27E457FF4F9491892BFB
S1132C00806285BF78948895F894809103038F3F00
S1132C10C9F09091030380910303E82FFF27EA5F33
S1132C20FC4F808180930303809103038F3F11F451
S1132C3080933003892F9927FC01EA5FFC4F2FEF23
S1132C40208302C08FEF90E08F3F09F480CF6FBFE5
S1132C500E94680E78CF1F920F920FB60F92112424
S1132C602F933F934F935F936F937F938F939F9390
S1132C70AF93BF93EF93FF9383B783BF00B600FC7A
S1132C80FDCF81B7992701969C0144275527809150
S1132C907C0290917D02A0917E02B0917F02820F0E
S1132CA0931FA41FB51F80937C0290937D02A09371
S1132CB07E02B0937F0278940E94F004FF91EF911A
S1132CC0BF91AF919F918F917F916F915F914F9140
S1132CD03F912F910F900FBE0F901F9018951F9248
S1132CE00F920FB60F9211248F9383B783BF00B650
S1132CF000FCFDCF8F910F900FBE0F901F90189581
S1132D0078941F920F920FB60F9211242F933F9332
S1132D104F935F936F937F938F939F93AF93BF93DF
S1132D20CF93EF93FF9387B78F7E87BF78948FB746
S1132D30F894C82F8091FC029091FD02A091FE02AC
S1132D40B091FF020097A105B10509F069C0809117
S1132D502401909125018530910509F443C0863002
S1132D60910530F48330910579F0049791F146C0D0
S1132D708930910571F18A30910518F4079781F132
S1132D803DC00A9701F13AC080B39927A6E0969511
S1132D908795AA95E1F780FF13C084E090E09093B3
S1132DA02501809324010E944102DC01CB0127E02C
S1132DB030E040E050E0BC01CD010E9445061EC059
S1132DC00E9463061BC089E090E0909325018093E4
S1132DD024010E94F309882389F40E94B10B0EC0D8
S1132DE080E00AC089E00E94AE0681E00E948F065E
S1132DF083E00E94190B87E00E942E028091290132
S1132E0090912A01019771F482E090E090932A0155
S1132E1080932901DE98DE9A80E00E94A10702C017
S1132E200E949705CFBFFF91EF91CF91BF91AF91D2
S1132E309F918F917F916F915F914F913F912F91CE
S1132E400F900FBE0F901F90189578941F920F92B9
S1132E500FB60F9211240F900FBE0F901F9018956C
S1132E6078941F920F920FB60F9211240F900FBEF9
S1132E700F901F90189578941F920F920FB60F928F
S1132E8011240F931F932F933F934F935F936F934B
S1132E907F938F939F93AF93BF93CF93DF93EF93DE
S1132EA0FF93CCB5DDB580E286BF8FB7F894082FC9
S1132EB080912401909125018530910519F00697A0
S1132EC099F15DC086E090E0909325018093240100
S1132ED011E01093780280E00E948F06E091520284
S1132EE0F0915302818185FF02C010932C0183E08D
S1132EF00E94190B87B78F7E87BFE0915202F09131
S1132F0053028181992787709070019721F4C5A796
S1132F108D2F992784A780B3992724E096958795C8
S1132F202A95E1F780FD73C01092780281E00E9437
S1132F308F06E0915202F0915302818185FF13C004
S1132F4087E090E090932501809324010E94410240
S1132F50DC01CB0120E031E040E050E0BC01CD01D8
S1132F600E94450603C080E00E942E0280B3992788
S1132F7014E0969587951A95E1F780FF48C09091E3
S1132F802301992371F581E080937802892F0E94AF
S1132F908F06409179024830A0F480916302840F37
S1132FA0912D911D9C01887F9370281BE22FFF2790
S1132FB0EE0FFF1FEB5CFC4FC083D1834F5F409348
S1132FC0790281E080932301D093EA02C093E9025D
S1132FD080B39927B4E096958795BA95E1F780FD7B
S1132FE016C01092780281E00E948F06109223018D
S1132FF08091E9029091EA02C81BD90B2A9738F410
S113300080917902882319F08150809379020FBF4F
S1133010FF91EF91DF91CF91BF91AF919F918F91EC
S11330207F916F915F914F913F912F911F910F91DC
S11330300F900FBE0F901F90189578941F920F92C7
S11330400FB60F9211242F933F938F939F938FB7B3
S1133050F894282F332780913D0290913E020196E7
S113306090933E0280933D022FBF9F918F913F9199
S11330702F910F900FBE0F901F9018951F920F92D3
S11330800FB60F9211240F900FBE0F901F9018953A
S11330901F920F920FB60F9211240F900FBE0F9034
S11330A01F9018951F920F920FB60F9211240F9034
S11330B00FBE0F901F9018951F920F920FB60F928C
S11330C011240F900FBE0F901F9018951F920F920E
S11330D00FB60F9211240F900FBE0F901F901895EA
S11330E01F920F920FB60F9211240F900FBE0F90E4
S11330F01F9018951F920F920FB60F9211242F93C1
S11331003F934F935F936F937F938F939F93AF936B
S1133110BF93EF93FF9380914502909146020197EC
S113312019F40E94D60905C0809133038F5F809300
S11331303303FF91EF91BF91AF919F918F917F9155
S11331406F915F914F913F912F910F900FBE0F9010
S11331501F9018951F920F920FB60F9211240F9083
S11331600FBE0F901F9018951F920F920FB60F92DB
S113317011242F933F934F935F936F937F938F9378
S11331809F93AF93BF93EF93FF938FB1282F332770
S1133190E0914901F0914A01309739F08091410260
S11331A090914202E80FF91F20838091410290918F
S11331B042020196909342028093410280E00E9471
S11331C08407809141029091420240918002509183
S11331D081028417950718F40E94F7071EC0809196
S11331E0490190914A01E0915C02F0915D021092D4
S11331F04A011092490110925D0210925C021092F1
S113320081021092800210924202109241022FB168
S113321020E0BC01CF010E94080CFF91EF91BF9107
S1133220AF919F918F917F916F915F914F913F915A
S11332302F910F900FBE0F901F901895A0E3B0E050
S1133240E4E2F9E10C94131B222E332E442E552E66
S1133250662E772E882E992E2A2D3B2DA8E0FE016E
S11332603196AA2E1192AA94E9F729823A824B82C6
S11332705C826D827E828F829886FE013996BA2E98
S11332801192BA94E9F729873A87CB86DC86ED86D2
S1133290FE860F87188BFE0171961192AA95E9F7A5
S11332A0C980DA80EB80FC80C9A6DAA6EBA6FCA66E
S11332B0870176018FEF9FEFA0E0B0E0E822F922CA
S11332C00A231B23A9A4BAA4CBA4DCA41601442476
S11332D0552489859A85AB85BC858DA79EA7AFA704
S11332E0B8AB5C016D018FEF9FEFA0E0B0E0A822C6
S11332F0B922CA22DB228DA59EA5AFA5B8A93D019E
S113330088249924C801B701A60195010E94F41AE2
S113331069A37AA38BA39CA3C801B701A401930159
S11333200E94F41A6DA37EA38FA398A7C201B101D2
S1133330A60195010E94F41A7B018C01C201B1011E
S1133340A40193010E94F41A9B01AC01A9A0BAA0A4
S1133350CBA0DCA0C601AA27BB27ADA0BEA0CFA0EE
S1133360D8A4A80EB91ECA1EDB1EAE0CBF1CC01EFC
S1133370D11EADA2BEA2CFA2D8A6AE14BF04C00671
S1133380D10620F4205030404F4F5F4FCDA0DEA037
S1133390EFA0F8A4C701AA27BB27820F931FA41F7D
S11333A0B51F8D8F9E8FAF8FB8A3A6013327222719
S11333B089A19AA1ABA1BCA1A070B070280F391F3C
S11333C04A1F5B1F298F3A8F4B8F5C8FA98CBA8C55
S11333D0CB8CDC8CED8CFE8C0F8D18A1ED8AFE8AD3
S11333E00F8B188F2D853E854F85588969A57AA541
S11333F08BA59CA50E94F41A3B014C018D819E81F2
S1133400AF81B885BC01CD012DA53EA54FA558A916
S11334100E94F41ADC01CB01680E791E8A1E9B1EE1
S11334208D899E89AF89B88D860D971DA81DB91DFC
S11334308D8B9E8BAF8BB88F6D897E898F89988D8C
S11334402A2D3B2D4C2D5D2DE2E1E0960C942F1B93
S11334508F929F92AF92BF92CF92DF92EF92FF92A0
S11334600F93CF93DF93CDB7DEB768970FB6F89479
S1133470DEBF0FBECDBFE82E002349F4298B3A8B63
S11334804B8B5C8B6D8B7E8B8F8B988F6CC088E0A5
S1133490FE01319611928A95E9F729833A834B8389
S11334A05C836D837E83EF82988740E2401B141611
S11334B00CF041C08D819E81AF81B8856C017D0186
S11334C004C0CC0CDD1CEE1CFF1C4A95D2F7202F47
S11334D0332727FD3095022E04C0B695A7959795FE
S11334E087950A94D2F78D879E87AF87B88B898199
S11334F09A81AB81BC8104C0B695A79597958795B1
S11335002A95D2F78C299D29AE29BF2989879A87C4
S1133510AB87BC8729853A854B855C856D857E851F
S11335208F859889298B3A8B4B8B5C8B6D8B7E8B2B
S11335308F8B988F18C01D861E861F86188A842F2D
S1133540992787FD909522273327281B390B8D81D6
S11335509E81AF81B88504C0B695A7959795879548
S11335602A95D2F7D3CF29893A894B895C896D8909
S11335707E898F89988D68960FB6F894DEBF0FBE4A
S1133580CDBFDF91CF910F91FF90EF90DF90CF905F
S1133590BF90AF909F908F900895DC0101C06D9310
S11335A041505040E0F70895991B79E004C0991FF9
S11335B0961708F0961B881F7A95C9F78095089589
S11335C0AA1BBB1B51E107C0AA1FBB1FA617B70745
S11335D010F0A61BB70B881F991F5A95A9F7809561
S11335E09095BC01CD010895629FD001739FF001B5
S11335F0829FE00DF11D649FE00DF11D929FF00D7F
S1133600839FF00D749FF00D659FF00D9927729FB5
S1133610B00DE11DF91F639FB00DE11DF91FBD0140
S1133620CF01112408952F923F924F925F926F928F
S11336307F928F929F92AF92BF92CF92DF92EF923E
S1133640FF920F931F93CF93DF93CDB7DEB7CA1BBF
S1133650DB0B0FB6F894DEBF0FBECDBF09942A88EA
S1133660398848885F846E847D848C849B84AA8492
S1133670B984C884DF80EE80FD800C811B81AA811F
S1133680B981CE0FD11D0FB6F894DEBF0FBECDBFEA
S1073690ED010895A7
S113369401220100FFFFFFFF010100476F6F646215
S11336A47965210048656C6C6F2C20776F726C64AB
S10536B42100EF
S9030000FC
