S01800006275696C642F6D6963617A2F6D61696E2E73726563E5
S11300000C945B000C9400320C940A320C9414325D
S11300100C941E320C9428320C9432320C943C32E0
S11300200C946C320C9478000C9478000C94FD3091
S11300300C944F300C94E7300C94DF310C94FA2F6D
S11300400C943E300C9476320C9478000C94780026
S11300500C9478000C9478000C9478000C9478003C
S11300600C94F2300C9478000C9478000C94780082
S11300700C9478000C9478000C9478000C9478001C
S11300800C9478000C9478000C947800562743283C
S1130090EC28EF28392AB52ABE2A182B322B392B03
S11300A0732B3D2C642C7B2C202D542DB02DDE2D58
S11300B000081C18141011241FBECFEFD0E1DEBFBE
S11300C0CDBF11E0A0E0B1E0E4E7FAE600E00BBF49
S11300D002C007900D92AA30B107D9F718E0AAE040
S11300E0B1E001C01D92A53EB107E1F70C94232EA7
S11300F00C9400008FB7F894992708958FBF089542
S11301000F931F93CF93FC01C0E010917404C117A7
S1130110E8F48091BA080081282F3327C9016AE0E6
S113012070E00E94D134FC01EE0FFF1FE55AFE4F30
S113013040E050E08081801711F441E050E0452B0D
S113014029F4CF5F2F5F3F4FC11740F38C2F9927BE
S1130150CF911F910F910895982F8FB7F894282F5E
S1130160E92FFF27EA55F74F80818F3FB1F4809143
S1130170BB08891791F0809172068F3F19F4909310
S1130180720607C08091BB08E82FFF27EA55F74F96
S113019090839093BB0880E001C085E02FBF99272E
S11301A008952F923F924F925F926F927F928F9217
S11301B09F92AF92BF92CF92DF92EF92FF920F93F2
S11301C01F93CF93DF93CDB7DEB72A970FB6F8947A
S11301D0DEBF0FBECDBF8FB7F894282F33272987F2
S11301E03A872090170430901804409019045090D6
S11301F01A0466243EE4A32E23E8B22EC62CD62C81
S1130200E62CF62C062D162D222D332D442D552D9E
S1130210662D762D862D962D0E94E03229833A8311
S11302204B835C836D837E838F839887822E932E8A
S1130230A42EB52EC62ED72EE82EF92E2401350174
S1130240769467945794479400E2282D392D4A2DCB
S11302505B2D6C2D7D2D8E2D9F2D0E94EA33A22EB9
S1130260B32EC42ED52EC601B501640D751D861D91
S1130270971D97FF05C09F776F5F7F4F8F4F9F4FED
S113028060931704709318048093190490931A04CC
S113029039853FBF2A960FB6F894DEBF0FBECDBF97
S11302A0DF91CF911F910F91FF90EF90DF90CF904E
S11302B0BF90AF909F908F907F906F905F904F9082
S11302C03F902F900895EF920F931F93AE2D99E0D6
S11302D0899FF0011124E15EFE4F408351836283C4
S11302E073830483158326833783A17080858E7F6F
S11302F08A2B826080878FE00E94AC001F910F914F
S1130300EF9008958FB7F8949927209102013091C6
S113031003018FBFC9010895982F8FB7F894482F10
S1130320552730E0E92FFF27E35CFB4F80818617D8
S113033009F431E04FBF832F99270895282F91E0C6
S11303408FB7F894382F662339F0E22FFF27E35C48
S1130350FB4F8081882331F4E22FFF27E35CFB4FBE
S1130360608390E03FBF892F9927089590910401FD
S1130370981739F480910E01823019F481E090E0ED
S1130380089580E090E0089580910E01882319F487
S113039080E090E0089581E090E00895CF93DF93AA
S11303A0282F8091DE052817E0F481508093DE0524
S11303B02817B8F4382F822F9927880F991FDC014A
S11303C0AD5FBB4FFC01E858FB4F82819381819361
S11303D09193ED018A819B818D939D932F5F2317C8
S11303E0A0F3DF91CF9108958FB7F89499271092D5
S11303F03F048FBF08959C01653218F4C9010B9620
S1130400089580E090E00895209124042A3018F0A3
S113041081E090E00895E091F503E20FEA3008F0FE
S1130420EA50FF27EE0FFF1FE25AFA4F80839183B1
S11304302F5F2093240480E090E008950F931F938E
S1130440909174048917E8F5882359F48091BA08C7
S1130450992701966AE070E00E94D1348093BA082B
S11304602BC0482F891740F58091BA08282F240FF4
S1130470312D311DF901941B492FCF016AE070E041
S11304800E94D1349C01220F331F255A3E4F8F0105
S11304900F5F1F4FC8016AE070E00E94D134FC0175
S11304A0EE0FFF1FE55AFE4F80819181F901808391
S11304B091834150F80109F780917404815080932D
S11304C074041F910F910895882311F06E9A089572
S11304D06E9808951F93CF93DF93C0910F01CC239F
S11304E051F4109107011F3F31F46C2F8C2F0E949F
S11304F08C01882319F481E090E051C081E080935D
S11305003C0180911701882311F0C0933C01809134
S11305103C01882309F441C080910E01823071F5B9
S113052090910401992351F520E030E08091060177
S11305308F3F11F421E030E0232BE1F48F3F79F079
S1130540282F3327F901EC52F74F8081809306015D
S11305508F3F11F4109305011083C90102C08FEF7E
S113056090E08093720581E080930E018CE00E94FC
S1130570AC0004C01093040190930E010E94C401C6
S1130580C82FDD27CC2331F48C2F0E946402C09342
S1130590BD08C09A80E090E002C085E090E0DF9161
S11305A0CF911F9108951F93182F81E090E09093AD
S11305B00D0180930C01109217010E946A028FB7FB
S11305C0F8949927109313018FBF86E00E94AC0022
S11305D01F9108958FB7F894682F77278091A0030F
S11305E09091A1032CB53DB506B602FE03C0019659
S11305F02CB53DB5AA27BB2744275527DC019927ED
S11306008827822B932BA42BB52B6FBFBC01CD0164
S1130610089580E8809345011092DE031092C4048B
S113062010925D051092BE0808951092230494E17F
S1130630E2E4F4E083E19193815087FFFCCF0895D5
S1130640382F81EE93E0FC01E30FF11D2081DC01E2
S1130650A60FB11D8C9180832C938081E2E4F4E099
S1130660DF01A80FB11D3C93E20FF11D60830895D3
S1130670CF93DF93382F05C06C2F832F0E94200364
S11306803C2F332319F1832F9927FC01EF51FC4FA1
S11306902081BC016150704077FDBC01EB01D59510
S11306A0C795EC2FFF27EF51FC4F8081E82FFF27E0
S11306B0E05AFB4F80819927E22FFF27E05AFB4F36
S11306C02081821B910918161906B4F2DF91CF918B
S11306D00895282F843118F082E090E008959091D5
S11306E02304943119F481E090E00895A82FBB27E6
S11306F0AE5BBB4F8C91843119F089E090E0089592
S1130700E92FFF27EF51FC4F20839C939F5F909329
S113071023049150892F0E94380380E090E00895CB
S1130720FC01A3E0F695E795AA95E1F7E35AFB4FA0
S1130730208133278770907041E050E0BA0102C0F5
S1130740660F771F8A95E2F7262337232115310593
S113075009F09A01C9010895FC01B3E0F695E79503
S1130760BA95E1F7ED55FC4F2081332787709070DF
S113077041E050E0BA0102C0660F771F8A95E2F7A4
S1130780262337232115310509F09A01C90108955B
S1130790CF93DF93582FEB014F3F11F440E006C095
S11307A0FB01E40FF11D8281480F4E5F8881682FA1
S11307B077270CC0FE01E20FF31FDF011196818140
S11307C0851771F0FD018181480F4E5F80E090E054
S11307D0461710F081E090E0242F3327882351F34B
S11307E0C901DF91CF910895CF93DF93282FFB01A7
S11307F0DB01A40FB11DED0121968081481720F47F
S1130800FD018181821719F080E090E002C08981A6
S11308109927DF91CF910895CF93DF93EC01A0E066
S1130820B0914601AB1718F580911C06482F552747
S1130830CA0157FD0796887FFA01E81BF90BEE0FF2
S1130840FF1FEE0FFF1FE25EF94F60E070E02081B2
S11308503181888199812817390711F461E070E0AA
S1130860672B29F4AF5F4F5F5F4FAB1708F38A2FF5
S11308709927DF91CF9108950E940C04982F8091BD
S11308804601981719F480E090E0089580911C06C1
S1130890890F912D911D9C01887F9370281B390B22
S11308A0C901880F991F880F991F825E994F089577
S11308B0AF92BF92CF92DF92EF92FF920F931F936A
S11308C0CF93DF93F82E6B015A01122F9E2D32E045
S11308D0E32EE20EFB018081482F5527842F8F5F82
S11308E0EE2DFF279F01280F311D892F992782178D
S11308F093071CF482E090E01EC0EB01C40FD11DED
S11309002196802F9927AC01BE01CE018E0F9F1F27
S11309100E948F34A114B10431F0112321F0F601A7
S11309208081F5018083F60180818E0D8083F882B9
S1130930198380E090E0DF91CF911F910F91FF9098
S1130940EF90DF90CF90BF90AF900895282FFB01D8
S1130950DB01A40FB11D8081481720F4FD018181C2
S1130960821719F080E090E00895CD010396089570
S1130970282F843138F4E82FFF27E95BFE4F80816C
S1130980843119F480E090E0089580E008C08F5F1E
S1130990243118F0E4E1F0E001C0FF272E2FE22F0C
S11309A0FF27E95BFE4FE081E43111F0E21779F7AC
S11309B0992708959C01FC0143E0F695E7954A9533
S11309C0E1F7E159F94F2770307081E090E002C0FF
S11309D0880F991F2A95E2F7982F90958081892393
S11309E080830895CF92DF92EF92FF920F931F932B
S11309F0CF93DF93982F6B01842FF22E202FFB01CE
S1130A00E40FF11D8F010F5F1F4FDB017C91472F16
S1130A105527841718F48181891719F086E090E02E
S1130A203BC0EF2DFF27E80189819927E81BF90BCB
S1130A30D801A80FB91F1296842F8F5F482F55270E
S1130A408A2F8C19642F681B620FFF2009F43297D8
S1130A501E161F067CF4842FAF01480F511DCA01D6
S1130A60820F911D2E2D3327281739071CF482E09D
S1130A7090E012C07E0FE6017883862F9927AC019F
S1130A80BD01CD018E0F9F1F0E948F34FF2011F0F6
S1130A90F801F18280E090E0DF91CF911F910F91F6
S1130AA0FF90EF90DF90CF9008959C01FC0153E0FC
S1130AB0F695E7955A95E1F7E55EFE4F277030709D
S1130AC081E090E002C0880F991F2A95E2F7982FE1
S1130AD090958081892380830895FC0163E0F695D5
S1130AE0E7956A95E1F7E55EFE4F2081332787702D
S1130AF0907041E050E0BA0102C0660F771F8A95FA
S1130B00E2F7262337232115310509F09A01C9019B
S1130B10089590910204891718F4282F2C5E01C0BF
S1130B20282F691718F4962F9C5E01C0962F8431E4
S1130B3019F4862F99270895643111F4992708959B
S1130B40291708F4682F862F992708950E94820197
S1130B500895FC0180818C5099270895FF920F938A
S1130B601F93CF93DF93F82E8B01CB010E94A9052D
S1130B709927682FC8010E94FB01EC014FEFBC01CB
S1130B808F2D0E94C803482F8881481718F080E0F1
S1130B9090E005C0BE018F2D0E94F4039927992788
S1130BA0DF91CF911F910F91FF9008950F931F93A1
S1130BB0CF93DF93EC01062F0E94A9059927682F94
S1130BC0CE010E94FB01FC01892B61F010811F5FA3
S1130BD0010F602FCE010E94FB01FC01892B11F053
S1130BE0E10FF11DCF01DF91CF911F910F91089576
S1130BF0FC018285992708950E94F8059927089594
S1130C001F93CF93DF93182F6431B0F4862F992765
S1130C10FC01EE0FFF1FE80FF91FE857FB4F80811F
S1130C2099278F719070019739F0C181D281CE01DB
S1130C300E94F805811719F080E090E001C0CE0110
S1130C40DF91CF911F910895FF920F931F93CF933C
S1130C50DF93F82E643140F5862F8F5F64E10E94A4
S1130C60B134192F009102041017F1F0C12FDD27C0
S1130C70FE01EE0FFF1FEC0FFD1FE857FB4F8081B5
S1130C8099278F719070049741F4818192810E9419
S1130C90F8058F1511F4CE0109C0812F8F5F64E12F
S1130CA00E94B134192FE0CF84E190E0DF91CF911D
S1130CB01F910F91FF900895CF92DF92EF92FF92D0
S1130CC00F931F93CF93DF93CDB7DEB722970FB661
S1130CD0F894DEBF0FBECDBF182F862F69836E0137
S1130CE00894C11CD11C02E0F601018399277C0100
S1130CF0EE0CFF1CE80EF91E88E894E0E80EF91EDD
S1130D00F701818192810E94F805811739F4F70176
S1130D10808182958695877080FF03C086E090E08D
S1130D2028C0C6010E948000982F809174049817EF
S1130D30D9F08091BA08890F912D911D6AE070E075
S1130D400E94D134FC01EE0FFF1FE55AFE4F61F003
S1130D508181823049F09927009749F0019739F44D
S1130D60802F0E94AC0003C081E090E002C080E0CC
S1130D7090E022960FB6F894DEBF0FBECDBFDF9190
S1130D80CF911F910F91FF90EF90DF90CF90089536
S1130D901F93CF93182FC0910204C431A0F48C2F59
S1130DA09927FC01EE0FFF1FE80FF91FE857FB4FCF
S1130DB0818192810E94F805811729F06C2F812F7F
S1130DC00E942406C82F8C2F9927CF911F91089534
S1130DD01F93CF93DF93EC01162F0E94F805612F28
S1130DE06F5F99278430910519F0C09731F009C0DD
S1130DF0653238F4CE010B9606C0CE010E94D605AA
S1130E0002C080E090E0009709F00196DF91CF9155
S1130E101F91089564E00E94E806FC0182819927ED
S1130E20382F222783819927822B932B0895DF92D1
S1130E30EF92FF920F931F93CF93DF93EC01EE2475
S1130E40FF24E4E0DE2E6D2D0E94E806FC01828181
S1130E509927182F002783819927082B192B0E9483
S1130E6082010817190781F06D2DCE010E94E80652
S1130E70FC0182819927982F882723813327822B8D
S1130E80932B8F5F9F4F19F451E0E52EF12CC7018E
S1130E90DF91CF911F910F91FF90EF90DF90089514
S1130EA01F93CF93DF93EC010E94F80599278430B8
S1130EB0910519F0C09729F013C0CE010E94A9052D
S1130EC010C0CE010E94A9059927182F682FCE01C2
S1130ED00E94FB01FC0180818F5F181B812F01C0E0
S1130EE08FEF81509927DF91CF911F910895FC01D5
S1130EF0862F845F80830895FB0120812F5F240F58
S1130F00622F0E9477070895FC0162870895CF92AB
S1130F10DF92EF92FF920F931F93CF93DF93EC0135
S1130F20CC24DD2416E0E12EF12CE80EF91EF701A5
S1130F3081819927182F00278E819927082B192B37
S1130F400E9482010817190761F0F701818199272E
S1130F50982F88272E813327822B932B8F5F9F4FC7
S1130F6019F4F1E0CF2ED12CC601DF91CF911F915E
S1130F700F91FF90EF90DF90CF900895FC0187814F
S1130F809927382F222786819927822B932B08951E
S1130F90AF92BF92CF92DF92EF92FF920F931F9383
S1130FA07C015B010E94A905082F1127F50100832C
S1130FB0602FC7010E94FB016C01FC0190819F5FBF
S1130FC0802F891BF5018083682FC7010E94770752
S1130FD0C6011F910F91FF90EF90DF90CF90BF90CB
S1130FE0AF900895AF92BF92CF92DF92EF92FF92AB
S1130FF00F931F93CF93DF93CDB7DEB721970FB62F
S1131000F894DEBF0FBECDBF182F5B01F42EBE01D6
S11310106F5F7F4FC5010E94C8076C0109814FEFC4
S1131020BC01812F0E94C803482FF6018081481714
S113103018F086E090E008C034E2E32E2F2DB601CC
S1131040812F0E94F2049927182F4981B601C50106
S11310500E947C07812F992721960FB6F894DEBF52
S11310600FBECDBFDF91CF911F910F91FF90EF90F5
S1131070DF90CF90BF90AF900895FF920F931F938E
S1131080CF93DF93F82E8B01CB010E94A9059927FA
S1131090682FC8010E94FB01EC014FEFBC018F2DAA
S11310A00E94C803482F8881481718F080E090E018
S11310B004C0BE018F2D0E94A604DF91CF911F9121
S11310C00F91FF900895CF93DF93FC01DC011196FB
S11310D0ED0189819927982F882721813327822B35
S11310E0932B80628183892F9927898380E090E004
S11310F0DF91CF910895FC01CB016683892F992755
S113110087830895AF92BF92CF92DF92EF92FF92BE
S11311100F931F93CF93DF93CDB7DEB721970FB60D
S1131120F894DEBF0FBECDBF182F5B01F42EBE01B5
S11311306F5F7F4FC5010E94C8076C0109814FEFA3
S1131140BC01812F0E94C803F6019081891718F40D
S113115089E090E00AC074E2E72E2F2D40E050E0D1
S1131160B601812F0E9458049927182F4981B6018E
S1131170C5010E947C07812F992721960FB6F89408
S1131180DEBF0FBECDBFDF91CF911F910F91FF90B6
S1131190EF90DF90CF90BF90AF9008951F93CF93BF
S11311A0DF93EC01162F0E94F8051F5F9927843006
S11311B0910519F0C09719F012C0612F0DC0CE012E
S11311C00E94A9059927682FCE010E94FB01FC010A
S11311D080818F5F810F682FCE010E947707DF9196
S11311E0CF911F910895FF920F931F93F82E8B01B7
S11311F0CB010E94A9059927682FC8010E94FB0111
S11312004FEFBC018F2D0E94C80399271F910F91A6
S1131210FF900895CF93DF93FC01DC011196ED015B
S113122089819927982F882721813327822B932B13
S11312308F7D8183892F9927898380E090E0DF91D6
S1131240CF910895AF92BF92CF92DF92EF92FF9227
S11312500F931F93CF93DF93CDB7DEB721970FB6CC
S1131260F894DEBF0FBECDBFF82E5B01BE016F5FE9
S11312707F4FC5010E94C8076C0119814FEFBC0163
S11312808F2D0E94C803EE24012F2E2D482FB60166
S11312908F2D0E94F204182F4981B601C5010E94C6
S11312A07C07812F992721960FB6F894DEBF0FBED5
S11312B0CDBFDF91CF911F910F91FF90EF90DF9001
S11312C0CF90BF90AF900895FC01B3E0F695E795F9
S11312D0BA95E1F7E550FC4F208133278770907071
S11312E041E050E0BA0102C0660F771F8A95E2F729
S11312F0262337232115310509F09A01C9010895E0
S11313001F93CF93DF93182F823318F082E090E07D
S113131030C0C82FDD27CE010E946409882319F448
S113132089E090E026C0FE0183E0F695E7958A9572
S1131330E1F7E550FC4FC770D07081E090E002C047
S1131340880F991FCA95E2F7982F90958081892379
S113135080838091550699270E946409882311F09F
S1131360109355068091140181508093140180E0FC
S113137090E0DF91CF911F910895CF93DF93843153
S113138010F4643118F082E090E040C0C82FDD27EB
S1131390CA5AD94F98819233B9F1E92FFF27EE0F3A
S11313A0FF1FEC58FA4F808121818617C1F42883EE
S11313B0892F0E9480098881823359F480915A04CC
S11313C0815080935A0405C0FD012183892F0E9416
S11313D0800981E08093730580E090E017C0223398
S11313E099F0A92FBB27AA0FBB1FAC58BA4FFD0118
S11313F09181E92FFF27EE0FFF1FEC58FA4F8081F0
S11314002181861709F3EBCF86E090E0DF91CF913D
S11314100895EF92FF920F931F93CF93DF93062FBC
S1131420843108F055C0643108F052C0E82EFF241E
S1131430F701EA5AF94F8081823379F0282F332754
S1131440F901E20FF31FEC58FA4F8081801711F075
S11314508181F2CF22333105D9F540911401423311
S113146019F422E330E030C080915506C82FDD27FF
S1131470FE0193E0F695E7959A95E1F7E550FC4F68
S11314809E012770307081E090E002C0880F991FA0
S11314902A95E2F72081282B2083842F8F5F809365
S11314A01401823381F007C0812F8F5F62E30E94B1
S11314B0B1349093550610915506812F99270E94B7
S11314C06409882389F79E013327922F223319F464
S11314D082E390E018C0D701AA5AB94F4C91423325
S11314E029F480915A048F5F80935A04892F992795
S11314F0FC01E80FF91FEC58FA4F418300832C9349
S113150021E020937305DF91CF911F910F91FF90FC
S1131510EF900895262F2C5F622F0E94E806009713
S113152009F004960895CF93DF93EC010E94F80527
S113153099278430910519F0C09721F009C0FE0164
S11315403B9608C061E0CE010E94D605FC0102C0B2
S1131550E0E0F0E080819927DF91CF910895EF9248
S1131560FF920F931F93CF93DF93CDB7DEB72297EC
S11315700FB6F894DEBF0FBECDBF982FE82EFF2420
S1131580D701AA0FBB1FAE0DBF1DA857BB4F8C912F
S113159082958695877080FF18C0FD012181328174
S11315A0909154059A3040F5E091A203E90FEA3096
S11315B008F0EA50FF27EE0FFF1FE05CFA4F20838C
S11315C031839F5F9093540517C099838E010F5FF9
S11315D01F4F82E0F8018183FD01818192810E9485
S11315E00402C8010E948000982F80917404981707
S11315F019F0892F0E941E02F701EE0FFF1FEE0D56
S1131600FF1DE857FB4F8081807E81608083229696
S11316100FB6F894DEBF0FBECDBFDF91CF911F91FF
S11316200F91FF90EF9008951F93CF93DF93182F9E
S1131630862F9927FC01EE0FFF1FE80FF91FE857CB
S1131640FB4FC181D281CE010E94F805811719F0A8
S11316508FEF90E004C0CE010E94930A9927DF9196
S1131660CF911F9108951F93CF93DF93EC01162F11
S11316700E94F80599278430910519F0C09721F04C
S113168009C0FE013B9608C061E0CE010E94D60568
S1131690FC0102C0E0E0F0E01083DF91CF911F91E4
S11316A00895FF920F931F93CF93DF938C01C62F5E
S11316B0DD27209721F0C130D10519F004C086E060
S11316C003C080E001C08FEF8E3FA9F4C8010E94DF
S11316D0F805F82E209719F0219719F004C084E03A
S11316E003C080E301C08FEF9927682FC8010E94CF
S11316F084076F2D1CC0209721F0C130D10519F04B
S113170004C084E003C080E301C08FEF9927682FF1
S1131710C8010E948407209719F0219719F004C08A
S113172086E003C080E001C08FEF9927682FC801CD
S11317300E94330BDF91CF911F910F91FF90089579
S1131740EF92FF921F93CF937C0184E00E94C8061E
S1131750182F80E30E94C806682F812F0E948905F4
S113176027C06C2F84E00E940006009721F46C2FA0
S113177080E30E94000614E0612F0E94E806FC0149
S113178082819927982F882723813327822B932BB3
S11317908E159F0521F16C2F812F0E942406182F8E
S11317A06C2F80E30E942406682F812F0E948905F4
S11317B0C82F40E050E0843111F441E050E020E0D3
S11317C030E0C43111F421E030E080E090E04423C3
S11317D021F0222311F081E090E0892B11F28C2F6B
S11317E09927CF911F91FF90EF900895DC01862FE8
S11317F02C9130E064E1482F5527822F8F5F0E949F
S1131800B134292F892F9927FC01EE0FFF1FE80F10
S1131810F91FE857FB4F808199278F7190708423BB
S11318209523892B11F02C9308953F5F343128F3CD
S113183084E18C930895382F262F9927FC01EE0F0D
S1131840FF1FE80FF91FE857FB4F2F718081807E3F
S1131850822B808380915505843111F43093550592
S113186080910204831729F464E082E094E00E94EA
S1131870F60B81E00E94AC0008951F93CF93182FBC
S1131880C62F6431A8F4862F9927FC01EE0FFF1FA1
S1131890E80FF91FE857FB4F808199278F719070EB
S11318A0049731F4818192810E94F805811719F01F
S11318B086E090E006C068E08C2F0E941B0C80E05C
S11318C090E0CF911F9108951F93CF93182FC62FA7
S11318D06431A8F4862F9927FC01EE0FFF1FE80F4F
S11318E0F91FE857FB4F808199278F7190700497F7
S11318F031F4818192810E94F805811719F086E004
S113190090E00EC08C2F0E94AF0A809102048C17C5
S113191029F464E082E094E00E94F60B80E090E019
S1131920CF911F9108951F93CF93182F682F84E0B0
S11319300E94640CC82F612F80E30E94640CC817B6
S113194019F48C2F992702C081E090E09927CF9158
S11319501F910895EF92FF920F931F93CF93DF93FC
S1131960E82E8B01CB010E94F8059927803311F4EE
S11319706E2D2BC0C8010E94A9059927F82E682F47
S1131980C8010E94FB01EC014F2D5527CA010196A5
S113199085971CF082E090E008C0BE01CE0101965C
S11319A00E948F34188280E090E09927882311F0F8
S11319B0992707C04F2DBE01C8010E947C0780E013
S11319C090E0892B39F06E2D80E30E94640C81E055
S11319D090E006C060E3C8010E94840780E090E0C4
S11319E0DF91CF911F910F91FF90EF9008959F92F7
S11319F0AF92BF92CF92DF92EF92FF920F931F9319
S1131A00CF93DF93962EE42ECEC0AF2CBB24F501EA
S1131A1073E0F695E7957A95E1F7E159F94F8081FE
S1131A20282F3327C5018770907041E050E0BA0138
S1131A3002C0660F771F8A95E2F726233723211504
S1131A40310509F09A01232BE1F06F2D80E30E9408
S1131A5000068C0164E00E94E806FC01828199275B
S1131A60D82FCC2783819927C82BD92B892D992747
S1131A70C817D90731F4B80180E60E94AE0588235F
S1131A8029F46F2D80E30E94240690C0B80180E6FB
S1131A900E943D086C01EE2061F0EE2DEE0DF12D5B
S1131AA0F11D4E2F4F5FB80180E60E94F207882394
S1131AB069F041E06F2D80E30E945C066F2D80E3A6
S1131AC00E94640CC5010E94DA046DC0F6012081F5
S1131AD0822F992754E0959587955A95E1F78F5F62
S1131AE087702F78992744E0880F991F4A95E1F76A
S1131AF0282B9E2D9150892F8F70207F822B8083DD
S1131B00292F692F690F712D711DFB01EC0DFD1D2E
S1131B10319673E1791518F484E190E004C0C95B4F
S1131B20DE4F888199279927818310822223C9F067
S1131B30E22FFF27EE0FFF1FEC0DFD1DDF011197B4
S1131B40E281E43118F084E190E005C0FF27E95B0D
S1131B50FE4F808199279927FD0181831C92215092
S1131B60E5CFF1E0FE1558F4F60183819927982F0B
S1131B70882724813327822B932BBC0102C0692D33
S1131B807727C8010E947B08C8010E946308F501F9
S1131B90E154F74F82E08083C5010E94DA046F2D7F
S1131BA080E30E943D0C80E30E94C806F82E80E08A
S1131BB090E0F4E1FF1611F481E090E0892B09F440
S1131BC024CFDF91CF911F910F91FF90EF90DF9081
S1131BD0CF90BF90AF909F9008951F93CF93DF93C2
S1131BE0182FEB0141E0842F0E948208882339F4E6
S1131BF0BE0181E00E943D08FC01892B39F4612F6C
S1131C0080E30E94640C81E090E011C080916A0638
S1131C10982F8F5F80936A0690836FEF7FEFCE01DA
S1131C200E947B08CE010E940A0980E090E0DF91C7
S1131C30CF911F910895CF92DF92EF92FF920F936D
S1131C401F93CF93DF93182FE62E862F9927FC013D
S1131C50EE0FFF1FE80FF91FE857FB4F6F010894C1
S1131C60C11CD11CC181D28183E1861758F08081C7
S1131C7099278F719070049729F4CE010E94F8057A
S1131C80811719F086E090E03EC0CE010E94930ACD
S1131C90182F882351F1CE010E945007163011F5F8
S1131CA08450082F1127CE010E9417078823D1F0F2
S1131CB0602FCE010E948A0AFC0182E0081791F489
S1131CC0818180FF02C0DA9801C0DA9A818181FFA4
S1131CD002C0D99801C0D99A818182FF02C0D898E4
S1131CE001C0D89AF601C083D1838E2D0E94AF0A19
S1131CF0809102048E1529F464E082E094E00E944D
S1131D00F60B80E090E0DF91CF911F910F91FF904F
S1131D10EF90DF90CF90089594E1A7E2B4E0E7E478
S1131D20F1E083E191939D93815087FFFBCF0E9463
S1131D30150381E080933C0408950F931F93CF9380
S1131D40C82F843110F4653118F082E090E030C07F
S1131D5080911D06882319F085E090E029C08091C8
S1131D606E06C81741F48091F603681721F4809138
S1131D7073058823C1F081E080931D06C0936E062D
S1131D806093F603109273050E948C0E0C2F11279A
S1131D90F801E05AFB4F10828C2F0E946903095D01
S1131DA01B4FF801C08383E00E94AC0080E090E008
S1131DB0CF911F910F9108950F931F93CF93C82F25
S1131DC0062F142F0E94BD09112321F06C2F802FA0
S1131DD00E94BD090E94820164E10E949D0ECF9180
S1131DE01F910F9108958FB7F894982F82B720917F
S1131DF0D8053091D9054091DA055091DB0506B636
S1131E0001FE0FC081B7280F311D411D511D82B73E
S1131E10280F311D411D511D2F5F3F4F4F4F5F4F05
S1131E2004C0280F311D411D511D9FBFCA01B901B6
S1131E3008950F931F93CF93DF9310E08FB7F89417
S1131E40282F3327022F91B782B746B7981711F07E
S1131E5041FF02C02FBF6AC08091DF058823B1F122
S1131E600E94F30EDC01CB01C0915805D0915905B5
S1131E70E0915A05F0915B058C1B9D0BAE0BBF0BDB
S1131E80209118063091190640911A0650911B06AC
S1131E9082179307A407B50720F01093DF0511E01C
S1131EA015C02C0F3D1F4E1F5F1F8091D8059091C8
S1131EB0D905A091DA05B091DB05281B390B4A0B33
S1131EC05B0B273E31054105510510F086EE05C038
S1131ED0223010F482E001C0822F682F615000B6D6
S1131EE001FCFDCF82B7861709F46F5F2091D805F6
S1131EF03091D9054091DA055091DB05DA01C90129
S1131F00860F911DA11DB11D0196A11DB11D821742
S1131F109307A407B50718F46091D805609561BFCD
S1131F200FBF112319F08EE00E94AC00DF91CF9116
S1131F301F910F910895EF92FF920F931F937B01CE
S1131F408C018FB7F894682F772781E08093DF05A1
S1131F50E0925805F092590500935A0510935B05D9
S1131F60209318063093190640931A0650931B06C3
S1131F706FBF0E94190F1F910F91FF90EF9008956A
S1131F800F931F93CF93DF930E94F30EAB01BC0119
S1131F908091130490911404A0911504B091160437
S1131FA08A019B01081B190B2A0B3B0BE901D80181
S1131FB0809127018D7F809327018091DE058823FE
S1131FC059F0282FE3E0F4E0808191818A1B9B0B78
S1131FD0819391932150C1F74093130450931404B7
S1131FE06093150470931604DF91CF911F910F91A4
S1131FF00895AF92BF92CF92DF92EF920F931F9307
S11320005B016C010E94F30EDC01CB0111E0E12EB7
S113201096018501AC01BD0180E00E9463011F911E
S11320200F91EF90DF90CF90BF90AF900895AF9253
S1132030BF92CF92DF92EF92FF920F931F93CF93B1
S1132040DF930E94EA02FC01EB0180911D04909150
S11320501E04A0911F04B0912004A0905106B090DA
S11320605206C0905306D09054069C01AD012A0D2F
S11320703B1D4C1D5D1D79018A01EC1AFD0A0E0BF6
S11320801F0BC817D907EA07FB0730F028173907D1
S11320904A075B0770F005C0281739074A075B0732
S11320A028F4C217D307E407F50718F0EE24FF2439
S11320B0870121E0E21620E8F20620E0020720E092
S11320C0120730F1C050D048EF4FFF4FC0931D04AA
S11320D0D0931E04E0931F04F0932004C050D04812
S11320E0E040F04080E090E8AFEFBFEFE80EF91E6B
S11320F00A1F1B1FE0925106F092520600935306EA
S113210010935406E12C00E8F02E012D112D14C07B
S11321108A0D9B1DAC1DBD1D80931D0490931E0450
S1132120A0931F04B09320041092510610925206FB
S11321301092530610925406B7012CB53DB5C9014F
S11321408C1B9D0B03968E159F0520F0B9016D5FC6
S11321507F4F02C06C0F7D1F6115710511F461E0A2
S113216070E0615070407BBD6ABD80E186BF87B777
S1132170806187BFDF91CF911F910F91FF90EF9006
S1132180DF90CF90BF90AF9008950F931F93DC0121
S1132190CB016FB7F894062F112780931D049093F9
S11321A01E04A0931F04B09320042093510630937F
S11321B0520640935306509354060E9417100FBFC3
S11321C01F910F910895CF92DF92EF92FF920F9398
S11321D01F938FB7F894C82EDD240E94D100DC0130
S11321E0CB0166E470E00E94BD340B9690935C04CE
S11321F080935B047C01002711270E94EA02DC0122
S1132200CB01A8019701BC01CD010E94C510CFBE2E
S11322101F910F91FF90EF90DF90CF90089561E0B0
S1132220862F0E949E01882309F58FB7F894282FE2
S113223033278091110190911201892B11F02FBF46
S113224024C081E090E090931201809311012FBF8C
S1132250DD9A0E94EA02DC01CB0124E130E040E097
S113226050E0BC01CD010E94C5100FC062E081E0C6
S11322700E948C01882319F089E090E0089561E0C0
S1132280862F0E948C01882319F080E090E0089545
S113229085E090E0089597B79F7D97BF90E296BF41
S11322A0882319F08EB5806402C08EB58F7B8EBDF5
S11322B087B7806287BF80E090E008951F93182F4E
S11322C081E00E9464021FB9779BFECF8FB19927EA
S11322D01F9108951F93CF93DF93182F8FB7F8940E
S11322E0C82FDD2760E0862F0E948C01882321F00F
S11322F0CFBF80E090E005C0CFBF812F0E945E1168
S11323009927DF91CF911F910895FF920F931F9307
S1132310CF93DF93F82E8B018FB7F894C82FDD2766
S113232060E0862F0E948C01882321F0CFBF80E0DB
S113233090E00CC0CFBF8F2D0E945E11812F992792
S11323400E945E11802F0E945E119927DF91CF9128
S11323501F910F91FF9008958FB7F89499272091BA
S113236050068FBF85E0289FC0011124825D9E4FD7
S11323709064BC0188E10E9485110895CF938FB7C2
S1132380F894C82F8091F803682F7727762F662753
S1132390770F770F770F20E030E080911C048823BB
S11323A031F080913B04882311F021E030E094E087
S11323B0220F331F9A95E1F7622B732B626E7262C0
S11323C081E10E948511CFBFCF910895CF92DF9212
S11323D0FF920F931F93CF93DF93CDB7DEB724976C
S11323E00FB6F894DEBF0FBECDBF8FB7F894282F79
S11323F03327FE0131968091760490917704898386
S1132400892F992781838091A3089091A4088B83B5
S1132410892F99278C832FBF6F0144E0F42E8FB747
S1132420F894082F112760E0862F0E948C019927C9
S1132430882311F00FBF16C00FBF082F11270859AA
S11324401E4F802F80680E945E1116950795802F7D
S1132450807C0E945E11F60181916F010E945E11E1
S1132460FA94C9F724960FB6F894DEBF0FBECDBF19
S1132470DF91CF911F910F91FF90DF90CF9008953E
S1132480882311F06F9A08956F9808951F9310E0B0
S1132490812F0E946402BA9ABB98B99AB89A6C9A2E
S11324A0C098812F0E944012709A6B986A9868981D
S11324B081E00E9464021F9108950F931F93CF93AC
S11324C0DF93C82F8FB7F894082F11E0612F80E0B5
S11324D00E949E019927882391F5C09307010E94C9
S11324E0B601C82FDD27CC2311F08AE00FC00E946B
S11324F0C401882311F40E94461280910E0188239E
S113250041F410930E01809372058CE00E94AC009C
S113251022C08091D4088F3FF1F4E0910501EE23AD
S1132520D1F0809106018F3F19F41092060104C086
S1132530FF27EC52F74FC083109205010CC081E0D5
S113254090E002C0880F991FCA95E2F720910F010D
S1132550282B20930F010FBF80E090E0DF91CF91F3
S11325601F910F9108958F929F92AF92BF92CF9235
S1132570DF92EF92FF920F931F93CF93DF938FB766
S1132580F894C0905804D0905904809043019090DE
S11325904401C091DF03D091E003AE01465F5F4F79
S11325A02091DC053091DD052417350708F09A01E8
S11325B08FBF59010894A108B108CA15DB05E8F4D6
S11325C07E01E80CF91C8E010C0D1D1DC114D104F3
S11325D019F0F801808101C080E00E945E1181142D
S11325E0910411F0F701808321960F5F1F4F089427
S11325F0E11CF11CCA15DB0548F381E00E9440127E
S11326008FB7F894982FC114D10431F0CC0EDD1E8D
S1132610F60180818FB901C01FB8D093E003C09345
S1132620DF039FBF80E090E0DF91CF911F910F9176
S1132630FF90EF90DF90CF90BF90AF909F908F90DE
S11326400895CF93DF939C01EA018FB7F8949927FB
S113265030935904209358047093440160934301C8
S11326605093DD054093DC051092E0031092DF03E4
S11326708FBF452B31F08FB10E94B312482F5527DD
S113268004C08BE00E94AC00AE01CA01DF91CF917F
S11326900895DF92EF92FF920F931F93CF93DF93EE
S11326A0182F7B01D42E00E08FB7F894C82FDD27B4
S11326B0602F802F0E948C01882321F0CFBF80E0FF
S11326C090E017C0CFBF1064812F992790933F05E6
S11326D080933E0580913E050E945E11082F8D2D4A
S11326E09927AC01B70180E090E00E942113802F6C
S11326F09927DF91CF911F910F91FF90EF90DF9079
S11327000895C0988091190190911A0141E0BC018B
S11327108FE30E9449130895FF920F931F93CF9361
S1132720DF930091250410912604F80187A59927C9
S1132730C82F882309F4CFE1C09880916C068C17C8
S113274041F08C2F9927806E9068BC0185E10E942E
S11327508511C0936C06F801F080FA948FB7F89451
S1132760C82FDD2760E0862F0E948C01882311F09A
S1132770CFBF13C0CFBF8EE390E090933F0580930B
S11327803E0580913E050E945E118F2D9927AC0174
S113279060E070E0C8010E942113DF91CF911F9186
S11327A00F91FF900895AF92BF92CF92DF92EF9274
S11327B0FF920F931F938C017B010E94D100DC01D7
S11327C0CB01802391238E0D9F1D5C01CC24DD243D
S11327D071E0F72E0E94F30EDC01CB01EF2C960181
S11327E08501AC01BD018F2D0E9463018FB7F89460
S11327F0282F332782E0809341042FBF1F910F912C
S1132800FF90EF90DF90CF90BF90AF9008950F931B
S11328101F93CF93082F162F462F682F84E00E9412
S11328205C06C82F412F602F80E30E945C06C81706
S113283019F48C2F992702C081E090E09927CF9159
S11328401F910F910895AF92BF92CF92DF92FF92A2
S11328500F931F93CF93DF93CDB7DEB724970FB6B3
S1132860F894DEBF0FBECDBF5C010E94A00BF82E12
S1132870A982BA828FEF8B831C82CE0101960E94BB
S11328803C048C01892B09F4B0C040E050E024E101
S1132890F21611F441E050E020E030E084E1F81653
S11328A011F421E030E080E090E0442321F0222381
S11328B011F081E090E09927882309F096C0F8018F
S11328C02381203108F06BC080E092E002C0880FC1
S11328D0991F2A95E2F7F8E281309F0724F0C12C72
S11328E0B8E2DB2E01C06C018091DE058830C9F1AD
S11328F00E94C00F5091DE05452F5523C1F0E42FEF
S1132900FF27EE0FFF1FDF01AD5FBB4F3E912E91FE
S11329101296C216D30658F4E858FB4F929182914E
S11329203296808391832D933C93415041F7E42F59
S1132930FF27EE0FFF1FDF01A858BB4FAD92BC92DB
S1132940ED5FFB4FC082D1825F5F5093DE058091C3
S1132950030490910404AA27BB27BC01CD010E9463
S1132960F90FF80183818F5F83832F2D3327F901BA
S1132970A3E0F695E795AA95E1F7E55EFE4F27708B
S1132980307081E090E002C0880F991F2A95E2F729
S11329902081282B208382E00E94AC0026C0F8010D
S11329A083830BC061E08F2D0E9407148F2D0E943A
S11329B0930CC5010E94A00BF82E40E050E0F4E116
S11329C0FF1611F441E050E020E030E084E1F81615
S11329D011F421E030E080E090E0442321F0222350
S11329E011F081E090E0892BE9F224960FB6F89477
S11329F0DEBF0FBECDBFDF91CF911F910F91FF902E
S1132A00DF90CF90BF90AF9008956F927F929F9286
S1132A10AF92BF92CF92DF92EF92FF920F931F93E8
S1132A20CF93DF93CDB7DEB728970FB6F894DEBF08
S1132A300FBECDBFA62E942EE62EFF24E982FA8285
S1132A403E010894611C711C8FEF8B831C8244230C
S1132A50A1F1ED82FE828F831886CE0105960E9435
S1132A603C04FC01892B49F18381882331F11382D1
S1132A7013812091DE05121700F5E8E7F4E0819157
S1132A8091918E159F05B1F4812F0E94CE011123DF
S1132A90A1F48091DE05882381F00E94C00F80910B
S1132AA0030490910404AA27BB27BC01CD010E9412
S1132AB0F90F03C01F5F121710F384E00E94C806C9
S1132AC0182F80E30E94C806682F812F0E94890571
S1132AD090C16F2D84E00E9400068C01892BC9F4FB
S1132AE06F2D80E30E9400068C01BC0180E60E94E9
S1132AF0AE05882371F06F2D84E00E942406182F00
S1132B006F2D80E30E942406682F812F0E9489057F
S1132B1070C134E0B32E6B2DC8010E94E806FC019D
S1132B2082819927382F222783819927282B392BB3
S1132B30CA2CDD242C153D0571F06F2D8B2D0E94C0
S1132B402406182F6F2D80E30E942406682F812FFE
S1132B500E9489054EC1992009F09CC0C3010E94BE
S1132B600C04282F409146018417C1F080911C0663
S1132B70820F912D911DFC01887F9370E81BF90B46
S1132B80EE0FFF1FEE0FFF1FE25EF94F8081918170
S1132B90A281B38189839A83AB83BC83483019F0C3
S1132BA0241709F450C0822F642F0E94B134941763
S1132BB008F049C0992361F480911C069927019675
S1132BC09C01287F3170821B930B80931C0636C0B6
S1132BD09417A0F580911C06682F690F712D711D43
S1132BE09B01491B142FC90137FD0796887FB90142
S1132BF0681B790B660F771F660F771F625E794F2C
S1132C00A9014F5F5F4FCA0157FF02C0C90108966F
S1132C10887FFA01E81BF90BEE0FFF1FEE0FFF1F71
S1132C20E25EF94F80819181A281B381FB018083AF
S1132C309183A283B38311509A01A9F6809146012E
S1132C4081508093460180911C0640914601840F77
S1132C50912D911D9C01887F9370F901E81BF90B5C
S1132C60EE0FFF1FEE0FFF1FE25EF94FD3010D9130
S1132C701D912D913C9100831183228333834F5FF7
S1132C80409346018381882309F0CDC0C6010E9488
S1132C902314C9C0E92CEA94C8010E94F8058033C2
S1132CA091F0B8018F2D0E94AA0C813061F48B2D14
S1132CB00E94C806182F80E30E94C806682F812F3F
S1132CC00E94890596C08E2D880F8F5F482FB8010A
S1132CD080E60E948208882381F06F2D80E30E94A1
S1132CE0640C84E00E94C806182F80E30E94C80682
S1132CF0682F812F0E9489057CC0B80180E60E945C
S1132D003D08BC01892B81F46F2D80E30E94640C83
S1132D1084E00E94C806182F80E30E94C806682F2A
S1132D20812F0E94890565C08E2D8F70FB018083E1
S1132D30EE20A9F14E2D4150E42FFF27EE0FFF1F87
S1132D40E60FF71F319683E18A1518F484E190E0C9
S1132D5007C0A7E4B1E0CA0EDB1ED6018C91992707
S1132D609927818310824423D1F0E42FFF27EE0FAB
S1132D70FF1FE60FF71F9F0121503040E281E4312D
S1132D8018F084E190E005C0FF27E95BFE4F8081E5
S1132D9099279927F901818310824150E4CFEE20CD
S1132DA059F0FB0181819927982F882722813327A5
S1132DB0822B932BBC0102C06A2D7727C8010E9485
S1132DC07B08C8010E946308EF2DFF27E154F74FE9
S1132DD082E080836F2D80E30E943D0C84E00E949A
S1132DE0C806182F80E30E94C806682F812F0E940E
S1132DF08905F82E40E050E0F4E18F1711F441E02A
S1132E0050E020E030E064E1F61611F421E030E017
S1132E1080E090E0442321F0222311F081E090E04F
S1132E20892B09F456CE28960FB6F894DEBF0FBE50
S1132E30CDBFDF91CF911F910F91FF90EF90DF9065
S1132E40CF90BF90AF909F907F906F900895EF9236
S1132E50FF920F931F93CF93DF93E82EF62EC62F86
S1132E60DD27CE010E94AC03882309F040C0809185
S1132E701D068823A9F0FE0153E0F695E7955A95BF
S1132E80E1F7ED55FC4FC770D07081E090E002C0CF
S1132E90880F991FCA95E2F72081282B208327C029
S1132EA08F2D0E94B804082F11270023B1F0FE01D2
S1132EB043E0F695E7954A95E1F7E35AFB4FC7706F
S1132EC0D07081E090E002C0880F991FCA95E2F7A4
S1132ED0982F9095808189238083402F6F2D8E2D8C
S1132EE00E940515402F6F2D8E2D0E94F70CDF9147
S1132EF0CF911F910F91FF90EF9008950F931F931F
S1132F00CF93DF93082F162FC62FDD27CE010E9403
S1132F1090038823C1F4FE0163E0F695E7956A9572
S1132F20E1F7E35AFB4FC770D07081E090E002C034
S1132F30880F991FCA95E2F72081282B2083612FDF
S1132F40802F0E942717DF91CF911F910F91089531
S1132F50DF92EF92FF920F931F93CF93DF93D82EBC
S1132F608B01413009F45BC0442309F058C0A6E04A
S1132F70EA2EF12CE60EF71EF70181819927982F8E
S1132F808827FB0126813327822B932B8F5F9F4F4A
S1132F9009F445C0FB0183A9882309F040C0CD2D65
S1132FA0DD27FE01E154F74F8081882341F08150F1
S1132FB08083CB010E94630881E090E036C00E94C8
S1132FC08201F7019181292F3327722F6627F80197
S1132FD09681292F3327622B732B41E00E94DC0E4C
S1132FE0C8010E94F8058033D1F4FE0173E0F69520
S1132FF0E7957A95E1F7E55EFE4FC770D07081E002
S113300090E002C0880F991FCA95E2F72081282B0F
S1133010208382E00E94AC0082E090E006C060E081
S11330208D2D0E94071480E090E0DF91CF911F91D5
S11330300F91FF90EF90DF90089520915505992707
S11330408430910511F0C09781F4822F0E94A81753
S1133050282F43E050E0241711F0233011F4CA0163
S113306002C0822F9927282F01C020E0422F552724
S11330708FB7F8949927109241048FBF413039F4E7
S113308068E070E087E090E00E94D3130895442341
S113309029F4809155050E94AF0A11C0209155056D
S11330A0822F9927FC01EE0FFF1FE80FF91FE85745
S11330B0FB4F8081807E846080832093020460E1E2
S11330C070E08FE090E00E94D31368E185E595E01D
S11330D00E94F60B80915505843118F481E00E941A
S11330E0AC0008958FB7F894992710923D048FBFD0
S11330F00895EF92FF920F931F93CF93DF93F82ECF
S11331008FB7F894082F1127E02E61E080E00E9429
S11331109E01C82FDD27CC2321F00FBF85E090E06E
S113312026C08C2F0E94B6018823C9F490910E0109
S1133130992341F482E080930E019093040180E08E
S113314090E002C081E090E09927C82F882311F411
S11331500E9446128C2F9927C82F882319F4F092C5
S1133160070102C00E947218EFBE8C2F9927DF91CD
S1133170CF911F910F91FF90EF90089582E090E01E
S11331809093FA038093F90321E02093DE0390E007
S113319080910701843009F4922F992329F484E063
S11331A00E947918882319F40E948113089584E0F9
S11331B00E945D120895CF9383E00E9479189927A5
S11331C0C82F882319F083E00E945D128C2F992761
S11331D0CF910895CF92DF92EF92FF920F931F93B6
S11331E0CF93DF93EA01D22E8A876E83872F9927A4
S11331F08F838FB7F894282F33278091760490918A
S113320077042FBF8C83892F992724968983249749
S11332108CE0D80E51E0C52E6C2D82E00E949E01F8
S1133220082F1127002309F07BC080911E01982FDD
S11332308C0D80931E019B838FB7F894E82EFF2496
S113324062E08C2D0E948C01882321F4EFBE81E082
S113325090E05DC08FB7F894282F332784E08093E3
S11332603E042FBFD093B908C093B808EFBEFE0147
S1133270D19289819927807290708983892F9927A7
S113328081839927982F882729813327822B932B91
S1133290816498688983892F992781830E94820198
S11332A08887892F99272896898328970BAB08ABA1
S11332B009AB1DAA0CABC0926B064091B8085091A3
S11332C0B9088FB7F894282F332780910C01909177
S11332D00D018830910511F0019711F02FBF15C031
S11332E082E090E090930D0180930C01C09256040B
S11332F0509326044093250400933D052FBF0E945C
S1133300DB18882311F40E948C1380E090E0992745
S1133310C82F882311F00E94F4018C2F992702C032
S113332085E090E09927DF91CF911F910F91FF9055
S1133330EF90DF90CF900895AF92BF92CF92DF923B
S1133340EF92FF920F931F93CF93DF93B82E7B01DD
S1133350A42E81E08B1518F481E090E035C0CB2DCC
S1133360DD27CC0FDD1FC25CDE4FC880D980C114BD
S1133370D10419F085E090E027C068837983642F35
S1133380C7010E947707809100018230E0F0C701F5
S11333900E94F805082F1127C7010E94BE07B092AA
S11333A000012A2DA701BC01802F0E94EA18992749
S11333B0282F882329F082E080930001C882D982D3
S11333C0822F992701C0C601DF91CF911F910F91E0
S11333D0FF90EF90DF90CF90BF90AF9008959F92B1
S11333E0AF92BF92CF92DF92EF92FF920F931F930F
S11333F0CF93DF935B01942EC82FDD27FE01EC0FE2
S1133400FD1FE25CFE4F108211828091000199271A
S113341001969C018E7F9370281B390B2093000129
S113342060E0322F432F5527FA01E40FF51FE25CC9
S1133430FE4F80819181892B99F0832F8695869503
S11334408695E82FFF27E359F94F80819927232F89
S1133450277002C0959587952A95E2F780FF0AC0E8
S11334604F5F5F4FCA018E7F9370342F381B6F5F9D
S11334706230C0F230930001623018F082E0809331
S11334800001E0910001E230F8F4FF27EE0FFF1F86
S1133490E25CFE4F00811181C8010E94F805C82E2C
S11334A0DD24C8010E94BE077C01C8010E94A90551
S11334B09927282FA801B7018C2D0E94EA18882388
S11334C019F081E10E94AC00209719F0219729F0AE
S11334D009C0492DB50180E303C0492DB50184E03D
S11334E00E941D18DF91CF911F910F91FF90EF90D3
S11334F0DF90CF90BF90AF909F900895CF93982F77
S11335008FB7F894282F3327C22F8091070189178A
S1133510A9F02FBF81E090E034C04093070181E01F
S113352090E002C0880F991F2A95E2F780955823EE
S113353050930F018AE00E94AC0020C08FEF80936B
S1133540070150910F015523A9F040E065E0E52FF4
S1133550FF27842F0E94B134492F292F3327CF010D
S1133560022E02C0959587950A94E2F780FDD5CF87
S11335704F5FEFCF0E9472180E946A02CFBF80E0B3
S113358090E0CF9108951F93CF93DF938FB7F89472
S1133590C82FDD271C2F8091F9039091FA03892B02
S11335A029F484E00E947E1ACFBF2BC01092DE0360
S11335B02091BE08222341F080E090E0B79B02C036
S11335C081E090E0892B49F481B19927F6E0969542
S11335D08795FA95E1F780FD08C0222319F0215060
S11335E02093BE080E94BE180BC081E090E0909327
S11335F0FA038093F9031092BE0884E00E947E1AB5
S11336001FBFDF91CF911F9108950E940903C09AB3
S1133610C09888E00E946A1188E00E946A11C09AEA
S113362084E00E947E1A0E94C31A08950F931F9388
S1133630CF93DF9301E08FB7F894C82FDD271C2FB9
S113364080910C0190910D010897D1F489E00E94BA
S11336506A1183E00E947E1AC09A81E090E0909300
S11336600D0180930C018FB7F894282F332783E042
S1133670809313012FBF86E00E94AC00CFBF33C0FC
S1133680C09880915604882311F085E001C084E03D
S11336900E946A1183FD05C080E00E946A1183FDC7
S11336A003C083E090E003C000E085E090E09093E5
S11336B00D0180930C01C09A1FBF002341F01092AA
S11336C03D0583E00E947E1A0E94E3100CC00E9414
S11336D0EA02DC01CB0120E431E040E050E0BC012F
S11336E0CD010E94C510DF91CF911F910F910895D4
S11336F0EF92FF920F931F93CF93DF938B018091EF
S11337003E0590913F0520913E0586FF2CC12F7BFD
S1133710822F99278E33910509F479C1CF9709F047
S113372076C1C0911901D0911A01588150933D017D
S11337308091F9039091FA038330910509F451C003
S11337408430910518F4029729F006C1049709F40E
S113375094C002C183E090E09093FA038093F9034C
S1133760852F9927019640914501242F3327281747
S11337703907A4F180E090E0B79B02C081E090E0BB
S1133780892B69F481B1992706E0969587950A9566
S1133790E1F780FD04C0451B415040934501209151
S11337A03D012133D8F4222391F0BE016F5F7F4F96
S11337B0283018F047E050E05BC084E090E090933C
S11337C0FA038093F903822F9927AC0151C0209307
S11337D0DE03C09A84E00E947E1ABBC00E94051BCF
S11337E016C184E090E09093FA038093F9038091EA
S11337F01C048823B1F180913B04882391F58A81CC
S11338009927582F442789819927482B592B45FFFD
S113381028C08F819927382F22278E819927282B1A
S1133820392B8091A3089091A4082817390719F01F
S11338302F5F3F4FB1F4477050704130510589F408
S1133840C09AC0988AE00E946A11C09AC0982896CB
S113385080913D018750482FBE018FE30E94491398
S1133860D6C0289680913D0187509927AC01BE01AE
S113387080E090E00E942113CAC0C09A8091BE08E3
S1133880882319F484E00E947E1A80915D058823C0
S113389019F180913D018B3028F18091C404E82F07
S11338A0FF27EE0FFF1FEB52F74F808191818DAB05
S11338B0892F99278CAB8091C404992701969C0188
S11338C0287F3170821B930B8093C40480915D0523
S11338D0815080935D0506C08FEF9FEF8DAB8FEF16
S11338E090E08CAB80913D01FE01E80FF11D8081D9
S11338F087FF2FC0012B69F169816770E09119017D
S1133900F0911A01623009F5A0912504B0912604C2
S113391080910C0190910D010797D9F4ED019B81E1
S113392083818917B1F487B78F7E87BF908181E047
S11339308BABE90FF11D8291319688AB80818F7733
S113394089AB80E00E94D30204C0613011F48DE0A1
S11339502BC00E94C31A5BC01092DE03C09A84E09D
S11339600E947E1A54C02E3309F051C0C09A80912F
S11339700C0190910D010897D1F4C09889E00E9440
S11339806A11C09A83E00E947E1A81E090E09093CD
S11339900D0180930C018FB7F894282F332783E00F
S11339A0809313012FBF86E00E94AC0030C0809149
S11339B05604882349F484E090E090930D018093A9
S11339C00C010E94161B23C083E00E947E1A83E030
S11339D090E090930D0180930C010E94D100DC01D2
S11339E0CB0166E371E00E94BD340B9690932204F0
S11339F0809321047C01002711270E94EA02DC0144
S1133A00CB01A8019701BC01CD010E94C510DF9133
S1133A10CF911F910F91FF90EF9008954091420133
S1133A20242F3327F901EE0FFF1FE20FF31FE8578E
S1133A30FB4F818392838081807E8260808380912A
S1133A40D308843111F44093D30861E082E491E017
S1133A500E94F60B80E00E94AC0008958F929F9222
S1133A60AF92BF92CF92DF92EF92FF920F931F9388
S1133A70CF93DF93CDB7DEB722970FB6F894DEBFAE
S1133A800FBECDBF882E5A01922E84E189836E0128
S1133A900894C11CD11CF601818280916F01882396
S1133AA019F484E090E0D9C0F4E2F21718F482E04B
S1133AB090E0D3C0C6010E948000E82E8091740477
S1133AC0E81699F08091BA088E0D912D911D6AE047
S1133AD070E00E94D134FC01EE0FFF1FE55AFE4F47
S1133AE08081918189839A8331C08AE0E81671F5D7
S1133AF08091BA08E82FFF27EE0FFF1FE55AFE4F0B
S1133B00F0808F2D99278C01000F111F080F191FAA
S1133B1008571B4FF801818192810E94F80545E006
S1133B206F2D0E945C06F801818192810E9404023B
S1133B30D8018C91807E81608C93809102048F15D2
S1133B4029F464E082E094E00E94F60B609174042E
S1133B506A3011F0E61631F08E2D0E94B134892FAF
S1133B600E941E028091BA0820917404820F912D44
S1133B70911D6AE070E00E94D1347C01EE0CFF1CC0
S1133B80EBE5F1E0EE0EFF1ED6018D919C91F7015D
S1133B90808391832F5F2093740480E090E02091D0
S1133BA02404222311F481E090E0682F7727662310
S1133BB081F4809142019927FC01EE0FFF1FE80F69
S1133BC0F91FE857FB4F808199278F7190700197F7
S1133BD019F085E090E041C02223C1F08091F50303
S1133BE0E82FFF27EE0FFF1FE25AFA4F4081518161
S1133BF0108211822150209324048F5F8093F50357
S1133C008A3011F46093F5038A0102C000E010E0E9
S1133C1088E3D801F50101900D928A95E1F780912E
S1133C204201D7018C93692DC8010E94CE08682DEA
S1133C30C8010E94510B809142019927FC01EE0FAB
S1133C40FF1FE80FF91FE857FB4F80818F7D8083AA
S1133C50C8010E940E1D80E090E022960FB6F894F1
S1133C60DEBF0FBECDBFDF91CF911F910F91FF90AB
S1133C70EF90DF90CF90BF90AF909F908F9008957A
S1133C80AF92BF92DF92EF92FF920F931F93CF9365
S1133C90DF93D82E5B01EA01F22E0E9482018C018F
S1133CA094E0E92E6E2DCE010E94E806FC0101830A
S1133CB0812F992780836E2DCE010E94E806FC0196
S1133CC0A3828B2D99278283FE0C6F2DCE010E9437
S1133CD0CE08CE010E945007282F33274D2D55279B
S1133CE04115510521F04130510529F00AC0AE01BA
S1133CF0B50180E003C0AE01B50181E00E942E1D34
S1133D0001C081E09927DF91CF911F910F91FF901E
S1133D10EF90DF90BF90AF9008954F925F926F92B3
S1133D207F929F92AF92BF92CF92DF92EF92FF92D7
S1133D300F931F93CF93DF935B016C019924EE24BF
S1133D40FF240FE111E0F801608561FF8FC020813D
S1133D50318142815381D601C501821B930BA40B8F
S1133D60B50B448055806680778084159505A6053B
S1133D70B70508F47BC060FF03C06D7F608709C08E
S1133D80240D351D461D571DF801208331834283C0
S1133D905383F1E0EF16F10499F182E0E816F1049F
S1133DA024F4E114F10431F061C0E2E0EE16F10410
S1133DB0A9F15CC00E94C00F0DC08091DE0588236C
S1133DC079F080917804909179040E94231480E022
S1133DD00E94CE018091030490910404892B69F31D
S1133DE08091DE05882309F441C0809103049091F9
S1133DF00404AA27BB27BC01CD010E94F90F36C0D9
S1133E008FB7F8949927109241048FBF809155057C
S1133E10843160F581E00E94AC0028C080911501D6
S1133E209091160101969093160180931501C6EAAC
S1133E30D3E060E0CE010E94510B66E0CE010E9407
S1133E40E806FC01892B09F03496309779F08091CB
S1133E501501909116018183892F9927808322E08F
S1133E60AE0161E070E080E00E94401E9394075F21
S1133E701F4F0894E11CF11CF2E0F91508F063CF20
S1133E808FE00E94AC00DF91CF911F910F91FF90C2
S1133E90EF90DF90CF90BF90AF909F907F906F9006
S1133EA05F904F900895CF93DF9380916F018823A3
S1133EB009F44CC030914201343109F447C080E028
S1133EC090E020915405222311F481E090E0A82F82
S1133ED0BB27AA23D9F5832F9927FC01EE0FFF1FD7
S1133EE0E80FF91FE857FB4F808199278F71907075
S1133EF0019761F52223C1F08091A203E82FFF27E7
S1133F00EE0FFF1FE05CFA4F408151811082118255
S1133F102150209354058F5F8093A2038A3011F4BB
S1133F20A093A203EA0102C0C0E0D0E0832F992746
S1133F30FC01EE0FFF1FE80FF91FE857FB4F8081CC
S1133F4080628083CB010E940E1DBE01CB01DF91F4
S1133F50CF9108958F929F92AF92BF92CF92DF92AA
S1133F60EF92FF920F931F93CF93DF93CDB7DEB7FA
S1133F706C018DB69EB6542FA0E0842F992702962B
S1133F800DB71EB7081B190B0FB6F8941EBF0FBE52
S1133F900DBFEDB6FEB60894E11CF11C1FEFC1166F
S1133FA01FEFD10629F0EDB7FEB7C182A1E05A0F89
S1133FB0FFEF2F3F3F0729F0F701E50FF11D2083A5
S1133FC05F5F442359F087010A0F111DD801FB01DB
S1133FD081818D93415032964423D1F7C52ECA94E2
S1133FE0F9F08701AA24BB24D52EDA94F801818143
S1133FF0682F80810E94090AEC2DFF27EA19FB092A
S1134000EE0DFF1D82913196682F80810E94090A6E
S1134010DA940894A11CB11C0F5F1F4FDD2031F707
S11340200E94820164E10E949D0E0FB6F8949EBE28
S11340300FBE8DBEDF91CF911F910F91FF90EF9036
S1134040DF90CF90BF90AF909F908F9008950F9383
S11340501F93082FCB0114E0612F0E94E806FC0196
S113406082819927382F222783819927282B392B5E
S113407080819927B82FAA278181992740E060E0A1
S113408070E08A2B9B2B0E94AA1F602F812F0E9415
S11340901B0E1F910F9108952F923F924F925F92A2
S11340A06F927F928F929F92AF92BF92CF92DF9244
S11340B0EF92FF920F931F93CF93DF93CDB7DEB7A9
S11340C060970FB6F894DEBF0FBECDBFC82E5B015C
S11340D064E0C5010E94E806FC0180819927782EDE
S11340E0662481819927682A792A82819927582E02
S11340F0442483819927482A592AB50181E00E94E2
S1134100AE059927182F882309F495C1B50181E0DC
S11341100E943D084C01012F1127015010401695B3
S11341200795088BC5010E941707E82EFF24EE208F
S113413029F10E9482010894811C911C9C01402F4A
S1134140B401C3010E94AA1F2C2D3327F901B3E047
S1134150F695E795BA95E1F7E55EFE4F2770307066
S113416081E090E002C0880F991F2A95E2F7208130
S1134170282B208382E00E94AC00A0C21E01089478
S1134180211C311C8FE0D1011D928A95E9F76982C7
S11341907A820E9482016816790609F486C2DE2CAE
S11341A0B889EB16C0F47401F70181819927182F9F
S11341B0002782819927082B192B0E948201081756
S11341C0190709F472C2D39422E030E0E20EF31E20
S11341D03889D31648F30E948201B4016F5F7F4F80
S11341E09C014889C3010E94AA1F8FEF9FEF73E0CF
S11341F0D72EF101379681939193DA94D7FEFBCFB2
S1134200A0E0B0911801AB1740F58091A508482FA4
S11342105527CA0157FD0796887FFA01E81BF90B59
S1134220CF0164E0EE0FFF1F6A95E1F7E81BF90B7D
S1134230EB53FB4F60E070E020813181F10180811C
S113424091812817390711F461E070E0672B29F494
S1134250AF5F4F5F5F4FAB17E0F24A2F80911801B9
S1134260A817D1F08091A5088A0F912D911D9C016A
S1134270887F9370281B390BF90154E0EE0FFF1F60
S11342805A95E1F7E21BF30BEB53FB4F8FE0D1019F
S113429001900D928A95E1F720911801283019F0C8
S11342A0421709F456C0842F622F0E94B13492172A
S11342B008F04FC0992361F48091A50899270196CD
S11342C09C01287F3170821B930B8093A5083CC00E
S11342D09217D0F57FE0092F1127291B622F8091B7
S11342E0A508A801480F511DCA0157FD0796887FEC
S11342F0FA01E81BF90BDF0134E0AA0FBB1F3A9562
S1134300E1F7AE1BBF0BAB53BB4FCA0101969C0137
S113431097FF03C09A01285F3F4F287F821B930BAE
S1134320FC0124E0EE0FFF1F2A95E1F7E81BF90BCF
S1134330EB53FB4F272F01900D922A95E1F7615023
S11343400F5F1F4F662359F68091180181508093A7
S113435018018091A50840911801840F912D911D99
S11343609C01887F9370281B390BC90154E0220FEC
S1134370331F5A95E1F7281B390B2B533B4F8FE022
S1134380D901F10101900D928A95E1F74F5F4093B5
S11343901801DD24D4016C91462F5527D9011396B9
S11343A0F90137968D91841731F4808191818415B8
S11343B0950509F47AC1D394329683E08D1590F76C
S11343C0F9018281482F5527DA01A20FB31FFD019D
S11343D06383440F551F420F531FFA0147825086CF
S11343E08F5F8370F9018283B50181E00E94AE057D
S11343F08E5F482FB50181E00E94F207882309F0FF
S113440054C1F8890F2F1127000F111F080D191D12
S11344100F5F1F4F0E948201F801818301501040F9
S1134420892F9927F8018183C5010E940A096C2DFF
S113443080E30E943D0CB50183E00E94F30833C081
S1134440B3E0EB2E4F2DB8018E2D0E94F403882388
S1134450E9F04F2DB8018E2D0E94A604FC01808145
S11344609927A4E096958795AA95E1F7482F5527B3
S1134470413061F485819927382F22278681992735
S1134480282B392B622F82810E94DC0EC5010E94E9
S1134490A9059927682FC5010E94FB014F2DBC0176
S11344A083E00E94C803F82EC5010E94A90599273C
S11344B0682FC5010E94FB018C0120E030E0DC0183
S11344C08C91F81610F021E030E0232B09F4B8CFDA
S11344D0B50180E60E94AE059927182F882309F4B8
S11344E0E9C0B50180E60E943D087C01812F99272F
S11344F0019796958795182FD3019201482FF701BC
S11345008081682F7727FB01EF70F0701E1708F485
S1134510CCC0CB0154E0959587955A95E1F7877007
S11345209070882311F0AFEFBFEF660F672F661FFF
S1134530770B7195672B39F0EE2329F0412F4E1B31
S11345404F5F2FEF3FEFC7010196BC01CD010E94E1
S1134550AA1FC5010E948707882309F4ABC0D701AD
S11345604C91242F3327C9018F709070882309F050
S113457046C0220F232F221F330B3195232BD1F159
S113458084E00E94C80618C0612F84E00E940006DF
S113459004E0602F0E94E806FC0182819927982F8D
S11345A0882723813327822B932B8615970569F05F
S11345B0612F802F0E942406182F80E090E0143190
S11345C011F481E090E0892BF9F2012F112720E00A
S11345D030E0043111F421E030E0422F5527442328
S11345E009F063C0602F84E00E945C06602F84E0C1
S11345F00E94640CB50180E60E9422095BC0982FDA
S11346009150892F8F70407F842BF7018083F12F85
S1134610F91BF11790F4EF2FFF27EE0FFF1FEE0D9C
S1134620FF1D81819927782F662782819927682B1E
S1134630792B64157505C9F101C0B201C5010E9449
S11346407B08C5010E9463082C2D3327F901E1542E
S1134650F74F82E08083D7018C919927880F892FA7
S1134660881F990B9195892BD9F4B3E1BC1530F1CE
S1134670F901EE0FFF1FE20FF31FE857FB4F808194
S113468099278F7190700497C9F4818192810E9457
S1134690F805803399F460E18C2D0E941B0C0EC048
S11346A06C2D80E30E943D0C09C06C2D80E30E94B8
S11346B0640C04C06C2D80E30E941B0E60960FB640
S11346C0F894DEBF0FBECDBFDF91CF911F910F9144
S11346D0FF90EF90DF90CF90BF90AF909F908F901E
S11346E07F906F905F904F903F902F9008952F92FE
S11346F03F924F925F926F927F929F92AF92BF923E
S1134700CF92DF92EF92FF920F931F93CF93DF9399
S1134710CDB7DEB7EE970FB6F894DEBF0FBECDBFB0
S11347200E94820164E081E090E08C0F9D1F0E9452
S1134730840764E081E090E08C0F9D1F0E94CE0806
S113474084E00E94C806182F80E30E94C806682FE0
S1134750812F0E94890515C3492C5524C2010E944A
S11347606D05882371F4692D84E00E942406182FB6
S1134770692D80E30E942406682F812F0E948905F9
S113478000C3692D80E30E9400065C01009709F4D0
S1134790A7C2BC0181E00E94AE059927182F882387
S11347A009F4CCC0C5010E941707882399F4692D28
S11347B080E30E94640CC2010E94550584E00E94BB
S11347C0C806182F80E30E94C806682F812F0E9414
S11347D08905D7C2B50181E00E943D088BAF9CAF2B
S11347E0E12EFF240894E108F108F694E7947E2C66
S11347F054E0652E662DC5010E94E806FC01808107
S11348009927382E222481819927282A392A61E080
S113481070E06C0F7D1F892D0E94AA0C813079F401
S1134820C2010E945505862D0E94C806182F80E3F8
S11348300E94C806682F812F0E948905A2C20E2DEE
S11348401127000F111F802F8F5F482F61E070E048
S11348506C0F7D1F80E60E948208C82EDD24CC20C8
S113486099F0692D80E30E94640CC2010E945505F1
S1134870862D0E94C806182F80E30E94C806682F60
S1134880812F0E9489057DC261E070E06C0F7D1F5D
S113489080E60E943D08AC01892B99F4692D80E3E0
S11348A00E94640CC2010E945505862D0E94C80610
S11348B0182F80E30E94C806682F812F0E94890563
S11348C060C28E2D8F708068DA018C93CE14D8F478
S11348D06E2DEBADFCAD0E0F1F1F01501040F80103
S11348E080819927982F882721813327822B932B26
S11348F0FD018283892F992781836150129602508A
S11349001040662361F7772059F0FA0181819927D5
S1134910982F882722813327822B932BBC0101C037
S1134920B10181E090E08C0F9D1F0E947B0881E023
S113493090E08C0F9D1F0E9463083EC2B50180E683
S11349400E94AE05882309F495C1B50180E60E9452
S11349503D088DAF9EAFDC018C91992714E09595AD
S113496087951A95E1F787709070882359F464E06D
S1134970C5010E94E806FC0180819927782E6624EF
S1134980818107C0EDADFEAD81819927782E662423
S113499082819927682A792A0E94820168167906F9
S11349A009F44FC1130161E070E06C0F7D1F892D84
S11349B00E94AA0C813079F4C2010E94550584E05A
S11349C00E94C806182F80E30E94C806682F812F12
S11349D00E948905D6C1B50183E00E94F308182F0F
S11349E0C5010E94A9059927682FC5010E94FB01F2
S11349F0FC0120E030E08081181710F021E030E065
S1134A00232B09F044C0B50183E00E94F3082AC0B7
S1134A1073E0E72E4F2DB8018E2D0E94F4038823F6
S1134A2099F04F2DB8018E2D0E94A604FC018181BE
S1134A309927182F002782819927082B192B0E9468
S1134A4082010817190719F119ADC5010E94A905BA
S1134A509927682FC5010E94FB01412FBC018E2DAF
S1134A600E94C80389AFF9ACC5010E94A905992722
S1134A70682FC5010E94FB018C0120E030E0DC01BD
S1134A808C91F81610F021E030E0232B09F253E06A
S1134A90F52EBE01665C7F4F81E090E08C0F9D1F78
S1134AA00E94C8076C018AAD44E2E42E082F27E077
S1134AB0AE01475C5F4FB6018F2D0E945804182F3A
S1134AC04AADB60181E090E08C0F9D1F0E947C07E7
S1134AD0112399F0692D80E30E94640CC2010E94A5
S1134AE0550584E00E94C806182F80E30E94C8067A
S1134AF0682F812F0E94890544C119AD81E090E09F
S1134B008C0F9D1F0E94A9059927682F81E090E0D2
S1134B108C0F9D1F0E94FB01412FBC018F2D0E9411
S1134B20A6047C01009799F4692D80E30E94640C2B
S1134B30C2010E94550584E00E94C806182F80E334
S1134B400E94C806682F812F0E9489051AC1FC01A2
S1134B5020812F7020612083ADADBEAD8C9199274B
S1134B6034E0959587953A95E1F7207F87709070AA
S1134B70282B2083F50187819927982F8827268160
S1134B803327822B932BF7018683892F99278583DB
S1134B9087010F5F1F4F0E948201F8018183892FD3
S1134BA09927F70181836482872D99278383ADAD8B
S1134BB0BEAD8C91282F3327C901880F892F881FF8
S1134BC0990B9195892B49F4E4E035952795EA955D
S1134BD0E1F727703070203150F041E0692D80E317
S1134BE00E945C06692D80E30E94640CE5C0F2011A
S1134BF073E0F695E7957A95E1F7E159F94FB7E057
S1134C004B22552481E090E002C0880F991F4A94FA
S1134C10E2F72081282B20830E9482018C0164E02A
S1134C20C5010E94E806FC0182819927982F8827F4
S1134C3023813327822B932B682F802F0E942717E1
S1134C40BBC041E0692D80E30E945C06692D80E3CE
S1134C500E94640C892D99270E94550584E00E94C6
S1134C60C806182F80E30E94C806682F812F0E946F
S1134C70890587C014E0612FC5010E94E806FC0184
S1134C8082819927382E222483819927282A392A38
S1134C9088E3E1E0F0E0EC0FFD1FD5010D900192F7
S1134CA08A95E1F7A10161E070E06C0F7D1F892D09
S1134CB00E94ED0D813009F07FC0692D80E30E94D0
S1134CC0640CC2010E945505812F0E94C806182F4A
S1134CD080E30E94C806682F812F0E94890551C075
S1134CE0692D84E00E9400065C010097E1F114E064
S1134CF0612F0E94E806FC0182819927382E222424
S1134D0083819927282A392A88E3E1E0F0E0EC0F2F
S1134D10FD1FD5010D9001928A95E1F761E070E0E5
S1134D206C0F7D1F892D0E94AA0C813051F0A101C6
S1134D3061E070E06C0F7D1F892D0E94ED0D8130C4
S1134D40D9F5892D0E94930CC2010E945505812F2B
S1134D500E94C806182F80E30E94C806682F812F7E
S1134D600E9489050EC0C2010E94550584E00E947C
S1134D70C806182F80E30E94C806682F812F0E945E
S1134D808905982E40E050E0B4E18B1711F441E01E
S1134D9050E020E030E0E4E19E1611F421E030E040
S1134DA080E090E0442321F0222311F081E090E0A0
S1134DB0892B09F4D1CC47C0092D112781E090E05B
S1134DC08C0F9D1F0E94500784509927282F41E083
S1134DD050E04C0F5D1FB10181E00E94401E9927F5
S1134DE08230910571F0833091051CF4892B29F0F0
S1134DF012C00497029778F426C0C8010E94550592
S1134E000AC0C8010E945505892D0E94930C82E0B6
S1134E100E94AC0018C0C5010E94F805803399F4C3
S1134E20B50181E00E94AE05882369F0C5010E94A6
S1134E301707882341F0B50181E00E942209B501DA
S1134E40892D0E944C20EE960FB6F894DEBF0FBE5B
S1134E50CDBFDF91CF911F910F91FF90EF90DF9025
S1134E60CF90BF90AF909F907F906F905F904F9046
S1134E703F902F9008958F929F92AF92BF92CF92BE
S1134E80DF92EF92FF920F931F93CF93DF939927B3
S1134E90AA27BB27FC01429708F09DC6EA5BFF4F97
S1134EA0EE0FFF1F0590F491E02D099480916F019E
S1134EB0882309F490C6B090D30824E1B21609F40B
S1134EC08AC6CB2CDD24F601EE0FFF1FEC0DFD1D71
S1134ED0E857FB4F2081822F99278F71907002979A
S1134EE009F0C5C0C181D281922F907E94609083D5
S1134EF080910204843111F4B09202049295969543
S1134F009770892F992701E0E02EF12CE822F922ED
S1134F1080FD89C0CE010E94FC05282F3327243050
S1134F20310521F020333105B9F07BC0CE010E9458
S1134F300A07BC018F5F9F4F31F4CE010E947B08AA
S1134F406B2D84E06BC00E94A6058C01CE010E94EB
S1134F500A07682F802F57C064E0CE010E94E8063C
S1134F60FC0182819927182F002783819927082B18
S1134F70192BBE0181E00E94AE058823D9F1C80136
S1134F800E94A00B182FA701843111F441E050E0D6
S1134F909701143111F421E030E0C701442321F0DA
S1134FA0222311F081E090E0892B81F5612F84E0C8
S1134FB00E94140BC82F612F80E30E94140BCF3F73
S1134FC011F4992702C08C2F9927082F1127E60185
S1134FD0CC0FDD1FCC0DDD1DC857DB4F89819A81B5
S1134FE00E94FC05803391F4602F89819A810E948C
S1134FF0330B0CC0BE0180E60E94AE05882331F459
S11350000E948201602F0E947E1731C0EB2DFF2782
S1135010E154F74F82E080836B2D80E30E943D0CC6
S113502026C06B2D22C0CE010E9487071091D308A1
S1135030882321F0CE010E94FC0503C0CE010E940A
S1135040FC05282F33272430310521F02033310586
S113505031F00AC0BE01812F0E94272008C0BE0182
S1135060812F0E944C2003C0612F0E94640C62E0D7
S113507083ED98E00E94F60B8091D308843108F008
S1135080AAC580E033C480916F01882309F4A3C5C5
S113509080915505843109F49EC59927FC01EE0FD2
S11350A0FF1FE80FF91FE857FB4F808199279C01E8
S11350B02F71307088719070892B09F47DC0E18064
S11350C0F2802830310521F02031310509F074C017
S11350D080911B04882309F47EC561E084E00E946A
S11350E09E01813009F477C5C7010E94FC05182F81
S11350F0E7018F819927D82FCC27F701868199273B
S1135100C82BD92BC7010E94A905C82EDD24812FE5
S113511099278430910519F0C09769F01AC0BE012F
S1135120C7010E947B0864E0C7010E9484074C2DDC
S1135130B70181E00BC0BE01C7010E947B0860E398
S1135140C7010E9484074C2DB70180E00E949C197E
S113515001C081E099278230910519F183309105CE
S113516034F4009709F437C5019761F025C0853000
S1135170910589F0863091051CF4049751F01CC008
S11351800697D1F48FB7F8949927109241048FBFF2
S113519013C010921B048FB7F894992710924104FE
S11351A066C28FB7F8949927109241048FBF64E2C6
S11351B0C7010E94CE080EC0809155050E94AF0A17
S11351C068E185E595E00E94F60B809155058431F0
S11351D008F001C581E08AC30E947723FCC480E003
S11351E090E020912304222311F481E090E0C82F61
S11351F0DD27CC2309F47EC010921D068091F603AE
S1135200843109F0E8C4B0906E06CC2400E010E0CC
S1135210C8010E94AC03882329F1780163E0F69465
S1135220E7946A95E1F7F701ED55FC4F9801277073
S1135230307081E090E002C0880F991F2A95E2F750
S1135240D82ED09480818D2180838C2D0E94B80427
S1135250C82FDD27CC2349F1F701E35AFB4F8081A6
S11352608D2122C0C8010E949003882341F18C2D16
S11352700E94B804C82FDD27CC2309F1F80153E0BC
S1135280F695E7955A95E1F7E35AFB4F9801277095
S1135290307081E090E002C0880F991F2A95E2F7F0
S11352A0982F90958081892380834C2F6C2D8B2D92
S11352B00E9405154C2F6C2D8B2D0E94F70CC39466
S11352C00F5F1F4F0431110508F4A2CF20E030E036
S11352D080917305882321F480916E06B81611F02D
S11352E021E030E0232B09F476C464E18B2D0E9485
S11352F09D0E71C4822F815080932304682F8C2FBC
S11353000E9420034C2F0091230411E0101708F091
S113531044C0E12FFF279F012F5F3F4F802F992724
S113532028173907ACF4EF51FC4F21818081E82F15
S1135330FF27E05AFB4F80819927E22FFF27E05A8D
S1135340FB4F2081821B9109181619060CF41F5F6C
S1135350E42FFF27EF51FC4F2081C12FDD27FE01F1
S1135360EF51FC4F8081E82FFF27E05AFB4F8081EB
S11353709927E22FFF27E05AFB4F2081821B9109D6
S11353801816190654F0612F842F0E942003412F10
S1135390CC0FDD1F1C2F1F5FB9CF80912304E82F92
S11353A0FF27EF51FC4F8081282F3327F901EE5B53
S11353B0FB4F84E18083D22EE22EFF24D701A95B28
S11353C0BE4FF701E95DFB4F80818C938091F6031A
S11353D0281739F410923C040E94150383E00E94BC
S11353E0AC00F701EA5AF94FE08138C0CE2FDD272F
S11353F0FE01EC0FFD1FEC58FA4F8081282F332754
S1135400F701E05AFB4F90819F5FA22FBB278D01CC
S1135410095D1B4FF8018081843139F4A05ABB4FD8
S11354209C93822F0E94690312C0FD01E95BFE4F29
S11354308081843171F4FD01E05AFB4F808198171B
S113544040F49083AE5BBB4F8C910E943803F8010B
S1135450D082CC0FDD1FCC58DA4FE98180E090E098
S1135460E23311F481E090E0892B09F4BFCF83E0AB
S11354703DC28FB7F894E82EFF2481E00E944B11BF
S113548001E010E010930D0100930C0110920B0148
S11354901092170110926C06EFBE8FB7F894E82EA5
S11354A0FF240E9409031093FA030093F903109256
S11354B0DE0389B78F7B89BF80E488BF8AB78062A7
S11354C08ABF8AB78F7E8ABF89B7806489BFEFBEDF
S11354D08FB7F894C82FDD278091110190911201A4
S11354E0049719F483E00E946A11CFBF8FB7F89430
S11354F0082F1127C09A80E00E947E1A0FBF42E055
S1135500F42EC1E08FB7F8949927F0923E048FBF30
S1135510C0931B04C0936F018091D308843118F4A5
S113552080E00E94AC0080915505843118F48C2FE2
S11355300E94AC0080915505843118F48C2F0E9490
S1135540AC000E948201892B09F045C30E94F30E2E
S1135550DC01CB01EE240AEF10E020E030E0AC01E6
S1135560BD018F2D0E94630136C38FB7F89499272C
S113557010923E048FBF10921B042DC38FB7F89472
S11355809927F09013018FBF63E081E00E948C01A2
S1135590882369F18FB7F894082F112710920D0111
S11355A010920C0187B78F7E87BF87B78F7D87BF27
S11355B083E00E947E1AC09A0FBF8FB7F894082F19
S11355C011271092FA031092F9030E940903C09A5A
S11355D089B78F7B89BF0FBF1092120110921101FE
S11355E0DE98DD98DE9A85E00E94AC0008C08FB793
S11355F0F894282F332782E080933E042FBFC09174
S1135600B808D091B9080E94F40180910001823059
S113561008F0E1C2E82FFF27EE0FFF1FE25CFE4F08
S1135620608171816C177D0709F0D5C24F2DD1C2FD
S11356308FB7F894282F3327C22F8091F70388233C
S113564001F521E02093F70380911101909112015B
S1135650049721F4822F0E945D129DC088E00E946D
S1135660AC0099C08FB7F89499271092F7038FBFB5
S1135670B2C28FB7F894282F332780911001882362
S113568011F02FBFA8C22FBF80B3992736E096959B
S113569087953A95E1F7C82FC17080917504909170
S11356A03B018917E1F0C917D1F484E090E09093AD
S11356B01201809311018FB7F894282F332781E0CA
S11356C0809310012FBF60E070E08DE10E9485118E
S11356D00E94E611C09AC09884E00E94AC00C09376
S11356E0750489E003C18FB7F894992720910701C5
S11356F08FBF33272230310509F464C023303105CC
S113570044F42115310571F02130310509F445C007
S113571062C22330310509F471C02430310509F423
S1135720A9C059C2C0988FB7F894C82FDD278091BB
S1135730110190911201029771F583E090E090932A
S113574012018093110168E170E08DE10E948511DE
S113575011E010933B011092100180B3992726E0C9
S1135760969587952A95E1F781238093750489E0BE
S11357700E94AC00812F0E946A116FE772E08CE1F5
S11357800E9485110E94AC110E94BE1166E57AE266
S113579087E10E948511CFBF1EC2C09886E00E9497
S11357A06A110E94AC110E94BE110E94E611C09AB7
S11357B0C09883E00E946A11C09A81E00E947E1A18
S11357C088E094C0C0988FB7F894082F112760E040
S11357D0862F0E948C01C82FDD27CC2311F00FBF28
S11357E00AC00FBF83E50E945E118C2F0E945E11D8
S11357F08C2F0E945E11C09A82E039C08FB7F89452
S1135800992720910C018FBF33272430310571F083
S11358102530310524F42230310529F027C0283001
S1135820310539F023C00E948C13D5C10E94161B88
S1135830D2C1C09889E00E946A11C09A83E00E9494
S11358407E1A8FB7F894282F332781E090E0909345
S11358500D0180930C012FBF8FB7F894282F3327A5
S113586083E0809313012FBF86E040C083E00E9451
S11358707E1AB1C10E948113AEC18FB7F894082F6C
S113588011276091430170914401E0915804F09113
S113589059048091DC059091DD0510924401109229
S11358A0430110925904109258041092DD0510928D
S11358B0DC051092E0031092DF0320E0AC01CF017D
S11358C00E94781B0FBF87C18FB7F894282F332706
S11358D0809172058093040182E080930E012FBFB2
S11358E080910401882309F076C18AE00E94AC000B
S11358F072C16FBF97C0A0911901B0911A01809134
S11359003D01FD01E80FF11D8081881F8827881F54
S1135910ED018AAB80913D01FD01E80FF11D319746
S11359208081FD0180AB80913D01E80FF11D8081F4
S11359308F7789ABC0911901D0911A018BE0E82EC1
S1135940F12CEC0EFD1E10913D0189859927582FED
S1135950442788859927482B592B8B819927A82F71
S1135960782F8FEF8093BC088FB7F894682F20E0CE
S113597030E0E0E4F6E0808191818417950731F40A
S11359808281871709F4B5CF2093BC082F5F3F4F5E
S11359903396243031057CF36FBF9091BC0830E01E
S11359A08FB7F894282F9F3F21F080910A0189171F
S11359B019F490910A0131E0892F9927FC01EE0F27
S11359C0FF1FE80FF91FE05CF94F40835183A28366
S11359D0332331F080910A018F5F837080930A0131
S11359E02FBFCE010E9487071C50882321F0CE01CF
S11359F00E94F80503C0CE010E94F805992784305F
S1135A00910519F0C09731F00DC0212FA701BE01F7
S1135A1084E004C0212FA701BE0180E30E94531F2C
S1135A20BC0101C0BE0170931A01609319018FB7C4
S1135A30F89499271092DE038FBF0E94C31ACBC03B
S1135A4040913A01442349F58FB7F894282F33271E
S1135A50E0905805F090590500915A0510915B05A6
S1135A608091180690911906A0911A06B0911B0610
S1135A70E80EF91E0A1F1B1F2FBF80914C06909140
S1135A804D06A0914E06B0914F0640933A019C01F9
S1135A90AD01C801B7010E949B0F0E94F30EDC0107
S1135AA0CB01BC01CD0147C00E94F30E4B015C0148
S1135AB0AFEFEA2EAFEFFA2EAFEF0A2FAFE71A2FB0
S1135AC0CC248FB7F8949927C092DF058FBF6FE17C
S1135AD071E0F2E0DF2EFB01808581FF1DC0808133
S1135AE09181A281B381A5019401281B390B4A0B32
S1135AF05B0BDA01C9012481358146815781281B5A
S1135B00390B4A0B5B0B2E153F054007510724F454
S1135B1079018A01E1E0CE2EDA94675F7F4FD7FEE8
S1135B20DACFCC2009F457C01E141F041006110646
S1135B302CF0C501B4010E948D1E4DC0E0924C06AC
S1135B40F0924D0600934E0610934F0681E0809329
S1135B503A01A8019701C501B4010E949B0F3BC003
S1135B6080916D068823B9F111E0C0E090916D0633
S1135B70892F8123F1F02C2F3327F901EE0FFF1F1A
S1135B80E25CFE4F6081718110821182812F8095C9
S1135B90982390936D062115310521F021303105AC
S1135BA021F007C043E080E302C043E084E00E94A8
S1135BB01D18110FCF5FC830C8F20DC080910001CD
S1135BC0E82FFF27EE0FFF1FE25CFE4F41E06081EC
S1135BD071810E94EF19DF91CF911F910F91FF9076
S1135BE0EF90DF90CF90BF90AF909F908F900895EB
S1135BF0809172068F3FD1F0909172068091720667
S1135C00E82FFF27EA55F74F808180937206809131
S1135C1072068F3F11F48093BB08892F9927FC01EA
S1135C20EA55F74F2FEF20839C0102C02FEF30E09D
S1135C302F3F19F480E090E00895822F0E943B27C3
S1135C4081E090E00895CFEFD0E1DEBFCDBF8FB704
S1135C50F894182F42E150E06FEF70E086EA98E084
S1135C600E94A1348FEF809372068093BB0881E079
S1135C708EBD88E080BF83E083BF2CB53DB54AE785
S1135C808CB59DB58217930708F441509C014423B9
S1135C90B9F792B782B78917E9F32CB53DB592B736
S1135CA082B78917E9F38CB59DB5821B930B409697
S1135CB055E0969587955A95E1F79093570580930B
S1135CC0560513BE83B78EBD8EB580BF12BE1DBCF4
S1135CD01CBC8FEF86BF86B780937C0080B7282FCB
S1135CE033272770307021153105C1F7D29AD19A24
