S01800006275696C642F6D6963617A2F6D61696E2E73726563E5
S11300000C945B000C948B350C9495350C949F35B3
S11300100C94A9350C94B3350C94BD350C94C735A8
S11300200C94F7350C9478000C9478000C94873475
S11300300C94CC330C9471340C946A350C94611385
S11300400C94A5130C9401360C9478000C9478004D
S11300500C9478000C9478000C9478000C9478003C
S11300600C947C340C9478000C9478000C947800F4
S11300700C9478000C9478000C9478000C9478001C
S11300800C9478000C9478000C9478000E2B422B7E
S11300909A2BA32C662D692DBA2E082F0E2F682FAC
S11300A0842F8B2FC42F8730AE30C5306C319A31FA
S11300B000081C18141011241FBECFEFD0E1DEBFBE
S11300C0CDBF11E0A0E0B1E0ECEAF3E700E00BBF44
S11300D002C007900D92A031B107D9F711E1A0E158
S11300E0B1E001C01D92AE35B107E1F70C94E431E3
S11300F00C9400008FB7F894992708958FBF089542
S1130100982F8FB7F894282FE92FFF27EE5FFE4E24
S113011080818F3FB1F480911911891791F08091FA
S1130120AC0B8F3F19F49093AC0B07C0809119115D
S1130130E82FFF27EE5FFE4E90839093191180E025
S113014001C085E02FBF992708950F931F93CF9384
S1130150FC01C0E01091A407C117E8F480911611C6
S11301600081282F3327C90164E170E00E946D39B2
S1130170FC01EE0FFF1FE359FE4F40E050E0808189
S1130180801711F441E050E0452B29F4CF5F2F5F35
S11301903F4FC11740F38C2F9927CF911F910F9197
S11301A008952F923F924F925F926F927F928F9217
S11301B09F92AF92BF92CF92DF92EF92FF920F93F2
S11301C01F93CF93DF93CDB7DEB72A970FB6F8947A
S11301D0DEBF0FBECDBF8FB7F894282F33272987F2
S11301E03A87209048073090490740904A0750903A
S11301F04B0766243EE4A32E23E8B22EC62CD62C4D
S1130200E62CF62C062D162D222D332D442D552D9E
S1130210662D762D862D962D0E946B3629833A8382
S11302204B835C836D837E838F839887822E932E8A
S1130230A42EB52EC62ED72EE82EF92E2401350174
S1130240769467945794479400E2282D392D4A2DCB
S11302505B2D6C2D7D2D8E2D9F2D0E947537A22E2A
S1130260B32EC42ED52EC601B501640D751D861D91
S1130270971D97FF05C09F776F5F7F4F8F4F9F4FED
S1130280609348077093490780934A0790934B07FC
S113029039853FBF2A960FB6F894DEBF0FBECDBF97
S11302A0DF91CF911F910F91FF90EF90DF90CF904E
S11302B0BF90AF909F908F907F906F905F904F9082
S11302C03F902F9008958FB7F894982F82B720917C
S11302D0020B3091030B4091040B5091050B06B6B1
S11302E001FE0FC081B7280F311D411D511D82B77A
S11302F0280F311D411D511D2F5F3F4F4F4F5F4F41
S113030004C0280F311D411D511D9FBFCA01B901F1
S113031008950F931F93CF93DF9310E08FB7F89452
S1130320282F3327022F91B782B746B7981711F0B9
S113033041FF02C02FBF6AC080910A0B8823B1F12C
S11303400E946301DC01CB01C091DA08D091DB0883
S1130350E091DC08F091DD088C1B9D0BAE0BBF0B0C
S113036020914F0B3091500B4091510B5091520BF7
S113037082179307A407B50720F010930A0B11E026
S113038015C02C0F3D1F4E1F5F1F8091020B9091D3
S1130390030BA091040BB091050B281B390B4A0BDE
S11303A05B0B273E31054105510510F086EE05C073
S11303B0223010F482E001C0822F682F615000B611
S11303C001FCFDCF82B7861709F46F5F2091020B01
S11303D03091030B4091040B5091050BDA01C901D4
S11303E0860F911DA11DB11D0196A11DB11D82177E
S11303F09307A407B50718F46091020B609561BFD9
S11304000FBF112319F080E00E948000DF91CF918B
S11304101F910F910895EF920F931F93AE2D99E0C2
S1130420899FF0011124E85DFE4F4083518362836C
S113043073830483158326833783A17080858E7F1D
S11304408A2B8260808781E00E9480001F910F9137
S1130450EF9008958FB7F894992720910201309175
S113046003018FBFC9010895982F8FB7F894482FBF
S1130470552730E0E92FFF27E359F84F808186178D
S113048009F431E04FBF832F99270895282F91E075
S11304908FB7F894382F662339F0E22FFF27E359FA
S11304A0F84F8081882331F4E22FFF27E359F84F76
S11304B0608390E03FBF892F9927089590910401AC
S11304C0981719F481E090E0089580E090E0089591
S11304D080911401882319F480E090E0089581E06C
S11304E090E00895882311F06E9A08956E98089507
S11304F01F93CF93DF93C0911501CC2351F4109136
S113050007011F3F31F46C2F8C2F0E943402882383
S113051019F481E090E051C081E08093450180911D
S11305201E01882311F0C093450180914501882361
S113053009F441C080911401823071F59091040155
S1130540992351F520E030E0809106018F3F11F4AA
S113055021E030E0232BE1F48F3F79F0282F33277B
S1130560F901E85BFE4E8081809306018F3F11F410
S1130570109305011083C90102C08FEF90E08093AE
S1130580090981E0809314018EE00E94800004C078
S113059010930401909314010E946802C82FDD2770
S11305A0CC2331F48C2F0E947202C0931B11C09A89
S11305B080E090E002C085E090E0DF91CF911F9150
S11305C008951F93182F81E090E090931301809376
S11305D0120110921E010E9478021093190188E002
S11305E00E9480001F9108958FB7F894682F772791
S11305F08091E6069091E7062CB53DB506B602FE5D
S113060003C001962CB53DB5AA27BB27442755271F
S1130610DC0199278827822B932BA42BB52B6FBF42
S1130620BC01CD01089580E8809354011092EF0637
S1130630109230081092E00810921C110895109244
S1130640530794E1E2E7F7E083E19193815087FF58
S1130650FCCF0895382F83EF96E0FC01E30FF11DE2
S11306602081DC01A60FB11D8C9180832C938081A5
S1130670E2E7F7E0DF01A80FB11D3C93E20FF11DA3
S113068060830895CF93DF93382F05C06C2F832F99
S11306900E942A033C2F332319F1832F9927FC014D
S11306A0ED50F94F2081BC016150704077FDBC01D1
S11306B0EB01D595C795EC2FFF27ED50F94F8081BD
S11306C0E82FFF27E057F84F80819927E22FFF2773
S11306D0E057F84F2081821B910918161906B4F2CD
S11306E0DF91CF910895282F843118F082E090E0B3
S11306F0089590915307943119F481E090E008959E
S1130700A82FBB27AE58B84F8C91843119F089E0DB
S113071090E00895E92FFF27ED50F94F20839C9333
S11307209F5F909353079150892F0E94420380E06A
S113073090E00895FC01A3E0F695E795AA95E1F70A
S1130740E357F84F208133278770907041E050E0E1
S1130750BA0102C0660F771F8A95E2F72623372372
S11307602115310509F09A01C9010895FC01B3E08E
S1130770F695E795BA95E1F7E451F94F20813327CF
S11307808770907041E050E0BA0102C0660F771F95
S11307908A95E2F7262337232115310509F09A01BA
S11307A0C9010895AF92BF92CF92DF92EF92FF9268
S11307B00F931F935B016C0111E0F12E0E94630102
S11307C0DC01CB01EF2C96018501AC01BD018F2D1D
S11307D00E940B021F910F91FF90EF90DF90CF903A
S11307E0BF90AF900895CF93DF93282F8091090B8A
S11307F02817E0F481508093090B2817B8F4382F98
S1130800822F9927880F991FDC01AC5CB84FFC013B
S1130810E855F84F8281938181939193ED018A8108
S11308209B818D939D932F5F2317A0F3DF91CF912D
S113083008950F931F93CF93DF930E946301AB013D
S1130840BC018091440790914507A0914607B0915F
S113085047078A019B01081B190B2A0B3B0BE90173
S1130860D801809139018D7F809339018091090BE2
S1130870882359F0282FE4E3F7E0808191818A1BD3
S11308809B0B819391932150C1F74093440750935C
S113089045076093460770934707DF91CF911F91F7
S11308A00F9108950F931F939091A4078917E8F56A
S11308B0882359F4809116119927019664E170E018
S11308C00E946D39809316112BC0482F891740F56B
S11308D080911611282F240F312D311DF901941BFD
S11308E0492FCF0164E170E00E946D399C01220F11
S11308F0331F23593E4F8F010F5F1F4FC80164E11F
S113090070E00E946D39FC01EE0FFF1FE359FE4FAA
S113091080819181F901808391834150F80109F725
S11309208091A40781508093A4071F910F9108958B
S1130930CF93DF93EC01A0E0B0915801AB1718F509
S11309408091530B482F5527CA0157FD0796887F7E
S1130950FA01E81BF90BEE0FFF1FEE0FFF1FEB5A16
S1130960F44F60E070E020813181888199812817FB
S1130970390711F461E070E0672B29F4AF5F4F5F32
S11309805F4FAB1708F38A2F9927DF91CF91089512
S11309900E949804982F80915801981719F480E0C8
S11309A090E008958091530B890F912D911D9C0126
S11309B0887F9370281B390BC901880F991F880FF2
S11309C0991F8B5A944F0895CF93DF93582FEB01BF
S11309D04F3F11F440E006C0FB01E40FF11D82819A
S11309E0480F4E5F8881682F77270CC0FE01E20F05
S11309F0F31FDF0111968181851771F0FD0181815B
S1130A00480F4E5F80E090E0461710F081E090E0E0
S1130A10242F3327882351F3C901DF91CF910895FF
S1130A20282F843138F4E82FFF27E75AFE4F8081BE
S1130A30843119F480E090E0089580E008C08F5F6D
S1130A40243118F0E4E1F0E001C0FF272E2FE22F5B
S1130A50FF27E75AFE4FE081E43111F0E21779F7FE
S1130A6099270895DC01862F2C9130E068E2482F05
S1130A705527822F8F5F0E944D39292F892F99275F
S1130A80FC01EE0FFF1FE80FF91FE854F84F8081B7
S1130A9099278F71907084239523892B11F02C93BF
S1130AA008953F5F383228F388E28C9308959C01BF
S1130AB0FC01A3E0F695E795AA95E1F7E955F44F13
S1130AC02770307081E090E002C0880F991F2A954A
S1130AD0E2F7982F909580818923808308959C0163
S1130AE0FC01B3E0F695E795BA95E1F7EE5DFE4FAC
S1130AF02770307081E090E002C0880F991F2A951A
S1130B00E2F7982F90958081892380830895FC01D2
S1130B1023E0F695E7952A95E1F7EE5DFE4F2081F7
S1130B2033278770907041E050E0BA0102C0660F2D
S1130B30771F8A95E2F7262337232115310509F01B
S1130B409A01C901089590912D07891718F4282F47
S1130B50285D01C0282F691718F4962F985D01C0ED
S1130B60962F883219F4862F99270895683211F444
S1130B7099270895291708F4682F862F992708952F
S1130B80FC01828599270895FC0180818C50992766
S1130B9008950F931F93CF93DF938C01EB01672B81
S1130BA019F00E94C4058883C8010B96DF91CF9188
S1130BB01F910F910895CF92DF92EF92FF920F93BE
S1130BC01F93CF93DF93EC01CC24DD2466E0E62E63
S1130BD0F12CE80EF91EF70181819927182F0027BF
S1130BE08E819927082B192B0E942A0208171907AE
S1130BF061F0F70181819927982F88272E81332767
S1130C00822B932B8F5F9F4F19F431E0C32ED12C8D
S1130C10C601DF91CF911F910F91FF90EF90DF906C
S1130C20CF900895FC0187819927382F2227868148
S1130C309927822B932B0895282FFB01DB01A40F06
S1130C40B11D8081481720F4FD018181821719F0BC
S1130C5080E090E00895CD01039608951F93CF930B
S1130C60DF93182FEB014FEF0E94E404482F888193
S1130C70481718F080E090E004C0BE01812F0E9464
S1130C801C06DF91CF911F910895CF93DF93FC0150
S1130C90DC011196ED0189819927982F88272181FC
S1130CA03327822B932B80628183892F9927898311
S1130CB080E090E0DF91CF910895FC016683872F57
S1130CC0992787830895FC0162870895AF92BF92A4
S1130CD0CF92DF92EF92FF920F931F93CF93DF9304
S1130CE0F82E6B015A01122F9E2DC2E0EC2EE20E5B
S1130CF0FB018081482F5527842F8F5FEE2DFF271E
S1130D009F01280F311D892F9927821793071CF4FF
S1130D1082E090E01EC0EB01C40FD11D2196802F0C
S1130D209927AC01BE01CE018E0F9F1F0E9434395A
S1130D30A114B10431F0112321F0F6018081F501F1
S1130D408083F60180818E0D8083F882198380E090
S1130D5090E0DF91CF911F910F91FF90EF90DF9082
S1130D60CF90BF90AF900895CF92DF92EF92FF9211
S1130D700F931F93CF93DF93982F6B01842FF22E41
S1130D80202FFB01E40FF11D8F010F5F1F4FDB01CB
S1130D907C91472F5527841718F48181891719F0FE
S1130DA086E090E03BC0EF2DFF27E8018981992779
S1130DB0E81BF90BD801A80FB91F1296842F8F5F77
S1130DC0482F55278A2F8C19642F681B620FFF2028
S1130DD009F432971E161F067CF4842FAF01480FC6
S1130DE0511DCA01820F911D2E2D33272817390753
S1130DF01CF482E090E012C07E0FE6017883862F17
S1130E009927AC01BD01CD018E0F9F1F0E9434397B
S1130E10FF2011F0F801F18280E090E0DF91CF91A2
S1130E201F910F91FF90EF90DF90CF900895CF9393
S1130E30DF93EB010E94C905FC01209729F0908102
S1130E409F5F8881891B888380818F5FE80FF11DF4
S1130E50CF01DF91CF910895FC01862F845F8083B9
S1130E6008950F931F93CF93DF93CDB7DEB72197E8
S1130E700FB6F894DEBF0FBECDBF8C01BE016F5F0D
S1130E807F4F0E94C905FC0180818F5F9981890F82
S1130E90682FC8010E942C0721960FB6F894DEBF74
S1130EA00FBECDBFDF91CF911F910F910895CF92C7
S1130EB0DF92EF92FF920F931F936C018B010E94BC
S1130EC0C9057C01FC0190819F5FF8018081891B29
S1130ED08083682FC6010E942C07C7011F910F91C0
S1130EE0FF90EF90DF90CF900895AF92BF92CF9292
S1130EF0DF92EF92FF920F931F93CF93DF93CDB7BF
S1130F00DEB721970FB6F894DEBF0FBECDBF182F02
S1130F105B01F42EBE016F5F7F4FC5010E9457072E
S1130F206C0109814FEFBC01812F0E94E404F6019A
S1130F309081891718F489E090E00AC080E3E82ED4
S1130F402F2D40E050E0B601812F0E9466069927BC
S1130F50182FC5010E943107812F992721960FB6BA
S1130F60F894DEBF0FBECDBFDF91CF911F910F91DB
S1130F70FF90EF90DF90CF90BF90AF900895AF9225
S1130F80BF92CF92DF92EF92FF920F931F93CF9372
S1130F90DF93CDB7DEB721970FB6F894DEBF0FBE4F
S1130FA0CDBF182F5B01F42EBE016F5F7F4FC501CB
S1130FB00E9457076C0109814FEFBC01812F0E94E9
S1130FC0E404482FF6018081481718F086E090E089
S1130FD008C090E3E92E2F2DB601812F0E94B4069C
S1130FE09927182FC5010E943107812F992721962F
S1130FF00FB6F894DEBF0FBECDBFDF91CF911F9126
S11310000F91FF90EF90DF90CF90BF90AF90089535
S1131010CF93DF93FC01DC011196ED0189819927BF
S1131020982F882721813327822B932B8F7D8183CF
S1131030892F9927898380E090E0DF91CF910895EB
S113104020915407243118F081E090E00895E09154
S11310500707E20FE43108F0E451FF27EE0FFF1F0A
S1131060EF51F74F808391832F5F2093540780E0E3
S113107090E00895CF92DF92EF92FF921F93CF9367
S1131080DF93CDB7DEB722970FB6F894DEBF0FBE5D
S1131090CDBF182F69836E010894C11CD11C83E055
S11310A0F6018183862F99277C01EE0CFF1CE80E44
S11310B0F91E88EB97E0E80EF91EF7018181928111
S11310C00E94C005811739F4F701808182958695C5
S11310D0877080FF03C086E090E025C0C6010E94AF
S11310E0A500982F8091A4079817C1F0809116113C
S11310F0890F912D911D64E170E00E946D39FC010E
S1131100EE0FFF1FE359FE4F49F08181833031F028
S1131110813039F484E00E94800003C081E090E0D3
S113112002C080E090E022960FB6F894DEBF0FBEB6
S1131130CDBFDF91CF911F91FF90EF90DF90CF90C3
S11311400895FF920F931F93CF93DF93F82E683285
S113115040F5862F8F5F68E20E944D39192F009168
S11311602D071017F1F0C12FDD27FE01EE0FFF1F31
S1131170EC0FFD1FE854F84F808199278F71907010
S1131180049741F4818192810E94C0058F1511F466
S1131190CE0109C0812F8F5F68E20E944D39192F5B
S11311A0E0CF88E290E0DF91CF911F910F91FF9003
S11311B008951F93CF93182FC0912D07C832A0F420
S11311C08C2F9927FC01EE0FFF1FE80FF91FE8543D
S11311D0F84F818192810E94C005811729F06C2FFC
S11311E0812F0E94A108C82F8C2F9927CF911F917E
S11311F008951F93CF93DF93182F6832B0F4862F8E
S11312009927FC01EE0FFF1FE80FF91FE854F84F70
S1131210808199278F719070019739F0C181D281B3
S1131220CE010E94C005811719F080E090E001C052
S1131230CE01DF91CF911F9108950F931F93CF9308
S1131240DF938C01EB010E94C0059927843091053E
S113125019F0C09731F00BC0BE01C8010E94C90546
S113126004C0BE01C8010E9417079C0106C0209754
S113127011F08FEF888320E030E0209719F0888107
S113128081508883C9010196DF91CF911F910F91FD
S11312900895EF92FF920F931F93CF93DF937C01F6
S11312A0C0E0D0E0BE010E941D09FC0182819927A3
S11312B0182F002783819927082B192B0E942A02B3
S11312C00817190781F0BE01C7010E941D09FC011E
S11312D082819927982F882723813327822B932B68
S11312E08F5F9F4F11F4C1E0D0E0CE01DF91CF9129
S11312F01F910F91FF90EF9008951F93CF93DF9369
S1131300EC01162F0E94C0051F5F992784309105B8
S113131019F0C09719F00FC0612F0AC060E070E0A7
S1131320CE010E94C905FC0180818F5F810F682F67
S1131330CE010E942C07DF91CF911F9108950F9346
S11313401F93CF93DF93CDB7DEB721970FB6F894F1
S1131350DEBF0FBECDBF8C010E94C005992784302B
S1131360910519F0C09731F011C0C8010E94C4055D
S1131370982F0DC0BE016F5F7F4FC8010E94C90541
S1131380FC0180818F5F9981981B01C09FEF915070
S1131390892F992721960FB6F894DEBF0FBECDBFD3
S11313A0DF91CF911F910F910895AF92BF92CF9289
S11313B0DF92EF92FF920F931F93CF93DF93CDB7FA
S11313C0DEB721970FB6F894DEBF0FBECDBFF82E5F
S11313D05B01BE016F5F7F4FC5010E9457076C011F
S11313E019814FEFBC018F2D0E94E404EE24012FDC
S11313F02E2D482FB6018F2D0E94B406182FC5013B
S11314000E943107812F992721960FB6F894DEBFE9
S11314100FBECDBFDF91CF911F910F91FF90EF9041
S1131420DF90CF90BF90AF900895FC0123E0F69534
S1131430E7952A95E1F7E35FF84F2081332787701A
S1131440907041E050E0BA0102C0660F771F8A95A0
S1131450E2F7262337232115310509F09A01C90142
S113146008951F93CF93DF93182F8A3F18F082E0DB
S113147090E030C0C82FDD27CE010E94150A8823D2
S113148019F489E090E026C0FE0133E0F695E79573
S11314903A95E1F7E35FF84FC770D07081E090E0D0
S11314A002C0880F991FCA95E2F7982F9095808102
S11314B08923808380918D0B99270E94150A8823A4
S11314C011F010938D0B80911A01815080931A01B1
S11314D080E090E0DF91CF911F910895CF93DF9347
S11314E0843110F4643118F082E090E040C0C82FD9
S11314F0DD27C257D44F98819A3FB9F1E92FFF27CE
S1131500EE0FFF1FE25FF64F808121818617C1F441
S11315102883892F0E94310A88818A3F59F4809157
S11315208A07815080938A0705C0FD012183892F92
S11315300E94310A81E080930A0980E090E017C09C
S11315402A3F99F0A92FBB27AA0FBB1FA25FB64F52
S1131550FD019181E92FFF27EE0FFF1FE25FF64F98
S113156080812181861709F3EBCF86E090E0DF913B
S1131570CF910895EF92FF920F931F93CF93DF9330
S1131580062F843108F054C0643108F051C0E82EAD
S1131590FF24F701E257F44F80818A3F71F0282F2E
S11315A03327F901E20FF31FE25FF64F80818017C2
S11315B011F08181F2CF2A3FD9F540911A014A3FB7
S11315C019F42AEF30E030C080918D0BC82FDD274D
S11315D0FE0153E0F695E7955A95E1F7E35FF84F7E
S11315E09E012770307081E090E002C0880F991F3F
S11315F02A95E2F72081282B2083842F8F5F809304
S11316001A018A3F81F007C0812F8F5F6AEF0E9421
S11316104D3990938D0B10918D0B812F99270E943A
S1131620150A882389F79E013327922F2A3F19F43C
S11316308AEF90E018C0D701A257B44F4C914A3FAB
S113164029F480918A078F5F80938A07892F9927CD
S1131650FC01E80FF91FE25FF64F418300832C93EE
S113166021E020930A09DF91CF911F910F91FF9000
S1131670EF900895CF93DF93282FFB01DB01A40F94
S1131680B11DED0121968081481720F4FD0181816F
S1131690821719F080E090E002C089819927DF91D8
S11316A0CF9108951F93CF93DF93182FEB014FEF42
S11316B00E94E404482F8881481718F080E090E0E5
S11316C005C0BE01812F0E943A0B9927DF91CF916B
S11316D01F910895AF92BF92CF92DF92EF920F9332
S11316E01F935B016C010E946301DC01CB0161E08B
S11316F0E62E96018501AC01BD0180E00E940B023B
S11317001F910F91EF90DF90CF90BF90AF9008950D
S113171080911C01882341F080911D1190911E112C
S11317200E94C93810921C0180911B01882341F04A
S113173080911711909118110E94C93810921B01C1
S11317408091DE08A82FBB27AA0FBB1FFD01E95B10
S1131750FE4F80819181892B81F0A25DB84F8D91DC
S11317609C910E94C9388091DE08E82FFF27EE0F74
S1131770FF1FE95BFE4F10821182089580911D01C5
S1131780882341F08091AD0B9091AE0B0E94C93833
S113179010921D0180911C01882341F080911D113C
S11317A090911E110E94C93810921C0180911B0156
S11317B0882341F080911711909118110E94C93823
S11317C010921B0108958FB7F894992710926F0710
S11317D08FBF0895CF93DF93EC010E94C005992732
S11317E08430910519F0C09739F00DC060E070E0C5
S11317F0CE010E94C90505C060E070E0CE010E94E0
S11318001707FC0102C0E0E0F0E080819927DF9136
S1131810CF910895EF92FF920F931F93CF93DF938D
S1131820CDB7DEB722970FB6F894DEBF0FBECDBF9B
S1131830982FE82EFF24D701AA0FBB1FAE0DBF1DA2
S1131840A854B84F8C9182958695877080FF18C0F4
S1131850FD01218132819091D508943140F5E091C8
S1131860EB06E90FE43108F0E451FF27EE0FFF1F08
S1131870E355F74F208331839F5F9093D50817C0BA
S113188099838E010F5F1F4F83E0F8018183FD016F
S1131890818192810E942008C8010E94A500982F8E
S11318A08091A407981719F0892F0E945204F70118
S11318B0EE0FFF1FEE0DFF1DE854F84F8081807E70
S11318C08160808322960FB6F894DEBF0FBECDBF31
S11318D0DF91CF911F910F91FF90EF9008951F9387
S11318E0CF93182FC62F6832A8F4862F9927FC01AE
S11318F0EE0FFF1FE80FF91FE854F84F8081992776
S11319008F719070049731F4818192810E94C00597
S1131910811719F086E090E00EC08C2F0E940A0C0B
S113192080912D078C1729F464E08DE297E00E94E2
S1131930320580E090E0CF911F9108951F93CF93DB
S1131940182F682F84E00E946F0CC82F612F80E34A
S11319500E946F0CC81719F48C2F992702C081E0DC
S113196090E09927CF911F910895DF92EF92FF9213
S11319700F931F93CF93DF93CDB7DEB721970FB6A5
S1131980F894DEBF0FBECDBFD82E7B01CB010E94E1
S1131990C0059927803311F46D2D28C0BE016F5FF7
S11319A07F4FC7010E94C9058C018981482F5527A3
S11319B0CA010196C1971CF082E090E009C0B80109
S11319C0C80101960E943439F801108280E090E049
S11319D09927882311F0992705C0C7010E94310770
S11319E080E090E0892B39F06D2D80E30E946F0C2C
S11319F081E090E006C060E3C7010E94630680E0D6
S1131A0090E021960FB6F894DEBF0FBECDBFDF91F4
S1131A10CF911F910F91FF90EF90DF9008951F9346
S1131A20CF93DF93182FEB0141E0842F0E947507B9
S1131A30882361F460E070E0CE010E94C905BC0116
S1131A4081E00E942E06FC01892B39F4612F80E38A
S1131A500E946F0C81E090E011C08091A20B982F3E
S1131A608F5F8093A20B90836FEF7FEFCE010E9474
S1131A705D06CE010E94080880E090E0DF91CF91DE
S1131A801F910895FF920F931F93CF93DF93F82E26
S1131A90162F6832B0F4862F9927EC01CC0FDD1F86
S1131AA0C80FD91FC854D84F0881802F99278F7128
S1131AB09070049731F489819A810E94C0058F1532
S1131AC019F086E090E018C0802F807E88608883BB
S1131AD08091D608883211F41093D60880912D078E
S1131AE0811729F464E08DE297E00E94320583E0D7
S1131AF00E94800080E090E0DF91CF911F910F91D0
S1131B00FF9008959F92AF92BF92CF92DF92EF928F
S1131B10FF920F931F93CF93DF93962EE42ED9C099
S1131B20AF2CBB24F50163E0F695E7956A95E1F7E0
S1131B30E955F44F8081282F3327C50187709070B1
S1131B4041E050E0BA0102C0660F771F8A95E2F7C0
S1131B50262337232115310509F09A01232B11F18E
S1131B606F2D80E30E94F9088C0160E070E00E9410
S1131B701D09FC0182819927D82FCC2783819927BD
S1131B80C82BD92B892D9927C817D90759F460E098
S1131B9070E0C8010E94C905BC0180E60E94520B96
S1131BA0882329F46F2D80E30E94A10895C060E08A
S1131BB070E0C8010E94C905BC0180E60E942E069F
S1131BC06C01EE2061F0EE2DEE0DF12DF11D4E2F86
S1131BD04F5FB80180E60E94BF07882369F041E0A7
S1131BE06F2D80E30E943A086F2D80E30E946F0CF2
S1131BF0C5010E9457056DC0F6012081822F9927E7
S1131C0044E0959587954A95E1F78F5F87702F7823
S1131C10992734E0880F991F3A95E1F7282B9E2DD8
S1131C209150892F8F70207F822B8083292F692FD9
S1131C30690F712D711DFB01EC0DFD1D319673E1D2
S1131C40791518F484E190E004C0C75ADE4F888106
S1131C5099279927818310822223C9F0E22FFF2735
S1131C60EE0FFF1FEC0DFD1DDF011197E281E43142
S1131C7018F084E190E005C0FF27E75AFE4F808109
S1131C8099279927FD0181831C922150E5CFF1E02A
S1131C90FE1558F4F60183819927982F882724810B
S1131CA03327822B932BBC0102C0692D7727C801EF
S1131CB00E945D06C8010E944506F501E15EFE4EE4
S1131CC082E08083C5010E9457056F2D80E30E9446
S1131CD0420D80E30E94D908F82E80E090E0F8E2FB
S1131CE0FF1611F481E090E0892B09F419CFDF91FC
S1131CF0CF911F910F91FF90EF90DF90CF90BF9005
S1131D00AF909F9008951F93CF93DF93182F862F42
S1131D109927FC01EE0FFF1FE80FF91FE854F84F55
S1131D20C181D281CE010E94C005811719F08FEFC5
S1131D3090E004C0CE010E94EA0B9927DF91CF9175
S1131D401F9108951F93CF93DF93EC01162F0E94E8
S1131D50C00599278430910519F0C09739F00DC05A
S1131D6060E070E0CE010E94C90505C060E070E04B
S1131D70CE010E941707FC0102C0E0E0F0E01083EE
S1131D80DF91CF911F9108950F931F93CF93DF930A
S1131D908C01C62FDD27C130D10551F0C230D105E9
S1131DA01CF4209739F008C0C230D10519F004C0E2
S1131DB080E303C084E001C08FEF9927682FC80136
S1131DC00E946306C130D10559F0C230D1051CF41C
S1131DD0CD2B21F009C0229729F006C086E105C069
S1131DE080E003C087E101C08FEF9927682FC80105
S1131DF00E94A20EDF91CF911F910F910895EF924F
S1131E00FF921F93CF937C0184E00E94D908182F7E
S1131E1080E30E94D908682F812F0E94A30527C060
S1131E206C2F84E00E94F908009721F46C2F80E362
S1131E300E94F90860E070E00E941D09FC018281A3
S1131E409927982F882723813327822B932B8E154C
S1131E509F0521F16C2F84E00E94A108182F6C2F9C
S1131E6080E30E94A108682F812F0E94A305C82F38
S1131E7040E050E0883211F441E050E020E030E0EE
S1131E80C83211F421E030E080E090E0442321F0F6
S1131E90222311F081E090E0892B11F28C2F9927F5
S1131EA0CF911F91FF90EF900895EF92FF920F93BF
S1131EB01F937B018C018FB7F894682F772781E0FB
S1131EC080930A0BE092DA08F092DB080093DC08B6
S1131ED01093DD0820934F0B3093500B4093510B1C
S1131EE05093520B6FBF0E9489011F910F91FF9075
S1131EF0EF90089594E1A7E5B7E0E9E5F1E083E127
S1131F0091939D93815087FFFBCF0E941F0381E033
S1131F1080936C0708950F931F93CF93C82F843138
S1131F2010F4653118F082E090E030C08091540BD9
S1131F30882319F085E090E029C08091A60BC8178A
S1131F4041F480910807681721F480910A098823D5
S1131F50C1F081E08093540BC093A60B60930807F3
S1131F6010920A090E947A0F0C2F1127F801E057EA
S1131F70F84F10828C2F0E947303095A184FF801EE
S1131F80C08385E00E94800080E090E0CF911F91A3
S1131F900F9108950F931F93CF93C82F062F142FDB
S1131FA00E946E0A112321F06C2F802F0E946E0A6A
S1131FB00E942A0264E10E948B0FCF911F910F911E
S1131FC00895AF92BF92CF92DF92EF92FF920F9358
S1131FD01F93CF93DF930E94F402FC01EB018091E5
S1131FE04D0790914E07A0914F07B0915007A090D4
S1131FF0890BB0908A0BC0908B0BD0908C0B9C01FA
S1132000AD012A0D3B1D4C1D5D1D79018A01EC1AA1
S1132010FD0A0E0B1F0BC817D907EA07FB0730F0A0
S1132020281739074A075B0770F005C028173907D6
S11320304A075B0728F4C217D307E407F50718F02B
S1132040EE24FF24870121E0E21620E8F20620E0D6
S1132050020720E0120730F1C050D048EF4FFF4F85
S1132060C0934D07D0934E07E0934F07F09350076A
S1132070C050D048E040F04080E090E8AFEFBFEFC0
S1132080E80EF91E0A1F1B1FE092890BF0928A0BBF
S113209000938B0B10938C0BE12CB0E8FB2E012DDD
S11320A0112D14C08A0D9B1DAC1DBD1D80934D07C1
S11320B090934E07A0934F07B09350071092890B4B
S11320C010928A0B10928B0B10928C0BB7012CB5CB
S11320D03DB5C9018C1B9D0B03968E159F0520F001
S11320E0B9016D5F7F4F02C06C0F7D1F61157105D3
S11320F011F461E070E0615070407BBD6ABD80E125
S113210086BF87B7806187BFDF91CF911F910F9101
S1132110FF90EF90DF90CF90BF90AF9008950F9312
S11321201F93DC01CB016FB7F894062F112780931E
S11321304D0790934E07A0934F07B09350072093F9
S1132140890B30938A0B40938B0B50938C0B0E941A
S1132150E10F0FBF1F910F910895CF92DF92EF927D
S1132160FF920F931F938FB7F894C82EDD240E941B
S1132170D100DC01CB0166E470E00E9459390B9672
S113218090938C0780938B077C01002711270E9472
S1132190F402DC01CB01A8019701BC01CD010E942E
S11321A08F10CFBE1F910F91FF90EF90DF90CF90D3
S11321B0089597B79F7D97BF90E296BF882319F043
S11321C08EB5806402C08EB58F7B8EBD87B780626A
S11321D087BF80E090E008951F93182F81E00E944C
S11321E072021FB9779BFECF8FB199271F91089573
S11321F01F93CF93DF93182F8FB7F894C82FDD2741
S113220060E0862F0E943402882321F0CFBF80E053
S113221090E005C0CFBF812F0E94EC109927DF9179
S1132220CF911F910895FF920F931F93CF93DF9344
S1132230F82E8B018FB7F894C82FDD2760E0862F26
S11322400E943402882321F0CFBF80E090E00CC0CC
S1132250CFBF8F2D0E94EC10812F99270E94EC1084
S1132260802F0E94EC109927DF91CF911F910F913D
S1132270FF9008958FB7F89499272091880B8FBF0A
S113228085E0289FC0011124825D9E4F9064BC01AB
S113229088E10E9413110895CF938FB7F894C82F43
S11322A080910A07682F7727762F6627770F770F95
S11322B0770F20E030E080914C07882331F0809143
S11322C06B07882311F021E030E084E0220F331FF4
S11322D08A95E1F7622B732B626E726281E10E9430
S11322E01311CFBFCF910895CF92DF92FF920F9336
S11322F01F93CF93DF93CDB7DEB724970FB6F8942F
S1132300DEBF0FBECDBF8FB7F894282F3327FE0151
S113231031968091A6079091A7078983892F9927E1
S113232081838091FF10909100118B83892F9927CD
S11323308C832FBF6F0134E0F32E8FB7F894082FEE
S1132340112760E0862F0E9434029927882311F018
S11323500FBF16C00FBF082F112708591E4F802F1B
S113236080680E94EC1016950795802F807C0E944F
S1132370EC10F60181916F010E94EC10FA94C9F7F8
S113238024960FB6F894DEBF0FBECDBFDF91CF9178
S11323901F910F91FF90DF90CF900895882311F043
S11323A06F9A08956F9808951F9310E0812F0E94EB
S11323B07202BA9ABB98B99AB89A6C9AC098812F4B
S11323C00E94CE11709A6B986A98689881E00E9476
S11323D072021F9108950F931F93CF93DF93C82F19
S11323E08FB7F894082F11E0612F80E00E94460215
S11323F09927882391F5C09307010E945E02C82F94
S1132400DD27CC2311F08CE00FC00E9468028823E2
S113241011F40E94D41180911401882341F4109383
S11324201401809309098EE00E94800022C08091EB
S113243048118F3FF1F4E0910501EE23D1F0809132
S113244006018F3F19F41092060104C0FF27E85BD0
S1132450FE4EC083109205010CC081E090E002C0E2
S1132460880F991FCA95E2F720911501282B209314
S113247015010FBF80E090E0DF91CF911F910F9184
S113248008958F929F92AF92BF92CF92DF92EF9274
S1132490FF920F931F93CF93DF938FB7F894C0905D
S11324A08807D09089078090520190905301C09181
S11324B0F106D091F206AE01465F5F4F2091060B04
S11324C03091070B2417350708F09A018FBF590183
S11324D00894A108B108CA15DB05E8F47E01E80CEC
S11324E0F91C8E010C0D1D1DC114D10419F0F80145
S11324F0808101C080E00E94EC108114910411F0ED
S1132500F701808321960F5F1F4F0894E11CF11C93
S1132510CA15DB0548F381E00E94CE118FB7F89409
S1132520982FC114D10431F0CC0EDD1EF601808148
S11325308FB901C01FB8D093F206C093F1069FBFB4
S113254080E090E0DF91CF911F910F91FF90EF9089
S1132550DF90CF90BF90AF909F908F900895CF93CE
S1132560DF939C01EA018FB7F89499273093890788
S11325702093880770935301609352015093070B83
S11325804093060B1092F2061092F1068FBF452B72
S113259031F08FB10E944112482F552704C08DE0BD
S11325A00E948000AE01CA01DF91CF910895DF92AD
S11325B0EF92FF920F931F93CF93DF93182F7B011A
S11325C0D42E00E08FB7F894C82FDD27602F802F1A
S11325D00E943402882321F0CFBF80E090E017C02E
S11325E0CFBF1064812F99279093AB088093AA08DA
S11325F08091AA080E94EC10082F8D2D9927AC0118
S1132600B70180E090E00E94AF12802F9927DF91FC
S1132610CF911F910F91FF90EF90DF900895C09894
S1132620809120019091210141E0BC018FE30E943F
S1132630D7120895FF920F931F93CF93DF930091C6
S1132640550710915607F80183AD9927C82F8823A1
S113265009F4CFE1C0988091A40B8C1741F08C2F22
S11326609927806E9068BC0185E10E941311C09384
S1132670A40BF801F080FA948FB7F894C82FDD27E3
S113268060E0862F0E943402882311F0CFBF13C06C
S1132690CFBF8EE390E09093AB088093AA0880911B
S11326A0AA080E94EC108F2D9927AC0160E070E01D
S11326B0C8010E94AF12DF91CF911F910F91FF903B
S11326C008951F920F920FB60F9211242F933F93E8
S11326D04F935F936F937F938F939F93AF93BF9326
S11326E0EF93FF9383B783BF00B600FCFDCF81B7A0
S11326F0992701969C01442755278091020B9091BC
S1132700030BA091040BB091050B820F931FA41F20
S1132710B51F8093020B9093030BA093040BB0930B
S1132720050B78940E948901FF91EF91BF91AF91BD
S11327309F918F917F916F915F914F913F912F91D5
S11327400F900FBE0F901F9018951F920F920FB607
S11327500F9211248F9383B783BF00B600FCFDCF83
S11327608F910F900FBE0F901F901895AF92BF924C
S1132770CF92DF92EF92FF920F931F938C017B0114
S11327800E94D100DC01CB01802391238E0D9F1D7B
S11327905C01CC24DD2472E0F72E0E946301DC018D
S11327A0CB0161E0E62E96018501AC01BD018F2DC0
S11327B00E940B028FB7F8949927F09271078FBF8C
S11327C01F910F91FF90EF90DF90CF90BF90AF904B
S11327D008950F931F93CF93082F162F462F682F1A
S11327E084E00E943A08C82F412F602F80E30E94A2
S11327F03A08C81719F48C2F992702C081E090E099
S11328009927CF911F910F910895AF92BF92CF92C4
S1132810DF92FF920F931F93CF93DF93CDB7DEB771
S113282024970FB6F894DEBF0FBECDBF5C010E94A3
S1132830FF0EF82EA982BA828FEF8B831C82CE0101
S113284001960E94C8048C01892B09F4B0C040E0B1
S113285050E028E2F21611F441E050E020E030E0CC
S113286088E2F81611F421E030E080E090E044239F
S113287021F0222311F081E090E09927882309F0C8
S113288096C0F8012381203108F06BC080E092E00B
S113289002C0880F991F2A95E2F7F8E281309F075A
S11328A024F0C12CB8E2DB2E01C06C018091090B2D
S11328B08830C9F10E9419045091090B452F552302
S11328C0C1F0E42FFF27EE0FFF1FDF01AC5CB84F10
S11328D03E912E911296C216D30658F4E855F84F3D
S11328E0929182913296808391832D933C934150AF
S11328F041F7E42FFF27EE0FFF1FDF01A855B84F64
S1132900AD92BC92EC5CF84FC082D1825F5F509371
S1132910090B8091340790913507AA27BB27BC0186
S1132920CD010E94D203F80183818F5F83832F2D11
S11329303327F901A3E0F695E795AA95E1F7EE5D53
S1132940FE4F2770307081E090E002C0880F991F1D
S11329502A95E2F72081282B208384E00E948000BE
S113296026C0F80183830BC061E08F2D0E94E91318
S11329708F2D0E949E0CC5010E94FF0EF82E40E090
S113298050E0F8E2FF1611F441E050E020E030E0BE
S113299088E2F81611F421E030E080E090E044236E
S11329A021F0222311F081E090E0892BE9F22496B2
S11329B00FB6F894DEBF0FBECDBFDF91CF911F914C
S11329C00F91FF90DF90CF90BF90AF9008954F92FA
S11329D05F926F927F929F92AF92BF92CF92DF925B
S11329E0EF92FF920F931F93CF93DF935B016C01E0
S11329F09924EE24FF2408E211E0F801608561FFC8
S1132A008DC02081318142815381D601C501821B51
S1132A10930BA40BB50B4480558066807780841596
S1132A209505A605B70508F479C060FF03C06D7F5E
S1132A30608709C0240D351D461D571DF8012083EC
S1132A40318342835383F1E0EF16F104A9F182E06C
S1132A50E816F10424F4E114F10439F05FC0E2E073
S1132A60EE16F10409F44DC059C08091D9088823A9
S1132A7009F454C0C091AC08C13069F40E94BE0B83
S1132A808091DE08E82FFF27EE0FFF1FE95BFE4F62
S1132A90E082F1820EC0CC2361F480911D01882371
S1132AA041F08091AD0B9091AE0B0E94C938C09358
S1132AB01D011092D90832C00E9419040DC08091E2
S1132AC0090B882379F08091A8079091A9070E94A7
S1132AD0051480E00E94F303809134079091350738
S1132AE0892B69F38091090B8823C1F08091340705
S1132AF090913507AA27BB27BC01CD010E94D203C0
S1132B000DC08FB7F8949927109271078FBF8091E9
S1132B10D608883218F483E00E9480009394075FFB
S1132B201F4F0894E11CF11CF2E0F91508F065CF81
S1132B3081E00E948000DF91CF911F910F91FF905F
S1132B40EF90DF90CF90BF90AF909F907F906F9069
S1132B505F904F9008958F929F92AF92BF92CF92C1
S1132B60DF92EF92FF920F931F93CF93DF93CDB732
S1132B70DEB728970FB6F894DEBF0FBECDBFB62ED2
S1132B80A42EE62EFF24E982FA824E010894811CC9
S1132B90911C8FEF8B831C824423A1F1ED82FE8272
S1132BA08F831886CE0105960E94C804FC01892BE8
S1132BB049F18381882331F1138213812091090B18
S1132BC0121700F5E8EAF7E0819191918E159F05BF
S1132BD0B1F4812F0E94F3031123A1F48091090B16
S1132BE0882381F00E94190480913407909135075D
S1132BF0AA27BB27BC01CD010E94D20303C01F5FDB
S1132C00121710F384E00E94D908182F80E30E9461
S1132C10D908682F812F0E94A30598C16D2D84E0E7
S1132C200E94F9088C017C01892BE1F46D2D80E36D
S1132C300E94F9088C01B7010E94C905BC0180E615
S1132C400E94520B882371F06D2D84E00E94A1082C
S1132C50182F6D2D80E30E94A108682F812F0E94F8
S1132C60A30574C160E070E0C8010E941D09FC0165
S1132C7082819927382F222783819927282B392B62
S1132C80EB2CFF242E153F0571F06D2D84E00E947E
S1132C90A108182F6D2D80E30E94A108682F812FB1
S1132CA00E94A30553C1AA2009F09CC0C4010E943C
S1132CB09804282F409158018417C1F08091530B38
S1132CC0820F912D911DFC01887F9370E81BF90BF5
S1132CD0EE0FFF1FEE0FFF1FEB5AF44F808191811F
S1132CE0A281B38189839A83AB83BC83483019F072
S1132CF0241709F450C0822F642F0E944D39941771
S1132D0008F049C0992361F48091530B99270196E7
S1132D109C01287F3170821B930B8093530B36C028
S1132D209417A0F58091530B682F690F712D711DB5
S1132D309B01491B142FC90137FD0796887FB901F0
S1132D40681B790B660F771F660F771F6B5A744FDA
S1132D50A9014F5F5F4FCA0157FF02C0C90108961E
S1132D60887FFA01E81BF90BEE0FFF1FEE0FFF1F20
S1132D70EB5AF44F80819181A281B381FB0180835E
S1132D809183A283B38311509A01A9F680915801CB
S1132D908150809358018091530B40915801840FC6
S1132DA0912D911D9C01887F9370F901E81BF90B0B
S1132DB0EE0FFF1FEE0FFF1FEB5AF44FD4010D91DE
S1132DC01D912D913C9100831183228333834F5FA6
S1132DD0409358018381882309F0D2C0C7010E941F
S1132DE00514CEC0CA2CCA94C8010E94C005803301
S1132DF091F0B8018D2D0E94B50C813061F484E00E
S1132E000E94D908182F80E30E94D908682F812FC7
S1132E100E94A3059BC08C2D880F8F5F482FB8019B
S1132E2080E60E947507882381F06D2D80E30E945F
S1132E306F0C84E00E94D908182F80E30E94D908FF
S1132E40682F812F0E94A30581C060E070E0C80153
S1132E500E94C905BC0180E60E942E06BC01892B94
S1132E6081F46D2D80E30E946F0C84E00E94D908E8
S1132E70182F80E30E94D908682F812F0E94A30590
S1132E8065C08C2D8F70FB018083CC20A9F14C2D63
S1132E904150E42FFF27EE0FFF1FE60FF71F319677
S1132EA083E18B1518F484E190E007C0A9E5B1E053
S1132EB0EA0EFB1ED7018C919927992781831082F2
S1132EC04423D1F0E42FFF27EE0FFF1FE60FF71F77
S1132ED09F0121503040E281E43118F084E190E018
S1132EE005C0FF27E75AFE4F808199279927F901EA
S1132EF0818310824150E4CFCC2059F0FB018181C1
S1132F009927982F882722813327822B932BBC0162
S1132F1002C06B2D7727C8010E945D06C8010E947C
S1132F204506ED2DFF27E15EFE4E82E080836D2D88
S1132F3080E30E94420D84E00E94D908182F80E3A8
S1132F400E94D908682F812F0E94A305D82E40E043
S1132F5050E0F8E28F1711F441E050E020E030E057
S1132F6068E2D61611F421E030E080E090E04423DA
S1132F7021F0222311F081E090E0892B09F44ECE58
S1132F8028960FB6F894DEBF0FBECDBFDF91CF9168
S1132F901F910F91FF90EF90DF90CF90BF90AF9073
S1132FA09F908F900895EF92FF920F931F93CF936A
S1132FB0DF93E82EF62EC62FDD27CE010E94B6033E
S1132FC0882309F040C08091540B8823A9F0FE01A6
S1132FD043E0F695E7954A95E1F7E451F94FC77058
S1132FE0D07081E090E002C0880F991FCA95E2F783
S1132FF02081282B208327C08F2D0E941005082FA5
S113300011270023B1F0FE0133E0F695E7953A95D8
S1133010E1F7E357F84FC770D07081E090E002C049
S1133020880F991FCA95E2F7982F9095808189237C
S11330308083402F6F2D8E2D0E94AB15402F6F2D56
S11330408E2D0E94820DDF91CF911F910F91FF90E1
S1133050EF9008950F931F93CF93DF93082F162FAC
S1133060C62FDD27CE010E949A038823C1F4FE01F6
S113307053E0F695E7955A95E1F7E357F84FC77093
S1133080D07081E090E002C0880F991FCA95E2F7E2
S11330902081282B2083612F802F0E94D317DF915A
S11330A0CF911F910F910895DF92EF92FF920F93AA
S11330B01F93CF93DF93D82E8B01413009F45BC06B
S11330C0442309F058C0F6E0EF2EF12CE60EF71E6B
S11330D0F70181819927982F8827FB0126813327BF
S11330E0822B932B8F5F9F4F09F445C0FB0187AD63
S11330F0882309F040C0CD2DDD27FE01E15EFE4EA0
S11331008081882341F081508083CB010E94450651
S113311081E090E036C00E942A02F7019181292FB4
S11331203327722F6627F8019681292F3327622BC4
S1133130732B41E00E94CA0FC8010E94C00580336E
S1133140D1F4FE0163E0F695E7956A95E1F7EE5D4B
S1133150FE4FC770D07081E090E002C0880F991FC5
S1133160CA95E2F72081282B208384E00E94800006
S113317082E090E006C060E08D2D0E94E91380E0BB
S113318090E0DF91CF911F910F91FF90EF90DF902E
S113319008952091D60899278430910511F0C0979D
S11331A081F4822F0E945418282F43E050E0241702
S11331B011F0233011F4CA0102C0822F9927282F5D
S11331C001C020E0422F55278FB7F8949927109219
S11331D071078FBF413039F468E070E087E090E018
S11331E00E94B6130895442329F48091D6080E94BE
S11331F00A0C11C02091D608822F9927FC01EE0FEA
S1133200FF1FE80FF91FE854F84F8081807E846027
S1133210808320932D0760E170E08FE090E00E94AE
S1133220B61368E186ED98E00E9432058091D608D5
S1133230883218F483E00E94800008958FB7F894D0
S1133240992710926D078FBF0895EF92FF920F9305
S11332501F93CF93DF93F82E8FB7F894082F11277D
S1133260E02E61E080E00E944602C82FDD27CC23D7
S113327021F00FBF85E090E026C08C2F0E945E02F3
S11332808823C9F490911401992341F482E0809336
S113329014019093040180E090E002C081E090E08A
S11332A09927C82F882311F40E94D4118C2F9927B1
S11332B0C82F882319F4F092070102C00E941E1936
S11332C0EFBE8C2F9927DF91CF911F910F91FF9023
S11332D0EF90089582E090E090930C0780930B07A1
S11332E021E02093EF0690E080910701843009F4F7
S11332F0922F992329F484E00E942519882319F434
S11333000E940F13089584E00E94EB110895CF9357
S113331083E00E9425199927C82F882319F083E098
S11333200E94EB118C2F9927CF910895AF92BF92F1
S1133330CF92DF92EF92FF920F931F93CF93DF937D
S1133340EA01D22E8A876E83872F99278F838FB7BE
S1133350F894282F33278091A6079091A7072FBFB1
S11333608C83892F99272496898324978CE0D80EFF
S113337051E0C52E6C2D82E00E944602082F1127D1
S1133380002309F08AC080912701982F8C0D809327
S113339027019B834BE3A42EB12CAC0EBD1E8FB72B
S11333A0F894E82EFF2462E08C2D0E9434028823D6
S11333B021F4EFBE81E090E067C08FB7F894282F26
S11333C0332784E080936E072FBFD0931511C093E9
S11333D01411EFBEFE01D1928981992780729070F9
S11333E08983892F992781839927982F8827298171
S11333F03327822B932B816498688983892F99279B
S113340081830E942A028887892F99272896898395
S113341028970FAF0CAF0DAFF50116820583C0924C
S1133420A30B40911411509115118FB7F894282FC4
S11334303327622F809112019091130188309105F6
S113344031F08A30910519F08930910511F46FBF7C
S113345019C0019711F02FBF15C082E090E090933E
S1133460130180931201C09286075093560740932C
S113347055070093A9082FBF0E948719882311F4C8
S11334800E941A1380E090E09927C82F882311F036
S11334900E94E30B8C2F992702C085E090E09927C6
S11334A0DF91CF911F910F91FF90EF90DF90CF901C
S11334B0BF90AF900895AF92BF92CF92DF92EF92F8
S11334C0FF920F931F93CF93DF93B82E7B01A42E0B
S11334D081E08B1518F481E090E035C0CB2DDD2719
S11334E0CC0FDD1FC35BDE4FC880D980C114D1046B
S11334F019F085E090E027C068837983642FC701C1
S11335000E942C07809100018230E0F0C7010E94E4
S1133510C005082F1127C7010E941206B0920001AE
S11335202A2DA701BC01802F0E9496199927282FC4
S1133530882329F082E080930001C882D982822FF7
S1133540992701C0C601DF91CF911F910F91FF9080
S1133550EF90DF90CF90BF90AF9008959F92AF927D
S1133560BF92CF92DF92EF92FF920F931F93CF936C
S1133570DF935B01942EC82FDD27FE01EC0FFD1FA6
S1133580E35BFE4F1082118280910001992701961E
S11335909C018E7F9370281B390B2093000160E0FF
S11335A0322F432F5527FA01E40FF51FE35BFE4F3B
S11335B080819181892B99F0832F869586958695B4
S11335C0E82FFF27EB55F44F80819927232F27708D
S11335D002C0959587952A95E2F780FF0AC04F5F50
S11335E05F4FCA018E7F9370342F381B6F5F623038
S11335F0C0F230930001623018F082E08093000141
S1133600E0910001E230F8F4FF27EE0FFF1FE35BC7
S1133610FE4F00811181C8010E94C005C82EDD241F
S1133620C8010E9412067C01C8010E94C4059927A2
S1133630282FA801B7018C2D0E949619882319F010
S113364081E10E948000209719F0219729F009C098
S1133650492DB50180E303C0492DB50184E00E94E2
S1133660C918DF91CF911F910F91FF90EF90DF90D8
S1133670CF90BF90AF909F900895CF93982F8FB71E
S1133680F894282F3327C22F809107018917A9F0B6
S11336902FBF81E090E034C04093070181E090E0C7
S11336A002C0880F991F2A95E2F7809558235093FA
S11336B015018CE00E94800020C08FEF80930701E9
S11336C0509115015523A9F040E065E0E52FFF274F
S11336D0842F0E944D39492F292F3327CF01022EE1
S11336E002C0959587950A94E2F780FDD5CF4F5F88
S11336F0EFCF0E941E190E947802CFBF80E090E0B5
S1133700CF9108951F93CF93DF938FB7F894C82F69
S1133710DD271C2F80910B0790910C07892B29F42E
S113372084E00E943D1BCFBF2BC01092EF06209176
S11337301C11222341F080E090E0B79B02C081E09D
S113374090E0892B49F481B19927F6E09695879505
S1133750FA95E1F780FD08C0222319F02150209347
S11337601C110E946A190BC081E090E090930C0731
S113377080930B0710921C1184E00E943D1B1FBF15
S1133780DF91CF911F9108950E941303C09AC098AE
S113379088E00E94F81088E00E94F810C09A84E043
S11337A00E943D1B0E94821B08950F931F93CF9389
S11337B0DF9301E08FB7F894C82FDD271C2F809189
S11337C0120190911301099779F489E00E94F8108D
S11337D083E00E943D1BC09A81E090E09093130126
S11337E080931201CFBF33C0C0988091860788238D
S11337F011F085E001C084E00E94F81083FD05C04B
S113380080E00E94F81083FD03C083E090E003C0D1
S113381000E085E090E09093130180931201C09A38
S11338201FBF002341F01092A90883E00E943D1BB2
S11338300E94AD100CC00E94F402DC01CB0120E414
S113384031E040E050E0BC01CD010E948F10DF91D7
S1133850CF911F910F910895EF92FF920F931F93B1
S1133860CF93DF937B018091AA089091AB082091BC
S1133870AA0886FF30C12F7B822F99278E339105AA
S113388009F47BC1CF9709F078C1C0912001D09190
S113389021018E01055C1F4F588150934601809190
S11338A00B0790910C078330910509F451C08430C3
S11338B0910518F4029729F007C1049709F491C0FF
S11338C003C183E090E090930C0780930B07852F4E
S11338D09927019640915401242F3327281739073B
S11338E0A4F180E090E0B79B02C081E090E0892BD6
S11338F069F481B1992706E0969587950A95E1F7D1
S113390080FD04C0451B4150409354012091460161
S11339102D33D8F4222391F0BE016F5F7F4F2830FE
S113392018F047E050E058C084E090E090930C0712
S113393080930B07822F9927AC014EC02093EF068A
S1133940C09A84E00E943D1BBCC00E94C41B15C1E8
S113395084E090E090930C0780930B0780914C07D0
S1133960882399F180916B07882379F58A819927B7
S1133970582F442789819927482B592B45FF25C067
S11339808F819927382F22278E819927282B392B2D
S11339908091FF109091001128173907B1F44770F6
S11339A050704130510589F4C09AC0988AE00E9451
S11339B0F810C09AC0982896809146018750482FE5
S11339C0BE018FE30E94D712D8C028968091460189
S11339D087509927AC01BE0180E090E00E94AF12AD
S11339E0CCC0C09A80911C11882319F484E00E94F1
S11339F03D1B8091E008882321F1809146018B30A2
S1133A0038F180913008E82FFF27EE0FFF1FE75BA6
S1133A10FE4E80819181F8018683892F99278583C1
S1133A2080913008992701969C01287F3170821B70
S1133A30930B809330088091E00881508093E008D4
S1133A4007C08FEF9FEFF80186838FEF90E08583A7
S1133A5080914601FE01E80FF11D808187FF31C08E
S1133A60EF2879F169816770E0912001F0912101DB
S1133A70623009F5A0915507B09156078091120163
S1133A80909113010797E9F4ED019B8183818917D4
S1133A90C1F487B78F7E87BF908181E08FAFE90F34
S1133AA0F11D829131968CAF80818F778DAF80E04C
S1133AB00E94E10206C0613021F48FE00E94800080
S1133AC05CC00E94821B59C01092EF06C09A84E029
S1133AD00E943D1B52C02E3309F04FC0C09A809102
S1133AE0120190911301089779F4C09889E00E941B
S1133AF0F810C09A83E00E943D1B81E090E090930F
S1133B0013018093120139C080918607882349F4F8
S1133B1084E090E090931301809312010E94D51BDE
S1133B202CC083E00E943D1B8091120190911301EF
S1133B30089719F48AE090E002C083E090E0909343
S1133B401301809312010E94D100DC01CB0166E3D2
S1133B5071E00E9459390B96909352078093510754
S1133B607C01002711270E94F402DC01CB01A8018B
S1133B709701BC01CD010E948F10DF91CF911F915D
S1133B800F91FF90EF90089540915101242F332716
S1133B90F901EE0FFF1FE20FF31FE854F84F818382
S1133BA092838081807E82608083809147118832F5
S1133BB011F44093471161E081E591E00E943205E0
S1133BC082E00E94800008958F929F92AF92BF92EC
S1133BD0CF92DF92EF92FF920F931F93CF93DF93D5
S1133BE0CDB7DEB722970FB6F894DEBF0FBECDBFB8
S1133BF0882E5A01922E88E289836E010894C11C92
S1133C00D11CF601818280919501882319F484E006
S1133C1090E0D9C0F0E3F21718F482E090E0D3C04A
S1133C20C6010E94A500E82E8091A407E81699F029
S1133C30809116118E0D912D911D64E170E00E940A
S1133C406D39FC01EE0FFF1FE359FE4F8081918116
S1133C5089839A8331C084E1E81671F58091161145
S1133C60E82FFF27EE0FFF1FE359FE4FF0808F2D43
S1133C7099278C01000F111F080F191F0854184FA2
S1133C80F801818192810E94C00545E06F2D0E9458
S1133C903A08F801818192810E942008D8018C9110
S1133CA0807E81608C9380912D078F1529F464E0C8
S1133CB08DE297E00E9432056091A407643111F00F
S1133CC0E61631F08E2D0E944D39892F0E94520440
S1133CD0809116112091A407820F912D911D64E10A
S1133CE070E00E946D397C01EE0CFF1CEDE6F1E002
S1133CF0EE0EFF1ED6018D919C91F7018083918376
S1133D002F5F2093A40780E090E0209154072223A2
S1133D1011F481E090E0682F7727662381F4809185
S1133D2051019927FC01EE0FFF1FE80FF91FE8541A
S1133D30F84F808199278F719070019719F085E071
S1133D4090E041C02223C1F080910707E82FFF27AC
S1133D50EE0FFF1FEF51F74F408151811082118206
S1133D602150209354078F5F80930707843111F407
S1133D70609307078A0102C000E010E084E4D801E0
S1133D80F50101900D928A95E1F780915101D701D7
S1133D908C93692DC8010E947D09682DC8010E9479
S1133DA0C40E809151019927FC01EE0FFF1FE80F0B
S1133DB0F91FE854F84F80818F7D8083C8010E94E9
S1133DC0C41D80E090E022960FB6F894DEBF0FBECB
S1133DD0CDBFDF91CF911F910F91FF90EF90DF90B6
S1133DE0CF90BF90AF909F908F900895CF92DF9225
S1133DF0EF92FF920F931F93CF93DF93E82E6B0103
S1133E00EA01F22E0E942A028C0160E070E0CE01E9
S1133E100E941D09FC010183812F9927808360E0A2
S1133E2070E0CE010E941D09FC01C3828D2D9927EB
S1133E30828384E0F80E6F2DCE010E947D09CE01AD
S1133E400E949F09282F3327FF2481E0E816F104FC
S1133E5081F082E0E816F1041CF4EF2831F013C07D
S1133E6082E0E816F10449F00EC0AE01B60180E02C
S1133E7007C0AE01B60181E003C0AE01B60182E025
S1133E800E94E41D01C081E09927DF91CF911F9129
S1133E900F91FF90EF90DF90CF900895CF93DF9331
S1133EA080919501882309F444C09091510198327E
S1133EB009F43FC020E030E08091D508882311F454
S1133EC021E030E0C22FDD27CC2399F5892F9927F3
S1133ED0FC01EE0FFF1FE80FF91FE854F84F208193
S1133EE0822F99278F719070019719F52062208392
S1133EF0CB010E94C41D9091D5089923C1F08091F3
S1133F00EB06E82FFF27EE0FFF1FE355F74F208145
S1133F1031811082118291509093D5088F5F8093E4
S1133F20EB06843111F4C093EB06B90102C060E0E2
S1133F3070E0CB01DF91CF9108958F929F92AF9261
S1133F40BF92CF92DF92EF92FF920F931F93CF9382
S1133F50DF93CDB7DEB76C018DB69EB6542FA0E0CB
S1133F60842F992702960DB71EB7081B190B0FB69D
S1133F70F8941EBF0FBE0DBFEDB6FEB60894E11C4B
S1133F80F11C1FEFC1161FEFD10629F0EDB7FEB7E4
S1133F90C182A1E05A0FFFEF2F3F3F0729F0F7013D
S1133FA0E50FF11D20835F5F442359F087010A0F59
S1133FB0111DD801FB0181818D9341503296442318
S1133FC0D1F7C52ECA94F9F08701AA24BB24D52EB3
S1133FD0DA94F8018181682F80810E94BA0AEC2D5D
S1133FE0FF27EA19FB09EE0DFF1D82913196682F18
S1133FF080810E94BA0ADA940894A11CB11C0F5F54
S11340001F4FDD2031F70E942A0264E10E948B0FCA
S11340100FB6F8949EBE0FBE8DBEDF91CF911F9157
S11340200F91FF90EF90DF90CF90BF90AF909F9053
S11340308F900895CF93DF93EB010E941D099C019B
S1134040209719F0888184508883C9010496DF91F0
S1134050CF9108950F931F93CF93DF93CDB7DEB71E
S1134060C454D0400FB6F894DEBF0FBECDBF40910C
S1134070F006242F332727FD30958091080B9927CC
S1134080281739070CF068C08E010F5F1F4F4F3F90
S113409051F560E0C8010E94C40E60E070E0C80100
S11340A00E941D09FC01DC0114968091DE088483C2
S11340B08091080BFD018183809159119927828396
S11340C093838091DE08E82FFF27E851F94F808120
S11340D0FD0184838091870B858326E0A80160E03D
S11340E070E080E031C062E0C8010E94C40E60E06C
S11340F070E0C8010E941D09FC017091F00684E182
S11341007802A0011124A82F9A012C5E3F4F6091E0
S11341105911862F99278217930710F4A62FA41BF1
S113412074832A2F33278091AD0B9091AE0B840FAB
S1134130951FA901BC01CF0105960E942B3925E1E9
S1134140A80160E070E082E00E94F61E60E074E185
S113415080E090E00E946A0BCC5BDF4F0FB6F894CE
S1134160DEBF0FBECDBFDF91CF911F910F91089598
S11341704F925F926F927F928F929F92AF92BF9273
S1134180CF92DF92EF92FF920F931F93CF93DF931F
S1134190CDB7DEB721970FB6F894DEBF0FBECDBF03
S11341A0182F3B012983CB010E944909882309F474
S11341B085C2BE016F5F7F4FC3010E941A20AC010C
S11341C0812F99278631910521F0479709F4C3C0BF
S11341D07BC2C0901D01CC2009F09BC080911C01C2
S11341E0882309F06DC080911B01882309F068C001
S11341F0D090AC0811E0812ED81409F061C08091F0
S1134200D908882309F45CC0FA018181882309F460
S113421057C090818091DE08981709F051C08091B1
S113422030018D7F8093300181818093080B22813E
S113423020935911A92FBB27A851B94F84818C937E
S113424095819093870B082F1127000F111F000FE2
S1134250111FE92EFF24EE0CFF1CEE0CFF1C822F15
S11342609927801B910B8E199F090E941A389093ED
S1134270AE0B8093AD0B892B09F426C2D0921D019D
S1134280C8010E941A3890931E1180931D11892B26
S113429009F41AC2D0921C01C7010E941A389093E3
S11342A0181180931711892B09F40EC2D0921B01A7
S11342B0C092F00626E0A30160E070E08C2DBFC13F
S11342C080911C01882329F580911B01882309F51D
S11342D08091D9088823E9F4FA0111811123C9F4E2
S11342E02081233008F0F0C1E22FFF27EE0FFF1FDB
S11342F0E95BFE4F80819181892B09F0E5C1209310
S1134300DE0881E08093D9081093AC080E94880BE2
S1134310D2C18091D908882309F4D6C1FA019181C8
S11343208091080B981709F0CFC18091AC088823BD
S113433009F0CAC190818091DE08981709F0C4C1C0
S1134340809130018D7F809330018091F0068F5FE2
S11343508093F006A1C16091F006262F332727FD34
S11343603095DA017C91872F99272817390709F0AE
S11343706FC18091D908882309F46AC18091AC087F
S1134380813009F065C1A0901D11B0901E11C0903C
S11343901711D0901811809130018D7F80933001D6
S11343A084E1680270011124862F8F5F8093F006E8
S11343B0282F332727FD30958091080B992728173C
S11343C0390739F480915911682F77276E197F09BD
S11343D002C064E170E010E0161617060CF03FC04E
S11343E0A12FBB2797012A0F3B1F8091DE08E82FDE
S11343F0FF27E851F94F80819927880F991F880F6B
S1134400991F2901481A590A8091870B9927880F07
S1134410991F880F991FF201E81BF90BF7FD09C0DA
S11344202091AD0B3091AE0B2E0F3F1FA40FB51F83
S11344300CC0A40FB51F57FC06C04C0C5D1CFD013D
S11344408181D20105C02A0D3B1DFD018181D90165
S11344508C931F5F812F9927861797070CF2809101
S1134460F006282F332727FD30958091080B9927D4
S11344702817390709F0DEC08091DE08E82FFF27EE
S11344808F010E0F1F1F025D184FE851F94F8081F5
S11344909927880F991F0E941A38F8018083918305
S11344A0892B09F4C5C08091DE08A82FBB27FD0124
S11344B0EA0FFB1FE25DF84FA080B180DD24A85114
S11344C0B94F8C91D81608F053C08D2D99277C01D3
S11344D0EE0CFF1CEE0CFF1CE0911D11F0911E115F
S11344E0EE0DFF1D808091808C01080F191F0A0DAD
S11344F01B1D828193810E941A38D8018D939C934D
S1134500892B09F495C0CC24E0911D11F0911E1162
S1134510EE0DFF1D82819381892B09F1B801A7015A
S11345208C2D9927FB01A081B181A80FB91FE091BF
S1134530AD0BF091AE0BE80DF91DE80FF91F80816A
S11345408C93C3942C2D3327E0911D11F0911E11EF
S1134550E40FF51F828193812817390708F3D39458
S11345608091DE08E82FFF27E851F94F8081AACF18
S11345708091DE08A82FBB27AA0FBB1FA95BBE4FE3
S1134580ED2DFF27EE0FFF1FEA0DFB1D32978081F3
S113459091818D939C93DD248091870BD816D8F557
S11345A04091171150911811AD2DBB27AA0FBB1FB5
S11345B0AA0FBB1FA40FB51FFD018181282F33272C
S11345C0220F331F2A0D3B1D8281F9012081318185
S11345D0280F311DFD0183816D2D6F5FAC91882300
S11345E051F08A2F9927880F991F8A0D9B1DD90195
S11345F08D939C930BC0EA2FFF27EE0FFF1FEA0D4C
S1134600FB1D80819181F90180839183D62E809155
S1134610870B681748F20E94BE0B8091DE08E82FD2
S1134620FF27DF01AB5ABE4F8C91E55FF64F8083C5
S11346301092D90825E1A30160E070E082E00E94B5
S1134640F61E60E074E180E090E00E946A0B3CC0DA
S1134650262F332727FD3095872F992728173907C9
S113466099F58091D908882379F11091AC08112328
S113467059F5809130018D7F80933001862F8F5FB3
S11346808093F006282F332727FD30958091080B5F
S11346909927281739071CF40E942A2015C08091F5
S11346A01D01882341F08091AD0B9091AE0B0E94C7
S11346B0C93810931D011093D90806C0BE016F5F5D
S11346C07F4FC3010E941A20C30121960FB6F894AC
S11346D0DEBF0FBECDBFDF91CF911F910F91FF9031
S11346E0EF90DF90CF90BF90AF909F908F907F908E
S11346F06F905F904F900895AF92BF92DF92EF92C8
S1134700FF920F931F93CF93DF93CDB7DEB721971B
S11347100FB6F894DEBF0FBECDBFF82ED62E862F6F
S11347209927FC01EE0FFF1FE80FF91FE854F84F1B
S11347305F010894A11CB11C0181128187E28617D4
S113474058F0808199278F719070049729F4C801DB
S11347500E94C0058F1519F086E090E034C0C801AE
S11347600E94EA0B882309F1BE016F5F7F4FC801E5
S11347700E941D097C01C8010E94EA0B2981992726
S11347808631910519F0479729F00BC0A701B801AC
S113479086E103C0A701B80187E10E94B820BC01EB
S11347A001C0B801F501608371838D2D0E940A0C4C
S11347B080912D078D1529F464E08DE297E00E9425
S11347C0320580E090E021960FB6F894DEBF0FBE6C
S11347D0CDBFDF91CF911F910F91FF90EF90DF90AC
S11347E0BF90AF900895BF92CF92DF92EF92FF9265
S11347F00F931F93B82E6B01EE24FF24B701C6015B
S11348000E941D09FC0182819927182F00278381AA
S11348109927082B192BB701C6010E941D09FC0119
S113482080819927B82FAA2781819927980140E090
S1134830B7018A2B9B2B0E949D1F6B2D84E00E9445
S11348407C231F910F91FF90EF90DF90CF90BF904A
S113485008952F923F924F925F926F927F928F9220
S11348609F92AF92BF92CF92DF92EF92FF920F93FB
S11348701F93CF93DF93CDB7DEB760970FB6F8944D
S1134880DEBF0FBECDBFC82E5B0160E070E0C50186
S11348900E941D09FC0180819927782E662481815C
S11348A09927682A792A60E070E0C5010E941D09F1
S11348B0FC0182819927582E442483819927482A10
S11348C0592A60E070E0C5010E94C905BC0181E07D
S11348D00E94520B9927F82E882309F49FC160E0A7
S11348E070E0C5010E94C905BC0181E00E942E064A
S11348F04C010F2D11270150104016950795088B78
S1134900C5010E944909E82EFF24EE2029F10E94E6
S11349102A020894811C911C9C01402FB401C301FC
S11349200E949D1F2C2D3327F901B3E0F695E795DE
S1134930BA95E1F7EE5DFE4F2770307081E090E0AC
S113494002C0880F991F2A95E2F72081282B208323
S113495084E00E9480008CC21E010894211C311C3A
S11349608FE0D1011D928A95E9F769827A820E94CB
S11349702A026816790609F472C2DE2CB889EB168D
S1134980C0F47401F70181819927182F00278281CF
S11349909927082B192B0E942A020817190709F4D2
S11349A05EC2D39422E030E0E20EF31E3889D316BF
S11349B048F30E942A02B4016F5F7F4F9C0148892B
S11349C0C3010E949D1F8FEF9FEF73E0D72EF1016B
S11349D0379681939193DA94D7FEFBCFA0E0B09100
S11349E01F01AB1740F580910111482F5527CA01CB
S11349F057FD0796887FFA01E81BF90BCF0164E0A5
S1134A00EE0FFF1F6A95E1F7E81BF90BEF5CF74F18
S1134A1060E070E020813181F1018081918128176B
S1134A20390711F461E070E0672B29F4AF5F4F5F41
S1134A305F4FAB17E0F24A2F80911F01A817D1F006
S1134A40809101118A0F912D911D9C01887F937093
S1134A50281B390BF90154E0EE0FFF1F5A95E1F7BB
S1134A60E21BF30BEF5CF74F8FE0D10101900D9245
S1134A708A95E1F720911F01283019F0421709F4B3
S1134A8056C0842F622F0E944D39921708F04FC0F0
S1134A90992361F480910111992701969C01287F43
S1134AA03170821B930B809301113CC09217D0F597
S1134AB07FE0092F1127291B622F80910111A80182
S1134AC0480F511DCA0157FD0796887FFA01E81B5C
S1134AD0F90BDF0134E0AA0FBB1F3A95E1F7AE1BD7
S1134AE0BF0BAF5CB74FCA0101969C0197FF03C08F
S1134AF09A01285F3F4F287F821B930BFC0124E01F
S1134B00EE0FFF1F2A95E1F7E81BF90BEF5CF74F57
S1134B10272F01900D922A95E1F761500F5F1F4FE7
S1134B20662359F680911F01815080931F01809163
S1134B30011140911F01840F912D911D9C01887FCB
S1134B409370281B390BC90114E0220F331F1A95E7
S1134B50E1F7281B390B2F5C374F8FE0D901F101A6
S1134B6001900D928A95E1F74F5F40931F01DD2478
S1134B70D4016C91462F5527D9011396F901379624
S1134B808D91841731F4808191818415950509F400
S1134B9066C1D394329683E08D1590F7F901828132
S1134BA0482F5527DA01A20FB31FFD016383440F79
S1134BB0551F420F531FFA01478250868F5F83703F
S1134BC0F901828360E070E0C5010E94C905BC015F
S1134BD081E00E94520B8E5F482FB50181E00E9454
S1134BE0BF07882309F03BC1F8890F2F1127000F55
S1134BF0111F080D191D0F5F1F4F0E942A02F80193
S1134C00818301501040892F9927F8018183C501C0
S1134C100E9408086C2D80E30E94420D60E070E061
S1134C20C5010E94C9054FEF35C003E060E070E0A4
S1134C30C5010E94C905412FBC01802F0E943A0B77
S1134C40882311F160E070E0C5010E94C905412F7D
S1134C50BC01802F0E941C06FC0180819927A4E0DE
S1134C6096958795AA95E1F7482F5527413061F429
S1134C7085819927382F222786819927282B392B3C
S1134C80622F82810E94CA0F60E070E0C5010E9419
S1134C90C905412FBC0183E00E94E404182F60E0A1
S1134CA070E0C5010E94C905FC0120E030E080816C
S1134CB0181710F021E030E0232B09F4B6CF60E0A0
S1134CC070E0C5010E94C905BC0180E60E94520B38
S1134CD09927F82E882309F4C7C060E070E0C50165
S1134CE00E94C905BC0180E60E942E068C018F2D0E
S1134CF09927019796958795F82ED3019201482F0D
S1134D00F8018081682F7727FB01EF70F070FE16A1
S1134D1008F4A5C0CB0154E0959587955A95E1F721
S1134D2087709070882311F0AFEFBFEF660F672F85
S1134D30661F770B7195672B39F0EE2329F04F2D01
S1134D404E1B4F5F2FEF3FEFC8010196BC01CD0111
S1134D500E949D1FC5010E94DB05882309F484C0BD
S1134D60D8014C91242F3327C9018F709070882368
S1134D7009F045C0220F232F221F330B3195232B1B
S1134D80C9F184E00E94D90818C0612F84E00E9410
S1134D90F90860E070E00E941D09FC0182819927F6
S1134DA0982F882723813327822B932B86159705E9
S1134DB069F0612F84E00E94A108182F80E090E040
S1134DC0183211F481E090E0892BF9F2012F1127B8
S1134DD020E030E0083211F421E030E0422F552782
S1134DE04423E9F5602F84E00E943A08602F84E0B0
S1134DF00E946F0CB50180E60E94D50935C0982F3A
S1134E009150892F8F70407F842BF8018083FF2D70
S1134E10F91BFF1590F4EF2FFF27EE0FFF1FE00F94
S1134E20F11F81819927782F662782819927682B22
S1134E30792B6415750599F001C0B201C5010E9472
S1134E405D06C5010E944506EC2DFF27E15EFE4E7E
S1134E5082E080836C2D80E30E94420D09C06C2D9A
S1134E6080E30E946F0C04C06C2D80E30E947C23BD
S1134E7060960FB6F894DEBF0FBECDBFDF91CF9121
S1134E801F910F91FF90EF90DF90CF90BF90AF9064
S1134E909F908F907F906F905F904F903F902F9056
S1134EA008952F923F924F925F926F927F928F92CA
S1134EB09F92AF92BF92CF92DF92EF92FF920F93A5
S1134EC01F93CF93DF93CDB7DEB7C754D0400FB64F
S1134ED0F894DEBF0FBECDBF0E942A022C01289693
S1134EE01FAE289764E081E090E08C0F9D1F0E9424
S1134EF0630664E081E090E08C0F9D1F0E947D09B1
S1134F0084E00E94D908182F80E30E94D908682FF2
S1134F10812F0E94A305D9C28B2C9924C4010E941D
S1134F208705882371F46B2D84E00E94A108182F53
S1134F306B2D80E30E94A108682F812F0E94A30596
S1134F40C4C26B2D80E30E94F9086C018C010097A8
S1134F5009F46AC260E070E00E94C905BC0181E006
S1134F600E94520B9927182F882309F4D2C0C60136
S1134F700E944909882399F46B2D80E30E946F0CE9
S1134F80C4010E946F0584E00E94D908182F80E3B1
S1134F900E94D908682F812F0E94A30596C260E061
S1134FA070E0C6010E94C905BC0181E00E942E0682
S1134FB01C01E12EFF240894E108F108F694E7941B
S1134FC0AE2C60E070E0C6010E941D09FC018081E6
S1134FD09927582E442481819927482A592A61E027
S1134FE070E06C0F7D1F8B2D0E94B50C813079F41D
S1134FF0C4010E946F0584E00E94D908182F80E341
S11350000E94D908682F812F0E94A3055EC20E2D2D
S11350101127000F111F802F8F5F482F61E070E070
S11350206C0F7D1F80E60E947507682E772466202A
S113503099F06B2D80E30E946F0CC4010E946F05F0
S113504084E00E94D908182F80E30E94D908682FB1
S1135050812F0E94A30539C260E070E081E090E0F6
S11350608C0F9D1F0E94C905BC0180E60E942E067C
S1135070AC01892B99F46B2D80E30E946F0CC40161
S11350800E946F0584E00E94D908182F80E30E94D3
S1135090D908682F812F0E94A30517C28E2D8F7007
S11350A08068DA018C936E14C8F46E2D020D131D02
S11350B001501040F80180819927982F8827218179
S11350C03327822B932BFD018283892F9927818398
S11350D06150129602501040662361F7AA2059F0DD
S11350E0FA0181819927982F882722813327822BDF
S11350F0932BBC0101C0B20181E090E08C0F9D1F95
S11351000E945D0681E090E08C0F9D1F0E94450681
S1135110FDC160E070E0C6010E94C905BC0180E6E3
S11351200E94520B882309F449C160E070E0C60173
S11351300E94C905BC0180E60E942E063C01DC01E8
S11351408C919927B4E095958795BA95E1F7877086
S11351509070882361F460E070E0C6010E941D092C
S1135160FC0180819927182F0027818106C0F30153
S113517081819927182F002782819927082B192BC1
S11351800E942A020817190709F4B9C0280161E02E
S113519070E06C0F7D1F8B2D0E94B50C813079F46B
S11351A0C4010E946F0584E00E94D908182F80E38F
S11351B00E94D908682F812F0E94A30586C163E04D
S11351C0F62E60E070E0C6010E94C9054FEFBC01F5
S11351D08F2D0E94E40460E070E0C6010E94C905BE
S11351E055E4252E312C2C0E3D1EBE016A5B7F4FEB
S11351F081E090E08C0F9D1F0E945707BC01FE01C7
S1135200EA5BFF4F808140E3E42E082F27E0A101F1
S11352108F2D0E946606182F81E090E08C0F9D1F51
S11352200E943107112399F06B2D8E2D0E946F0C73
S1135230C4010E946F0584E00E94D908182F8E2DA6
S11352400E94D908682F812F0E94A3053EC1D10175
S11352501C9160E070E081E090E08C0F9D1F0E9443
S1135260C905412FBC018F2D0E941C067C010097AB
S113527099F46B2D80E30E946F0CC4010E946F05AA
S113528084E00E94D908182F80E30E94D908682F6F
S1135290812F0E94A30519C1FC0120812F70206178
S11352A02083D3018C91992734E0959587953A957D
S11352B0E1F7207F87709070282B2083F601878187
S11352C09927982F882726813327822B932BF70140
S11352D08683892F9927858387010F5F1F4F0E943B
S11352E02A02F8018183892F9927F7018183448257
S11352F0852D99278383F1E02896FFAF2897D30162
S11353008C91282F3327C901880F892F881F990B67
S11353109195892B49F4E4E035952795EA95E1F7D1
S113532027703070203150F041E06B2D80E30E94F3
S11353303A086B2D80E30E946F0C2AC0F40173E0DD
S1135340F695E7957A95E1F7E955F44FB7E08B22A6
S1135350992481E090E002C0880F991F8A94E2F7B3
S11353602081282B20830E942A028C0160E070E0B7
S1135370C6010E941D09FC0182819927982F882764
S113538023813327822B932B682F802F0E94D317DE
S11353902896EFAD2897EE2309F0B2C08B2D9927FC
S11353A00E946F0584E00E94D908182F80E30E94B0
S11353B0D908682F812F0E94A30587C060E070E0A0
S11353C0C6010E941D09FC0182819927582E44249C
S11353D083819927482A592A84E4A1E0B0E0AC0FDC
S11353E0BD1FF60101900D928A95E1F7A20161E0DB
S11353F070E06C0F7D1F8B2D0E940F0D813009F022
S113540085C06B2D80E30E946F0CC4010E946F0560
S113541084E00E94D908182F80E30E94D908682FDD
S1135420812F0E94A30551C06B2D84E00E94F908CE
S11354306C010097E1F1B8010E941D09FC01828111
S11354409927582E442483819927482A592A84E489
S1135450A1E0B0E0AC0FBD1FF60101900D928A955A
S1135460E1F761E070E06C0F7D1F8B2D0E94B50C9D
S1135470813059F0A20161E070E06C0F7D1F8B2D2B
S11354800E940F0D813009F041C08B2D0E949E0CAB
S1135490C4010E946F0584E00E94D908182F80E39C
S11354A00E94D908682F812F0E94A3050EC0C40151
S11354B00E946F0584E00E94D908182F80E30E949F
S11354C0D908682F812F0E94A305B82E40E050E030
S11354D0F8E28F1711F441E050E020E030E088E278
S11354E0B81611F421E030E080E090E0442321F08C
S11354F0222311F081E090E0892B09F40DCD52C0F4
S11355002896AFAD2897AA2309F44CC00B2D112778
S113551081E090E08C0F9D1F0E949F098450992781
S1135520282F41E050E04C0F5D1FB20181E00E9442
S1135530F61E99278230910571F0833091051CF491
S1135540892B29F012C00497029778F42BC0C80164
S11355500E946F050AC0C8010E946F058B2D0E942E
S11355609E0C84E00E9480001DC0C6010E94C005FC
S11355708033C1F460E070E0C6010E94C905BC013B
S113558081E00E94520B882369F0C6010E944909F8
S1135590882341F0B60181E00E94D509B6018B2D24
S11355A00E942924C95BDF4F0FB6F894DEBF0FBEFB
S11355B0CDBFDF91CF911F910F91FF90EF90DF90BE
S11355C0CF90BF90AF909F908F907F906F905F909F
S11355D04F903F902F9008959F92AF92BF92CF9299
S11355E0DF92EF92FF920F931F93CF93DF93CDB788
S11355F0DEB721970FB6F894DEBF0FBECDBF992753
S1135600AA27BB27FC01429708F0A1C6EA5BFF4F1B
S1135610EE0FFF1F0590F491E02D09944091430192
S1135620442349F58FB7F894282F3327E090DA08FC
S1135630F090DB080091DC081091DD0880914F0B9D
S11356409091500BA091510BB091520BE80EF91EA2
S11356500A1F1B1F2FBF8091830B9091840BA09175
S1135660850BB091860B409343019C01AD01C801A9
S1135670B7010E94550F0E946301DC01CB01BC01FC
S1135680CD0143C00E9463017B018C017FEFA72EF3
S11356907FEFB72E7FEFC72E7FE7D72E70E08FB74F
S11356A0F894992770930A0B8FBFE8E2F1E062E067
S11356B0808581FF1CC080819181A281B381A80172
S11356C09701281B390B4A0B5B0BDA01C9012481B2
S11356D0358146815781281B390B4A0B5B0B2A15F0
S11356E03B054C055D051CF459016A0171E06150EC
S11356F0399667FFDDCF772309F429C61A141B04F2
S11357001C041D042CF0C801B7010E94E7141FC635
S1135710A092830BB092840BC092850BD092860B1F
S113572081E080934301A6019501C801B7010E945D
S1135730550F0DC680919501882309F408C69090F1
S1135740471138E2931609F402C6A92CBB24F501CB
S1135750EE0FFF1FEA0DFB1DE854F84F2081822F46
S113576099278F719070029709F0E1C0E180F2806F
S1135770922F907E9460908380912D07831711F46B
S113578090922D07929596959770892F992751E0BD
S1135790C52ED12CC822D92280FDA5C0C7010E94E4
S11357A0C005282F33272430310521F0203331055B
S11357B059F197C0B601C7010E941D09FC018281FD
S11357C09927782F662783819927682B792B4FEFA8
S11357D06F3F740731F4C7010E945D06692D84E0B0
S11357E07DC00E942A028C01B601C7010E941D09D6
S11357F0FC0182819927982F882723813327822BC4
S1135800932B682F802F5FC0B601C7010E941D092A
S1135810FC0182819927182F002783819927082B5F
S1135820192BB601C7010E94C905BC0181E00E9481
S1135830520B8823D9F1C8010E94FF0E082F96014C
S1135840883211F421E030E0C601083211F481E01D
S113585090E0B601222321F0882311F061E070E08A
S1135860672BA1F5602F84E00E94830E182F602F10
S113587080E30E94830E1F3F11F4992702C0812FF9
S11358809927E82EFF24F501EE0FFF1FEA0DFB1DFB
S1135890E854F84F01811281C8010E94C005803389
S11358A0A9F46E2DC8010E94A20E10C0B601C70152
S11358B00E94C905BC0180E60E94520B882331F482
S11358C00E942A02602F0E942A1831C0E92DFF2766
S11358D0E15EFE4E82E08083692D80E30E94420DEA
S11358E026C0692D22C0C7010E94DB051091471113
S11358F0882321F0C7010E94C00503C0C7010E948C
S1135900C005282F33272430310521F020333105F9
S113591031F00AC0B701812F0E94F32308C0B701F8
S1135920812F0E94292403C0612F0E946F0C62E022
S113593087E491E10E94320580914711883208F092
S113594006C582E01DC480919501882309F4FFC433
S11359508091D608883209F4FAC49927FC01EE0F25
S1135960FF1FE80FF91FE854F84F808199278871C9
S11359709070892B09F49AC0E180F280BE016F5FB8
S11359807F4FC7010E941D098091D6089927FC0109
S1135990EE0FFF1FE80FF91FE854F84F8081992795
S11359A08F7190708830910531F0409709F07EC076
S11359B0C7010E94EA0B61E084E00E944602813044
S11359C009F4C5C4C7010E94C005F7019781292FB6
S11359D03327D22ECC249681292F3327C22AD32AC7
S11359E0082F11270430110521F00033110529F087
S11359F008C0C7010E94C40505C0C7010E94C405B0
S1135A0001C08FEFA82EBB240430110521F0003310
S1135A10110569F01AC0B601C7010E945D0664E071
S1135A20C7010E9463064A2DB70181E00BC0B6018D
S1135A30C7010E945D0660E3C7010E9463064A2D08
S1135A40B70180E00E945B1A01C081E0992782308F
S1135A50910509F18330910534F4009709F477C472
S1135A60019761F023C08530910579F08630910566
S1135A701CF4049751F01AC00697C1F48FB7F89438
S1135A809927109271078FBF11C08FB7F894992787
S1135A90109271073EC28FB7F8949927109271073C
S1135AA08FBF60E3C7010E947D090EC08091D608B4
S1135AB00E940A0C68E186ED98E00E94320580910C
S1135AC0D608883208F043C483E05AC30E945127A1
S1135AD03EC480E090E020915307222311F481E03A
S1135AE090E0082F1127002309F480C01092540B72
S1135AF080910807843109F02AC49090A60BAA2447
S1135B00EE24FF24C7010E94B603882329F167010C
S1135B1073E0D694C7947A95E1F7F601E451F94F0E
S1135B2097012770307081E090E002C0880F991FC0
S1135B302A95E2F7B82EB09480818B2180838A2D38
S1135B400E941005082F1127002349F1F601E3579D
S1135B50F84F80818B2122C0C7010E949A038823B9
S1135B6041F18A2D0E941005082F1127002309F105
S1135B70F70163E0F695E7956A95E1F7E357F84F87
S1135B8097012770307081E090E002C0880F991F60
S1135B902A95E2F7982F9095808189238083402F5E
S1135BA06A2D892D0E94AB15402F6A2D892D0E94E4
S1135BB0820DA3940894E11CF11CF4E1EF16F104A6
S1135BC008F4A0CF20E030E080910A09882321F472
S1135BD08091A60B981611F021E030E0232B09F4F4
S1135BE0B6C364E1892D0E948B0FB1C3822F81500B
S1135BF080935307682F802F0E942A03402FE09040
S1135C00530751E0F52EFE1408F044C0EF2DFF2792
S1135C109F012F5F3F4F8E2D992728173907ACF42A
S1135C20ED50F94F21818081E82FFF27E057F84F8D
S1135C3080819927E22FFF27E057F84F2081821BAC
S1135C409109181619060CF4F394E42FFF27ED506C
S1135C50F94F20810F2D1127F801ED50F94F808164
S1135C60E82FFF27E057F84F80819927E22FFF277D
S1135C70E057F84F2081821B91091816190654F039
S1135C806F2D842F0E942A034F2D000F111FF02E19
S1135C90F394B9CF80915307E82FFF27ED50F94FC4
S1135CA08081282F3327F901EE58F84F84E180834F
S1135CB0B22EC22EDD24D601A75ABE4FF601E95AF0
S1135CC0F84F80818C9380910807281739F410923B
S1135CD06C070E941F0385E00E948000F601E257D2
S1135CE0F44F20813CC0022F1127F801E00FF11F6F
